{
  "_format": "hh-sol-artifact-1",
  "contractName": "NftCollectionFactory",
  "sourceName": "contracts/NftCollectionFactory.sol",
  "abi": [
    {
      "anonymous": false,
      "inputs": [
        {
          "indexed": false,
          "internalType": "string",
          "name": "_artistName",
          "type": "string"
        },
        {
          "indexed": false,
          "internalType": "string",
          "name": "_artistSymbol",
          "type": "string"
        },
        {
          "indexed": false,
          "internalType": "address",
          "name": "_collectionAddress",
          "type": "address"
        },
        {
          "indexed": false,
          "internalType": "uint256",
          "name": "_timestamp",
          "type": "uint256"
        }
      ],
      "name": "NFTCollectionCreated",
      "type": "event"
    },
    {
      "inputs": [
        {
          "internalType": "string",
          "name": "",
          "type": "string"
        }
      ],
      "name": "collectionDetails",
      "outputs": [
        {
          "internalType": "string",
          "name": "name",
          "type": "string"
        },
        {
          "internalType": "string",
          "name": "symbol",
          "type": "string"
        },
        {
          "internalType": "address",
          "name": "collectionAddress",
          "type": "address"
        }
      ],
      "stateMutability": "view",
      "type": "function"
    },
    {
      "inputs": [
        {
          "internalType": "uint256",
          "name": "",
          "type": "uint256"
        }
      ],
      "name": "collectionsSymbols",
      "outputs": [
        {
          "internalType": "string",
          "name": "",
          "type": "string"
        }
      ],
      "stateMutability": "view",
      "type": "function"
    },
    {
      "inputs": [
        {
          "internalType": "string",
          "name": "_artistName",
          "type": "string"
        },
        {
          "internalType": "string",
          "name": "_artistSymbol",
          "type": "string"
        }
      ],
      "name": "createNFTCollection",
      "outputs": [
        {
          "internalType": "address",
          "name": "collectionAddress",
          "type": "address"
        }
      ],
      "stateMutability": "nonpayable",
      "type": "function"
    },
    {
      "inputs": [],
      "name": "nbrCollections",
      "outputs": [
        {
          "internalType": "uint256",
          "name": "",
          "type": "uint256"
        }
      ],
      "stateMutability": "view",
      "type": "function"
    }
  ],
  "bytecode": "0x608060405234801561001057600080fd5b50612785806100206000396000f3fe60806040523480156200001157600080fd5b5060043610620000525760003560e01c806366223a181462000057578063a38c9aa2146200008b578063cb57661314620000a4578063e9faaa9214620000cc575b600080fd5b6200006e6200006836600462000718565b620000f2565b6040516001600160a01b0390911681526020015b60405180910390f35b6200009560015481565b60405190815260200162000082565b620000bb620000b536600462000783565b620003da565b604051620000829392919062000818565b620000e3620000dd3660046200085a565b62000530565b60405162000082919062000874565b600080835111801562000106575060008251115b6200016e5760405162461bcd60e51b815260206004820152602d60248201527f417274697374206e616d6520616e642073796d626f6c206d757374206e6f742060448201526c3132903ab73232b334b732b21760991b60648201526084015b60405180910390fd5b60028260405162000180919062000890565b908152602001604051809103902060010180546200019e90620008ae565b159050620001e75760405162461bcd60e51b815260206004820152601560248201527453796d626f6c20616c72656164792065786973747360581b604482015260640162000165565b6000620001f58484620005e5565b90506000846040516020016200020c919062000890565b604051602081830303815290604052805190602001209050808251602084016000f59250823b6200023c57600080fd5b60405163f2fde38b60e01b81523360048201526001600160a01b0384169063f2fde38b90602401600060405180830381600087803b1580156200027e57600080fd5b505af115801562000293573d6000803e3d6000fd5b505060018054925090506000620002aa83620008ea565b919050555084600285604051620002c2919062000890565b90815260405190819003602001902090620002de908262000965565b5083600285604051620002f2919062000890565b9081526020016040518091039020600101908162000311919062000965565b508260028560405162000325919062000890565b90815260405190819003602001902060020180546001600160a01b03929092166001600160a01b0319909216919091179055600080546001810182559080527f290decd9548b62a8d60345a988386fc84ba6bc95484008f6362f93160ef3e5630162000392858262000965565b507f7e43efb107a1ee87684f21d01bd9aa430db7c7aa3653fac7ddc509318abf380885858542604051620003ca949392919062000a32565b60405180910390a1505092915050565b80516020818301810180516002825292820191909301209152805481906200040290620008ae565b80601f01602080910402602001604051908101604052809291908181526020018280546200043090620008ae565b8015620004815780601f10620004555761010080835404028352916020019162000481565b820191906000526020600020905b8154815290600101906020018083116200046357829003601f168201915b5050505050908060010180546200049890620008ae565b80601f0160208091040260200160405190810160405280929190818152602001828054620004c690620008ae565b8015620005175780601f10620004eb5761010080835404028352916020019162000517565b820191906000526020600020905b815481529060010190602001808311620004f957829003601f168201915b505050600290930154919250506001600160a01b031683565b600081815481106200054157600080fd5b9060005260206000200160009150905080546200055e90620008ae565b80601f01602080910402602001604051908101604052809291908181526020018280546200058c90620008ae565b8015620005dd5780601f10620005b157610100808354040283529160200191620005dd565b820191906000526020600020905b815481529060010190602001808311620005bf57829003601f168201915b505050505081565b6060600060405180602001620005fb906200065f565b6020820181038252601f19601f8201166040525090508084846040516020016200062792919062000a78565b60408051601f198184030181529082905262000647929160200162000aaa565b60405160208183030381529060405291505092915050565b611c728062000ade83390190565b634e487b7160e01b600052604160045260246000fd5b600082601f8301126200069557600080fd5b813567ffffffffffffffff80821115620006b357620006b36200066d565b604051601f8301601f19908116603f01168101908282118183101715620006de57620006de6200066d565b81604052838152866020858801011115620006f857600080fd5b836020870160208301376000602085830101528094505050505092915050565b600080604083850312156200072c57600080fd5b823567ffffffffffffffff808211156200074557600080fd5b620007538683870162000683565b935060208501359150808211156200076a57600080fd5b50620007798582860162000683565b9150509250929050565b6000602082840312156200079657600080fd5b813567ffffffffffffffff811115620007ae57600080fd5b620007bc8482850162000683565b949350505050565b60005b83811015620007e1578181015183820152602001620007c7565b50506000910152565b6000815180845262000804816020860160208601620007c4565b601f01601f19169290920160200192915050565b6060815260006200082d6060830186620007ea565b8281036020840152620008418186620007ea565b91505060018060a01b0383166040830152949350505050565b6000602082840312156200086d57600080fd5b5035919050565b602081526000620008896020830184620007ea565b9392505050565b60008251620008a4818460208701620007c4565b9190910192915050565b600181811c90821680620008c357607f821691505b602082108103620008e457634e487b7160e01b600052602260045260246000fd5b50919050565b6000600182016200090b57634e487b7160e01b600052601160045260246000fd5b5060010190565b601f8211156200096057600081815260208120601f850160051c810160208610156200093b5750805b601f850160051c820191505b818110156200095c5782815560010162000947565b5050505b505050565b815167ffffffffffffffff8111156200098257620009826200066d565b6200099a81620009938454620008ae565b8462000912565b602080601f831160018114620009d25760008415620009b95750858301515b600019600386901b1c1916600185901b1785556200095c565b600085815260208120601f198616915b8281101562000a0357888601518255948401946001909101908401620009e2565b508582101562000a225787850151600019600388901b60f8161c191681555b5050505050600190811b01905550565b60808152600062000a476080830187620007ea565b828103602084015262000a5b8187620007ea565b6001600160a01b0395909516604084015250506060015292915050565b60408152600062000a8d6040830185620007ea565b828103602084015262000aa18185620007ea565b95945050505050565b6000835162000abe818460208801620007c4565b83519083019062000ad4818360208801620007c4565b0194935050505056fe60806040523480156200001157600080fd5b5060405162001c7238038062001c72833981016040819052620000349162000193565b818160006200004483826200028c565b5060016200005382826200028c565b505050620000706200006a6200007860201b60201c565b6200007c565b505062000358565b3390565b600780546001600160a01b038381166001600160a01b0319831681179093556040519116919082907f8be0079c531659141344cd1fd0a4f28419497f9722a3daafe3b4186f6b6457e090600090a35050565b634e487b7160e01b600052604160045260246000fd5b600082601f830112620000f657600080fd5b81516001600160401b0380821115620001135762000113620000ce565b604051601f8301601f19908116603f011681019082821181831017156200013e576200013e620000ce565b816040528381526020925086838588010111156200015b57600080fd5b600091505b838210156200017f578582018301518183018401529082019062000160565b600093810190920192909252949350505050565b60008060408385031215620001a757600080fd5b82516001600160401b0380821115620001bf57600080fd5b620001cd86838701620000e4565b93506020850151915080821115620001e457600080fd5b50620001f385828601620000e4565b9150509250929050565b600181811c908216806200021257607f821691505b6020821081036200023357634e487b7160e01b600052602260045260246000fd5b50919050565b601f8211156200028757600081815260208120601f850160051c81016020861015620002625750805b601f850160051c820191505b8181101562000283578281556001016200026e565b5050505b505050565b81516001600160401b03811115620002a857620002a8620000ce565b620002c081620002b98454620001fd565b8462000239565b602080601f831160018114620002f85760008415620002df5750858301515b600019600386901b1c1916600185901b17855562000283565b600085815260208120601f198616915b82811015620003295788860151825594840194600190910190840162000308565b5085821015620003485787850151600019600388901b60f8161c191681555b5050505050600190811b01905550565b61190a80620003686000396000f3fe608060405234801561001057600080fd5b50600436106101215760003560e01c80638da5cb5b116100ad578063b88d4fde11610071578063b88d4fde1461024d578063c754584914610260578063c87b56dd14610273578063e985e9c514610286578063f2fde38b1461029957600080fd5b80638da5cb5b146102055780638fba3f7c1461021657806395d89b41146102295780639d63848a14610231578063a22cb4651461023a57600080fd5b806323b872dd116100f457806323b872dd146101a357806342842e0e146101b65780636352211e146101c957806370a08231146101dc578063715018a6146101fd57600080fd5b806301ffc9a71461012657806306fdde031461014e578063081812fc14610163578063095ea7b31461018e575b600080fd5b6101396101343660046112d4565b6102ac565b60405190151581526020015b60405180910390f35b6101566102fe565b6040516101459190611341565b610176610171366004611354565b610390565b6040516001600160a01b039091168152602001610145565b6101a161019c366004611389565b6103b7565b005b6101a16101b13660046113b3565b6104d1565b6101a16101c43660046113b3565b610502565b6101766101d7366004611354565b61051d565b6101ef6101ea3660046113ef565b61057d565b604051908152602001610145565b6101a1610603565b6007546001600160a01b0316610176565b6101a1610224366004611389565b610617565b610156610626565b6101ef60085481565b6101a161024836600461140a565b610635565b6101a161025b3660046114d2565b610640565b6101a161026e36600461154e565b610678565b610156610281366004611354565b61072a565b610139610294366004611597565b61083a565b6101a16102a73660046113ef565b610868565b60006001600160e01b031982166380ac58cd60e01b14806102dd57506001600160e01b03198216635b5e139f60e01b145b806102f857506301ffc9a760e01b6001600160e01b03198316145b92915050565b60606000805461030d906115ca565b80601f0160208091040260200160405190810160405280929190818152602001828054610339906115ca565b80156103865780601f1061035b57610100808354040283529160200191610386565b820191906000526020600020905b81548152906001019060200180831161036957829003601f168201915b5050505050905090565b600061039b826108e1565b506000908152600460205260409020546001600160a01b031690565b60006103c28261051d565b9050806001600160a01b0316836001600160a01b0316036104345760405162461bcd60e51b815260206004820152602160248201527f4552433732313a20617070726f76616c20746f2063757272656e74206f776e656044820152603960f91b60648201526084015b60405180910390fd5b336001600160a01b03821614806104505750610450813361083a565b6104c25760405162461bcd60e51b815260206004820152603d60248201527f4552433732313a20617070726f76652063616c6c6572206973206e6f7420746f60448201527f6b656e206f776e6572206f7220617070726f76656420666f7220616c6c000000606482015260840161042b565b6104cc8383610940565b505050565b6104db33826109ae565b6104f75760405162461bcd60e51b815260040161042b90611604565b6104cc838383610a0c565b6104cc83838360405180602001604052806000815250610640565b6000818152600260205260408120546001600160a01b0316806102f85760405162461bcd60e51b8152602060048201526018602482015277115490cdcc8c4e881a5b9d985b1a59081d1bdad95b88125160421b604482015260640161042b565b60006001600160a01b0382166105e75760405162461bcd60e51b815260206004820152602960248201527f4552433732313a2061646472657373207a65726f206973206e6f7420612076616044820152683634b21037bbb732b960b91b606482015260840161042b565b506001600160a01b031660009081526003602052604090205490565b61060b610b7d565b6106156000610bd7565b565b610622328383610a0c565b5050565b60606001805461030d906115ca565b610622338383610c29565b61064a33836109ae565b6106665760405162461bcd60e51b815260040161042b90611604565b61067284848484610cf7565b50505050565b6007546001600160a01b031632146106e25760405162461bcd60e51b815260206004820152602760248201527f4e6674436f6c6c656374696f6e203a2063616c6c6572206973206e6f74207468604482015266329037bbb732b960c91b606482015260840161042b565b6106fa3260085460016106f59190611667565b610d2a565b610712600854600161070c9190611667565b82610ec3565b600880549060006107228361167a565b919050555050565b6060610735826108e1565b6000828152600660205260408120805461074e906115ca565b80601f016020809104026020016040519081016040528092919081815260200182805461077a906115ca565b80156107c75780601f1061079c576101008083540402835291602001916107c7565b820191906000526020600020905b8154815290600101906020018083116107aa57829003601f168201915b5050505050905060006107e560408051602081019091526000815290565b905080516000036107f7575092915050565b815115610829578082604051602001610811929190611693565b60405160208183030381529060405292505050919050565b61083284610f56565b949350505050565b6001600160a01b03918216600090815260056020908152604080832093909416825291909152205460ff1690565b610870610b7d565b6001600160a01b0381166108d55760405162461bcd60e51b815260206004820152602660248201527f4f776e61626c653a206e6577206f776e657220697320746865207a65726f206160448201526564647265737360d01b606482015260840161042b565b6108de81610bd7565b50565b6000818152600260205260409020546001600160a01b03166108de5760405162461bcd60e51b8152602060048201526018602482015277115490cdcc8c4e881a5b9d985b1a59081d1bdad95b88125160421b604482015260640161042b565b600081815260046020526040902080546001600160a01b0319166001600160a01b03841690811790915581906109758261051d565b6001600160a01b03167f8c5be1e5ebec7d5bd14f71427d1e84f3dd0314c0f7b2291e5b200ac8c7c3b92560405160405180910390a45050565b6000806109ba8361051d565b9050806001600160a01b0316846001600160a01b031614806109e157506109e1818561083a565b806108325750836001600160a01b03166109fa84610390565b6001600160a01b031614949350505050565b826001600160a01b0316610a1f8261051d565b6001600160a01b031614610a455760405162461bcd60e51b815260040161042b906116c2565b6001600160a01b038216610aa75760405162461bcd60e51b8152602060048201526024808201527f4552433732313a207472616e7366657220746f20746865207a65726f206164646044820152637265737360e01b606482015260840161042b565b610ab48383836001610fca565b826001600160a01b0316610ac78261051d565b6001600160a01b031614610aed5760405162461bcd60e51b815260040161042b906116c2565b600081815260046020908152604080832080546001600160a01b03199081169091556001600160a01b0387811680865260038552838620805460001901905590871680865283862080546001019055868652600290945282852080549092168417909155905184937fddf252ad1be2c89b69c2b068fc378daa952ba7f163c4a11628f55a4df523b3ef91a4505050565b6007546001600160a01b031633146106155760405162461bcd60e51b815260206004820181905260248201527f4f776e61626c653a2063616c6c6572206973206e6f7420746865206f776e6572604482015260640161042b565b600780546001600160a01b038381166001600160a01b0319831681179093556040519116919082907f8be0079c531659141344cd1fd0a4f28419497f9722a3daafe3b4186f6b6457e090600090a35050565b816001600160a01b0316836001600160a01b031603610c8a5760405162461bcd60e51b815260206004820152601960248201527f4552433732313a20617070726f766520746f2063616c6c657200000000000000604482015260640161042b565b6001600160a01b03838116600081815260056020908152604080832094871680845294825291829020805460ff191686151590811790915591519182527f17307eab39ab6107e8899845ad3d59bd9653f200f220920489ca2b5937696c31910160405180910390a3505050565b610d02848484610a0c565b610d0e84848484611052565b6106725760405162461bcd60e51b815260040161042b90611707565b6001600160a01b038216610d805760405162461bcd60e51b815260206004820181905260248201527f4552433732313a206d696e7420746f20746865207a65726f2061646472657373604482015260640161042b565b6000818152600260205260409020546001600160a01b031615610de55760405162461bcd60e51b815260206004820152601c60248201527f4552433732313a20746f6b656e20616c7265616479206d696e74656400000000604482015260640161042b565b610df3600083836001610fca565b6000818152600260205260409020546001600160a01b031615610e585760405162461bcd60e51b815260206004820152601c60248201527f4552433732313a20746f6b656e20616c7265616479206d696e74656400000000604482015260640161042b565b6001600160a01b038216600081815260036020908152604080832080546001019055848352600290915280822080546001600160a01b0319168417905551839291907fddf252ad1be2c89b69c2b068fc378daa952ba7f163c4a11628f55a4df523b3ef908290a45050565b6000828152600260205260409020546001600160a01b0316610f3e5760405162461bcd60e51b815260206004820152602e60248201527f45524337323155524953746f726167653a2055524920736574206f66206e6f6e60448201526d32bc34b9ba32b73a103a37b5b2b760911b606482015260840161042b565b60008281526006602052604090206104cc82826117a7565b6060610f61826108e1565b6000610f7860408051602081019091526000815290565b90506000815111610f985760405180602001604052806000815250610fc3565b80610fa284611153565b604051602001610fb3929190611693565b6040516020818303038152906040525b9392505050565b6001811115610672576001600160a01b03841615611010576001600160a01b0384166000908152600360205260408120805483929061100a908490611867565b90915550505b6001600160a01b03831615610672576001600160a01b03831660009081526003602052604081208054839290611047908490611667565b909155505050505050565b60006001600160a01b0384163b1561114857604051630a85bd0160e11b81526001600160a01b0385169063150b7a029061109690339089908890889060040161187a565b6020604051808303816000875af19250505080156110d1575060408051601f3d908101601f191682019092526110ce918101906118b7565b60015b61112e573d8080156110ff576040519150601f19603f3d011682016040523d82523d6000602084013e611104565b606091505b5080516000036111265760405162461bcd60e51b815260040161042b90611707565b805181602001fd5b6001600160e01b031916630a85bd0160e11b149050610832565b506001949350505050565b60606000611160836111e6565b600101905060008167ffffffffffffffff81111561118057611180611446565b6040519080825280601f01601f1916602001820160405280156111aa576020820181803683370190505b5090508181016020015b600019016f181899199a1a9b1b9c1cb0b131b232b360811b600a86061a8153600a85049450846111b457509392505050565b60008072184f03e93ff9f4daa797ed6e38ed64bf6a1f0160401b83106112255772184f03e93ff9f4daa797ed6e38ed64bf6a1f0160401b830492506040015b6d04ee2d6d415b85acef81000000008310611251576d04ee2d6d415b85acef8100000000830492506020015b662386f26fc10000831061126f57662386f26fc10000830492506010015b6305f5e1008310611287576305f5e100830492506008015b612710831061129b57612710830492506004015b606483106112ad576064830492506002015b600a83106102f85760010192915050565b6001600160e01b0319811681146108de57600080fd5b6000602082840312156112e657600080fd5b8135610fc3816112be565b60005b8381101561130c5781810151838201526020016112f4565b50506000910152565b6000815180845261132d8160208601602086016112f1565b601f01601f19169290920160200192915050565b602081526000610fc36020830184611315565b60006020828403121561136657600080fd5b5035919050565b80356001600160a01b038116811461138457600080fd5b919050565b6000806040838503121561139c57600080fd5b6113a58361136d565b946020939093013593505050565b6000806000606084860312156113c857600080fd5b6113d18461136d565b92506113df6020850161136d565b9150604084013590509250925092565b60006020828403121561140157600080fd5b610fc38261136d565b6000806040838503121561141d57600080fd5b6114268361136d565b91506020830135801515811461143b57600080fd5b809150509250929050565b634e487b7160e01b600052604160045260246000fd5b600067ffffffffffffffff8084111561147757611477611446565b604051601f8501601f19908116603f0116810190828211818310171561149f5761149f611446565b816040528093508581528686860111156114b857600080fd5b858560208301376000602087830101525050509392505050565b600080600080608085870312156114e857600080fd5b6114f18561136d565b93506114ff6020860161136d565b925060408501359150606085013567ffffffffffffffff81111561152257600080fd5b8501601f8101871361153357600080fd5b6115428782356020840161145c565b91505092959194509250565b60006020828403121561156057600080fd5b813567ffffffffffffffff81111561157757600080fd5b8201601f8101841361158857600080fd5b6108328482356020840161145c565b600080604083850312156115aa57600080fd5b6115b38361136d565b91506115c16020840161136d565b90509250929050565b600181811c908216806115de57607f821691505b6020821081036115fe57634e487b7160e01b600052602260045260246000fd5b50919050565b6020808252602d908201527f4552433732313a2063616c6c6572206973206e6f7420746f6b656e206f776e6560408201526c1c881bdc88185c1c1c9bdd9959609a1b606082015260800190565b634e487b7160e01b600052601160045260246000fd5b808201808211156102f8576102f8611651565b60006001820161168c5761168c611651565b5060010190565b600083516116a58184602088016112f1565b8351908301906116b98183602088016112f1565b01949350505050565b60208082526025908201527f4552433732313a207472616e736665722066726f6d20696e636f72726563742060408201526437bbb732b960d91b606082015260800190565b60208082526032908201527f4552433732313a207472616e7366657220746f206e6f6e20455243373231526560408201527131b2b4bb32b91034b6b83632b6b2b73a32b960711b606082015260800190565b601f8211156104cc57600081815260208120601f850160051c810160208610156117805750805b601f850160051c820191505b8181101561179f5782815560010161178c565b505050505050565b815167ffffffffffffffff8111156117c1576117c1611446565b6117d5816117cf84546115ca565b84611759565b602080601f83116001811461180a57600084156117f25750858301515b600019600386901b1c1916600185901b17855561179f565b600085815260208120601f198616915b828110156118395788860151825594840194600190910190840161181a565b50858210156118575787850151600019600388901b60f8161c191681555b5050505050600190811b01905550565b818103818111156102f8576102f8611651565b6001600160a01b03858116825284166020820152604081018390526080606082018190526000906118ad90830184611315565b9695505050505050565b6000602082840312156118c957600080fd5b8151610fc3816112be56fea2646970667358221220c5d63c2cf57b433f28c6c43c03b7393435eec0f3399921ff00cbbdf0862a4d5164736f6c63430008110033a2646970667358221220b4fd675ea89d0c421a05faacc2ea7c36e75cd5756a4be0da8ce90920af1112c164736f6c63430008110033",
  "linkReferences": {},
  "deployedLinkReferences": {}
}