{
  "_format": "hh-sol-artifact-1",
  "contractName": "NftMarketplace",
  "sourceName": "contracts/NftMarketplace.sol",
  "abi": [
    {
      "inputs": [],
      "stateMutability": "nonpayable",
      "type": "constructor"
    },
    {
      "anonymous": false,
      "inputs": [
        {
          "indexed": false,
          "internalType": "string",
          "name": "_artistName",
          "type": "string"
        },
        {
          "indexed": false,
          "internalType": "string",
          "name": "_artistSymbol",
          "type": "string"
        },
        {
          "indexed": false,
          "internalType": "address",
          "name": "_collectionAddress",
          "type": "address"
        },
        {
          "indexed": false,
          "internalType": "uint256",
          "name": "_timestamp",
          "type": "uint256"
        }
      ],
      "name": "NFTCollectionCreated",
      "type": "event"
    },
    {
      "anonymous": false,
      "inputs": [
        {
          "indexed": false,
          "internalType": "uint256",
          "name": "tokenID",
          "type": "uint256"
        },
        {
          "indexed": false,
          "internalType": "address",
          "name": "collection",
          "type": "address"
        },
        {
          "indexed": false,
          "internalType": "address",
          "name": "to",
          "type": "address"
        },
        {
          "indexed": false,
          "internalType": "string",
          "name": "tokenURI",
          "type": "string"
        }
      ],
      "name": "NFTCreated",
      "type": "event"
    },
    {
      "anonymous": false,
      "inputs": [
        {
          "indexed": false,
          "internalType": "uint256",
          "name": "itemId",
          "type": "uint256"
        },
        {
          "indexed": true,
          "internalType": "address",
          "name": "nft",
          "type": "address"
        },
        {
          "indexed": false,
          "internalType": "uint256",
          "name": "tokenId",
          "type": "uint256"
        },
        {
          "indexed": false,
          "internalType": "uint256",
          "name": "price",
          "type": "uint256"
        },
        {
          "indexed": true,
          "internalType": "address",
          "name": "seller",
          "type": "address"
        }
      ],
      "name": "NFTListed",
      "type": "event"
    },
    {
      "anonymous": false,
      "inputs": [
        {
          "indexed": false,
          "internalType": "uint256",
          "name": "itemId",
          "type": "uint256"
        },
        {
          "indexed": true,
          "internalType": "address",
          "name": "nft",
          "type": "address"
        },
        {
          "indexed": false,
          "internalType": "uint256",
          "name": "tokenId",
          "type": "uint256"
        },
        {
          "indexed": false,
          "internalType": "uint256",
          "name": "price",
          "type": "uint256"
        },
        {
          "indexed": true,
          "internalType": "address",
          "name": "seller",
          "type": "address"
        },
        {
          "indexed": true,
          "internalType": "address",
          "name": "buyer",
          "type": "address"
        }
      ],
      "name": "NFTPurchased",
      "type": "event"
    },
    {
      "inputs": [
        {
          "internalType": "uint256",
          "name": "tokenID",
          "type": "uint256"
        }
      ],
      "name": "BuyNFT",
      "outputs": [],
      "stateMutability": "payable",
      "type": "function"
    },
    {
      "inputs": [
        {
          "internalType": "uint256",
          "name": "tokenID",
          "type": "uint256"
        }
      ],
      "name": "cancelListing",
      "outputs": [],
      "stateMutability": "nonpayable",
      "type": "function"
    },
    {
      "inputs": [
        {
          "internalType": "string",
          "name": "",
          "type": "string"
        }
      ],
      "name": "collectionDetails",
      "outputs": [
        {
          "internalType": "string",
          "name": "name",
          "type": "string"
        },
        {
          "internalType": "string",
          "name": "symbol",
          "type": "string"
        },
        {
          "internalType": "address",
          "name": "collectionAddress",
          "type": "address"
        }
      ],
      "stateMutability": "view",
      "type": "function"
    },
    {
      "inputs": [
        {
          "internalType": "uint256",
          "name": "",
          "type": "uint256"
        }
      ],
      "name": "collectionsSymbols",
      "outputs": [
        {
          "internalType": "string",
          "name": "",
          "type": "string"
        }
      ],
      "stateMutability": "view",
      "type": "function"
    },
    {
      "inputs": [
        {
          "internalType": "string",
          "name": "tokenURI",
          "type": "string"
        },
        {
          "internalType": "address",
          "name": "collectionAddress",
          "type": "address"
        },
        {
          "internalType": "string",
          "name": "symbol",
          "type": "string"
        }
      ],
      "name": "createNFT",
      "outputs": [],
      "stateMutability": "nonpayable",
      "type": "function"
    },
    {
      "inputs": [
        {
          "internalType": "string",
          "name": "_artistName",
          "type": "string"
        },
        {
          "internalType": "string",
          "name": "_artistSymbol",
          "type": "string"
        }
      ],
      "name": "createNFTCollection",
      "outputs": [
        {
          "internalType": "address",
          "name": "collectionAddress",
          "type": "address"
        }
      ],
      "stateMutability": "nonpayable",
      "type": "function"
    },
    {
      "inputs": [
        {
          "internalType": "uint256",
          "name": "tokenID",
          "type": "uint256"
        },
        {
          "internalType": "uint256",
          "name": "price",
          "type": "uint256"
        }
      ],
      "name": "listNFT",
      "outputs": [],
      "stateMutability": "nonpayable",
      "type": "function"
    },
    {
      "inputs": [],
      "name": "nbrCollections",
      "outputs": [
        {
          "internalType": "uint256",
          "name": "",
          "type": "uint256"
        }
      ],
      "stateMutability": "view",
      "type": "function"
    },
    {
      "inputs": [],
      "name": "nbrNfts",
      "outputs": [
        {
          "internalType": "uint256",
          "name": "_value",
          "type": "uint256"
        }
      ],
      "stateMutability": "view",
      "type": "function"
    },
    {
      "inputs": [
        {
          "internalType": "uint256",
          "name": "",
          "type": "uint256"
        }
      ],
      "name": "nfts",
      "outputs": [
        {
          "internalType": "uint256",
          "name": "itemId",
          "type": "uint256"
        },
        {
          "internalType": "address",
          "name": "CollectionAddress",
          "type": "address"
        },
        {
          "internalType": "uint256",
          "name": "tokenId",
          "type": "uint256"
        },
        {
          "internalType": "uint256",
          "name": "price",
          "type": "uint256"
        },
        {
          "internalType": "address payable",
          "name": "seller",
          "type": "address"
        },
        {
          "internalType": "bool",
          "name": "listed",
          "type": "bool"
        },
        {
          "internalType": "string",
          "name": "URI",
          "type": "string"
        },
        {
          "internalType": "string",
          "name": "symbol",
          "type": "string"
        }
      ],
      "stateMutability": "view",
      "type": "function"
    }
  ],
  "bytecode": "0x608060405234801561001057600080fd5b506001600055613663806100256000396000f3fe6080604052600436106200009d5760003560e01c8063a37365e01162000060578063a37365e01462000195578063a38c9aa214620001ac578063bf1b6f5b14620001d3578063cb57661314620001ec578063e9faaa92146200022257600080fd5b8063265aa62114620000a2578063305a67a814620000e657806366223a18146200010d5780637f3212eb146200014b57806394383f141462000170575b600080fd5b348015620000af57600080fd5b50620000c7620000c1366004620013aa565b62000256565b604051620000dd98979695949392919062001418565b60405180910390f35b348015620000f357600080fd5b506200010b62000105366004620013aa565b620003d0565b005b3480156200011a57600080fd5b50620001326200012c36600462001533565b62000511565b6040516001600160a01b039091168152602001620000dd565b3480156200015857600080fd5b506200010b6200016a366004620015b4565b620007f7565b3480156200017d57600080fd5b506200010b6200018f36600462001635565b62000afc565b6200010b620001a6366004620013aa565b62000dc3565b348015620001b957600080fd5b50620001c460025481565b604051908152602001620000dd565b348015620001e057600080fd5b50600454620001c49081565b348015620001f957600080fd5b50620002116200020b36600462001658565b620010bc565b604051620000dd9392919062001699565b3480156200022f57600080fd5b506200024762000241366004620013aa565b62001212565b604051620000dd9190620016db565b600560208190526000918252604090912080546001820154600283015460038401546004850154958501805494966001600160a01b039485169693959294811693600160a01b90910460ff1692909190620002b190620016f7565b80601f0160208091040260200160405190810160405280929190818152602001828054620002df90620016f7565b8015620003305780601f10620003045761010080835404028352916020019162000330565b820191906000526020600020905b8154815290600101906020018083116200031257829003601f168201915b5050505050908060060180546200034790620016f7565b80601f01602080910402602001604051908101604052809291908181526020018280546200037590620016f7565b8015620003c65780601f106200039a57610100808354040283529160200191620003c6565b820191906000526020600020905b815481529060010190602001808311620003a857829003601f168201915b5050505050905088565b620003da620012c7565b600081815260056020526040902060040154600160a01b900460ff161515600114620004585760405162461bcd60e51b815260206004820152602260248201527f6e667420646f65736e2774206578697374206f72206973206e6f74206c697374604482015261195960f21b60648201526084015b60405180910390fd5b6000818152600560205260409020600401546001600160a01b03163314620004e25760405162461bcd60e51b815260206004820152603660248201527f796f752063616e6e6f742063616e63656c206c697374696e6720696620796f756044820152751030b932903737ba103a34329037333a1037bbb732b960511b60648201526084016200044f565b600081815260056020526040812060048101805460ff60a01b19169055600301556200050e6001600055565b50565b600080835111801562000525575060008251115b620005895760405162461bcd60e51b815260206004820152602d60248201527f417274697374206e616d6520616e642073796d626f6c206d757374206e6f742060448201526c3132903ab73232b334b732b21760991b60648201526084016200044f565b6003826040516200059b919062001733565b90815260200160405180910390206001018054620005b990620016f7565b159050620006025760405162461bcd60e51b815260206004820152601560248201527453796d626f6c20616c72656164792065786973747360581b60448201526064016200044f565b600062000610848462001322565b905060008460405160200162000627919062001733565b604051602081830303815290604052805190602001209050808251602084016000f59250823b6200065757600080fd5b60405163f2fde38b60e01b81523360048201526001600160a01b0384169063f2fde38b90602401600060405180830381600087803b1580156200069957600080fd5b505af1158015620006ae573d6000803e3d6000fd5b505060028054925090506000620006c58362001751565b919050555084600385604051620006dd919062001733565b90815260405190819003602001902090620006f99082620017cb565b50836003856040516200070d919062001733565b908152602001604051809103902060010190816200072c9190620017cb565b508260038560405162000740919062001733565b90815260405190819003602001902060020180546001600160a01b03929092166001600160a01b03199092169190911790556001805480820182556000919091527fb10e2d527612073b26eecdfd717e6a320cf44b4afac2b0732d9fcbe2b7fa0cf601620007af8582620017cb565b507f7e43efb107a1ee87684f21d01bd9aa430db7c7aa3653fac7ddc509318abf380885858542604051620007e7949392919062001898565b60405180910390a1505092915050565b62000801620012c7565b60008351118015620008485750816001600160a01b03166003826040516200082a919062001733565b908152604051908190036020019020600201546001600160a01b0316145b620008bc5760405162461bcd60e51b815260206004820152603f60248201527f706c656173652070726f7669646520612076616c696420746f6b656e5552492060448201527f616e64206578697374696e6720636f6c6c656374696f6e2064657461696c2e0060648201526084016200044f565b60405163c754584960e01b815282906001600160a01b0382169063c754584990620008ec908790600401620016db565b600060405180830381600087803b1580156200090757600080fd5b505af11580156200091c573d6000803e3d6000fd5b505050506200092f600480546001019055565b6040518061010001604052806200094560045490565b8152602001846001600160a01b03168152602001826001600160a01b0316639d63848a6040518163ffffffff1660e01b8152600401602060405180830381865afa15801562000998573d6000803e3d6000fd5b505050506040513d601f19601f82011682018060405250810190620009be9190620018de565b815260200160008152602001336001600160a01b031681526020016000151581526020018581526020018381525060056000620009fa60045490565b8152602080820192909252604090810160002083518155918301516001830180546001600160a01b0319166001600160a01b0392831617905590830151600283015560608301516003830155608083015160048301805460a0860151929093166001600160a81b031990931692909217600160a01b9115159190910217905560c0820151600582019062000a8f9082620017cb565b5060e0820151600682019062000aa69082620017cb565b50506004547f67540a320daf33f565534fe9eca83eb771d29ef88dde04b188b0ebf60f40abda915084338760405162000ae39493929190620018f8565b60405180910390a15062000af76001600055565b505050565b62000b06620012c7565b6000811162000b685760405162461bcd60e51b815260206004820152602760248201527f4e46544d61726b65743a207072696365206d75737420626520677265617465726044820152660207468616e20360cc1b60648201526084016200044f565b60008211801562000b7b57506004548211155b62000bc25760405162461bcd60e51b81526020600482015260166024820152751d1bdad95b925108191bd95cc81b9bdd08195e1a5cdd60521b60448201526064016200044f565b600082815260056020526040902060040154600160a01b900460ff161562000c225760405162461bcd60e51b815260206004820152601260248201527113919508185b1c9958591e481b1a5cdd195960721b60448201526064016200044f565b60008281526005602052604090819020600181015460029091015491516331a9108f60e11b815260048101929092526001600160a01b03169030908290636352211e90602401602060405180830381865afa15801562000c86573d6000803e3d6000fd5b505050506040513d601f19601f8201168201806040525081019062000cac919062001936565b6001600160a01b03161462000d3257600083815260056020526040908190206002015490516323ee8fdf60e21b815230600482015260248101919091526001600160a01b03821690638fba3f7c90604401600060405180830381600087803b15801562000d1857600080fd5b505af115801562000d2d573d6000803e3d6000fd5b505050505b6000838152600560209081526040918290206003810185905560048101805460ff60a01b1916600160a01b179055600181015460029091015483518781529283015291810184905233916001600160a01b0316907fe33aafc81513be125d0ef3012a3189731e3a7a4c64de233e9adf88e14c67c4019060600160405180910390a35062000dbf6001600055565b5050565b62000dcd620012c7565b60008111801562000de057506004548111155b62000e235760405162461bcd60e51b81526020600482015260126024820152711a5d195b48191bd95cdb89dd08195e1a5cdd60721b60448201526064016200044f565b600081815260056020526040902060030154341462000e8f5760405162461bcd60e51b815260206004820152602160248201527f7072696365206d75737420626520746865206578616374204e46542076616c756044820152606560f81b60648201526084016200044f565b600081815260056020526040902060040154600160a01b900460ff1662000eed5760405162461bcd60e51b8152602060048201526011602482015270139195081a5cc81b9bdd081b1a5cdd1959607a1b60448201526064016200044f565b6000818152600560205260409020600401546001600160a01b0316330362000f585760405162461bcd60e51b815260206004820152601b60248201527f596f752063616e6e6f742062757920796f7572206f776e204e4654000000000060448201526064016200044f565b6000818152600560205260409081902060018101546002909101549151632142170760e11b815230600482015233602482015260448101929092526001600160a01b03169081906342842e0e90606401600060405180830381600087803b15801562000fc357600080fd5b505af115801562000fd8573d6000803e3d6000fd5b505050600083815260056020526040808220600481015460039091015491516001600160a01b03909116935081156108fc0292818181858888f1935050505015801562001029573d6000803e3d6000fd5b506000828152600560209081526040808320600381018490556004810180546001600160a81b031916339081179091556001820154600290920154835188815294850152918301939093529182916001600160a01b03909116907ffb0cfc474abd12ba63c7e2d4116fe3d9b17f0b5a415d805cf5f5c4af185af18b9060600160405180910390a4506200050e6001600055565b8051602081830181018051600382529282019190930120915280548190620010e490620016f7565b80601f01602080910402602001604051908101604052809291908181526020018280546200111290620016f7565b8015620011635780601f10620011375761010080835404028352916020019162001163565b820191906000526020600020905b8154815290600101906020018083116200114557829003601f168201915b5050505050908060010180546200117a90620016f7565b80601f0160208091040260200160405190810160405280929190818152602001828054620011a890620016f7565b8015620011f95780601f10620011cd57610100808354040283529160200191620011f9565b820191906000526020600020905b815481529060010190602001808311620011db57829003601f168201915b505050600290930154919250506001600160a01b031683565b600181815481106200122357600080fd5b9060005260206000200160009150905080546200124090620016f7565b80601f01602080910402602001604051908101604052809291908181526020018280546200126e90620016f7565b8015620012bf5780601f106200129357610100808354040283529160200191620012bf565b820191906000526020600020905b815481529060010190602001808311620012a157829003601f168201915b505050505081565b6002600054036200131b5760405162461bcd60e51b815260206004820152601f60248201527f5265656e7472616e637947756172643a207265656e7472616e742063616c6c0060448201526064016200044f565b6002600055565b606060006040518060200162001338906200139c565b6020820181038252601f19601f8201166040525090508084846040516020016200136492919062001956565b60408051601f198184030181529082905262001384929160200162001988565b60405160208183030381529060405291505092915050565b611c7280620019bc83390190565b600060208284031215620013bd57600080fd5b5035919050565b60005b83811015620013e1578181015183820152602001620013c7565b50506000910152565b6000815180845262001404816020860160208601620013c4565b601f01601f19169290920160200192915050565b8881526001600160a01b03888116602083015260408201889052606082018790528516608082015283151560a082015261010060c082018190526000906200146383820186620013ea565b905082810360e0840152620014798185620013ea565b9b9a5050505050505050505050565b634e487b7160e01b600052604160045260246000fd5b600082601f830112620014b057600080fd5b813567ffffffffffffffff80821115620014ce57620014ce62001488565b604051601f8301601f19908116603f01168101908282118183101715620014f957620014f962001488565b816040528381528660208588010111156200151357600080fd5b836020870160208301376000602085830101528094505050505092915050565b600080604083850312156200154757600080fd5b823567ffffffffffffffff808211156200156057600080fd5b6200156e868387016200149e565b935060208501359150808211156200158557600080fd5b5062001594858286016200149e565b9150509250929050565b6001600160a01b03811681146200050e57600080fd5b600080600060608486031215620015ca57600080fd5b833567ffffffffffffffff80821115620015e357600080fd5b620015f1878388016200149e565b94506020860135915062001605826200159e565b909250604085013590808211156200161c57600080fd5b506200162b868287016200149e565b9150509250925092565b600080604083850312156200164957600080fd5b50508035926020909101359150565b6000602082840312156200166b57600080fd5b813567ffffffffffffffff8111156200168357600080fd5b62001691848285016200149e565b949350505050565b606081526000620016ae6060830186620013ea565b8281036020840152620016c28186620013ea565b91505060018060a01b0383166040830152949350505050565b602081526000620016f06020830184620013ea565b9392505050565b600181811c908216806200170c57607f821691505b6020821081036200172d57634e487b7160e01b600052602260045260246000fd5b50919050565b6000825162001747818460208701620013c4565b9190910192915050565b6000600182016200177257634e487b7160e01b600052601160045260246000fd5b5060010190565b601f82111562000af757600081815260208120601f850160051c81016020861015620017a25750805b601f850160051c820191505b81811015620017c357828155600101620017ae565b505050505050565b815167ffffffffffffffff811115620017e857620017e862001488565b6200180081620017f98454620016f7565b8462001779565b602080601f8311600181146200183857600084156200181f5750858301515b600019600386901b1c1916600185901b178555620017c3565b600085815260208120601f198616915b82811015620018695788860151825594840194600190910190840162001848565b5085821015620018885787850151600019600388901b60f8161c191681555b5050505050600190811b01905550565b608081526000620018ad6080830187620013ea565b8281036020840152620018c18187620013ea565b6001600160a01b0395909516604084015250506060015292915050565b600060208284031215620018f157600080fd5b5051919050565b8481526001600160a01b038481166020830152831660408201526080606082018190526000906200192c90830184620013ea565b9695505050505050565b6000602082840312156200194957600080fd5b8151620016f0816200159e565b6040815260006200196b6040830185620013ea565b82810360208401526200197f8185620013ea565b95945050505050565b600083516200199c818460208801620013c4565b835190830190620019b2818360208801620013c4565b0194935050505056fe60806040523480156200001157600080fd5b5060405162001c7238038062001c72833981016040819052620000349162000193565b818160006200004483826200028c565b5060016200005382826200028c565b505050620000706200006a6200007860201b60201c565b6200007c565b505062000358565b3390565b600780546001600160a01b038381166001600160a01b0319831681179093556040519116919082907f8be0079c531659141344cd1fd0a4f28419497f9722a3daafe3b4186f6b6457e090600090a35050565b634e487b7160e01b600052604160045260246000fd5b600082601f830112620000f657600080fd5b81516001600160401b0380821115620001135762000113620000ce565b604051601f8301601f19908116603f011681019082821181831017156200013e576200013e620000ce565b816040528381526020925086838588010111156200015b57600080fd5b600091505b838210156200017f578582018301518183018401529082019062000160565b600093810190920192909252949350505050565b60008060408385031215620001a757600080fd5b82516001600160401b0380821115620001bf57600080fd5b620001cd86838701620000e4565b93506020850151915080821115620001e457600080fd5b50620001f385828601620000e4565b9150509250929050565b600181811c908216806200021257607f821691505b6020821081036200023357634e487b7160e01b600052602260045260246000fd5b50919050565b601f8211156200028757600081815260208120601f850160051c81016020861015620002625750805b601f850160051c820191505b8181101562000283578281556001016200026e565b5050505b505050565b81516001600160401b03811115620002a857620002a8620000ce565b620002c081620002b98454620001fd565b8462000239565b602080601f831160018114620002f85760008415620002df5750858301515b600019600386901b1c1916600185901b17855562000283565b600085815260208120601f198616915b82811015620003295788860151825594840194600190910190840162000308565b5085821015620003485787850151600019600388901b60f8161c191681555b5050505050600190811b01905550565b61190a80620003686000396000f3fe608060405234801561001057600080fd5b50600436106101215760003560e01c80638da5cb5b116100ad578063b88d4fde11610071578063b88d4fde1461024d578063c754584914610260578063c87b56dd14610273578063e985e9c514610286578063f2fde38b1461029957600080fd5b80638da5cb5b146102055780638fba3f7c1461021657806395d89b41146102295780639d63848a14610231578063a22cb4651461023a57600080fd5b806323b872dd116100f457806323b872dd146101a357806342842e0e146101b65780636352211e146101c957806370a08231146101dc578063715018a6146101fd57600080fd5b806301ffc9a71461012657806306fdde031461014e578063081812fc14610163578063095ea7b31461018e575b600080fd5b6101396101343660046112d4565b6102ac565b60405190151581526020015b60405180910390f35b6101566102fe565b6040516101459190611341565b610176610171366004611354565b610390565b6040516001600160a01b039091168152602001610145565b6101a161019c366004611389565b6103b7565b005b6101a16101b13660046113b3565b6104d1565b6101a16101c43660046113b3565b610502565b6101766101d7366004611354565b61051d565b6101ef6101ea3660046113ef565b61057d565b604051908152602001610145565b6101a1610603565b6007546001600160a01b0316610176565b6101a1610224366004611389565b610617565b610156610626565b6101ef60085481565b6101a161024836600461140a565b610635565b6101a161025b3660046114d2565b610640565b6101a161026e36600461154e565b610678565b610156610281366004611354565b61072a565b610139610294366004611597565b61083a565b6101a16102a73660046113ef565b610868565b60006001600160e01b031982166380ac58cd60e01b14806102dd57506001600160e01b03198216635b5e139f60e01b145b806102f857506301ffc9a760e01b6001600160e01b03198316145b92915050565b60606000805461030d906115ca565b80601f0160208091040260200160405190810160405280929190818152602001828054610339906115ca565b80156103865780601f1061035b57610100808354040283529160200191610386565b820191906000526020600020905b81548152906001019060200180831161036957829003601f168201915b5050505050905090565b600061039b826108e1565b506000908152600460205260409020546001600160a01b031690565b60006103c28261051d565b9050806001600160a01b0316836001600160a01b0316036104345760405162461bcd60e51b815260206004820152602160248201527f4552433732313a20617070726f76616c20746f2063757272656e74206f776e656044820152603960f91b60648201526084015b60405180910390fd5b336001600160a01b03821614806104505750610450813361083a565b6104c25760405162461bcd60e51b815260206004820152603d60248201527f4552433732313a20617070726f76652063616c6c6572206973206e6f7420746f60448201527f6b656e206f776e6572206f7220617070726f76656420666f7220616c6c000000606482015260840161042b565b6104cc8383610940565b505050565b6104db33826109ae565b6104f75760405162461bcd60e51b815260040161042b90611604565b6104cc838383610a0c565b6104cc83838360405180602001604052806000815250610640565b6000818152600260205260408120546001600160a01b0316806102f85760405162461bcd60e51b8152602060048201526018602482015277115490cdcc8c4e881a5b9d985b1a59081d1bdad95b88125160421b604482015260640161042b565b60006001600160a01b0382166105e75760405162461bcd60e51b815260206004820152602960248201527f4552433732313a2061646472657373207a65726f206973206e6f7420612076616044820152683634b21037bbb732b960b91b606482015260840161042b565b506001600160a01b031660009081526003602052604090205490565b61060b610b7d565b6106156000610bd7565b565b610622328383610a0c565b5050565b60606001805461030d906115ca565b610622338383610c29565b61064a33836109ae565b6106665760405162461bcd60e51b815260040161042b90611604565b61067284848484610cf7565b50505050565b6007546001600160a01b031632146106e25760405162461bcd60e51b815260206004820152602760248201527f4e6674436f6c6c656374696f6e203a2063616c6c6572206973206e6f74207468604482015266329037bbb732b960c91b606482015260840161042b565b6106fa3260085460016106f59190611667565b610d2a565b610712600854600161070c9190611667565b82610ec3565b600880549060006107228361167a565b919050555050565b6060610735826108e1565b6000828152600660205260408120805461074e906115ca565b80601f016020809104026020016040519081016040528092919081815260200182805461077a906115ca565b80156107c75780601f1061079c576101008083540402835291602001916107c7565b820191906000526020600020905b8154815290600101906020018083116107aa57829003601f168201915b5050505050905060006107e560408051602081019091526000815290565b905080516000036107f7575092915050565b815115610829578082604051602001610811929190611693565b60405160208183030381529060405292505050919050565b61083284610f56565b949350505050565b6001600160a01b03918216600090815260056020908152604080832093909416825291909152205460ff1690565b610870610b7d565b6001600160a01b0381166108d55760405162461bcd60e51b815260206004820152602660248201527f4f776e61626c653a206e6577206f776e657220697320746865207a65726f206160448201526564647265737360d01b606482015260840161042b565b6108de81610bd7565b50565b6000818152600260205260409020546001600160a01b03166108de5760405162461bcd60e51b8152602060048201526018602482015277115490cdcc8c4e881a5b9d985b1a59081d1bdad95b88125160421b604482015260640161042b565b600081815260046020526040902080546001600160a01b0319166001600160a01b03841690811790915581906109758261051d565b6001600160a01b03167f8c5be1e5ebec7d5bd14f71427d1e84f3dd0314c0f7b2291e5b200ac8c7c3b92560405160405180910390a45050565b6000806109ba8361051d565b9050806001600160a01b0316846001600160a01b031614806109e157506109e1818561083a565b806108325750836001600160a01b03166109fa84610390565b6001600160a01b031614949350505050565b826001600160a01b0316610a1f8261051d565b6001600160a01b031614610a455760405162461bcd60e51b815260040161042b906116c2565b6001600160a01b038216610aa75760405162461bcd60e51b8152602060048201526024808201527f4552433732313a207472616e7366657220746f20746865207a65726f206164646044820152637265737360e01b606482015260840161042b565b610ab48383836001610fca565b826001600160a01b0316610ac78261051d565b6001600160a01b031614610aed5760405162461bcd60e51b815260040161042b906116c2565b600081815260046020908152604080832080546001600160a01b03199081169091556001600160a01b0387811680865260038552838620805460001901905590871680865283862080546001019055868652600290945282852080549092168417909155905184937fddf252ad1be2c89b69c2b068fc378daa952ba7f163c4a11628f55a4df523b3ef91a4505050565b6007546001600160a01b031633146106155760405162461bcd60e51b815260206004820181905260248201527f4f776e61626c653a2063616c6c6572206973206e6f7420746865206f776e6572604482015260640161042b565b600780546001600160a01b038381166001600160a01b0319831681179093556040519116919082907f8be0079c531659141344cd1fd0a4f28419497f9722a3daafe3b4186f6b6457e090600090a35050565b816001600160a01b0316836001600160a01b031603610c8a5760405162461bcd60e51b815260206004820152601960248201527f4552433732313a20617070726f766520746f2063616c6c657200000000000000604482015260640161042b565b6001600160a01b03838116600081815260056020908152604080832094871680845294825291829020805460ff191686151590811790915591519182527f17307eab39ab6107e8899845ad3d59bd9653f200f220920489ca2b5937696c31910160405180910390a3505050565b610d02848484610a0c565b610d0e84848484611052565b6106725760405162461bcd60e51b815260040161042b90611707565b6001600160a01b038216610d805760405162461bcd60e51b815260206004820181905260248201527f4552433732313a206d696e7420746f20746865207a65726f2061646472657373604482015260640161042b565b6000818152600260205260409020546001600160a01b031615610de55760405162461bcd60e51b815260206004820152601c60248201527f4552433732313a20746f6b656e20616c7265616479206d696e74656400000000604482015260640161042b565b610df3600083836001610fca565b6000818152600260205260409020546001600160a01b031615610e585760405162461bcd60e51b815260206004820152601c60248201527f4552433732313a20746f6b656e20616c7265616479206d696e74656400000000604482015260640161042b565b6001600160a01b038216600081815260036020908152604080832080546001019055848352600290915280822080546001600160a01b0319168417905551839291907fddf252ad1be2c89b69c2b068fc378daa952ba7f163c4a11628f55a4df523b3ef908290a45050565b6000828152600260205260409020546001600160a01b0316610f3e5760405162461bcd60e51b815260206004820152602e60248201527f45524337323155524953746f726167653a2055524920736574206f66206e6f6e60448201526d32bc34b9ba32b73a103a37b5b2b760911b606482015260840161042b565b60008281526006602052604090206104cc82826117a7565b6060610f61826108e1565b6000610f7860408051602081019091526000815290565b90506000815111610f985760405180602001604052806000815250610fc3565b80610fa284611153565b604051602001610fb3929190611693565b6040516020818303038152906040525b9392505050565b6001811115610672576001600160a01b03841615611010576001600160a01b0384166000908152600360205260408120805483929061100a908490611867565b90915550505b6001600160a01b03831615610672576001600160a01b03831660009081526003602052604081208054839290611047908490611667565b909155505050505050565b60006001600160a01b0384163b1561114857604051630a85bd0160e11b81526001600160a01b0385169063150b7a029061109690339089908890889060040161187a565b6020604051808303816000875af19250505080156110d1575060408051601f3d908101601f191682019092526110ce918101906118b7565b60015b61112e573d8080156110ff576040519150601f19603f3d011682016040523d82523d6000602084013e611104565b606091505b5080516000036111265760405162461bcd60e51b815260040161042b90611707565b805181602001fd5b6001600160e01b031916630a85bd0160e11b149050610832565b506001949350505050565b60606000611160836111e6565b600101905060008167ffffffffffffffff81111561118057611180611446565b6040519080825280601f01601f1916602001820160405280156111aa576020820181803683370190505b5090508181016020015b600019016f181899199a1a9b1b9c1cb0b131b232b360811b600a86061a8153600a85049450846111b457509392505050565b60008072184f03e93ff9f4daa797ed6e38ed64bf6a1f0160401b83106112255772184f03e93ff9f4daa797ed6e38ed64bf6a1f0160401b830492506040015b6d04ee2d6d415b85acef81000000008310611251576d04ee2d6d415b85acef8100000000830492506020015b662386f26fc10000831061126f57662386f26fc10000830492506010015b6305f5e1008310611287576305f5e100830492506008015b612710831061129b57612710830492506004015b606483106112ad576064830492506002015b600a83106102f85760010192915050565b6001600160e01b0319811681146108de57600080fd5b6000602082840312156112e657600080fd5b8135610fc3816112be565b60005b8381101561130c5781810151838201526020016112f4565b50506000910152565b6000815180845261132d8160208601602086016112f1565b601f01601f19169290920160200192915050565b602081526000610fc36020830184611315565b60006020828403121561136657600080fd5b5035919050565b80356001600160a01b038116811461138457600080fd5b919050565b6000806040838503121561139c57600080fd5b6113a58361136d565b946020939093013593505050565b6000806000606084860312156113c857600080fd5b6113d18461136d565b92506113df6020850161136d565b9150604084013590509250925092565b60006020828403121561140157600080fd5b610fc38261136d565b6000806040838503121561141d57600080fd5b6114268361136d565b91506020830135801515811461143b57600080fd5b809150509250929050565b634e487b7160e01b600052604160045260246000fd5b600067ffffffffffffffff8084111561147757611477611446565b604051601f8501601f19908116603f0116810190828211818310171561149f5761149f611446565b816040528093508581528686860111156114b857600080fd5b858560208301376000602087830101525050509392505050565b600080600080608085870312156114e857600080fd5b6114f18561136d565b93506114ff6020860161136d565b925060408501359150606085013567ffffffffffffffff81111561152257600080fd5b8501601f8101871361153357600080fd5b6115428782356020840161145c565b91505092959194509250565b60006020828403121561156057600080fd5b813567ffffffffffffffff81111561157757600080fd5b8201601f8101841361158857600080fd5b6108328482356020840161145c565b600080604083850312156115aa57600080fd5b6115b38361136d565b91506115c16020840161136d565b90509250929050565b600181811c908216806115de57607f821691505b6020821081036115fe57634e487b7160e01b600052602260045260246000fd5b50919050565b6020808252602d908201527f4552433732313a2063616c6c6572206973206e6f7420746f6b656e206f776e6560408201526c1c881bdc88185c1c1c9bdd9959609a1b606082015260800190565b634e487b7160e01b600052601160045260246000fd5b808201808211156102f8576102f8611651565b60006001820161168c5761168c611651565b5060010190565b600083516116a58184602088016112f1565b8351908301906116b98183602088016112f1565b01949350505050565b60208082526025908201527f4552433732313a207472616e736665722066726f6d20696e636f72726563742060408201526437bbb732b960d91b606082015260800190565b60208082526032908201527f4552433732313a207472616e7366657220746f206e6f6e20455243373231526560408201527131b2b4bb32b91034b6b83632b6b2b73a32b960711b606082015260800190565b601f8211156104cc57600081815260208120601f850160051c810160208610156117805750805b601f850160051c820191505b8181101561179f5782815560010161178c565b505050505050565b815167ffffffffffffffff8111156117c1576117c1611446565b6117d5816117cf84546115ca565b84611759565b602080601f83116001811461180a57600084156117f25750858301515b600019600386901b1c1916600185901b17855561179f565b600085815260208120601f198616915b828110156118395788860151825594840194600190910190840161181a565b50858210156118575787850151600019600388901b60f8161c191681555b5050505050600190811b01905550565b818103818111156102f8576102f8611651565b6001600160a01b03858116825284166020820152604081018390526080606082018190526000906118ad90830184611315565b9695505050505050565b6000602082840312156118c957600080fd5b8151610fc3816112be56fea2646970667358221220c5d63c2cf57b433f28c6c43c03b7393435eec0f3399921ff00cbbdf0862a4d5164736f6c63430008110033a2646970667358221220e9a02dec8e1f5b3d41da46915bd0191a5c32d90f74c905980492d38e48c534da64736f6c63430008110033",
  "linkReferences": {},
  "deployedLinkReferences": {}
}