{
  "_format": "hh-sol-artifact-1",
  "contractName": "NftCollection",
  "sourceName": "contracts/NftCollection.sol",
  "abi": [
    {
      "inputs": [
        {
          "internalType": "string",
          "name": "_collectionName",
          "type": "string"
        },
        {
          "internalType": "string",
          "name": "_collectionSymbol",
          "type": "string"
        }
      ],
      "stateMutability": "nonpayable",
      "type": "constructor"
    },
    {
      "anonymous": false,
      "inputs": [
        {
          "indexed": true,
          "internalType": "address",
          "name": "owner",
          "type": "address"
        },
        {
          "indexed": true,
          "internalType": "address",
          "name": "approved",
          "type": "address"
        },
        {
          "indexed": true,
          "internalType": "uint256",
          "name": "tokenId",
          "type": "uint256"
        }
      ],
      "name": "Approval",
      "type": "event"
    },
    {
      "anonymous": false,
      "inputs": [
        {
          "indexed": true,
          "internalType": "address",
          "name": "owner",
          "type": "address"
        },
        {
          "indexed": true,
          "internalType": "address",
          "name": "operator",
          "type": "address"
        },
        {
          "indexed": false,
          "internalType": "bool",
          "name": "approved",
          "type": "bool"
        }
      ],
      "name": "ApprovalForAll",
      "type": "event"
    },
    {
      "anonymous": false,
      "inputs": [
        {
          "indexed": true,
          "internalType": "address",
          "name": "previousOwner",
          "type": "address"
        },
        {
          "indexed": true,
          "internalType": "address",
          "name": "newOwner",
          "type": "address"
        }
      ],
      "name": "OwnershipTransferred",
      "type": "event"
    },
    {
      "anonymous": false,
      "inputs": [
        {
          "indexed": true,
          "internalType": "address",
          "name": "from",
          "type": "address"
        },
        {
          "indexed": true,
          "internalType": "address",
          "name": "to",
          "type": "address"
        },
        {
          "indexed": true,
          "internalType": "uint256",
          "name": "tokenId",
          "type": "uint256"
        }
      ],
      "name": "Transfer",
      "type": "event"
    },
    {
      "inputs": [
        {
          "internalType": "address",
          "name": "to",
          "type": "address"
        },
        {
          "internalType": "uint256",
          "name": "tokenId",
          "type": "uint256"
        }
      ],
      "name": "approve",
      "outputs": [],
      "stateMutability": "nonpayable",
      "type": "function"
    },
    {
      "inputs": [
        {
          "internalType": "address",
          "name": "owner",
          "type": "address"
        }
      ],
      "name": "balanceOf",
      "outputs": [
        {
          "internalType": "uint256",
          "name": "",
          "type": "uint256"
        }
      ],
      "stateMutability": "view",
      "type": "function"
    },
    {
      "inputs": [
        {
          "internalType": "address",
          "name": "_newOwnerAddress",
          "type": "address"
        },
        {
          "internalType": "uint256",
          "name": "_tokenId",
          "type": "uint256"
        }
      ],
      "name": "changeNftOwner",
      "outputs": [],
      "stateMutability": "nonpayable",
      "type": "function"
    },
    {
      "inputs": [
        {
          "internalType": "uint256",
          "name": "tokenId",
          "type": "uint256"
        }
      ],
      "name": "getApproved",
      "outputs": [
        {
          "internalType": "address",
          "name": "",
          "type": "address"
        }
      ],
      "stateMutability": "view",
      "type": "function"
    },
    {
      "inputs": [
        {
          "internalType": "address",
          "name": "owner",
          "type": "address"
        },
        {
          "internalType": "address",
          "name": "operator",
          "type": "address"
        }
      ],
      "name": "isApprovedForAll",
      "outputs": [
        {
          "internalType": "bool",
          "name": "",
          "type": "bool"
        }
      ],
      "stateMutability": "view",
      "type": "function"
    },
    {
      "inputs": [
        {
          "internalType": "string",
          "name": "tokenURI",
          "type": "string"
        }
      ],
      "name": "mintItem",
      "outputs": [],
      "stateMutability": "nonpayable",
      "type": "function"
    },
    {
      "inputs": [],
      "name": "name",
      "outputs": [
        {
          "internalType": "string",
          "name": "",
          "type": "string"
        }
      ],
      "stateMutability": "view",
      "type": "function"
    },
    {
      "inputs": [],
      "name": "owner",
      "outputs": [
        {
          "internalType": "address",
          "name": "",
          "type": "address"
        }
      ],
      "stateMutability": "view",
      "type": "function"
    },
    {
      "inputs": [
        {
          "internalType": "uint256",
          "name": "tokenId",
          "type": "uint256"
        }
      ],
      "name": "ownerOf",
      "outputs": [
        {
          "internalType": "address",
          "name": "",
          "type": "address"
        }
      ],
      "stateMutability": "view",
      "type": "function"
    },
    {
      "inputs": [],
      "name": "renounceOwnership",
      "outputs": [],
      "stateMutability": "nonpayable",
      "type": "function"
    },
    {
      "inputs": [
        {
          "internalType": "address",
          "name": "from",
          "type": "address"
        },
        {
          "internalType": "address",
          "name": "to",
          "type": "address"
        },
        {
          "internalType": "uint256",
          "name": "tokenId",
          "type": "uint256"
        }
      ],
      "name": "safeTransferFrom",
      "outputs": [],
      "stateMutability": "nonpayable",
      "type": "function"
    },
    {
      "inputs": [
        {
          "internalType": "address",
          "name": "from",
          "type": "address"
        },
        {
          "internalType": "address",
          "name": "to",
          "type": "address"
        },
        {
          "internalType": "uint256",
          "name": "tokenId",
          "type": "uint256"
        },
        {
          "internalType": "bytes",
          "name": "data",
          "type": "bytes"
        }
      ],
      "name": "safeTransferFrom",
      "outputs": [],
      "stateMutability": "nonpayable",
      "type": "function"
    },
    {
      "inputs": [
        {
          "internalType": "address",
          "name": "operator",
          "type": "address"
        },
        {
          "internalType": "bool",
          "name": "approved",
          "type": "bool"
        }
      ],
      "name": "setApprovalForAll",
      "outputs": [],
      "stateMutability": "nonpayable",
      "type": "function"
    },
    {
      "inputs": [
        {
          "internalType": "bytes4",
          "name": "interfaceId",
          "type": "bytes4"
        }
      ],
      "name": "supportsInterface",
      "outputs": [
        {
          "internalType": "bool",
          "name": "",
          "type": "bool"
        }
      ],
      "stateMutability": "view",
      "type": "function"
    },
    {
      "inputs": [],
      "name": "symbol",
      "outputs": [
        {
          "internalType": "string",
          "name": "",
          "type": "string"
        }
      ],
      "stateMutability": "view",
      "type": "function"
    },
    {
      "inputs": [
        {
          "internalType": "uint256",
          "name": "tokenId",
          "type": "uint256"
        }
      ],
      "name": "tokenURI",
      "outputs": [
        {
          "internalType": "string",
          "name": "",
          "type": "string"
        }
      ],
      "stateMutability": "view",
      "type": "function"
    },
    {
      "inputs": [],
      "name": "tokens",
      "outputs": [
        {
          "internalType": "uint256",
          "name": "",
          "type": "uint256"
        }
      ],
      "stateMutability": "view",
      "type": "function"
    },
    {
      "inputs": [
        {
          "internalType": "address",
          "name": "from",
          "type": "address"
        },
        {
          "internalType": "address",
          "name": "to",
          "type": "address"
        },
        {
          "internalType": "uint256",
          "name": "tokenId",
          "type": "uint256"
        }
      ],
      "name": "transferFrom",
      "outputs": [],
      "stateMutability": "nonpayable",
      "type": "function"
    },
    {
      "inputs": [
        {
          "internalType": "address",
          "name": "newOwner",
          "type": "address"
        }
      ],
      "name": "transferOwnership",
      "outputs": [],
      "stateMutability": "nonpayable",
      "type": "function"
    }
  ],
  "bytecode": "0x60806040523480156200001157600080fd5b5060405162004b9038038062004b9083398181016040528101906200003791906200035e565b818162000055673f555414bf72e74060c01b620000f760201b60201c565b62000071674755614077eb8cf860c01b620000f760201b60201c565b81600090816200008291906200062e565b506200009f67eaf74670efce335e60c01b620000f760201b60201c565b8060019081620000b091906200062e565b505050620000d3620000c7620000fa60201b60201c565b6200010260201b60201c565b620000ef67a1b7155247c0e0db60c01b620001c860201b60201c565b505062000715565b50565b600033905090565b6000600760009054906101000a900473ffffffffffffffffffffffffffffffffffffffff16905081600760006101000a81548173ffffffffffffffffffffffffffffffffffffffff021916908373ffffffffffffffffffffffffffffffffffffffff1602179055508173ffffffffffffffffffffffffffffffffffffffff168173ffffffffffffffffffffffffffffffffffffffff167f8be0079c531659141344cd1fd0a4f28419497f9722a3daafe3b4186f6b6457e060405160405180910390a35050565b50565b6000604051905090565b600080fd5b600080fd5b600080fd5b600080fd5b6000601f19601f8301169050919050565b7f4e487b7100000000000000000000000000000000000000000000000000000000600052604160045260246000fd5b6200023482620001e9565b810181811067ffffffffffffffff82111715620002565762000255620001fa565b5b80604052505050565b60006200026b620001cb565b905062000279828262000229565b919050565b600067ffffffffffffffff8211156200029c576200029b620001fa565b5b620002a782620001e9565b9050602081019050919050565b60005b83811015620002d4578082015181840152602081019050620002b7565b60008484015250505050565b6000620002f7620002f1846200027e565b6200025f565b905082815260208101848484011115620003165762000315620001e4565b5b62000323848285620002b4565b509392505050565b600082601f830112620003435762000342620001df565b5b815162000355848260208601620002e0565b91505092915050565b60008060408385031215620003785762000377620001d5565b5b600083015167ffffffffffffffff811115620003995762000398620001da565b5b620003a7858286016200032b565b925050602083015167ffffffffffffffff811115620003cb57620003ca620001da565b5b620003d9858286016200032b565b9150509250929050565b600081519050919050565b7f4e487b7100000000000000000000000000000000000000000000000000000000600052602260045260246000fd5b600060028204905060018216806200043657607f821691505b6020821081036200044c576200044b620003ee565b5b50919050565b60008190508160005260206000209050919050565b60006020601f8301049050919050565b600082821b905092915050565b600060088302620004b67fffffffffffffffffffffffffffffffffffffffffffffffffffffffffffffffff8262000477565b620004c2868362000477565b95508019841693508086168417925050509392505050565b6000819050919050565b6000819050919050565b60006200050f620005096200050384620004da565b620004e4565b620004da565b9050919050565b6000819050919050565b6200052b83620004ee565b620005436200053a8262000516565b84845462000484565b825550505050565b600090565b6200055a6200054b565b6200056781848462000520565b505050565b5b818110156200058f576200058360008262000550565b6001810190506200056d565b5050565b601f821115620005de57620005a88162000452565b620005b38462000467565b81016020851015620005c3578190505b620005db620005d28562000467565b8301826200056c565b50505b505050565b600082821c905092915050565b60006200060360001984600802620005e3565b1980831691505092915050565b60006200061e8383620005f0565b9150826002028217905092915050565b6200063982620003e3565b67ffffffffffffffff811115620006555762000654620001fa565b5b6200066182546200041d565b6200066e82828562000593565b600060209050601f831160018114620006a6576000841562000691578287015190505b6200069d858262000610565b8655506200070d565b601f198416620006b68662000452565b60005b82811015620006e057848901518255600182019150602085019450602081019050620006b9565b86831015620007005784890151620006fc601f891682620005f0565b8355505b6001600288020188555050505b505050505050565b61446b80620007256000396000f3fe608060405234801561001057600080fd5b50600436106101215760003560e01c80638da5cb5b116100ad578063b88d4fde11610071578063b88d4fde146102f4578063c754584914610310578063c87b56dd1461032c578063e985e9c51461035c578063f2fde38b1461038c57610121565b80638da5cb5b146102625780638fba3f7c1461028057806395d89b411461029c5780639d63848a146102ba578063a22cb465146102d857610121565b806323b872dd116100f457806323b872dd146101c057806342842e0e146101dc5780636352211e146101f857806370a0823114610228578063715018a61461025857610121565b806301ffc9a71461012657806306fdde0314610156578063081812fc14610174578063095ea7b3146101a4575b600080fd5b610140600480360381019061013b91906130fe565b6103a8565b60405161014d9190613146565b60405180910390f35b61015e610536565b60405161016b91906131f1565b60405180910390f35b61018e60048036038101906101899190613249565b610604565b60405161019b91906132b7565b60405180910390f35b6101be60048036038101906101b991906132fe565b6106ae565b005b6101da60048036038101906101d5919061333e565b610901565b005b6101f660048036038101906101f1919061333e565b6109ed565b005b610212600480360381019061020d9190613249565b610a49565b60405161021f91906132b7565b60405180910390f35b610242600480360381019061023d9190613391565b610b84565b60405161024f91906133cd565b60405180910390f35b610260610cc8565b005b61026a610cdc565b60405161027791906132b7565b60405180910390f35b61029a600480360381019061029591906132fe565b610d06565b005b6102a4610d50565b6040516102b191906131f1565b60405180910390f35b6102c2610e1e565b6040516102cf91906133cd565b60405180910390f35b6102f260048036038101906102ed9190613414565b610e24565b005b61030e60048036038101906103099190613589565b610e76565b005b61032a600480360381019061032591906136ad565b610f64565b005b61034660048036038101906103419190613249565b6110ec565b60405161035391906131f1565b60405180910390f35b610376600480360381019061037191906136f6565b6113a2565b6040516103839190613146565b60405180910390f35b6103a660048036038101906103a19190613391565b611472565b005b60006103be6764043103aa2b4cef60c01b6114f5565b6103d26791b0bed38d8bf02960c01b6114f5565b6103e6673ed70927be299fb560c01b6114f5565b7f80ac58cd000000000000000000000000000000000000000000000000000000007bffffffffffffffffffffffffffffffffffffffffffffffffffffffff1916827bffffffffffffffffffffffffffffffffffffffffffffffffffffffff191614801561046357506104626754aef6e133de2c9c60c01b6114f8565b5b8061050357507f5b5e139f000000000000000000000000000000000000000000000000000000007bffffffffffffffffffffffffffffffffffffffffffffffffffffffff1916827bffffffffffffffffffffffffffffffffffffffffffffffffffffffff19161480156104e657506104e567c16213b803c75c0b60c01b6114f8565b5b8015610502575061050167ca742e65d0185c8460c01b6114f8565b5b5b8061052f575061051282611503565b801561052e575061052d672d6d6073d23356df60c01b6114f8565b5b5b9050919050565b606061054c672a25295083c5efe260c01b6114f5565b6105606742f3d82060a6130660c01b6114f5565b610574670be4ab293612cc5460c01b6114f5565b6000805461058190613765565b80601f01602080910402602001604051908101604052809291908181526020018280546105ad90613765565b80156105fa5780601f106105cf576101008083540402835291602001916105fa565b820191906000526020600020905b8154815290600101906020018083116105dd57829003601f168201915b5050505050905090565b600061061a6795dc18ee7457bd4e60c01b6114f5565b61062e6723a9bdb91f0d0b2760c01b6114f5565b61064267297b66edb989e0d060c01b6114f5565b61064b8261156d565b61065f67fbea4e78c42cf08160c01b6114f5565b610673671396d4fe480e189860c01b6114f5565b6004600083815260200190815260200160002060009054906101000a900473ffffffffffffffffffffffffffffffffffffffff169050919050565b6106c2670667dc490fb382eb60c01b6114f5565b6106d667ee31b38bafc0bf6960c01b6114f5565b6106ea6728ef42dd4531041660c01b6114f5565b60006106f582610a49565b905061070b67ba705dcef0d3c0ad60c01b6114f5565b61071f6738bfef653e5d4b7360c01b6114f5565b610733675ca633e449e5b69160c01b6114f5565b8073ffffffffffffffffffffffffffffffffffffffff168373ffffffffffffffffffffffffffffffffffffffff16036107a1576040517f08c379a000000000000000000000000000000000000000000000000000000000815260040161079890613808565b60405180910390fd5b6107b5670eddac3049b2b33860c01b6114f5565b6107c967b4ac5305f0044b6760c01b6114f5565b6107dd67f0cf735983d3660c60c01b6114f5565b6107f167d921b22c3eb1451860c01b6114f5565b8073ffffffffffffffffffffffffffffffffffffffff1661081061161c565b73ffffffffffffffffffffffffffffffffffffffff161480156108435750610842678d6596bde782867e60c01b6114f8565b5b80610877575061085a8161085561161c565b6113a2565b8015610876575061087567e4c7edc397a1c36960c01b6114f8565b5b5b6108b6576040517f08c379a00000000000000000000000000000000000000000000000000000000081526004016108ad9061389a565b60405180910390fd5b6108ca67319ff095cb6864ce60c01b6114f5565b6108de67477f22a786fe05e060c01b6114f5565b6108f267d4fa7a525d57288660c01b6114f5565b6108fc8383611624565b505050565b61091567b852f3f809fab6f760c01b6114f5565b61092967eb30095609ad252560c01b6114f5565b61093d670aacdea435fff24160c01b6114f5565b6109516713dc74ca3390503360c01b6114f5565b61096261095c61161c565b8261172d565b6109a1576040517f08c379a00000000000000000000000000000000000000000000000000000000081526004016109989061392c565b60405180910390fd5b6109b567a14633448ee33c6260c01b6114f5565b6109c96760fbf63d9ef7350860c01b6114f5565b6109dd673abb7e9dfb99de9f60c01b6114f5565b6109e8838383611897565b505050565b610a0167fd7958935265abf560c01b6114f5565b610a1567035da470dec90a9d60c01b6114f5565b610a29675477502c710049cf60c01b6114f5565b610a4483838360405180602001604052806000815250610e76565b505050565b6000610a5f679953ffd773bff08660c01b6114f5565b610a73671b4cc0c4cea002b960c01b6114f5565b610a87679eb6ed314e7a37cc60c01b6114f5565b6000610a9283611d70565b9050610aa8679b578413da77d1df60c01b6114f5565b610abc67e24508926711c7db60c01b6114f5565b610ad06781f42bbb4c2dd6c560c01b6114f5565b600073ffffffffffffffffffffffffffffffffffffffff168173ffffffffffffffffffffffffffffffffffffffff1603610b3f576040517f08c379a0000000000000000000000000000000000000000000000000000000008152600401610b3690613998565b60405180910390fd5b610b5367ad27ed08e47b94dc60c01b6114f5565b610b6767c73b0143ad0fdbbb60c01b6114f5565b610b7b676d1068def801c14360c01b6114f5565b80915050919050565b6000610b9a678e442374c603bc3c60c01b6114f5565b610bae675f7fcbe9b821a8a860c01b6114f5565b610bc267416fbc2440fba0a960c01b6114f5565b610bd667f4b168f555cf25ff60c01b6114f5565b600073ffffffffffffffffffffffffffffffffffffffff168273ffffffffffffffffffffffffffffffffffffffff1603610c45576040517f08c379a0000000000000000000000000000000000000000000000000000000008152600401610c3c90613a2a565b60405180910390fd5b610c59672e0fef286d55069960c01b6114f5565b610c6d679ae103cb66f615a860c01b6114f5565b610c8167d999c946787a812e60c01b6114f5565b600360008373ffffffffffffffffffffffffffffffffffffffff1673ffffffffffffffffffffffffffffffffffffffff168152602001908152602001600020549050919050565b610cd0611de9565b610cda6000611e67565b565b6000600760009054906101000a900473ffffffffffffffffffffffffffffffffffffffff16905090565b610d1a67148e72df43fce31360c01b611f2d565b610d2e678267c95ddbf2416f60c01b611f2d565b610d4166dd2ff5862245e560c01b611f2d565b610d4c328383611897565b5050565b6060610d66674ebc11dbeac4c14860c01b6114f5565b610d7a672ddb0c51d0a85cfa60c01b6114f5565b610d8e672a7c82126e2e89bd60c01b6114f5565b60018054610d9b90613765565b80601f0160208091040260200160405190810160405280929190818152602001828054610dc790613765565b8015610e145780601f10610de957610100808354040283529160200191610e14565b820191906000526020600020905b815481529060010190602001808311610df757829003601f168201915b5050505050905090565b60085481565b610e38673d29de687d91a4ac60c01b6114f5565b610e4c67b7f7c996019eaf7d60c01b6114f5565b610e6067a7377cea35ad235960c01b6114f5565b610e72610e6b61161c565b8383611f30565b5050565b610e8a6714b531c5882d8c3860c01b6114f5565b610e9e673da294f5f8d32fdb60c01b6114f5565b610eb267c80c6f99a10ab59e60c01b6114f5565b610ec6677aad0a191bc5569760c01b6114f5565b610ed7610ed161161c565b8361172d565b610f16576040517f08c379a0000000000000000000000000000000000000000000000000000000008152600401610f0d9061392c565b60405180910390fd5b610f2a6716a0652145de572660c01b6114f5565b610f3e6791a5b921b540704d60c01b6114f5565b610f52671bd3454fae3129b460c01b6114f5565b610f5e8484848461213c565b50505050565b610f786754559b044d47bf5c60c01b611f2d565b610f8c67349b561fe087bfb560c01b611f2d565b610fa067a05be9560b86fc9e60c01b611f2d565b610fb4678f80e2f2f7cbf99560c01b611f2d565b610fbc610cdc565b73ffffffffffffffffffffffffffffffffffffffff163273ffffffffffffffffffffffffffffffffffffffff1614611029576040517f08c379a000000000000000000000000000000000000000000000000000000000815260040161102090613abc565b60405180910390fd5b61103d6739707347bc1a877460c01b611f2d565b611051672edc92fd36acd16e60c01b611f2d565b611065671a3d145897b5231e60c01b611f2d565b61107d3260016008546110789190613b0b565b612224565b61109167467a98625076019f60c01b611f2d565b6110a567e3dd7627e5402f7f60c01b611f2d565b6110bd60016008546110b79190613b0b565b826125f9565b6110d16761dc6c10c8db83df60c01b611f2d565b600860008154809291906110e490613b3f565b919050555050565b606061110267aeaeb220be2a7c4560c01b6126de565b6111166794ee0b6f949f278860c01b6126de565b61112a67f827874967938d4860c01b6126de565b6111338261156d565b611147679ecd267984a4d80160c01b6126de565b61115b675b06f5543a26f3a460c01b6126de565b600060066000848152602001908152602001600020805461117b90613765565b80601f01602080910402602001604051908101604052809291908181526020018280546111a790613765565b80156111f45780601f106111c9576101008083540402835291602001916111f4565b820191906000526020600020905b8154815290600101906020018083116111d757829003601f168201915b5050505050905061120f67ab71745c61f0d58c60c01b6126de565b6112236732c583423c17349b60c01b6126de565b600061122d6126e1565b9050611243676919ef20f9a0adb060c01b6126de565b6112576713e061c6140c36db60c01b6126de565b60008151036112a657611274678efedf95ca1c49f060c01b6126de565b611288677c5ab47cf326701960c01b6126de565b61129c6723538d9bac6ffb6d60c01b6126de565b819250505061139d565b6112ba6750b58fb59c32e6e960c01b6126de565b6112ce67d5720de49b70e6d260c01b6126de565b6112e267f2fd729784ada2e460c01b6126de565b60008251111561135357611300672fd70a194a0db3f660c01b6126de565b61131467ecf4d8aa0f1f3e0160c01b6126de565b61132867867eb3bc5e29849d60c01b6126de565b808260405160200161133b929190613bc3565b6040516020818303038152906040529250505061139d565b6113676719b63355d3442c8360c01b6126de565b61137b6718d2a26fde90f75f60c01b6126de565b61138f67433e09c28790ca6f60c01b6126de565b61139884612734565b925050505b919050565b60006113b8670891d4ad3313292b60c01b6114f5565b6113cc6737465b40d206db2960c01b6114f5565b6113e06746df7fa6208939af60c01b6114f5565b600560008473ffffffffffffffffffffffffffffffffffffffff1673ffffffffffffffffffffffffffffffffffffffff16815260200190815260200160002060008373ffffffffffffffffffffffffffffffffffffffff1673ffffffffffffffffffffffffffffffffffffffff16815260200190815260200160002060009054906101000a900460ff16905092915050565b61147a611de9565b600073ffffffffffffffffffffffffffffffffffffffff168173ffffffffffffffffffffffffffffffffffffffff16036114e9576040517f08c379a00000000000000000000000000000000000000000000000000000000081526004016114e090613c59565b60405180910390fd5b6114f281611e67565b50565b50565b600060019050919050565b60007f01ffc9a7000000000000000000000000000000000000000000000000000000007bffffffffffffffffffffffffffffffffffffffffffffffffffffffff1916827bffffffffffffffffffffffffffffffffffffffffffffffffffffffff1916149050919050565b611581676e380d5ac5fe500860c01b6114f5565b6115956766b47821790defb860c01b6114f5565b6115a9674a5de176e67d4f4760c01b6114f5565b6115bd67ece6718e96b1916260c01b6114f5565b6115c68161285f565b611605576040517f08c379a00000000000000000000000000000000000000000000000000000000081526004016115fc90613998565b60405180910390fd5b61161967db7b4944a1ca14bb60c01b6114f5565b50565b600033905090565b611638679e25a37beac97e4660c01b6114f5565b61164c679e95ea49e8fc01ef60c01b6114f5565b816004600083815260200190815260200160002060006101000a81548173ffffffffffffffffffffffffffffffffffffffff021916908373ffffffffffffffffffffffffffffffffffffffff1602179055506116b2676420b8c8fb7e6f8260c01b6114f5565b6116c667a63ade7f79f40b4f60c01b6114f5565b808273ffffffffffffffffffffffffffffffffffffffff166116e783610a49565b73ffffffffffffffffffffffffffffffffffffffff167f8c5be1e5ebec7d5bd14f71427d1e84f3dd0314c0f7b2291e5b200ac8c7c3b92560405160405180910390a45050565b60006117436711939ec09ae2fd0460c01b6114f5565b61175767ec990d7ea596464560c01b6114f5565b61176b67c7ae09ee10c7c41660c01b6114f5565b600061177683610a49565b905061178c673b61c69919e926be60c01b6114f5565b6117a0677dc728cda22ee92b60c01b6114f5565b8073ffffffffffffffffffffffffffffffffffffffff168473ffffffffffffffffffffffffffffffffffffffff161480156117eb57506117ea67302bb16a61fe1f9f60c01b6114f8565b5b8061183457506117fb81856113a2565b80156118175750611816670f424c98a59a99c460c01b6114f8565b5b801561183357506118326795fbe63d337b57b860c01b6114f8565b5b5b8061188e57508373ffffffffffffffffffffffffffffffffffffffff1661185a84610604565b73ffffffffffffffffffffffffffffffffffffffff1614801561188d575061188c67343c17fcb02c2ac160c01b6114f8565b5b5b91505092915050565b6118ab67cdbe0814e7c9311760c01b6114f5565b6118bf677ec5c7c50f4a40ac60c01b6114f5565b6118d36784bf597026216e2f60c01b6114f5565b6118e76734757b2de34f5fe660c01b6114f5565b8273ffffffffffffffffffffffffffffffffffffffff1661190782610a49565b73ffffffffffffffffffffffffffffffffffffffff161461195d576040517f08c379a000000000000000000000000000000000000000000000000000000000815260040161195490613ceb565b60405180910390fd5b6119716731bde043ea4417de60c01b6114f5565b611985671fe4579adc5cfc0360c01b6114f5565b611999673cf1f6f1ee12b51760c01b6114f5565b6119ad6725d0f6fd6573f3c360c01b6114f5565b600073ffffffffffffffffffffffffffffffffffffffff168273ffffffffffffffffffffffffffffffffffffffff1603611a1c576040517f08c379a0000000000000000000000000000000000000000000000000000000008152600401611a1390613d7d565b60405180910390fd5b611a30673bce14dda227486760c01b6114f5565b611a4467f3433631bae8835d60c01b6114f5565b611a5867ef683ac5bc41a95d60c01b6114f5565b611a6583838360016128dd565b611a7967a8e477fec5d80a6a60c01b6114f5565b611a8d673a19e697c8465e5460c01b6114f5565b611aa1678c5f33833dfc5f2660c01b6114f5565b8273ffffffffffffffffffffffffffffffffffffffff16611ac182610a49565b73ffffffffffffffffffffffffffffffffffffffff1614611b17576040517f08c379a0000000000000000000000000000000000000000000000000000000008152600401611b0e90613ceb565b60405180910390fd5b611b2b679480d84f63d8acf360c01b6114f5565b611b3f672ac0d06e6659dbc260c01b6114f5565b6004600082815260200190815260200160002060006101000a81549073ffffffffffffffffffffffffffffffffffffffff0219169055611b89677f556764e343e69760c01b6114f5565b611b9d671eb0aa92c5f64d5860c01b6114f5565b6001600360008573ffffffffffffffffffffffffffffffffffffffff1673ffffffffffffffffffffffffffffffffffffffff16815260200190815260200160002060008282540392505081905550611bff6793b4fae222b1ca3260c01b6114f5565b6001600360008473ffffffffffffffffffffffffffffffffffffffff1673ffffffffffffffffffffffffffffffffffffffff16815260200190815260200160002060008282540192505081905550611c6167f24dc17707947dc760c01b6114f5565b816002600083815260200190815260200160002060006101000a81548173ffffffffffffffffffffffffffffffffffffffff021916908373ffffffffffffffffffffffffffffffffffffffff160217905550611cc767c93dd8246799284f60c01b6114f5565b611cdb6713888422140bf1f560c01b6114f5565b808273ffffffffffffffffffffffffffffffffffffffff168473ffffffffffffffffffffffffffffffffffffffff167fddf252ad1be2c89b69c2b068fc378daa952ba7f163c4a11628f55a4df523b3ef60405160405180910390a4611d4a678e51a2c8bcd7293760c01b6114f5565b611d5e6763025e4c14de451e60c01b6114f5565b611d6b8383836001612b3e565b505050565b6000611d8667d9a2ff1ebb00360960c01b6114f5565b611d9a67361ba69e0e16c9be60c01b6114f5565b611dae67576ab1a04058791d60c01b6114f5565b6002600083815260200190815260200160002060009054906101000a900473ffffffffffffffffffffffffffffffffffffffff169050919050565b611df161161c565b73ffffffffffffffffffffffffffffffffffffffff16611e0f610cdc565b73ffffffffffffffffffffffffffffffffffffffff1614611e65576040517f08c379a0000000000000000000000000000000000000000000000000000000008152600401611e5c90613de9565b60405180910390fd5b565b6000600760009054906101000a900473ffffffffffffffffffffffffffffffffffffffff16905081600760006101000a81548173ffffffffffffffffffffffffffffffffffffffff021916908373ffffffffffffffffffffffffffffffffffffffff1602179055508173ffffffffffffffffffffffffffffffffffffffff168173ffffffffffffffffffffffffffffffffffffffff167f8be0079c531659141344cd1fd0a4f28419497f9722a3daafe3b4186f6b6457e060405160405180910390a35050565b50565b611f446742e210015f46d2f160c01b6114f5565b611f58673b6e7617b3f36bb760c01b6114f5565b611f6c67a32ea71e8ce6a31760c01b6114f5565b611f8067188c90211341878a60c01b6114f5565b8173ffffffffffffffffffffffffffffffffffffffff168373ffffffffffffffffffffffffffffffffffffffff1603611fee576040517f08c379a0000000000000000000000000000000000000000000000000000000008152600401611fe590613e55565b60405180910390fd5b61200267b623b7f819657f7160c01b6114f5565b61201667ee89c3488323c2c460c01b6114f5565b80600560008573ffffffffffffffffffffffffffffffffffffffff1673ffffffffffffffffffffffffffffffffffffffff16815260200190815260200160002060008473ffffffffffffffffffffffffffffffffffffffff1673ffffffffffffffffffffffffffffffffffffffff16815260200190815260200160002060006101000a81548160ff0219169083151502179055506120be67aa9e2ddcedcddd1160c01b6114f5565b6120d267baba68a643fcd22960c01b6114f5565b8173ffffffffffffffffffffffffffffffffffffffff168373ffffffffffffffffffffffffffffffffffffffff167f17307eab39ab6107e8899845ad3d59bd9653f200f220920489ca2b5937696c318360405161212f9190613146565b60405180910390a3505050565b6121506759c2e12961a428d260c01b6114f5565b61216467e63671aa70fdf53460c01b6114f5565b61217867dc5b21ec5417b3cd60c01b6114f5565b612183848484611897565b61219767ba5ac36de887dcc960c01b6114f5565b6121ab671a356cc7609ce85b60c01b6114f5565b6121bf67a22da9dd7b871b8260c01b6114f5565b6121cb84848484612b58565b61220a576040517f08c379a000000000000000000000000000000000000000000000000000000000815260040161220190613ee7565b60405180910390fd5b61221e6748e7294e3e9aa44960c01b6114f5565b50505050565b612238670ab8b43c91ee61ed60c01b6114f5565b61224c6760a260e9195b95b460c01b6114f5565b612260679c32a087c8926b4d60c01b6114f5565b612274675bba0a4d98fb695d60c01b6114f5565b600073ffffffffffffffffffffffffffffffffffffffff168273ffffffffffffffffffffffffffffffffffffffff16036122e3576040517f08c379a00000000000000000000000000000000000000000000000000000000081526004016122da90613f53565b60405180910390fd5b6122f7679ae025018981254060c01b6114f5565b61230b6723475e8e3443e18860c01b6114f5565b61231f6766f4c6756f7b774d60c01b6114f5565b612333673d4dcc040a47766d60c01b6114f5565b61233c8161285f565b1561237c576040517f08c379a000000000000000000000000000000000000000000000000000000000815260040161237390613fbf565b60405180910390fd5b61239067fa0bfef38b6c37d860c01b6114f5565b6123a4674442c2875b188ed260c01b6114f5565b6123b867891f87d225ae362460c01b6114f5565b6123c66000838360016128dd565b6123da675abe25bd88198fad60c01b6114f5565b6123ee677bc3820cfebd2f1860c01b6114f5565b61240267bc7cd7d35ea1abd060c01b6114f5565b61240b8161285f565b1561244b576040517f08c379a000000000000000000000000000000000000000000000000000000000815260040161244290613fbf565b60405180910390fd5b61245f67684a550e2555728160c01b6114f5565b61247367ed08303d75b877c660c01b6114f5565b6124876785b57108120f6ede60c01b6114f5565b6001600360008473ffffffffffffffffffffffffffffffffffffffff1673ffffffffffffffffffffffffffffffffffffffff168152602001908152602001600020600082825401925050819055506124e967b50aa48db93ae3b660c01b6114f5565b816002600083815260200190815260200160002060006101000a81548173ffffffffffffffffffffffffffffffffffffffff021916908373ffffffffffffffffffffffffffffffffffffffff16021790555061254f67a2d65d3ed929319860c01b6114f5565b6125636743886f8c9aaae1b760c01b6114f5565b808273ffffffffffffffffffffffffffffffffffffffff16600073ffffffffffffffffffffffffffffffffffffffff167fddf252ad1be2c89b69c2b068fc378daa952ba7f163c4a11628f55a4df523b3ef60405160405180910390a46125d36721f4eb99423f58ad60c01b6114f5565b6125e76764b4aa0fd566db0e60c01b6114f5565b6125f5600083836001612b3e565b5050565b61260d6765357687e50f574860c01b6126de565b61262167c09249d759217d7960c01b6126de565b6126356799fcca5880dc061960c01b6126de565b612649674b4e251ad0185db560c01b6126de565b6126528261285f565b612691576040517f08c379a000000000000000000000000000000000000000000000000000000000815260040161268890614051565b60405180910390fd5b6126a567aa46cfb109174c9660c01b6126de565b6126b967573d14a2d467cda160c01b6126de565b806006600084815260200190815260200160002090816126d9919061421d565b505050565b50565b60606126f767a725df5b2e5aeaf660c01b6114f5565b61270b67030a3d47f158a0dd60c01b6114f5565b61271f677470879527f4759660c01b6114f5565b60405180602001604052806000815250905090565b606061274a67a1a55a4b1d37cf9260c01b6114f5565b61275e67ed0d68ef590b2b3d60c01b6114f5565b6127726704ba0e4e10f24d2360c01b6114f5565b61277b8261156d565b61278f677d7f702dbb6030df60c01b6114f5565b6127a3679e8ed01ba84999ea60c01b6114f5565b60006127ad6126e1565b90506127c367cf2fc52bdd2f3b6060c01b6114f5565b6127d76777fe978ec1b9911960c01b6114f5565b600081511180156127f857506127f767c3c29848b5d28cca60c01b6114f8565b5b806128135750612812675c9e11ed2f892b9060c01b612e47565b5b61282c5760405180602001604052806000815250612857565b8061283684612e4e565b604051602001612847929190613bc3565b6040516020818303038152906040525b915050919050565b60006128756748bf28fefdc1cfcb60c01b6114f5565b612889679c4fd0b9980258cd60c01b6114f5565b61289d679f92f07e1820614560c01b6114f5565b600073ffffffffffffffffffffffffffffffffffffffff166128be83611d70565b73ffffffffffffffffffffffffffffffffffffffff1614159050919050565b6128f167ddd51114502c3a4560c01b6114f5565b612905671864672cd2377b2f60c01b6114f5565b612919675afeb855c050c6b660c01b6114f5565b6001811115612b235761293667947c940bf2acd3db60c01b6114f5565b61294a67f39fb49855d3361660c01b6114f5565b61295e67af3e58a2bf3a6f7c60c01b6114f5565b600073ffffffffffffffffffffffffffffffffffffffff168473ffffffffffffffffffffffffffffffffffffffff1614612a15576129a667ae54763280a52adc60c01b6114f5565b6129ba67198b80818a7e3d8c60c01b6114f5565b80600360008673ffffffffffffffffffffffffffffffffffffffff1673ffffffffffffffffffffffffffffffffffffffff1681526020019081526020016000206000828254612a0991906142ef565b92505081905550612a2a565b612a2967fdf3640876a87d4860c01b6114f5565b5b612a3e67d545c3382901afd360c01b6114f5565b612a5267ca27063177d22e5060c01b6114f5565b600073ffffffffffffffffffffffffffffffffffffffff168373ffffffffffffffffffffffffffffffffffffffff1614612b0957612a9a6780f88d871b52e70060c01b6114f5565b612aae67fd62d7f13ac679d960c01b6114f5565b80600360008573ffffffffffffffffffffffffffffffffffffffff1673ffffffffffffffffffffffffffffffffffffffff1681526020019081526020016000206000828254612afd9190613b0b565b92505081905550612b1e565b612b1d67787d732c1cf0cdcf60c01b6114f5565b5b612b38565b612b37670ba3bc9c80383f8860c01b6114f5565b5b50505050565b612b52673bc1522aefab759b60c01b6114f5565b50505050565b6000612b6e674d354d3232e2185a60c01b6114f5565b612b8267c909c1cea4fa92aa60c01b6114f5565b612b9667da93eb103788bdb960c01b6114f5565b612bb58473ffffffffffffffffffffffffffffffffffffffff16612f1c565b15612dfe57612bce679698705ec07098d060c01b6114f5565b612be267775b1f20268c2ca160c01b6114f5565b612bf66792a167377d3135f160c01b6114f5565b8373ffffffffffffffffffffffffffffffffffffffff1663150b7a02612c1a61161c565b8786866040518563ffffffff1660e01b8152600401612c3c9493929190614378565b6020604051808303816000875af1925050508015612c7857506040513d601f19601f82011682018060405250810190612c7591906143d9565b60015b612d86573d8060008114612ca8576040519150601f19603f3d011682016040523d82523d6000602084013e612cad565b606091505b50612cc267dfe8a47f5d3c598560c01b6114f5565b612cd667b9324427e18c694d60c01b6114f5565b6000815103612d5657612cf3674de780b7e110736760c01b6114f5565b612d076755375223fb938c2f60c01b6114f5565b612d1b67d98175053894299160c01b6114f5565b6040517f08c379a0000000000000000000000000000000000000000000000000000000008152600401612d4d90613ee7565b60405180910390fd5b612d6a67017a313605d8fe4360c01b6114f5565b612d7e67af98f68ebc3afb3e60c01b6114f5565b805181602001fd5b612d9a67d8d256fd5dfc06b860c01b6114f5565b612dae670548c48b794153ca60c01b6114f5565b63150b7a0260e01b7bffffffffffffffffffffffffffffffffffffffffffffffffffffffff1916817bffffffffffffffffffffffffffffffffffffffffffffffffffffffff191614915050612e3f565b612e126761795e48e677e20e60c01b6114f5565b612e2667b6b92e8d68741c0860c01b6114f5565b612e3a67bf5c21a2c258abe060c01b6114f5565b600190505b949350505050565b6000919050565b606060006001612e5d84612f3f565b01905060008167ffffffffffffffff811115612e7c57612e7b61345e565b5b6040519080825280601f01601f191660200182016040528015612eae5781602001600182028036833780820191505090505b509050600082602001820190505b600115612f11578080600190039150507f3031323334353637383961626364656600000000000000000000000000000000600a86061a8153600a8581612f0557612f04614406565b5b04945060008503612ebc575b819350505050919050565b6000808273ffffffffffffffffffffffffffffffffffffffff163b119050919050565b600080600090507a184f03e93ff9f4daa797ed6e38ed64bf6a1f0100000000000000008310612f9d577a184f03e93ff9f4daa797ed6e38ed64bf6a1f0100000000000000008381612f9357612f92614406565b5b0492506040810190505b6d04ee2d6d415b85acef81000000008310612fda576d04ee2d6d415b85acef81000000008381612fd057612fcf614406565b5b0492506020810190505b662386f26fc10000831061300957662386f26fc100008381612fff57612ffe614406565b5b0492506010810190505b6305f5e1008310613032576305f5e100838161302857613027614406565b5b0492506008810190505b612710831061305757612710838161304d5761304c614406565b5b0492506004810190505b6064831061307a57606483816130705761306f614406565b5b0492506002810190505b600a8310613089576001810190505b80915050919050565b6000604051905090565b600080fd5b600080fd5b60007fffffffff0000000000000000000000000000000000000000000000000000000082169050919050565b6130db816130a6565b81146130e657600080fd5b50565b6000813590506130f8816130d2565b92915050565b6000602082840312156131145761311361309c565b5b6000613122848285016130e9565b91505092915050565b60008115159050919050565b6131408161312b565b82525050565b600060208201905061315b6000830184613137565b92915050565b600081519050919050565b600082825260208201905092915050565b60005b8381101561319b578082015181840152602081019050613180565b60008484015250505050565b6000601f19601f8301169050919050565b60006131c382613161565b6131cd818561316c565b93506131dd81856020860161317d565b6131e6816131a7565b840191505092915050565b6000602082019050818103600083015261320b81846131b8565b905092915050565b6000819050919050565b61322681613213565b811461323157600080fd5b50565b6000813590506132438161321d565b92915050565b60006020828403121561325f5761325e61309c565b5b600061326d84828501613234565b91505092915050565b600073ffffffffffffffffffffffffffffffffffffffff82169050919050565b60006132a182613276565b9050919050565b6132b181613296565b82525050565b60006020820190506132cc60008301846132a8565b92915050565b6132db81613296565b81146132e657600080fd5b50565b6000813590506132f8816132d2565b92915050565b600080604083850312156133155761331461309c565b5b6000613323858286016132e9565b925050602061333485828601613234565b9150509250929050565b6000806000606084860312156133575761335661309c565b5b6000613365868287016132e9565b9350506020613376868287016132e9565b925050604061338786828701613234565b9150509250925092565b6000602082840312156133a7576133a661309c565b5b60006133b5848285016132e9565b91505092915050565b6133c781613213565b82525050565b60006020820190506133e260008301846133be565b92915050565b6133f18161312b565b81146133fc57600080fd5b50565b60008135905061340e816133e8565b92915050565b6000806040838503121561342b5761342a61309c565b5b6000613439858286016132e9565b925050602061344a858286016133ff565b9150509250929050565b600080fd5b600080fd5b7f4e487b7100000000000000000000000000000000000000000000000000000000600052604160045260246000fd5b613496826131a7565b810181811067ffffffffffffffff821117156134b5576134b461345e565b5b80604052505050565b60006134c8613092565b90506134d4828261348d565b919050565b600067ffffffffffffffff8211156134f4576134f361345e565b5b6134fd826131a7565b9050602081019050919050565b82818337600083830152505050565b600061352c613527846134d9565b6134be565b90508281526020810184848401111561354857613547613459565b5b61355384828561350a565b509392505050565b600082601f8301126135705761356f613454565b5b8135613580848260208601613519565b91505092915050565b600080600080608085870312156135a3576135a261309c565b5b60006135b1878288016132e9565b94505060206135c2878288016132e9565b93505060406135d387828801613234565b925050606085013567ffffffffffffffff8111156135f4576135f36130a1565b5b6136008782880161355b565b91505092959194509250565b600067ffffffffffffffff8211156136275761362661345e565b5b613630826131a7565b9050602081019050919050565b600061365061364b8461360c565b6134be565b90508281526020810184848401111561366c5761366b613459565b5b61367784828561350a565b509392505050565b600082601f83011261369457613693613454565b5b81356136a484826020860161363d565b91505092915050565b6000602082840312156136c3576136c261309c565b5b600082013567ffffffffffffffff8111156136e1576136e06130a1565b5b6136ed8482850161367f565b91505092915050565b6000806040838503121561370d5761370c61309c565b5b600061371b858286016132e9565b925050602061372c858286016132e9565b9150509250929050565b7f4e487b7100000000000000000000000000000000000000000000000000000000600052602260045260246000fd5b6000600282049050600182168061377d57607f821691505b6020821081036137905761378f613736565b5b50919050565b7f4552433732313a20617070726f76616c20746f2063757272656e74206f776e6560008201527f7200000000000000000000000000000000000000000000000000000000000000602082015250565b60006137f260218361316c565b91506137fd82613796565b604082019050919050565b60006020820190508181036000830152613821816137e5565b9050919050565b7f4552433732313a20617070726f76652063616c6c6572206973206e6f7420746f60008201527f6b656e206f776e6572206f7220617070726f76656420666f7220616c6c000000602082015250565b6000613884603d8361316c565b915061388f82613828565b604082019050919050565b600060208201905081810360008301526138b381613877565b9050919050565b7f4552433732313a2063616c6c6572206973206e6f7420746f6b656e206f776e6560008201527f72206f7220617070726f76656400000000000000000000000000000000000000602082015250565b6000613916602d8361316c565b9150613921826138ba565b604082019050919050565b6000602082019050818103600083015261394581613909565b9050919050565b7f4552433732313a20696e76616c696420746f6b656e2049440000000000000000600082015250565b600061398260188361316c565b915061398d8261394c565b602082019050919050565b600060208201905081810360008301526139b181613975565b9050919050565b7f4552433732313a2061646472657373207a65726f206973206e6f74206120766160008201527f6c6964206f776e65720000000000000000000000000000000000000000000000602082015250565b6000613a1460298361316c565b9150613a1f826139b8565b604082019050919050565b60006020820190508181036000830152613a4381613a07565b9050919050565b7f4e6674436f6c6c656374696f6e203a2063616c6c6572206973206e6f7420746860008201527f65206f776e657200000000000000000000000000000000000000000000000000602082015250565b6000613aa660278361316c565b9150613ab182613a4a565b604082019050919050565b60006020820190508181036000830152613ad581613a99565b9050919050565b7f4e487b7100000000000000000000000000000000000000000000000000000000600052601160045260246000fd5b6000613b1682613213565b9150613b2183613213565b9250828201905080821115613b3957613b38613adc565b5b92915050565b6000613b4a82613213565b91507fffffffffffffffffffffffffffffffffffffffffffffffffffffffffffffffff8203613b7c57613b7b613adc565b5b600182019050919050565b600081905092915050565b6000613b9d82613161565b613ba78185613b87565b9350613bb781856020860161317d565b80840191505092915050565b6000613bcf8285613b92565b9150613bdb8284613b92565b91508190509392505050565b7f4f776e61626c653a206e6577206f776e657220697320746865207a65726f206160008201527f6464726573730000000000000000000000000000000000000000000000000000602082015250565b6000613c4360268361316c565b9150613c4e82613be7565b604082019050919050565b60006020820190508181036000830152613c7281613c36565b9050919050565b7f4552433732313a207472616e736665722066726f6d20696e636f72726563742060008201527f6f776e6572000000000000000000000000000000000000000000000000000000602082015250565b6000613cd560258361316c565b9150613ce082613c79565b604082019050919050565b60006020820190508181036000830152613d0481613cc8565b9050919050565b7f4552433732313a207472616e7366657220746f20746865207a65726f2061646460008201527f7265737300000000000000000000000000000000000000000000000000000000602082015250565b6000613d6760248361316c565b9150613d7282613d0b565b604082019050919050565b60006020820190508181036000830152613d9681613d5a565b9050919050565b7f4f776e61626c653a2063616c6c6572206973206e6f7420746865206f776e6572600082015250565b6000613dd360208361316c565b9150613dde82613d9d565b602082019050919050565b60006020820190508181036000830152613e0281613dc6565b9050919050565b7f4552433732313a20617070726f766520746f2063616c6c657200000000000000600082015250565b6000613e3f60198361316c565b9150613e4a82613e09565b602082019050919050565b60006020820190508181036000830152613e6e81613e32565b9050919050565b7f4552433732313a207472616e7366657220746f206e6f6e20455243373231526560008201527f63656976657220696d706c656d656e7465720000000000000000000000000000602082015250565b6000613ed160328361316c565b9150613edc82613e75565b604082019050919050565b60006020820190508181036000830152613f0081613ec4565b9050919050565b7f4552433732313a206d696e7420746f20746865207a65726f2061646472657373600082015250565b6000613f3d60208361316c565b9150613f4882613f07565b602082019050919050565b60006020820190508181036000830152613f6c81613f30565b9050919050565b7f4552433732313a20746f6b656e20616c7265616479206d696e74656400000000600082015250565b6000613fa9601c8361316c565b9150613fb482613f73565b602082019050919050565b60006020820190508181036000830152613fd881613f9c565b9050919050565b7f45524337323155524953746f726167653a2055524920736574206f66206e6f6e60008201527f6578697374656e7420746f6b656e000000000000000000000000000000000000602082015250565b600061403b602e8361316c565b915061404682613fdf565b604082019050919050565b6000602082019050818103600083015261406a8161402e565b9050919050565b60008190508160005260206000209050919050565b60006020601f8301049050919050565b600082821b905092915050565b6000600883026140d37fffffffffffffffffffffffffffffffffffffffffffffffffffffffffffffffff82614096565b6140dd8683614096565b95508019841693508086168417925050509392505050565b6000819050919050565b600061411a61411561411084613213565b6140f5565b613213565b9050919050565b6000819050919050565b614134836140ff565b61414861414082614121565b8484546140a3565b825550505050565b600090565b61415d614150565b61416881848461412b565b505050565b5b8181101561418c57614181600082614155565b60018101905061416e565b5050565b601f8211156141d1576141a281614071565b6141ab84614086565b810160208510156141ba578190505b6141ce6141c685614086565b83018261416d565b50505b505050565b600082821c905092915050565b60006141f4600019846008026141d6565b1980831691505092915050565b600061420d83836141e3565b9150826002028217905092915050565b61422682613161565b67ffffffffffffffff81111561423f5761423e61345e565b5b6142498254613765565b614254828285614190565b600060209050601f8311600181146142875760008415614275578287015190505b61427f8582614201565b8655506142e7565b601f19841661429586614071565b60005b828110156142bd57848901518255600182019150602085019450602081019050614298565b868310156142da57848901516142d6601f8916826141e3565b8355505b6001600288020188555050505b505050505050565b60006142fa82613213565b915061430583613213565b925082820390508181111561431d5761431c613adc565b5b92915050565b600081519050919050565b600082825260208201905092915050565b600061434a82614323565b614354818561432e565b935061436481856020860161317d565b61436d816131a7565b840191505092915050565b600060808201905061438d60008301876132a8565b61439a60208301866132a8565b6143a760408301856133be565b81810360608301526143b9818461433f565b905095945050505050565b6000815190506143d3816130d2565b92915050565b6000602082840312156143ef576143ee61309c565b5b60006143fd848285016143c4565b91505092915050565b7f4e487b7100000000000000000000000000000000000000000000000000000000600052601260045260246000fdfea264697066735822122003e1d626814d0b304dc800c634b2e2318400dcfcdedaeabd0be8eb668994654564736f6c63430008110033",
  "linkReferences": {},
  "deployedLinkReferences": {}
}