{"contracts/NftMarketplace.sol":{"NftMarketplace":{"abi":[{"inputs":[],"stateMutability":"nonpayable","type":"constructor"},{"anonymous":false,"inputs":[{"indexed":false,"internalType":"string","name":"_artistName","type":"string"},{"indexed":false,"internalType":"string","name":"_artistSymbol","type":"string"},{"indexed":false,"internalType":"address","name":"_collectionAddress","type":"address"},{"indexed":false,"internalType":"uint256","name":"_timestamp","type":"uint256"}],"name":"NFTCollectionCreated","type":"event"},{"anonymous":false,"inputs":[{"indexed":false,"internalType":"uint256","name":"tokenID","type":"uint256"},{"indexed":false,"internalType":"address","name":"collection","type":"address"},{"indexed":false,"internalType":"address","name":"to","type":"address"},{"indexed":false,"internalType":"string","name":"tokenURI","type":"string"}],"name":"NFTCreated","type":"event"},{"anonymous":false,"inputs":[{"indexed":false,"internalType":"uint256","name":"itemId","type":"uint256"},{"indexed":true,"internalType":"address","name":"nft","type":"address"},{"indexed":false,"internalType":"uint256","name":"tokenId","type":"uint256"},{"indexed":false,"internalType":"uint256","name":"price","type":"uint256"},{"indexed":true,"internalType":"address","name":"seller","type":"address"}],"name":"NFTListed","type":"event"},{"anonymous":false,"inputs":[{"indexed":false,"internalType":"uint256","name":"itemId","type":"uint256"},{"indexed":true,"internalType":"address","name":"nft","type":"address"},{"indexed":false,"internalType":"uint256","name":"tokenId","type":"uint256"},{"indexed":false,"internalType":"uint256","name":"price","type":"uint256"},{"indexed":true,"internalType":"address","name":"seller","type":"address"},{"indexed":true,"internalType":"address","name":"buyer","type":"address"}],"name":"NFTPurchased","type":"event"},{"inputs":[{"internalType":"uint256","name":"tokenID","type":"uint256"}],"name":"BuyNFT","outputs":[],"stateMutability":"payable","type":"function"},{"inputs":[{"internalType":"uint256","name":"tokenID","type":"uint256"}],"name":"cancelListing","outputs":[],"stateMutability":"nonpayable","type":"function"},{"inputs":[{"internalType":"string","name":"","type":"string"}],"name":"collectionDetails","outputs":[{"internalType":"string","name":"name","type":"string"},{"internalType":"string","name":"symbol","type":"string"},{"internalType":"address","name":"collectionAddress","type":"address"}],"stateMutability":"view","type":"function"},{"inputs":[{"internalType":"uint256","name":"","type":"uint256"}],"name":"collectionsSymbols","outputs":[{"internalType":"string","name":"","type":"string"}],"stateMutability":"view","type":"function"},{"inputs":[{"internalType":"string","name":"tokenURI","type":"string"},{"internalType":"address","name":"collectionAddress","type":"address"},{"internalType":"string","name":"symbol","type":"string"}],"name":"createNFT","outputs":[],"stateMutability":"nonpayable","type":"function"},{"inputs":[{"internalType":"string","name":"_artistName","type":"string"},{"internalType":"string","name":"_artistSymbol","type":"string"}],"name":"createNFTCollection","outputs":[{"internalType":"address","name":"collectionAddress","type":"address"}],"stateMutability":"nonpayable","type":"function"},{"inputs":[{"internalType":"uint256","name":"tokenID","type":"uint256"},{"internalType":"uint256","name":"price","type":"uint256"}],"name":"listNFT","outputs":[],"stateMutability":"nonpayable","type":"function"},{"inputs":[],"name":"nbrCollections","outputs":[{"internalType":"uint256","name":"","type":"uint256"}],"stateMutability":"view","type":"function"},{"inputs":[],"name":"nbrNfts","outputs":[{"internalType":"uint256","name":"_value","type":"uint256"}],"stateMutability":"view","type":"function"},{"inputs":[{"internalType":"uint256","name":"","type":"uint256"}],"name":"nfts","outputs":[{"internalType":"uint256","name":"itemId","type":"uint256"},{"internalType":"address","name":"CollectionAddress","type":"address"},{"internalType":"uint256","name":"tokenId","type":"uint256"},{"internalType":"uint256","name":"price","type":"uint256"},{"internalType":"address payable","name":"seller","type":"address"},{"internalType":"bool","name":"listed","type":"bool"},{"internalType":"string","name":"URI","type":"string"},{"internalType":"string","name":"symbol","type":"string"}],"stateMutability":"view","type":"function"}],"devdoc":{"kind":"dev","methods":{"BuyNFT(uint256)":{"params":{"tokenID":"the token index of the whole emited tokens on the marketplace"}},"cancelListing(uint256)":{"params":{"tokenID":"the token index of the whole emited tokens on the marketplace"}},"createNFT(string,address,string)":{"params":{"collectionAddress":"the collection address to mint NFT in","symbol":"the collection symbol","tokenURI":"the URI containing JSON for the NFT"}},"createNFTCollection(string,string)":{"details":"first we import the contract's bytecode to deploy, then we make a salt on the _artistName and we use assembly to generate a collection address for an ERC721 contract return the newly generated collection address","params":{"_artistName":"the name of the collection artist","_artistSymbol":"the name of the collection symbol"},"returns":{"collectionAddress":"the address of the created collection contract"}},"listNFT(uint256,uint256)":{"params":{"price":"the price user wants to set to his NFT for sale","tokenID":"the token index of the whole emited tokens on the marketplace"}}},"version":1},"evm":{"bytecode":{"linkReferences":{},"object":"60806040523480156200001157600080fd5b5060016000819055506200003667699fbe26e1ba1b9d60c01b6200003c60201b60201c565b6200003f565b50565b6181ce806200004f6000396000f3fe6080604052600436106200009e5760003560e01c8063a37365e01162000061578063a37365e014620001bc578063a38c9aa214620001dc578063bf1b6f5b146200020c578063cb576613146200023c578063e9faaa921462000282576200009e565b8063265aa62114620000a3578063305a67a814620000ee57806366223a18146200011c5780637f3212eb146200016057806394383f14146200018e575b600080fd5b348015620000b057600080fd5b50620000cf6004803603810190620000c99190620022ec565b620002c6565b604051620000e598979695949392919062002450565b60405180910390f35b348015620000fb57600080fd5b506200011a6004803603810190620001149190620022ec565b6200047b565b005b3480156200012957600080fd5b506200014860048036038101906200014291906200263d565b6200070f565b604051620001579190620026c2565b60405180910390f35b3480156200016d57600080fd5b506200018c600480360381019062000186919062002710565b62000c3d565b005b3480156200019b57600080fd5b50620001ba6004803603810190620001b49190620027aa565b62001146565b005b620001da6004803603810190620001d49190620022ec565b62001754565b005b348015620001e957600080fd5b50620001f462001ed8565b604051620002039190620027f1565b60405180910390f35b3480156200021957600080fd5b506200022462001ede565b604051620002339190620027f1565b60405180910390f35b3480156200024957600080fd5b506200026860048036038101906200026291906200280e565b62001eea565b60405162000279939291906200285f565b60405180910390f35b3480156200028f57600080fd5b50620002ae6004803603810190620002a89190620022ec565b6200206a565b604051620002bd9190620028aa565b60405180910390f35b60056020528060005260406000206000915090508060000154908060010160009054906101000a900473ffffffffffffffffffffffffffffffffffffffff16908060020154908060030154908060040160009054906101000a900473ffffffffffffffffffffffffffffffffffffffff16908060040160149054906101000a900460ff16908060050180546200035c90620028fd565b80601f01602080910402602001604051908101604052809291908181526020018280546200038a90620028fd565b8015620003db5780601f10620003af57610100808354040283529160200191620003db565b820191906000526020600020905b815481529060010190602001808311620003bd57829003601f168201915b505050505090806006018054620003f290620028fd565b80601f01602080910402602001604051908101604052809291908181526020018280546200042090620028fd565b8015620004715780601f10620004455761010080835404028352916020019162000471565b820191906000526020600020905b8154815290600101906020018083116200045357829003601f168201915b5050505050905088565b62000491674347dfeaf88ea78860c01b6200211f565b6200049b62002122565b620004b1678a3173193bddcbd660c01b6200211f565b620004c7677a1e2ccdb360abfb60c01b6200211f565b620004dd67ddaeeebd0245aec860c01b6200211f565b620004f3671c19f7ffafdd18ad60c01b6200211f565b620005096716bac7c01dd079f660c01b6200211f565b600115156005600083815260200190815260200160002060040160149054906101000a900460ff1615151462000576576040517f08c379a00000000000000000000000000000000000000000000000000000000081526004016200056d90620029a8565b60405180910390fd5b6200058c67a77ed1e0a943bcf960c01b6200211f565b620005a2679e61eeaccefb2fdd60c01b6200211f565b620005b867f41a066efabce9e560c01b6200211f565b620005ce67138aacdbe728eee860c01b6200211f565b6005600082815260200190815260200160002060040160009054906101000a900473ffffffffffffffffffffffffffffffffffffffff1673ffffffffffffffffffffffffffffffffffffffff163373ffffffffffffffffffffffffffffffffffffffff161462000675576040517f08c379a00000000000000000000000000000000000000000000000000000000081526004016200066c9062002a40565b60405180910390fd5b6200068b67e130fec6a0e9169b60c01b6200211f565b620006a167afff8aa7581d8a6360c01b6200211f565b60006005600083815260200190815260200160002060040160146101000a81548160ff021916908315150217905550620006e667b6ab3c03ee62bec660c01b6200211f565b600060056000838152602001908152602001600020600301819055506200070c62002174565b50565b60006200072767076e3a0f907ab1ae60c01b6200217e565b6200073d67659d2797c0e68fb660c01b6200217e565b620007536724a9d0a34e74561160c01b6200217e565b6200076967cce66dd404ef298e60c01b6200217e565b600083511180156200077c575060008251115b620007be576040517f08c379a0000000000000000000000000000000000000000000000000000000008152600401620007b59062002ad8565b60405180910390fd5b620007d467f79e3340768194d360c01b6200217e565b620007ea679a2eaeeedb41e8f560c01b6200217e565b62000800677b392dafb774113560c01b6200217e565b62000816674e090010547f927f60c01b6200217e565b60006003836040516200082a919062002b3c565b908152602001604051809103902060010180546200084890620028fd565b9050146200088d576040517f08c379a0000000000000000000000000000000000000000000000000000000008152600401620008849062002ba5565b60405180910390fd5b620008a367f5187e394516568160c01b6200217e565b620008b967672bac2d328d588b60c01b6200217e565b620008cf67b2fc7bfe8f539e0260c01b6200217e565b6000620008dd848462002181565b9050620008f567fb15337e00efd61460c01b6200217e565b6200090b67cb9029a1f169451360c01b6200217e565b60008460405160200162000920919062002b3c565b6040516020818303038152906040528051906020012090506200094e674755a52696ef52b760c01b6200217e565b808251602084016000f59250823b6200096657600080fd5b6200097c677ed99fe23183800760c01b6200217e565b62000992677288332e0f8cb20760c01b6200217e565b8273ffffffffffffffffffffffffffffffffffffffff1663f2fde38b336040518263ffffffff1660e01b8152600401620009cd9190620026c2565b600060405180830381600087803b158015620009e857600080fd5b505af1158015620009fd573d6000803e3d6000fd5b5050505062000a1767f13110b80202685f60c01b6200217e565b6002600081548092919062000a2c9062002bf6565b919050555062000a47676fd64f9427d7cb3060c01b6200217e565b8460038560405162000a5a919062002b3c565b9081526020016040518091039020600001908162000a79919062002e15565b5062000a9067b6c64d5bae485d9b60c01b6200217e565b8360038560405162000aa3919062002b3c565b9081526020016040518091039020600101908162000ac2919062002e15565b5062000ad967094d14bc6e549fe960c01b6200217e565b8260038560405162000aec919062002b3c565b908152602001604051809103902060020160006101000a81548173ffffffffffffffffffffffffffffffffffffffff021916908373ffffffffffffffffffffffffffffffffffffffff16021790555062000b516751670d2420ff14d760c01b6200217e565b62000b676719a35e7767777a5760c01b6200217e565b60018490806001815401808255809150506001900390600052602060002001600090919091909150908162000b9d919062002e15565b5062000bb467d4902f66d8320c7460c01b6200217e565b62000bca6763db3ad31dccf06160c01b6200217e565b7f7e43efb107a1ee87684f21d01bd9aa430db7c7aa3653fac7ddc509318abf38088585854260405162000c01949392919062002efc565b60405180910390a162000c1f67df0c2799fa0842f760c01b6200217e565b62000c3567bd5d19998ff5ce6060c01b6200217e565b505092915050565b62000c5367928af28f6023421560c01b6200211f565b62000c5d62002122565b62000c7367b2765693f8b7779960c01b6200211f565b62000c89673d05596e66a30d7f60c01b6200211f565b62000c9f67417d9930e7b889de60c01b6200211f565b62000cb5674f7e34b7f024834560c01b6200211f565b62000ccb678889f0a53613f8bd60c01b6200211f565b6000835111801562000d4b57508173ffffffffffffffffffffffffffffffffffffffff1660038260405162000d01919062002b3c565b908152602001604051809103902060020160009054906101000a900473ffffffffffffffffffffffffffffffffffffffff1673ffffffffffffffffffffffffffffffffffffffff16145b62000d8d576040517f08c379a000000000000000000000000000000000000000000000000000000000815260040162000d849062002fcd565b60405180910390fd5b62000da3672b76f5ec5fcdb02960c01b6200211f565b62000db96754fbed84b93ecb5260c01b6200211f565b62000dcf67a16bf61f99ca304e60c01b6200211f565b600082905062000dea67b8102e15a5f4a2a660c01b6200211f565b62000e0067d3b0d37f8d942d2860c01b6200211f565b8073ffffffffffffffffffffffffffffffffffffffff1663c7545849856040518263ffffffff1660e01b815260040162000e3b9190620028aa565b600060405180830381600087803b15801562000e5657600080fd5b505af115801562000e6b573d6000803e3d6000fd5b5050505062000e8567a5bb28d29b855f7060c01b6200211f565b62000e9b675b7736547b9c7d0a60c01b6200211f565b62000ea760046200226b565b62000ebd673413548d007a05fb60c01b6200211f565b60405180610100016040528062000ed5600462002281565b81526020018473ffffffffffffffffffffffffffffffffffffffff1681526020018273ffffffffffffffffffffffffffffffffffffffff16639d63848a6040518163ffffffff1660e01b8152600401602060405180830381865afa15801562000f42573d6000803e3d6000fd5b505050506040513d601f19601f8201168201806040525081019062000f68919062003006565b8152602001600081526020013373ffffffffffffffffffffffffffffffffffffffff168152602001600015158152602001858152602001838152506005600062000fb3600462002281565b81526020019081526020016000206000820151816000015560208201518160010160006101000a81548173ffffffffffffffffffffffffffffffffffffffff021916908373ffffffffffffffffffffffffffffffffffffffff160217905550604082015181600201556060820151816003015560808201518160040160006101000a81548173ffffffffffffffffffffffffffffffffffffffff021916908373ffffffffffffffffffffffffffffffffffffffff16021790555060a08201518160040160146101000a81548160ff02191690831515021790555060c0820151816005019081620010a4919062002e15565b5060e0820151816006019081620010bc919062002e15565b50905050620010d667744f4bcb6eb05e3160c01b6200211f565b620010ec67b0ccb859d407d7ec60c01b6200211f565b7f67540a320daf33f565534fe9eca83eb771d29ef88dde04b188b0ebf60f40abda62001119600462002281565b8433876040516200112e949392919062003038565b60405180910390a1506200114162002174565b505050565b6200115c67ac0bb02509b3845460c01b6200211f565b6200116662002122565b6200117c6703319ccdd9a1b6e260c01b6200211f565b62001192676eb645e29a66413f60c01b6200211f565b620011a8671e940c060b4515bd60c01b6200211f565b620011be674c143f697763436e60c01b6200211f565b620011d4674468eb2adb644fb760c01b6200211f565b600081116200121a576040517f08c379a0000000000000000000000000000000000000000000000000000000008152600401620012119062003102565b60405180910390fd5b62001230675235756dd06d4bd860c01b6200211f565b620012466761b309c821f92f6460c01b6200211f565b6200125c673a6d7f677be5c69e60c01b6200211f565b620012726785fb3e2afd1db0fe60c01b6200211f565b6000821180156200128e57506200128a600462002281565b8211155b620012d0576040517f08c379a0000000000000000000000000000000000000000000000000000000008152600401620012c79062003174565b60405180910390fd5b620012e667ae16e1feb6687f8960c01b6200211f565b620012fc67837ffbb7f1195a5b60c01b6200211f565b62001312675b2a800f3134b4a560c01b6200211f565b620013286763a0cd9217ada14960c01b6200211f565b600015156005600084815260200190815260200160002060040160149054906101000a900460ff1615151462001395576040517f08c379a00000000000000000000000000000000000000000000000000000000081526004016200138c90620031e6565b60405180910390fd5b620013ab6730fb7c3b25f4fa9a60c01b6200211f565b620013c1677a5b5ced385f480e60c01b6200211f565b620013d767526a7bdbd12bb0cc60c01b6200211f565b60006005600084815260200190815260200160002060010160009054906101000a900473ffffffffffffffffffffffffffffffffffffffff169050620014286793b3e67327e9432260c01b6200211f565b6200143e678113cf4c487ac31e60c01b6200211f565b3073ffffffffffffffffffffffffffffffffffffffff168173ffffffffffffffffffffffffffffffffffffffff16636352211e60056000878152602001908152602001600020600201546040518263ffffffff1660e01b8152600401620014a69190620027f1565b602060405180830381865afa158015620014c4573d6000803e3d6000fd5b505050506040513d601f19601f82011682018060405250810190620014ea91906200321f565b73ffffffffffffffffffffffffffffffffffffffff1614620015d5576200151c6731b6b599a05fdba760c01b6200211f565b6200153267b0d452ded594cf7660c01b6200211f565b6200154867f9a348df380ad88260c01b6200211f565b8073ffffffffffffffffffffffffffffffffffffffff16638fba3f7c3060056000878152602001908152602001600020600201546040518363ffffffff1660e01b81526004016200159b92919062003251565b600060405180830381600087803b158015620015b657600080fd5b505af1158015620015cb573d6000803e3d6000fd5b50505050620015ec565b620015eb673a95d7498e8646b660c01b6200211f565b5b620016026793853079b333539760c01b6200211f565b81600560008581526020019081526020016000206003018190555062001633673aa343499b62a02e60c01b6200211f565b60016005600085815260200190815260200160002060040160146101000a81548160ff02191690831515021790555062001678675a6e477ce35c046c60c01b6200211f565b6200168e678425662e9ad1335060c01b6200211f565b3373ffffffffffffffffffffffffffffffffffffffff166005600085815260200190815260200160002060010160009054906101000a900473ffffffffffffffffffffffffffffffffffffffff1673ffffffffffffffffffffffffffffffffffffffff167fe33aafc81513be125d0ef3012a3189731e3a7a4c64de233e9adf88e14c67c401856005600088815260200190815260200160002060020154866040516200173d939291906200327e565b60405180910390a3506200175062002174565b5050565b6200176a674a0cadb80da4044460c01b6200211f565b6200177462002122565b6200178a67d833b8fc05c3de6f60c01b6200211f565b620017a0675b43248bd124faf960c01b6200211f565b620017b667b76ec8d578ceea3f60c01b6200211f565b620017cc673425d8b033ae0c6660c01b6200211f565b620017e26709570a6e551c7fba60c01b6200211f565b600081118015620017fe5750620017fa600462002281565b8111155b62001840576040517f08c379a000000000000000000000000000000000000000000000000000000000815260040162001837906200330b565b60405180910390fd5b620018566796a198605b6b3d1460c01b6200211f565b6200186c67b9d8087901a2dba960c01b6200211f565b62001882672cc3c06b5357812b60c01b6200211f565b62001898674937ac53cb086b8360c01b6200211f565b60056000828152602001908152602001600020600301543414620018f3576040517f08c379a0000000000000000000000000000000000000000000000000000000008152600401620018ea90620033a3565b60405180910390fd5b6200190967b8da844b039fafb460c01b6200211f565b6200191f67603221dce667ad6460c01b6200211f565b6200193567e771628cbb8fa51360c01b6200211f565b6200194b675d3ed2181bdf0d3760c01b6200211f565b6005600082815260200190815260200160002060040160149054906101000a900460ff16620019b1576040517f08c379a0000000000000000000000000000000000000000000000000000000008152600401620019a89062003415565b60405180910390fd5b620019c7672af55902fa53936d60c01b6200211f565b620019dd672837b16d035be17660c01b6200211f565b620019f367c809c929a2b8367e60c01b6200211f565b62001a0967b1e8a4ab0709cd8560c01b6200211f565b6005600082815260200190815260200160002060040160009054906101000a900473ffffffffffffffffffffffffffffffffffffffff1673ffffffffffffffffffffffffffffffffffffffff163373ffffffffffffffffffffffffffffffffffffffff160362001ab0576040517f08c379a000000000000000000000000000000000000000000000000000000000815260040162001aa79062003487565b60405180910390fd5b62001ac667154dca48c108df8060c01b6200211f565b62001adc671910d68f6a93d9d760c01b6200211f565b62001af2677868243e8093e9b860c01b6200211f565b60006005600083815260200190815260200160002060010160009054906101000a900473ffffffffffffffffffffffffffffffffffffffff16905062001b4367b0dd04b46351811a60c01b6200211f565b62001b5967683753bc3734d71160c01b6200211f565b8073ffffffffffffffffffffffffffffffffffffffff166342842e0e303360056000878152602001908152602001600020600201546040518463ffffffff1660e01b815260040162001bae93929190620034a9565b600060405180830381600087803b15801562001bc957600080fd5b505af115801562001bde573d6000803e3d6000fd5b5050505062001bf867be26b16c65cb811d60c01b6200211f565b62001c0e675da04a183deb700160c01b6200211f565b6005600083815260200190815260200160002060040160009054906101000a900473ffffffffffffffffffffffffffffffffffffffff1673ffffffffffffffffffffffffffffffffffffffff166108fc60056000858152602001908152602001600020600301549081150290604051600060405180830381858888f1935050505015801562001ca1573d6000803e3d6000fd5b5062001cb86749ddc1c29572366860c01b6200211f565b6000600560008481526020019081526020016000206003018190555062001cea67486f41b69d23732c60c01b6200211f565b60006005600084815260200190815260200160002060040160146101000a81548160ff02191690831515021790555062001d2f67bf715ad3b7353ee660c01b6200211f565b336005600084815260200190815260200160002060040160006101000a81548173ffffffffffffffffffffffffffffffffffffffff021916908373ffffffffffffffffffffffffffffffffffffffff16021790555062001d9a671c9189378d00ade160c01b6200211f565b62001db06728bda1d2d578435360c01b6200211f565b3373ffffffffffffffffffffffffffffffffffffffff166005600084815260200190815260200160002060040160009054906101000a900473ffffffffffffffffffffffffffffffffffffffff1673ffffffffffffffffffffffffffffffffffffffff166005600085815260200190815260200160002060010160009054906101000a900473ffffffffffffffffffffffffffffffffffffffff1673ffffffffffffffffffffffffffffffffffffffff167ffb0cfc474abd12ba63c7e2d4116fe3d9b17f0b5a415d805cf5f5c4af185af18b856005600088815260200190815260200160002060020154600560008981526020019081526020016000206003015460405162001ec2939291906200327e565b60405180910390a45062001ed562002174565b50565b60025481565b60048060000154905081565b60038180516020810182018051848252602083016020850120818352809550505050505060009150905080600001805462001f2590620028fd565b80601f016020809104026020016040519081016040528092919081815260200182805462001f5390620028fd565b801562001fa45780601f1062001f785761010080835404028352916020019162001fa4565b820191906000526020600020905b81548152906001019060200180831162001f8657829003601f168201915b50505050509080600101805462001fbb90620028fd565b80601f016020809104026020016040519081016040528092919081815260200182805462001fe990620028fd565b80156200203a5780601f106200200e576101008083540402835291602001916200203a565b820191906000526020600020905b8154815290600101906020018083116200201c57829003601f168201915b5050505050908060020160009054906101000a900473ffffffffffffffffffffffffffffffffffffffff16905083565b600181815481106200207b57600080fd5b9060005260206000200160009150905080546200209890620028fd565b80601f0160208091040260200160405190810160405280929190818152602001828054620020c690620028fd565b8015620021175780601f10620020eb5761010080835404028352916020019162002117565b820191906000526020600020905b815481529060010190602001808311620020f957829003601f168201915b505050505081565b50565b6002600054036200216a576040517f08c379a0000000000000000000000000000000000000000000000000000000008152600401620021619062003536565b60405180910390fd5b6002600081905550565b6001600081905550565b50565b60606200219967a38addcac5a812e860c01b6200217e565b620021af6731dd60f78fe2815060c01b6200217e565b620021c5673fdce9952c5121ac60c01b6200217e565b600060405180602001620021d9906200228f565b6020820181038252601f19601f8201166040525090506200220567e895dd66480a525a60c01b6200217e565b6200221b67f7fd4b130f1df55960c01b6200217e565b8084846040516020016200223192919062003558565b60405160208183030381529060405260405160200162002253929190620035e0565b60405160208183030381529060405291505092915050565b6001816000016000828254019250508190555050565b600081600001549050919050565b614b90806200360983390190565b6000604051905090565b600080fd5b600080fd5b6000819050919050565b620022c681620022b1565b8114620022d257600080fd5b50565b600081359050620022e681620022bb565b92915050565b600060208284031215620023055762002304620022a7565b5b60006200231584828501620022d5565b91505092915050565b6200232981620022b1565b82525050565b600073ffffffffffffffffffffffffffffffffffffffff82169050919050565b60006200235c826200232f565b9050919050565b6200236e816200234f565b82525050565b600062002381826200232f565b9050919050565b620023938162002374565b82525050565b60008115159050919050565b620023b08162002399565b82525050565b600081519050919050565b600082825260208201905092915050565b60005b83811015620023f2578082015181840152602081019050620023d5565b60008484015250505050565b6000601f19601f8301169050919050565b60006200241c82620023b6565b620024288185620023c1565b93506200243a818560208601620023d2565b6200244581620023fe565b840191505092915050565b60006101008201905062002468600083018b6200231e565b62002477602083018a62002363565b6200248660408301896200231e565b6200249560608301886200231e565b620024a4608083018762002388565b620024b360a0830186620023a5565b81810360c0830152620024c781856200240f565b905081810360e0830152620024dd81846200240f565b90509998505050505050505050565b600080fd5b600080fd5b7f4e487b7100000000000000000000000000000000000000000000000000000000600052604160045260246000fd5b6200253082620023fe565b810181811067ffffffffffffffff82111715620025525762002551620024f6565b5b80604052505050565b6000620025676200229d565b905062002575828262002525565b919050565b600067ffffffffffffffff821115620025985762002597620024f6565b5b620025a382620023fe565b9050602081019050919050565b82818337600083830152505050565b6000620025d6620025d0846200257a565b6200255b565b905082815260208101848484011115620025f557620025f4620024f1565b5b62002602848285620025b0565b509392505050565b600082601f830112620026225762002621620024ec565b5b813562002634848260208601620025bf565b91505092915050565b60008060408385031215620026575762002656620022a7565b5b600083013567ffffffffffffffff811115620026785762002677620022ac565b5b62002686858286016200260a565b925050602083013567ffffffffffffffff811115620026aa57620026a9620022ac565b5b620026b8858286016200260a565b9150509250929050565b6000602082019050620026d9600083018462002363565b92915050565b620026ea816200234f565b8114620026f657600080fd5b50565b6000813590506200270a81620026df565b92915050565b6000806000606084860312156200272c576200272b620022a7565b5b600084013567ffffffffffffffff8111156200274d576200274c620022ac565b5b6200275b868287016200260a565b93505060206200276e86828701620026f9565b925050604084013567ffffffffffffffff811115620027925762002791620022ac565b5b620027a0868287016200260a565b9150509250925092565b60008060408385031215620027c457620027c3620022a7565b5b6000620027d485828601620022d5565b9250506020620027e785828601620022d5565b9150509250929050565b60006020820190506200280860008301846200231e565b92915050565b600060208284031215620028275762002826620022a7565b5b600082013567ffffffffffffffff811115620028485762002847620022ac565b5b62002856848285016200260a565b91505092915050565b600060608201905081810360008301526200287b81866200240f565b905081810360208301526200289181856200240f565b9050620028a2604083018462002363565b949350505050565b60006020820190508181036000830152620028c681846200240f565b905092915050565b7f4e487b7100000000000000000000000000000000000000000000000000000000600052602260045260246000fd5b600060028204905060018216806200291657607f821691505b6020821081036200292c576200292b620028ce565b5b50919050565b7f6e667420646f65736e2774206578697374206f72206973206e6f74206c69737460008201527f6564000000000000000000000000000000000000000000000000000000000000602082015250565b600062002990602283620023c1565b91506200299d8262002932565b604082019050919050565b60006020820190508181036000830152620029c38162002981565b9050919050565b7f796f752063616e6e6f742063616e63656c206c697374696e6720696620796f7560008201527f20617265206e6f7420746865206e6674206f776e657200000000000000000000602082015250565b600062002a28603683620023c1565b915062002a3582620029ca565b604082019050919050565b6000602082019050818103600083015262002a5b8162002a19565b9050919050565b7f417274697374206e616d6520616e642073796d626f6c206d757374206e6f742060008201527f626520756e646566696e65642e00000000000000000000000000000000000000602082015250565b600062002ac0602d83620023c1565b915062002acd8262002a62565b604082019050919050565b6000602082019050818103600083015262002af38162002ab1565b9050919050565b600081905092915050565b600062002b1282620023b6565b62002b1e818562002afa565b935062002b30818560208601620023d2565b80840191505092915050565b600062002b4a828462002b05565b915081905092915050565b7f53796d626f6c20616c7265616479206578697374730000000000000000000000600082015250565b600062002b8d601583620023c1565b915062002b9a8262002b55565b602082019050919050565b6000602082019050818103600083015262002bc08162002b7e565b9050919050565b7f4e487b7100000000000000000000000000000000000000000000000000000000600052601160045260246000fd5b600062002c0382620022b1565b91507fffffffffffffffffffffffffffffffffffffffffffffffffffffffffffffffff820362002c385762002c3762002bc7565b5b600182019050919050565b60008190508160005260206000209050919050565b60006020601f8301049050919050565b600082821b905092915050565b60006008830262002ca77fffffffffffffffffffffffffffffffffffffffffffffffffffffffffffffffff8262002c68565b62002cb3868362002c68565b95508019841693508086168417925050509392505050565b6000819050919050565b600062002cf662002cf062002cea84620022b1565b62002ccb565b620022b1565b9050919050565b6000819050919050565b62002d128362002cd5565b62002d2a62002d218262002cfd565b84845462002c75565b825550505050565b600090565b62002d4162002d32565b62002d4e81848462002d07565b505050565b5b8181101562002d765762002d6a60008262002d37565b60018101905062002d54565b5050565b601f82111562002dc55762002d8f8162002c43565b62002d9a8462002c58565b8101602085101562002daa578190505b62002dc262002db98562002c58565b83018262002d53565b50505b505050565b600082821c905092915050565b600062002dea6000198460080262002dca565b1980831691505092915050565b600062002e05838362002dd7565b9150826002028217905092915050565b62002e2082620023b6565b67ffffffffffffffff81111562002e3c5762002e3b620024f6565b5b62002e488254620028fd565b62002e5582828562002d7a565b600060209050601f83116001811462002e8d576000841562002e78578287015190505b62002e84858262002df7565b86555062002ef4565b601f19841662002e9d8662002c43565b60005b8281101562002ec75784890151825560018201915060208501945060208101905062002ea0565b8683101562002ee7578489015162002ee3601f89168262002dd7565b8355505b6001600288020188555050505b505050505050565b6000608082019050818103600083015262002f1881876200240f565b9050818103602083015262002f2e81866200240f565b905062002f3f604083018562002363565b62002f4e60608301846200231e565b95945050505050565b7f706c656173652070726f7669646520612076616c696420746f6b656e5552492060008201527f616e64206578697374696e6720636f6c6c656374696f6e2064657461696c2e00602082015250565b600062002fb5603f83620023c1565b915062002fc28262002f57565b604082019050919050565b6000602082019050818103600083015262002fe88162002fa6565b9050919050565b6000815190506200300081620022bb565b92915050565b6000602082840312156200301f576200301e620022a7565b5b60006200302f8482850162002fef565b91505092915050565b60006080820190506200304f60008301876200231e565b6200305e602083018662002363565b6200306d604083018562002363565b81810360608301526200308181846200240f565b905095945050505050565b7f4e46544d61726b65743a207072696365206d757374206265206772656174657260008201527f207468616e203000000000000000000000000000000000000000000000000000602082015250565b6000620030ea602783620023c1565b9150620030f7826200308c565b604082019050919050565b600060208201905081810360008301526200311d81620030db565b9050919050565b7f746f6b656e494420646f6573206e6f7420657869737400000000000000000000600082015250565b60006200315c601683620023c1565b9150620031698262003124565b602082019050919050565b600060208201905081810360008301526200318f816200314d565b9050919050565b7f4e465420616c7265616479206c69737465640000000000000000000000000000600082015250565b6000620031ce601283620023c1565b9150620031db8262003196565b602082019050919050565b600060208201905081810360008301526200320181620031bf565b9050919050565b6000815190506200321981620026df565b92915050565b600060208284031215620032385762003237620022a7565b5b6000620032488482850162003208565b91505092915050565b600060408201905062003268600083018562002363565b6200327760208301846200231e565b9392505050565b60006060820190506200329560008301866200231e565b620032a460208301856200231e565b620032b360408301846200231e565b949350505050565b7f6974656d20646f65736e27742065786973740000000000000000000000000000600082015250565b6000620032f3601283620023c1565b91506200330082620032bb565b602082019050919050565b600060208201905081810360008301526200332681620032e4565b9050919050565b7f7072696365206d75737420626520746865206578616374204e46542076616c7560008201527f6500000000000000000000000000000000000000000000000000000000000000602082015250565b60006200338b602183620023c1565b915062003398826200332d565b604082019050919050565b60006020820190508181036000830152620033be816200337c565b9050919050565b7f4e4654206973206e6f74206c6973746564000000000000000000000000000000600082015250565b6000620033fd601183620023c1565b91506200340a82620033c5565b602082019050919050565b600060208201905081810360008301526200343081620033ee565b9050919050565b7f596f752063616e6e6f742062757920796f7572206f776e204e46540000000000600082015250565b60006200346f601b83620023c1565b91506200347c8262003437565b602082019050919050565b60006020820190508181036000830152620034a28162003460565b9050919050565b6000606082019050620034c0600083018662002363565b620034cf602083018562002363565b620034de60408301846200231e565b949350505050565b7f5265656e7472616e637947756172643a207265656e7472616e742063616c6c00600082015250565b60006200351e601f83620023c1565b91506200352b82620034e6565b602082019050919050565b6000602082019050818103600083015262003551816200350f565b9050919050565b600060408201905081810360008301526200357481856200240f565b905081810360208301526200358a81846200240f565b90509392505050565b600081519050919050565b600081905092915050565b6000620035b68262003593565b620035c281856200359e565b9350620035d4818560208601620023d2565b80840191505092915050565b6000620035ee8285620035a9565b9150620035fc8284620035a9565b9150819050939250505056fe60806040523480156200001157600080fd5b5060405162004b9038038062004b9083398181016040528101906200003791906200035e565b818162000055673f555414bf72e74060c01b620000f760201b60201c565b62000071674755614077eb8cf860c01b620000f760201b60201c565b81600090816200008291906200062e565b506200009f67eaf74670efce335e60c01b620000f760201b60201c565b8060019081620000b091906200062e565b505050620000d3620000c7620000fa60201b60201c565b6200010260201b60201c565b620000ef67a1b7155247c0e0db60c01b620001c860201b60201c565b505062000715565b50565b600033905090565b6000600760009054906101000a900473ffffffffffffffffffffffffffffffffffffffff16905081600760006101000a81548173ffffffffffffffffffffffffffffffffffffffff021916908373ffffffffffffffffffffffffffffffffffffffff1602179055508173ffffffffffffffffffffffffffffffffffffffff168173ffffffffffffffffffffffffffffffffffffffff167f8be0079c531659141344cd1fd0a4f28419497f9722a3daafe3b4186f6b6457e060405160405180910390a35050565b50565b6000604051905090565b600080fd5b600080fd5b600080fd5b600080fd5b6000601f19601f8301169050919050565b7f4e487b7100000000000000000000000000000000000000000000000000000000600052604160045260246000fd5b6200023482620001e9565b810181811067ffffffffffffffff82111715620002565762000255620001fa565b5b80604052505050565b60006200026b620001cb565b905062000279828262000229565b919050565b600067ffffffffffffffff8211156200029c576200029b620001fa565b5b620002a782620001e9565b9050602081019050919050565b60005b83811015620002d4578082015181840152602081019050620002b7565b60008484015250505050565b6000620002f7620002f1846200027e565b6200025f565b905082815260208101848484011115620003165762000315620001e4565b5b62000323848285620002b4565b509392505050565b600082601f830112620003435762000342620001df565b5b815162000355848260208601620002e0565b91505092915050565b60008060408385031215620003785762000377620001d5565b5b600083015167ffffffffffffffff811115620003995762000398620001da565b5b620003a7858286016200032b565b925050602083015167ffffffffffffffff811115620003cb57620003ca620001da565b5b620003d9858286016200032b565b9150509250929050565b600081519050919050565b7f4e487b7100000000000000000000000000000000000000000000000000000000600052602260045260246000fd5b600060028204905060018216806200043657607f821691505b6020821081036200044c576200044b620003ee565b5b50919050565b60008190508160005260206000209050919050565b60006020601f8301049050919050565b600082821b905092915050565b600060088302620004b67fffffffffffffffffffffffffffffffffffffffffffffffffffffffffffffffff8262000477565b620004c2868362000477565b95508019841693508086168417925050509392505050565b6000819050919050565b6000819050919050565b60006200050f620005096200050384620004da565b620004e4565b620004da565b9050919050565b6000819050919050565b6200052b83620004ee565b620005436200053a8262000516565b84845462000484565b825550505050565b600090565b6200055a6200054b565b6200056781848462000520565b505050565b5b818110156200058f576200058360008262000550565b6001810190506200056d565b5050565b601f821115620005de57620005a88162000452565b620005b38462000467565b81016020851015620005c3578190505b620005db620005d28562000467565b8301826200056c565b50505b505050565b600082821c905092915050565b60006200060360001984600802620005e3565b1980831691505092915050565b60006200061e8383620005f0565b9150826002028217905092915050565b6200063982620003e3565b67ffffffffffffffff811115620006555762000654620001fa565b5b6200066182546200041d565b6200066e82828562000593565b600060209050601f831160018114620006a6576000841562000691578287015190505b6200069d858262000610565b8655506200070d565b601f198416620006b68662000452565b60005b82811015620006e057848901518255600182019150602085019450602081019050620006b9565b86831015620007005784890151620006fc601f891682620005f0565b8355505b6001600288020188555050505b505050505050565b61446b80620007256000396000f3fe608060405234801561001057600080fd5b50600436106101215760003560e01c80638da5cb5b116100ad578063b88d4fde11610071578063b88d4fde146102f4578063c754584914610310578063c87b56dd1461032c578063e985e9c51461035c578063f2fde38b1461038c57610121565b80638da5cb5b146102625780638fba3f7c1461028057806395d89b411461029c5780639d63848a146102ba578063a22cb465146102d857610121565b806323b872dd116100f457806323b872dd146101c057806342842e0e146101dc5780636352211e146101f857806370a0823114610228578063715018a61461025857610121565b806301ffc9a71461012657806306fdde0314610156578063081812fc14610174578063095ea7b3146101a4575b600080fd5b610140600480360381019061013b91906130fe565b6103a8565b60405161014d9190613146565b60405180910390f35b61015e610536565b60405161016b91906131f1565b60405180910390f35b61018e60048036038101906101899190613249565b610604565b60405161019b91906132b7565b60405180910390f35b6101be60048036038101906101b991906132fe565b6106ae565b005b6101da60048036038101906101d5919061333e565b610901565b005b6101f660048036038101906101f1919061333e565b6109ed565b005b610212600480360381019061020d9190613249565b610a49565b60405161021f91906132b7565b60405180910390f35b610242600480360381019061023d9190613391565b610b84565b60405161024f91906133cd565b60405180910390f35b610260610cc8565b005b61026a610cdc565b60405161027791906132b7565b60405180910390f35b61029a600480360381019061029591906132fe565b610d06565b005b6102a4610d50565b6040516102b191906131f1565b60405180910390f35b6102c2610e1e565b6040516102cf91906133cd565b60405180910390f35b6102f260048036038101906102ed9190613414565b610e24565b005b61030e60048036038101906103099190613589565b610e76565b005b61032a600480360381019061032591906136ad565b610f64565b005b61034660048036038101906103419190613249565b6110ec565b60405161035391906131f1565b60405180910390f35b610376600480360381019061037191906136f6565b6113a2565b6040516103839190613146565b60405180910390f35b6103a660048036038101906103a19190613391565b611472565b005b60006103be6764043103aa2b4cef60c01b6114f5565b6103d26791b0bed38d8bf02960c01b6114f5565b6103e6673ed70927be299fb560c01b6114f5565b7f80ac58cd000000000000000000000000000000000000000000000000000000007bffffffffffffffffffffffffffffffffffffffffffffffffffffffff1916827bffffffffffffffffffffffffffffffffffffffffffffffffffffffff191614801561046357506104626754aef6e133de2c9c60c01b6114f8565b5b8061050357507f5b5e139f000000000000000000000000000000000000000000000000000000007bffffffffffffffffffffffffffffffffffffffffffffffffffffffff1916827bffffffffffffffffffffffffffffffffffffffffffffffffffffffff19161480156104e657506104e567c16213b803c75c0b60c01b6114f8565b5b8015610502575061050167ca742e65d0185c8460c01b6114f8565b5b5b8061052f575061051282611503565b801561052e575061052d672d6d6073d23356df60c01b6114f8565b5b5b9050919050565b606061054c672a25295083c5efe260c01b6114f5565b6105606742f3d82060a6130660c01b6114f5565b610574670be4ab293612cc5460c01b6114f5565b6000805461058190613765565b80601f01602080910402602001604051908101604052809291908181526020018280546105ad90613765565b80156105fa5780601f106105cf576101008083540402835291602001916105fa565b820191906000526020600020905b8154815290600101906020018083116105dd57829003601f168201915b5050505050905090565b600061061a6795dc18ee7457bd4e60c01b6114f5565b61062e6723a9bdb91f0d0b2760c01b6114f5565b61064267297b66edb989e0d060c01b6114f5565b61064b8261156d565b61065f67fbea4e78c42cf08160c01b6114f5565b610673671396d4fe480e189860c01b6114f5565b6004600083815260200190815260200160002060009054906101000a900473ffffffffffffffffffffffffffffffffffffffff169050919050565b6106c2670667dc490fb382eb60c01b6114f5565b6106d667ee31b38bafc0bf6960c01b6114f5565b6106ea6728ef42dd4531041660c01b6114f5565b60006106f582610a49565b905061070b67ba705dcef0d3c0ad60c01b6114f5565b61071f6738bfef653e5d4b7360c01b6114f5565b610733675ca633e449e5b69160c01b6114f5565b8073ffffffffffffffffffffffffffffffffffffffff168373ffffffffffffffffffffffffffffffffffffffff16036107a1576040517f08c379a000000000000000000000000000000000000000000000000000000000815260040161079890613808565b60405180910390fd5b6107b5670eddac3049b2b33860c01b6114f5565b6107c967b4ac5305f0044b6760c01b6114f5565b6107dd67f0cf735983d3660c60c01b6114f5565b6107f167d921b22c3eb1451860c01b6114f5565b8073ffffffffffffffffffffffffffffffffffffffff1661081061161c565b73ffffffffffffffffffffffffffffffffffffffff161480156108435750610842678d6596bde782867e60c01b6114f8565b5b80610877575061085a8161085561161c565b6113a2565b8015610876575061087567e4c7edc397a1c36960c01b6114f8565b5b5b6108b6576040517f08c379a00000000000000000000000000000000000000000000000000000000081526004016108ad9061389a565b60405180910390fd5b6108ca67319ff095cb6864ce60c01b6114f5565b6108de67477f22a786fe05e060c01b6114f5565b6108f267d4fa7a525d57288660c01b6114f5565b6108fc8383611624565b505050565b61091567b852f3f809fab6f760c01b6114f5565b61092967eb30095609ad252560c01b6114f5565b61093d670aacdea435fff24160c01b6114f5565b6109516713dc74ca3390503360c01b6114f5565b61096261095c61161c565b8261172d565b6109a1576040517f08c379a00000000000000000000000000000000000000000000000000000000081526004016109989061392c565b60405180910390fd5b6109b567a14633448ee33c6260c01b6114f5565b6109c96760fbf63d9ef7350860c01b6114f5565b6109dd673abb7e9dfb99de9f60c01b6114f5565b6109e8838383611897565b505050565b610a0167fd7958935265abf560c01b6114f5565b610a1567035da470dec90a9d60c01b6114f5565b610a29675477502c710049cf60c01b6114f5565b610a4483838360405180602001604052806000815250610e76565b505050565b6000610a5f679953ffd773bff08660c01b6114f5565b610a73671b4cc0c4cea002b960c01b6114f5565b610a87679eb6ed314e7a37cc60c01b6114f5565b6000610a9283611d70565b9050610aa8679b578413da77d1df60c01b6114f5565b610abc67e24508926711c7db60c01b6114f5565b610ad06781f42bbb4c2dd6c560c01b6114f5565b600073ffffffffffffffffffffffffffffffffffffffff168173ffffffffffffffffffffffffffffffffffffffff1603610b3f576040517f08c379a0000000000000000000000000000000000000000000000000000000008152600401610b3690613998565b60405180910390fd5b610b5367ad27ed08e47b94dc60c01b6114f5565b610b6767c73b0143ad0fdbbb60c01b6114f5565b610b7b676d1068def801c14360c01b6114f5565b80915050919050565b6000610b9a678e442374c603bc3c60c01b6114f5565b610bae675f7fcbe9b821a8a860c01b6114f5565b610bc267416fbc2440fba0a960c01b6114f5565b610bd667f4b168f555cf25ff60c01b6114f5565b600073ffffffffffffffffffffffffffffffffffffffff168273ffffffffffffffffffffffffffffffffffffffff1603610c45576040517f08c379a0000000000000000000000000000000000000000000000000000000008152600401610c3c90613a2a565b60405180910390fd5b610c59672e0fef286d55069960c01b6114f5565b610c6d679ae103cb66f615a860c01b6114f5565b610c8167d999c946787a812e60c01b6114f5565b600360008373ffffffffffffffffffffffffffffffffffffffff1673ffffffffffffffffffffffffffffffffffffffff168152602001908152602001600020549050919050565b610cd0611de9565b610cda6000611e67565b565b6000600760009054906101000a900473ffffffffffffffffffffffffffffffffffffffff16905090565b610d1a67148e72df43fce31360c01b611f2d565b610d2e678267c95ddbf2416f60c01b611f2d565b610d4166dd2ff5862245e560c01b611f2d565b610d4c328383611897565b5050565b6060610d66674ebc11dbeac4c14860c01b6114f5565b610d7a672ddb0c51d0a85cfa60c01b6114f5565b610d8e672a7c82126e2e89bd60c01b6114f5565b60018054610d9b90613765565b80601f0160208091040260200160405190810160405280929190818152602001828054610dc790613765565b8015610e145780601f10610de957610100808354040283529160200191610e14565b820191906000526020600020905b815481529060010190602001808311610df757829003601f168201915b5050505050905090565b60085481565b610e38673d29de687d91a4ac60c01b6114f5565b610e4c67b7f7c996019eaf7d60c01b6114f5565b610e6067a7377cea35ad235960c01b6114f5565b610e72610e6b61161c565b8383611f30565b5050565b610e8a6714b531c5882d8c3860c01b6114f5565b610e9e673da294f5f8d32fdb60c01b6114f5565b610eb267c80c6f99a10ab59e60c01b6114f5565b610ec6677aad0a191bc5569760c01b6114f5565b610ed7610ed161161c565b8361172d565b610f16576040517f08c379a0000000000000000000000000000000000000000000000000000000008152600401610f0d9061392c565b60405180910390fd5b610f2a6716a0652145de572660c01b6114f5565b610f3e6791a5b921b540704d60c01b6114f5565b610f52671bd3454fae3129b460c01b6114f5565b610f5e8484848461213c565b50505050565b610f786754559b044d47bf5c60c01b611f2d565b610f8c67349b561fe087bfb560c01b611f2d565b610fa067a05be9560b86fc9e60c01b611f2d565b610fb4678f80e2f2f7cbf99560c01b611f2d565b610fbc610cdc565b73ffffffffffffffffffffffffffffffffffffffff163273ffffffffffffffffffffffffffffffffffffffff1614611029576040517f08c379a000000000000000000000000000000000000000000000000000000000815260040161102090613abc565b60405180910390fd5b61103d6739707347bc1a877460c01b611f2d565b611051672edc92fd36acd16e60c01b611f2d565b611065671a3d145897b5231e60c01b611f2d565b61107d3260016008546110789190613b0b565b612224565b61109167467a98625076019f60c01b611f2d565b6110a567e3dd7627e5402f7f60c01b611f2d565b6110bd60016008546110b79190613b0b565b826125f9565b6110d16761dc6c10c8db83df60c01b611f2d565b600860008154809291906110e490613b3f565b919050555050565b606061110267aeaeb220be2a7c4560c01b6126de565b6111166794ee0b6f949f278860c01b6126de565b61112a67f827874967938d4860c01b6126de565b6111338261156d565b611147679ecd267984a4d80160c01b6126de565b61115b675b06f5543a26f3a460c01b6126de565b600060066000848152602001908152602001600020805461117b90613765565b80601f01602080910402602001604051908101604052809291908181526020018280546111a790613765565b80156111f45780601f106111c9576101008083540402835291602001916111f4565b820191906000526020600020905b8154815290600101906020018083116111d757829003601f168201915b5050505050905061120f67ab71745c61f0d58c60c01b6126de565b6112236732c583423c17349b60c01b6126de565b600061122d6126e1565b9050611243676919ef20f9a0adb060c01b6126de565b6112576713e061c6140c36db60c01b6126de565b60008151036112a657611274678efedf95ca1c49f060c01b6126de565b611288677c5ab47cf326701960c01b6126de565b61129c6723538d9bac6ffb6d60c01b6126de565b819250505061139d565b6112ba6750b58fb59c32e6e960c01b6126de565b6112ce67d5720de49b70e6d260c01b6126de565b6112e267f2fd729784ada2e460c01b6126de565b60008251111561135357611300672fd70a194a0db3f660c01b6126de565b61131467ecf4d8aa0f1f3e0160c01b6126de565b61132867867eb3bc5e29849d60c01b6126de565b808260405160200161133b929190613bc3565b6040516020818303038152906040529250505061139d565b6113676719b63355d3442c8360c01b6126de565b61137b6718d2a26fde90f75f60c01b6126de565b61138f67433e09c28790ca6f60c01b6126de565b61139884612734565b925050505b919050565b60006113b8670891d4ad3313292b60c01b6114f5565b6113cc6737465b40d206db2960c01b6114f5565b6113e06746df7fa6208939af60c01b6114f5565b600560008473ffffffffffffffffffffffffffffffffffffffff1673ffffffffffffffffffffffffffffffffffffffff16815260200190815260200160002060008373ffffffffffffffffffffffffffffffffffffffff1673ffffffffffffffffffffffffffffffffffffffff16815260200190815260200160002060009054906101000a900460ff16905092915050565b61147a611de9565b600073ffffffffffffffffffffffffffffffffffffffff168173ffffffffffffffffffffffffffffffffffffffff16036114e9576040517f08c379a00000000000000000000000000000000000000000000000000000000081526004016114e090613c59565b60405180910390fd5b6114f281611e67565b50565b50565b600060019050919050565b60007f01ffc9a7000000000000000000000000000000000000000000000000000000007bffffffffffffffffffffffffffffffffffffffffffffffffffffffff1916827bffffffffffffffffffffffffffffffffffffffffffffffffffffffff1916149050919050565b611581676e380d5ac5fe500860c01b6114f5565b6115956766b47821790defb860c01b6114f5565b6115a9674a5de176e67d4f4760c01b6114f5565b6115bd67ece6718e96b1916260c01b6114f5565b6115c68161285f565b611605576040517f08c379a00000000000000000000000000000000000000000000000000000000081526004016115fc90613998565b60405180910390fd5b61161967db7b4944a1ca14bb60c01b6114f5565b50565b600033905090565b611638679e25a37beac97e4660c01b6114f5565b61164c679e95ea49e8fc01ef60c01b6114f5565b816004600083815260200190815260200160002060006101000a81548173ffffffffffffffffffffffffffffffffffffffff021916908373ffffffffffffffffffffffffffffffffffffffff1602179055506116b2676420b8c8fb7e6f8260c01b6114f5565b6116c667a63ade7f79f40b4f60c01b6114f5565b808273ffffffffffffffffffffffffffffffffffffffff166116e783610a49565b73ffffffffffffffffffffffffffffffffffffffff167f8c5be1e5ebec7d5bd14f71427d1e84f3dd0314c0f7b2291e5b200ac8c7c3b92560405160405180910390a45050565b60006117436711939ec09ae2fd0460c01b6114f5565b61175767ec990d7ea596464560c01b6114f5565b61176b67c7ae09ee10c7c41660c01b6114f5565b600061177683610a49565b905061178c673b61c69919e926be60c01b6114f5565b6117a0677dc728cda22ee92b60c01b6114f5565b8073ffffffffffffffffffffffffffffffffffffffff168473ffffffffffffffffffffffffffffffffffffffff161480156117eb57506117ea67302bb16a61fe1f9f60c01b6114f8565b5b8061183457506117fb81856113a2565b80156118175750611816670f424c98a59a99c460c01b6114f8565b5b801561183357506118326795fbe63d337b57b860c01b6114f8565b5b5b8061188e57508373ffffffffffffffffffffffffffffffffffffffff1661185a84610604565b73ffffffffffffffffffffffffffffffffffffffff1614801561188d575061188c67343c17fcb02c2ac160c01b6114f8565b5b5b91505092915050565b6118ab67cdbe0814e7c9311760c01b6114f5565b6118bf677ec5c7c50f4a40ac60c01b6114f5565b6118d36784bf597026216e2f60c01b6114f5565b6118e76734757b2de34f5fe660c01b6114f5565b8273ffffffffffffffffffffffffffffffffffffffff1661190782610a49565b73ffffffffffffffffffffffffffffffffffffffff161461195d576040517f08c379a000000000000000000000000000000000000000000000000000000000815260040161195490613ceb565b60405180910390fd5b6119716731bde043ea4417de60c01b6114f5565b611985671fe4579adc5cfc0360c01b6114f5565b611999673cf1f6f1ee12b51760c01b6114f5565b6119ad6725d0f6fd6573f3c360c01b6114f5565b600073ffffffffffffffffffffffffffffffffffffffff168273ffffffffffffffffffffffffffffffffffffffff1603611a1c576040517f08c379a0000000000000000000000000000000000000000000000000000000008152600401611a1390613d7d565b60405180910390fd5b611a30673bce14dda227486760c01b6114f5565b611a4467f3433631bae8835d60c01b6114f5565b611a5867ef683ac5bc41a95d60c01b6114f5565b611a6583838360016128dd565b611a7967a8e477fec5d80a6a60c01b6114f5565b611a8d673a19e697c8465e5460c01b6114f5565b611aa1678c5f33833dfc5f2660c01b6114f5565b8273ffffffffffffffffffffffffffffffffffffffff16611ac182610a49565b73ffffffffffffffffffffffffffffffffffffffff1614611b17576040517f08c379a0000000000000000000000000000000000000000000000000000000008152600401611b0e90613ceb565b60405180910390fd5b611b2b679480d84f63d8acf360c01b6114f5565b611b3f672ac0d06e6659dbc260c01b6114f5565b6004600082815260200190815260200160002060006101000a81549073ffffffffffffffffffffffffffffffffffffffff0219169055611b89677f556764e343e69760c01b6114f5565b611b9d671eb0aa92c5f64d5860c01b6114f5565b6001600360008573ffffffffffffffffffffffffffffffffffffffff1673ffffffffffffffffffffffffffffffffffffffff16815260200190815260200160002060008282540392505081905550611bff6793b4fae222b1ca3260c01b6114f5565b6001600360008473ffffffffffffffffffffffffffffffffffffffff1673ffffffffffffffffffffffffffffffffffffffff16815260200190815260200160002060008282540192505081905550611c6167f24dc17707947dc760c01b6114f5565b816002600083815260200190815260200160002060006101000a81548173ffffffffffffffffffffffffffffffffffffffff021916908373ffffffffffffffffffffffffffffffffffffffff160217905550611cc767c93dd8246799284f60c01b6114f5565b611cdb6713888422140bf1f560c01b6114f5565b808273ffffffffffffffffffffffffffffffffffffffff168473ffffffffffffffffffffffffffffffffffffffff167fddf252ad1be2c89b69c2b068fc378daa952ba7f163c4a11628f55a4df523b3ef60405160405180910390a4611d4a678e51a2c8bcd7293760c01b6114f5565b611d5e6763025e4c14de451e60c01b6114f5565b611d6b8383836001612b3e565b505050565b6000611d8667d9a2ff1ebb00360960c01b6114f5565b611d9a67361ba69e0e16c9be60c01b6114f5565b611dae67576ab1a04058791d60c01b6114f5565b6002600083815260200190815260200160002060009054906101000a900473ffffffffffffffffffffffffffffffffffffffff169050919050565b611df161161c565b73ffffffffffffffffffffffffffffffffffffffff16611e0f610cdc565b73ffffffffffffffffffffffffffffffffffffffff1614611e65576040517f08c379a0000000000000000000000000000000000000000000000000000000008152600401611e5c90613de9565b60405180910390fd5b565b6000600760009054906101000a900473ffffffffffffffffffffffffffffffffffffffff16905081600760006101000a81548173ffffffffffffffffffffffffffffffffffffffff021916908373ffffffffffffffffffffffffffffffffffffffff1602179055508173ffffffffffffffffffffffffffffffffffffffff168173ffffffffffffffffffffffffffffffffffffffff167f8be0079c531659141344cd1fd0a4f28419497f9722a3daafe3b4186f6b6457e060405160405180910390a35050565b50565b611f446742e210015f46d2f160c01b6114f5565b611f58673b6e7617b3f36bb760c01b6114f5565b611f6c67a32ea71e8ce6a31760c01b6114f5565b611f8067188c90211341878a60c01b6114f5565b8173ffffffffffffffffffffffffffffffffffffffff168373ffffffffffffffffffffffffffffffffffffffff1603611fee576040517f08c379a0000000000000000000000000000000000000000000000000000000008152600401611fe590613e55565b60405180910390fd5b61200267b623b7f819657f7160c01b6114f5565b61201667ee89c3488323c2c460c01b6114f5565b80600560008573ffffffffffffffffffffffffffffffffffffffff1673ffffffffffffffffffffffffffffffffffffffff16815260200190815260200160002060008473ffffffffffffffffffffffffffffffffffffffff1673ffffffffffffffffffffffffffffffffffffffff16815260200190815260200160002060006101000a81548160ff0219169083151502179055506120be67aa9e2ddcedcddd1160c01b6114f5565b6120d267baba68a643fcd22960c01b6114f5565b8173ffffffffffffffffffffffffffffffffffffffff168373ffffffffffffffffffffffffffffffffffffffff167f17307eab39ab6107e8899845ad3d59bd9653f200f220920489ca2b5937696c318360405161212f9190613146565b60405180910390a3505050565b6121506759c2e12961a428d260c01b6114f5565b61216467e63671aa70fdf53460c01b6114f5565b61217867dc5b21ec5417b3cd60c01b6114f5565b612183848484611897565b61219767ba5ac36de887dcc960c01b6114f5565b6121ab671a356cc7609ce85b60c01b6114f5565b6121bf67a22da9dd7b871b8260c01b6114f5565b6121cb84848484612b58565b61220a576040517f08c379a000000000000000000000000000000000000000000000000000000000815260040161220190613ee7565b60405180910390fd5b61221e6748e7294e3e9aa44960c01b6114f5565b50505050565b612238670ab8b43c91ee61ed60c01b6114f5565b61224c6760a260e9195b95b460c01b6114f5565b612260679c32a087c8926b4d60c01b6114f5565b612274675bba0a4d98fb695d60c01b6114f5565b600073ffffffffffffffffffffffffffffffffffffffff168273ffffffffffffffffffffffffffffffffffffffff16036122e3576040517f08c379a00000000000000000000000000000000000000000000000000000000081526004016122da90613f53565b60405180910390fd5b6122f7679ae025018981254060c01b6114f5565b61230b6723475e8e3443e18860c01b6114f5565b61231f6766f4c6756f7b774d60c01b6114f5565b612333673d4dcc040a47766d60c01b6114f5565b61233c8161285f565b1561237c576040517f08c379a000000000000000000000000000000000000000000000000000000000815260040161237390613fbf565b60405180910390fd5b61239067fa0bfef38b6c37d860c01b6114f5565b6123a4674442c2875b188ed260c01b6114f5565b6123b867891f87d225ae362460c01b6114f5565b6123c66000838360016128dd565b6123da675abe25bd88198fad60c01b6114f5565b6123ee677bc3820cfebd2f1860c01b6114f5565b61240267bc7cd7d35ea1abd060c01b6114f5565b61240b8161285f565b1561244b576040517f08c379a000000000000000000000000000000000000000000000000000000000815260040161244290613fbf565b60405180910390fd5b61245f67684a550e2555728160c01b6114f5565b61247367ed08303d75b877c660c01b6114f5565b6124876785b57108120f6ede60c01b6114f5565b6001600360008473ffffffffffffffffffffffffffffffffffffffff1673ffffffffffffffffffffffffffffffffffffffff168152602001908152602001600020600082825401925050819055506124e967b50aa48db93ae3b660c01b6114f5565b816002600083815260200190815260200160002060006101000a81548173ffffffffffffffffffffffffffffffffffffffff021916908373ffffffffffffffffffffffffffffffffffffffff16021790555061254f67a2d65d3ed929319860c01b6114f5565b6125636743886f8c9aaae1b760c01b6114f5565b808273ffffffffffffffffffffffffffffffffffffffff16600073ffffffffffffffffffffffffffffffffffffffff167fddf252ad1be2c89b69c2b068fc378daa952ba7f163c4a11628f55a4df523b3ef60405160405180910390a46125d36721f4eb99423f58ad60c01b6114f5565b6125e76764b4aa0fd566db0e60c01b6114f5565b6125f5600083836001612b3e565b5050565b61260d6765357687e50f574860c01b6126de565b61262167c09249d759217d7960c01b6126de565b6126356799fcca5880dc061960c01b6126de565b612649674b4e251ad0185db560c01b6126de565b6126528261285f565b612691576040517f08c379a000000000000000000000000000000000000000000000000000000000815260040161268890614051565b60405180910390fd5b6126a567aa46cfb109174c9660c01b6126de565b6126b967573d14a2d467cda160c01b6126de565b806006600084815260200190815260200160002090816126d9919061421d565b505050565b50565b60606126f767a725df5b2e5aeaf660c01b6114f5565b61270b67030a3d47f158a0dd60c01b6114f5565b61271f677470879527f4759660c01b6114f5565b60405180602001604052806000815250905090565b606061274a67a1a55a4b1d37cf9260c01b6114f5565b61275e67ed0d68ef590b2b3d60c01b6114f5565b6127726704ba0e4e10f24d2360c01b6114f5565b61277b8261156d565b61278f677d7f702dbb6030df60c01b6114f5565b6127a3679e8ed01ba84999ea60c01b6114f5565b60006127ad6126e1565b90506127c367cf2fc52bdd2f3b6060c01b6114f5565b6127d76777fe978ec1b9911960c01b6114f5565b600081511180156127f857506127f767c3c29848b5d28cca60c01b6114f8565b5b806128135750612812675c9e11ed2f892b9060c01b612e47565b5b61282c5760405180602001604052806000815250612857565b8061283684612e4e565b604051602001612847929190613bc3565b6040516020818303038152906040525b915050919050565b60006128756748bf28fefdc1cfcb60c01b6114f5565b612889679c4fd0b9980258cd60c01b6114f5565b61289d679f92f07e1820614560c01b6114f5565b600073ffffffffffffffffffffffffffffffffffffffff166128be83611d70565b73ffffffffffffffffffffffffffffffffffffffff1614159050919050565b6128f167ddd51114502c3a4560c01b6114f5565b612905671864672cd2377b2f60c01b6114f5565b612919675afeb855c050c6b660c01b6114f5565b6001811115612b235761293667947c940bf2acd3db60c01b6114f5565b61294a67f39fb49855d3361660c01b6114f5565b61295e67af3e58a2bf3a6f7c60c01b6114f5565b600073ffffffffffffffffffffffffffffffffffffffff168473ffffffffffffffffffffffffffffffffffffffff1614612a15576129a667ae54763280a52adc60c01b6114f5565b6129ba67198b80818a7e3d8c60c01b6114f5565b80600360008673ffffffffffffffffffffffffffffffffffffffff1673ffffffffffffffffffffffffffffffffffffffff1681526020019081526020016000206000828254612a0991906142ef565b92505081905550612a2a565b612a2967fdf3640876a87d4860c01b6114f5565b5b612a3e67d545c3382901afd360c01b6114f5565b612a5267ca27063177d22e5060c01b6114f5565b600073ffffffffffffffffffffffffffffffffffffffff168373ffffffffffffffffffffffffffffffffffffffff1614612b0957612a9a6780f88d871b52e70060c01b6114f5565b612aae67fd62d7f13ac679d960c01b6114f5565b80600360008573ffffffffffffffffffffffffffffffffffffffff1673ffffffffffffffffffffffffffffffffffffffff1681526020019081526020016000206000828254612afd9190613b0b565b92505081905550612b1e565b612b1d67787d732c1cf0cdcf60c01b6114f5565b5b612b38565b612b37670ba3bc9c80383f8860c01b6114f5565b5b50505050565b612b52673bc1522aefab759b60c01b6114f5565b50505050565b6000612b6e674d354d3232e2185a60c01b6114f5565b612b8267c909c1cea4fa92aa60c01b6114f5565b612b9667da93eb103788bdb960c01b6114f5565b612bb58473ffffffffffffffffffffffffffffffffffffffff16612f1c565b15612dfe57612bce679698705ec07098d060c01b6114f5565b612be267775b1f20268c2ca160c01b6114f5565b612bf66792a167377d3135f160c01b6114f5565b8373ffffffffffffffffffffffffffffffffffffffff1663150b7a02612c1a61161c565b8786866040518563ffffffff1660e01b8152600401612c3c9493929190614378565b6020604051808303816000875af1925050508015612c7857506040513d601f19601f82011682018060405250810190612c7591906143d9565b60015b612d86573d8060008114612ca8576040519150601f19603f3d011682016040523d82523d6000602084013e612cad565b606091505b50612cc267dfe8a47f5d3c598560c01b6114f5565b612cd667b9324427e18c694d60c01b6114f5565b6000815103612d5657612cf3674de780b7e110736760c01b6114f5565b612d076755375223fb938c2f60c01b6114f5565b612d1b67d98175053894299160c01b6114f5565b6040517f08c379a0000000000000000000000000000000000000000000000000000000008152600401612d4d90613ee7565b60405180910390fd5b612d6a67017a313605d8fe4360c01b6114f5565b612d7e67af98f68ebc3afb3e60c01b6114f5565b805181602001fd5b612d9a67d8d256fd5dfc06b860c01b6114f5565b612dae670548c48b794153ca60c01b6114f5565b63150b7a0260e01b7bffffffffffffffffffffffffffffffffffffffffffffffffffffffff1916817bffffffffffffffffffffffffffffffffffffffffffffffffffffffff191614915050612e3f565b612e126761795e48e677e20e60c01b6114f5565b612e2667b6b92e8d68741c0860c01b6114f5565b612e3a67bf5c21a2c258abe060c01b6114f5565b600190505b949350505050565b6000919050565b606060006001612e5d84612f3f565b01905060008167ffffffffffffffff811115612e7c57612e7b61345e565b5b6040519080825280601f01601f191660200182016040528015612eae5781602001600182028036833780820191505090505b509050600082602001820190505b600115612f11578080600190039150507f3031323334353637383961626364656600000000000000000000000000000000600a86061a8153600a8581612f0557612f04614406565b5b04945060008503612ebc575b819350505050919050565b6000808273ffffffffffffffffffffffffffffffffffffffff163b119050919050565b600080600090507a184f03e93ff9f4daa797ed6e38ed64bf6a1f0100000000000000008310612f9d577a184f03e93ff9f4daa797ed6e38ed64bf6a1f0100000000000000008381612f9357612f92614406565b5b0492506040810190505b6d04ee2d6d415b85acef81000000008310612fda576d04ee2d6d415b85acef81000000008381612fd057612fcf614406565b5b0492506020810190505b662386f26fc10000831061300957662386f26fc100008381612fff57612ffe614406565b5b0492506010810190505b6305f5e1008310613032576305f5e100838161302857613027614406565b5b0492506008810190505b612710831061305757612710838161304d5761304c614406565b5b0492506004810190505b6064831061307a57606483816130705761306f614406565b5b0492506002810190505b600a8310613089576001810190505b80915050919050565b6000604051905090565b600080fd5b600080fd5b60007fffffffff0000000000000000000000000000000000000000000000000000000082169050919050565b6130db816130a6565b81146130e657600080fd5b50565b6000813590506130f8816130d2565b92915050565b6000602082840312156131145761311361309c565b5b6000613122848285016130e9565b91505092915050565b60008115159050919050565b6131408161312b565b82525050565b600060208201905061315b6000830184613137565b92915050565b600081519050919050565b600082825260208201905092915050565b60005b8381101561319b578082015181840152602081019050613180565b60008484015250505050565b6000601f19601f8301169050919050565b60006131c382613161565b6131cd818561316c565b93506131dd81856020860161317d565b6131e6816131a7565b840191505092915050565b6000602082019050818103600083015261320b81846131b8565b905092915050565b6000819050919050565b61322681613213565b811461323157600080fd5b50565b6000813590506132438161321d565b92915050565b60006020828403121561325f5761325e61309c565b5b600061326d84828501613234565b91505092915050565b600073ffffffffffffffffffffffffffffffffffffffff82169050919050565b60006132a182613276565b9050919050565b6132b181613296565b82525050565b60006020820190506132cc60008301846132a8565b92915050565b6132db81613296565b81146132e657600080fd5b50565b6000813590506132f8816132d2565b92915050565b600080604083850312156133155761331461309c565b5b6000613323858286016132e9565b925050602061333485828601613234565b9150509250929050565b6000806000606084860312156133575761335661309c565b5b6000613365868287016132e9565b9350506020613376868287016132e9565b925050604061338786828701613234565b9150509250925092565b6000602082840312156133a7576133a661309c565b5b60006133b5848285016132e9565b91505092915050565b6133c781613213565b82525050565b60006020820190506133e260008301846133be565b92915050565b6133f18161312b565b81146133fc57600080fd5b50565b60008135905061340e816133e8565b92915050565b6000806040838503121561342b5761342a61309c565b5b6000613439858286016132e9565b925050602061344a858286016133ff565b9150509250929050565b600080fd5b600080fd5b7f4e487b7100000000000000000000000000000000000000000000000000000000600052604160045260246000fd5b613496826131a7565b810181811067ffffffffffffffff821117156134b5576134b461345e565b5b80604052505050565b60006134c8613092565b90506134d4828261348d565b919050565b600067ffffffffffffffff8211156134f4576134f361345e565b5b6134fd826131a7565b9050602081019050919050565b82818337600083830152505050565b600061352c613527846134d9565b6134be565b90508281526020810184848401111561354857613547613459565b5b61355384828561350a565b509392505050565b600082601f8301126135705761356f613454565b5b8135613580848260208601613519565b91505092915050565b600080600080608085870312156135a3576135a261309c565b5b60006135b1878288016132e9565b94505060206135c2878288016132e9565b93505060406135d387828801613234565b925050606085013567ffffffffffffffff8111156135f4576135f36130a1565b5b6136008782880161355b565b91505092959194509250565b600067ffffffffffffffff8211156136275761362661345e565b5b613630826131a7565b9050602081019050919050565b600061365061364b8461360c565b6134be565b90508281526020810184848401111561366c5761366b613459565b5b61367784828561350a565b509392505050565b600082601f83011261369457613693613454565b5b81356136a484826020860161363d565b91505092915050565b6000602082840312156136c3576136c261309c565b5b600082013567ffffffffffffffff8111156136e1576136e06130a1565b5b6136ed8482850161367f565b91505092915050565b6000806040838503121561370d5761370c61309c565b5b600061371b858286016132e9565b925050602061372c858286016132e9565b9150509250929050565b7f4e487b7100000000000000000000000000000000000000000000000000000000600052602260045260246000fd5b6000600282049050600182168061377d57607f821691505b6020821081036137905761378f613736565b5b50919050565b7f4552433732313a20617070726f76616c20746f2063757272656e74206f776e6560008201527f7200000000000000000000000000000000000000000000000000000000000000602082015250565b60006137f260218361316c565b91506137fd82613796565b604082019050919050565b60006020820190508181036000830152613821816137e5565b9050919050565b7f4552433732313a20617070726f76652063616c6c6572206973206e6f7420746f60008201527f6b656e206f776e6572206f7220617070726f76656420666f7220616c6c000000602082015250565b6000613884603d8361316c565b915061388f82613828565b604082019050919050565b600060208201905081810360008301526138b381613877565b9050919050565b7f4552433732313a2063616c6c6572206973206e6f7420746f6b656e206f776e6560008201527f72206f7220617070726f76656400000000000000000000000000000000000000602082015250565b6000613916602d8361316c565b9150613921826138ba565b604082019050919050565b6000602082019050818103600083015261394581613909565b9050919050565b7f4552433732313a20696e76616c696420746f6b656e2049440000000000000000600082015250565b600061398260188361316c565b915061398d8261394c565b602082019050919050565b600060208201905081810360008301526139b181613975565b9050919050565b7f4552433732313a2061646472657373207a65726f206973206e6f74206120766160008201527f6c6964206f776e65720000000000000000000000000000000000000000000000602082015250565b6000613a1460298361316c565b9150613a1f826139b8565b604082019050919050565b60006020820190508181036000830152613a4381613a07565b9050919050565b7f4e6674436f6c6c656374696f6e203a2063616c6c6572206973206e6f7420746860008201527f65206f776e657200000000000000000000000000000000000000000000000000602082015250565b6000613aa660278361316c565b9150613ab182613a4a565b604082019050919050565b60006020820190508181036000830152613ad581613a99565b9050919050565b7f4e487b7100000000000000000000000000000000000000000000000000000000600052601160045260246000fd5b6000613b1682613213565b9150613b2183613213565b9250828201905080821115613b3957613b38613adc565b5b92915050565b6000613b4a82613213565b91507fffffffffffffffffffffffffffffffffffffffffffffffffffffffffffffffff8203613b7c57613b7b613adc565b5b600182019050919050565b600081905092915050565b6000613b9d82613161565b613ba78185613b87565b9350613bb781856020860161317d565b80840191505092915050565b6000613bcf8285613b92565b9150613bdb8284613b92565b91508190509392505050565b7f4f776e61626c653a206e6577206f776e657220697320746865207a65726f206160008201527f6464726573730000000000000000000000000000000000000000000000000000602082015250565b6000613c4360268361316c565b9150613c4e82613be7565b604082019050919050565b60006020820190508181036000830152613c7281613c36565b9050919050565b7f4552433732313a207472616e736665722066726f6d20696e636f72726563742060008201527f6f776e6572000000000000000000000000000000000000000000000000000000602082015250565b6000613cd560258361316c565b9150613ce082613c79565b604082019050919050565b60006020820190508181036000830152613d0481613cc8565b9050919050565b7f4552433732313a207472616e7366657220746f20746865207a65726f2061646460008201527f7265737300000000000000000000000000000000000000000000000000000000602082015250565b6000613d6760248361316c565b9150613d7282613d0b565b604082019050919050565b60006020820190508181036000830152613d9681613d5a565b9050919050565b7f4f776e61626c653a2063616c6c6572206973206e6f7420746865206f776e6572600082015250565b6000613dd360208361316c565b9150613dde82613d9d565b602082019050919050565b60006020820190508181036000830152613e0281613dc6565b9050919050565b7f4552433732313a20617070726f766520746f2063616c6c657200000000000000600082015250565b6000613e3f60198361316c565b9150613e4a82613e09565b602082019050919050565b60006020820190508181036000830152613e6e81613e32565b9050919050565b7f4552433732313a207472616e7366657220746f206e6f6e20455243373231526560008201527f63656976657220696d706c656d656e7465720000000000000000000000000000602082015250565b6000613ed160328361316c565b9150613edc82613e75565b604082019050919050565b60006020820190508181036000830152613f0081613ec4565b9050919050565b7f4552433732313a206d696e7420746f20746865207a65726f2061646472657373600082015250565b6000613f3d60208361316c565b9150613f4882613f07565b602082019050919050565b60006020820190508181036000830152613f6c81613f30565b9050919050565b7f4552433732313a20746f6b656e20616c7265616479206d696e74656400000000600082015250565b6000613fa9601c8361316c565b9150613fb482613f73565b602082019050919050565b60006020820190508181036000830152613fd881613f9c565b9050919050565b7f45524337323155524953746f726167653a2055524920736574206f66206e6f6e60008201527f6578697374656e7420746f6b656e000000000000000000000000000000000000602082015250565b600061403b602e8361316c565b915061404682613fdf565b604082019050919050565b6000602082019050818103600083015261406a8161402e565b9050919050565b60008190508160005260206000209050919050565b60006020601f8301049050919050565b600082821b905092915050565b6000600883026140d37fffffffffffffffffffffffffffffffffffffffffffffffffffffffffffffffff82614096565b6140dd8683614096565b95508019841693508086168417925050509392505050565b6000819050919050565b600061411a61411561411084613213565b6140f5565b613213565b9050919050565b6000819050919050565b614134836140ff565b61414861414082614121565b8484546140a3565b825550505050565b600090565b61415d614150565b61416881848461412b565b505050565b5b8181101561418c57614181600082614155565b60018101905061416e565b5050565b601f8211156141d1576141a281614071565b6141ab84614086565b810160208510156141ba578190505b6141ce6141c685614086565b83018261416d565b50505b505050565b600082821c905092915050565b60006141f4600019846008026141d6565b1980831691505092915050565b600061420d83836141e3565b9150826002028217905092915050565b61422682613161565b67ffffffffffffffff81111561423f5761423e61345e565b5b6142498254613765565b614254828285614190565b600060209050601f8311600181146142875760008415614275578287015190505b61427f8582614201565b8655506142e7565b601f19841661429586614071565b60005b828110156142bd57848901518255600182019150602085019450602081019050614298565b868310156142da57848901516142d6601f8916826141e3565b8355505b6001600288020188555050505b505050505050565b60006142fa82613213565b915061430583613213565b925082820390508181111561431d5761431c613adc565b5b92915050565b600081519050919050565b600082825260208201905092915050565b600061434a82614323565b614354818561432e565b935061436481856020860161317d565b61436d816131a7565b840191505092915050565b600060808201905061438d60008301876132a8565b61439a60208301866132a8565b6143a760408301856133be565b81810360608301526143b9818461433f565b905095945050505050565b6000815190506143d3816130d2565b92915050565b6000602082840312156143ef576143ee61309c565b5b60006143fd848285016143c4565b91505092915050565b7f4e487b7100000000000000000000000000000000000000000000000000000000600052601260045260246000fdfea264697066735822122003e1d626814d0b304dc800c634b2e2318400dcfcdedaeabd0be8eb668994654564736f6c63430008110033a26469706673582212208281e6224a7617d8a8bcc43c5f73704e24dfaeda5a4a131e1b0b7f90ddd48f4664736f6c63430008110033","opcodes":"PUSH1 0x80 PUSH1 0x40 MSTORE CALLVALUE DUP1 ISZERO PUSH3 0x11 JUMPI PUSH1 0x0 DUP1 REVERT JUMPDEST POP PUSH1 0x1 PUSH1 0x0 DUP2 SWAP1 SSTORE POP PUSH3 0x36 PUSH8 0x699FBE26E1BA1B9D PUSH1 0xC0 SHL PUSH3 0x3C PUSH1 0x20 SHL PUSH1 0x20 SHR JUMP JUMPDEST PUSH3 0x3F JUMP JUMPDEST POP JUMP JUMPDEST PUSH2 0x81CE DUP1 PUSH3 0x4F PUSH1 0x0 CODECOPY PUSH1 0x0 RETURN INVALID PUSH1 0x80 PUSH1 0x40 MSTORE PUSH1 0x4 CALLDATASIZE LT PUSH3 0x9E JUMPI PUSH1 0x0 CALLDATALOAD PUSH1 0xE0 SHR DUP1 PUSH4 0xA37365E0 GT PUSH3 0x61 JUMPI DUP1 PUSH4 0xA37365E0 EQ PUSH3 0x1BC JUMPI DUP1 PUSH4 0xA38C9AA2 EQ PUSH3 0x1DC JUMPI DUP1 PUSH4 0xBF1B6F5B EQ PUSH3 0x20C JUMPI DUP1 PUSH4 0xCB576613 EQ PUSH3 0x23C JUMPI DUP1 PUSH4 0xE9FAAA92 EQ PUSH3 0x282 JUMPI PUSH3 0x9E JUMP JUMPDEST DUP1 PUSH4 0x265AA621 EQ PUSH3 0xA3 JUMPI DUP1 PUSH4 0x305A67A8 EQ PUSH3 0xEE JUMPI DUP1 PUSH4 0x66223A18 EQ PUSH3 0x11C JUMPI DUP1 PUSH4 0x7F3212EB EQ PUSH3 0x160 JUMPI DUP1 PUSH4 0x94383F14 EQ PUSH3 0x18E JUMPI JUMPDEST PUSH1 0x0 DUP1 REVERT JUMPDEST CALLVALUE DUP1 ISZERO PUSH3 0xB0 JUMPI PUSH1 0x0 DUP1 REVERT JUMPDEST POP PUSH3 0xCF PUSH1 0x4 DUP1 CALLDATASIZE SUB DUP2 ADD SWAP1 PUSH3 0xC9 SWAP2 SWAP1 PUSH3 0x22EC JUMP JUMPDEST PUSH3 0x2C6 JUMP JUMPDEST PUSH1 0x40 MLOAD PUSH3 0xE5 SWAP9 SWAP8 SWAP7 SWAP6 SWAP5 SWAP4 SWAP3 SWAP2 SWAP1 PUSH3 0x2450 JUMP JUMPDEST PUSH1 0x40 MLOAD DUP1 SWAP2 SUB SWAP1 RETURN JUMPDEST CALLVALUE DUP1 ISZERO PUSH3 0xFB JUMPI PUSH1 0x0 DUP1 REVERT JUMPDEST POP PUSH3 0x11A PUSH1 0x4 DUP1 CALLDATASIZE SUB DUP2 ADD SWAP1 PUSH3 0x114 SWAP2 SWAP1 PUSH3 0x22EC JUMP JUMPDEST PUSH3 0x47B JUMP JUMPDEST STOP JUMPDEST CALLVALUE DUP1 ISZERO PUSH3 0x129 JUMPI PUSH1 0x0 DUP1 REVERT JUMPDEST POP PUSH3 0x148 PUSH1 0x4 DUP1 CALLDATASIZE SUB DUP2 ADD SWAP1 PUSH3 0x142 SWAP2 SWAP1 PUSH3 0x263D JUMP JUMPDEST PUSH3 0x70F JUMP JUMPDEST PUSH1 0x40 MLOAD PUSH3 0x157 SWAP2 SWAP1 PUSH3 0x26C2 JUMP JUMPDEST PUSH1 0x40 MLOAD DUP1 SWAP2 SUB SWAP1 RETURN JUMPDEST CALLVALUE DUP1 ISZERO PUSH3 0x16D JUMPI PUSH1 0x0 DUP1 REVERT JUMPDEST POP PUSH3 0x18C PUSH1 0x4 DUP1 CALLDATASIZE SUB DUP2 ADD SWAP1 PUSH3 0x186 SWAP2 SWAP1 PUSH3 0x2710 JUMP JUMPDEST PUSH3 0xC3D JUMP JUMPDEST STOP JUMPDEST CALLVALUE DUP1 ISZERO PUSH3 0x19B JUMPI PUSH1 0x0 DUP1 REVERT JUMPDEST POP PUSH3 0x1BA PUSH1 0x4 DUP1 CALLDATASIZE SUB DUP2 ADD SWAP1 PUSH3 0x1B4 SWAP2 SWAP1 PUSH3 0x27AA JUMP JUMPDEST PUSH3 0x1146 JUMP JUMPDEST STOP JUMPDEST PUSH3 0x1DA PUSH1 0x4 DUP1 CALLDATASIZE SUB DUP2 ADD SWAP1 PUSH3 0x1D4 SWAP2 SWAP1 PUSH3 0x22EC JUMP JUMPDEST PUSH3 0x1754 JUMP JUMPDEST STOP JUMPDEST CALLVALUE DUP1 ISZERO PUSH3 0x1E9 JUMPI PUSH1 0x0 DUP1 REVERT JUMPDEST POP PUSH3 0x1F4 PUSH3 0x1ED8 JUMP JUMPDEST PUSH1 0x40 MLOAD PUSH3 0x203 SWAP2 SWAP1 PUSH3 0x27F1 JUMP JUMPDEST PUSH1 0x40 MLOAD DUP1 SWAP2 SUB SWAP1 RETURN JUMPDEST CALLVALUE DUP1 ISZERO PUSH3 0x219 JUMPI PUSH1 0x0 DUP1 REVERT JUMPDEST POP PUSH3 0x224 PUSH3 0x1EDE JUMP JUMPDEST PUSH1 0x40 MLOAD PUSH3 0x233 SWAP2 SWAP1 PUSH3 0x27F1 JUMP JUMPDEST PUSH1 0x40 MLOAD DUP1 SWAP2 SUB SWAP1 RETURN JUMPDEST CALLVALUE DUP1 ISZERO PUSH3 0x249 JUMPI PUSH1 0x0 DUP1 REVERT JUMPDEST POP PUSH3 0x268 PUSH1 0x4 DUP1 CALLDATASIZE SUB DUP2 ADD SWAP1 PUSH3 0x262 SWAP2 SWAP1 PUSH3 0x280E JUMP JUMPDEST PUSH3 0x1EEA JUMP JUMPDEST PUSH1 0x40 MLOAD PUSH3 0x279 SWAP4 SWAP3 SWAP2 SWAP1 PUSH3 0x285F JUMP JUMPDEST PUSH1 0x40 MLOAD DUP1 SWAP2 SUB SWAP1 RETURN JUMPDEST CALLVALUE DUP1 ISZERO PUSH3 0x28F JUMPI PUSH1 0x0 DUP1 REVERT JUMPDEST POP PUSH3 0x2AE PUSH1 0x4 DUP1 CALLDATASIZE SUB DUP2 ADD SWAP1 PUSH3 0x2A8 SWAP2 SWAP1 PUSH3 0x22EC JUMP JUMPDEST PUSH3 0x206A JUMP JUMPDEST PUSH1 0x40 MLOAD PUSH3 0x2BD SWAP2 SWAP1 PUSH3 0x28AA JUMP JUMPDEST PUSH1 0x40 MLOAD DUP1 SWAP2 SUB SWAP1 RETURN JUMPDEST PUSH1 0x5 PUSH1 0x20 MSTORE DUP1 PUSH1 0x0 MSTORE PUSH1 0x40 PUSH1 0x0 KECCAK256 PUSH1 0x0 SWAP2 POP SWAP1 POP DUP1 PUSH1 0x0 ADD SLOAD SWAP1 DUP1 PUSH1 0x1 ADD PUSH1 0x0 SWAP1 SLOAD SWAP1 PUSH2 0x100 EXP SWAP1 DIV PUSH20 0xFFFFFFFFFFFFFFFFFFFFFFFFFFFFFFFFFFFFFFFF AND SWAP1 DUP1 PUSH1 0x2 ADD SLOAD SWAP1 DUP1 PUSH1 0x3 ADD SLOAD SWAP1 DUP1 PUSH1 0x4 ADD PUSH1 0x0 SWAP1 SLOAD SWAP1 PUSH2 0x100 EXP SWAP1 DIV PUSH20 0xFFFFFFFFFFFFFFFFFFFFFFFFFFFFFFFFFFFFFFFF AND SWAP1 DUP1 PUSH1 0x4 ADD PUSH1 0x14 SWAP1 SLOAD SWAP1 PUSH2 0x100 EXP SWAP1 DIV PUSH1 0xFF AND SWAP1 DUP1 PUSH1 0x5 ADD DUP1 SLOAD PUSH3 0x35C SWAP1 PUSH3 0x28FD JUMP JUMPDEST DUP1 PUSH1 0x1F ADD PUSH1 0x20 DUP1 SWAP2 DIV MUL PUSH1 0x20 ADD PUSH1 0x40 MLOAD SWAP1 DUP2 ADD PUSH1 0x40 MSTORE DUP1 SWAP3 SWAP2 SWAP1 DUP2 DUP2 MSTORE PUSH1 0x20 ADD DUP3 DUP1 SLOAD PUSH3 0x38A SWAP1 PUSH3 0x28FD JUMP JUMPDEST DUP1 ISZERO PUSH3 0x3DB JUMPI DUP1 PUSH1 0x1F LT PUSH3 0x3AF JUMPI PUSH2 0x100 DUP1 DUP4 SLOAD DIV MUL DUP4 MSTORE SWAP2 PUSH1 0x20 ADD SWAP2 PUSH3 0x3DB JUMP JUMPDEST DUP3 ADD SWAP2 SWAP1 PUSH1 0x0 MSTORE PUSH1 0x20 PUSH1 0x0 KECCAK256 SWAP1 JUMPDEST DUP2 SLOAD DUP2 MSTORE SWAP1 PUSH1 0x1 ADD SWAP1 PUSH1 0x20 ADD DUP1 DUP4 GT PUSH3 0x3BD JUMPI DUP3 SWAP1 SUB PUSH1 0x1F AND DUP3 ADD SWAP2 JUMPDEST POP POP POP POP POP SWAP1 DUP1 PUSH1 0x6 ADD DUP1 SLOAD PUSH3 0x3F2 SWAP1 PUSH3 0x28FD JUMP JUMPDEST DUP1 PUSH1 0x1F ADD PUSH1 0x20 DUP1 SWAP2 DIV MUL PUSH1 0x20 ADD PUSH1 0x40 MLOAD SWAP1 DUP2 ADD PUSH1 0x40 MSTORE DUP1 SWAP3 SWAP2 SWAP1 DUP2 DUP2 MSTORE PUSH1 0x20 ADD DUP3 DUP1 SLOAD PUSH3 0x420 SWAP1 PUSH3 0x28FD JUMP JUMPDEST DUP1 ISZERO PUSH3 0x471 JUMPI DUP1 PUSH1 0x1F LT PUSH3 0x445 JUMPI PUSH2 0x100 DUP1 DUP4 SLOAD DIV MUL DUP4 MSTORE SWAP2 PUSH1 0x20 ADD SWAP2 PUSH3 0x471 JUMP JUMPDEST DUP3 ADD SWAP2 SWAP1 PUSH1 0x0 MSTORE PUSH1 0x20 PUSH1 0x0 KECCAK256 SWAP1 JUMPDEST DUP2 SLOAD DUP2 MSTORE SWAP1 PUSH1 0x1 ADD SWAP1 PUSH1 0x20 ADD DUP1 DUP4 GT PUSH3 0x453 JUMPI DUP3 SWAP1 SUB PUSH1 0x1F AND DUP3 ADD SWAP2 JUMPDEST POP POP POP POP POP SWAP1 POP DUP9 JUMP JUMPDEST PUSH3 0x491 PUSH8 0x4347DFEAF88EA788 PUSH1 0xC0 SHL PUSH3 0x211F JUMP JUMPDEST PUSH3 0x49B PUSH3 0x2122 JUMP JUMPDEST PUSH3 0x4B1 PUSH8 0x8A3173193BDDCBD6 PUSH1 0xC0 SHL PUSH3 0x211F JUMP JUMPDEST PUSH3 0x4C7 PUSH8 0x7A1E2CCDB360ABFB PUSH1 0xC0 SHL PUSH3 0x211F JUMP JUMPDEST PUSH3 0x4DD PUSH8 0xDDAEEEBD0245AEC8 PUSH1 0xC0 SHL PUSH3 0x211F JUMP JUMPDEST PUSH3 0x4F3 PUSH8 0x1C19F7FFAFDD18AD PUSH1 0xC0 SHL PUSH3 0x211F JUMP JUMPDEST PUSH3 0x509 PUSH8 0x16BAC7C01DD079F6 PUSH1 0xC0 SHL PUSH3 0x211F JUMP JUMPDEST PUSH1 0x1 ISZERO ISZERO PUSH1 0x5 PUSH1 0x0 DUP4 DUP2 MSTORE PUSH1 0x20 ADD SWAP1 DUP2 MSTORE PUSH1 0x20 ADD PUSH1 0x0 KECCAK256 PUSH1 0x4 ADD PUSH1 0x14 SWAP1 SLOAD SWAP1 PUSH2 0x100 EXP SWAP1 DIV PUSH1 0xFF AND ISZERO ISZERO EQ PUSH3 0x576 JUMPI PUSH1 0x40 MLOAD PUSH32 0x8C379A000000000000000000000000000000000000000000000000000000000 DUP2 MSTORE PUSH1 0x4 ADD PUSH3 0x56D SWAP1 PUSH3 0x29A8 JUMP JUMPDEST PUSH1 0x40 MLOAD DUP1 SWAP2 SUB SWAP1 REVERT JUMPDEST PUSH3 0x58C PUSH8 0xA77ED1E0A943BCF9 PUSH1 0xC0 SHL PUSH3 0x211F JUMP JUMPDEST PUSH3 0x5A2 PUSH8 0x9E61EEACCEFB2FDD PUSH1 0xC0 SHL PUSH3 0x211F JUMP JUMPDEST PUSH3 0x5B8 PUSH8 0xF41A066EFABCE9E5 PUSH1 0xC0 SHL PUSH3 0x211F JUMP JUMPDEST PUSH3 0x5CE PUSH8 0x138AACDBE728EEE8 PUSH1 0xC0 SHL PUSH3 0x211F JUMP JUMPDEST PUSH1 0x5 PUSH1 0x0 DUP3 DUP2 MSTORE PUSH1 0x20 ADD SWAP1 DUP2 MSTORE PUSH1 0x20 ADD PUSH1 0x0 KECCAK256 PUSH1 0x4 ADD PUSH1 0x0 SWAP1 SLOAD SWAP1 PUSH2 0x100 EXP SWAP1 DIV PUSH20 0xFFFFFFFFFFFFFFFFFFFFFFFFFFFFFFFFFFFFFFFF AND PUSH20 0xFFFFFFFFFFFFFFFFFFFFFFFFFFFFFFFFFFFFFFFF AND CALLER PUSH20 0xFFFFFFFFFFFFFFFFFFFFFFFFFFFFFFFFFFFFFFFF AND EQ PUSH3 0x675 JUMPI PUSH1 0x40 MLOAD PUSH32 0x8C379A000000000000000000000000000000000000000000000000000000000 DUP2 MSTORE PUSH1 0x4 ADD PUSH3 0x66C SWAP1 PUSH3 0x2A40 JUMP JUMPDEST PUSH1 0x40 MLOAD DUP1 SWAP2 SUB SWAP1 REVERT JUMPDEST PUSH3 0x68B PUSH8 0xE130FEC6A0E9169B PUSH1 0xC0 SHL PUSH3 0x211F JUMP JUMPDEST PUSH3 0x6A1 PUSH8 0xAFFF8AA7581D8A63 PUSH1 0xC0 SHL PUSH3 0x211F JUMP JUMPDEST PUSH1 0x0 PUSH1 0x5 PUSH1 0x0 DUP4 DUP2 MSTORE PUSH1 0x20 ADD SWAP1 DUP2 MSTORE PUSH1 0x20 ADD PUSH1 0x0 KECCAK256 PUSH1 0x4 ADD PUSH1 0x14 PUSH2 0x100 EXP DUP2 SLOAD DUP2 PUSH1 0xFF MUL NOT AND SWAP1 DUP4 ISZERO ISZERO MUL OR SWAP1 SSTORE POP PUSH3 0x6E6 PUSH8 0xB6AB3C03EE62BEC6 PUSH1 0xC0 SHL PUSH3 0x211F JUMP JUMPDEST PUSH1 0x0 PUSH1 0x5 PUSH1 0x0 DUP4 DUP2 MSTORE PUSH1 0x20 ADD SWAP1 DUP2 MSTORE PUSH1 0x20 ADD PUSH1 0x0 KECCAK256 PUSH1 0x3 ADD DUP2 SWAP1 SSTORE POP PUSH3 0x70C PUSH3 0x2174 JUMP JUMPDEST POP JUMP JUMPDEST PUSH1 0x0 PUSH3 0x727 PUSH8 0x76E3A0F907AB1AE PUSH1 0xC0 SHL PUSH3 0x217E JUMP JUMPDEST PUSH3 0x73D PUSH8 0x659D2797C0E68FB6 PUSH1 0xC0 SHL PUSH3 0x217E JUMP JUMPDEST PUSH3 0x753 PUSH8 0x24A9D0A34E745611 PUSH1 0xC0 SHL PUSH3 0x217E JUMP JUMPDEST PUSH3 0x769 PUSH8 0xCCE66DD404EF298E PUSH1 0xC0 SHL PUSH3 0x217E JUMP JUMPDEST PUSH1 0x0 DUP4 MLOAD GT DUP1 ISZERO PUSH3 0x77C JUMPI POP PUSH1 0x0 DUP3 MLOAD GT JUMPDEST PUSH3 0x7BE JUMPI PUSH1 0x40 MLOAD PUSH32 0x8C379A000000000000000000000000000000000000000000000000000000000 DUP2 MSTORE PUSH1 0x4 ADD PUSH3 0x7B5 SWAP1 PUSH3 0x2AD8 JUMP JUMPDEST PUSH1 0x40 MLOAD DUP1 SWAP2 SUB SWAP1 REVERT JUMPDEST PUSH3 0x7D4 PUSH8 0xF79E3340768194D3 PUSH1 0xC0 SHL PUSH3 0x217E JUMP JUMPDEST PUSH3 0x7EA PUSH8 0x9A2EAEEEDB41E8F5 PUSH1 0xC0 SHL PUSH3 0x217E JUMP JUMPDEST PUSH3 0x800 PUSH8 0x7B392DAFB7741135 PUSH1 0xC0 SHL PUSH3 0x217E JUMP JUMPDEST PUSH3 0x816 PUSH8 0x4E090010547F927F PUSH1 0xC0 SHL PUSH3 0x217E JUMP JUMPDEST PUSH1 0x0 PUSH1 0x3 DUP4 PUSH1 0x40 MLOAD PUSH3 0x82A SWAP2 SWAP1 PUSH3 0x2B3C JUMP JUMPDEST SWAP1 DUP2 MSTORE PUSH1 0x20 ADD PUSH1 0x40 MLOAD DUP1 SWAP2 SUB SWAP1 KECCAK256 PUSH1 0x1 ADD DUP1 SLOAD PUSH3 0x848 SWAP1 PUSH3 0x28FD JUMP JUMPDEST SWAP1 POP EQ PUSH3 0x88D JUMPI PUSH1 0x40 MLOAD PUSH32 0x8C379A000000000000000000000000000000000000000000000000000000000 DUP2 MSTORE PUSH1 0x4 ADD PUSH3 0x884 SWAP1 PUSH3 0x2BA5 JUMP JUMPDEST PUSH1 0x40 MLOAD DUP1 SWAP2 SUB SWAP1 REVERT JUMPDEST PUSH3 0x8A3 PUSH8 0xF5187E3945165681 PUSH1 0xC0 SHL PUSH3 0x217E JUMP JUMPDEST PUSH3 0x8B9 PUSH8 0x672BAC2D328D588B PUSH1 0xC0 SHL PUSH3 0x217E JUMP JUMPDEST PUSH3 0x8CF PUSH8 0xB2FC7BFE8F539E02 PUSH1 0xC0 SHL PUSH3 0x217E JUMP JUMPDEST PUSH1 0x0 PUSH3 0x8DD DUP5 DUP5 PUSH3 0x2181 JUMP JUMPDEST SWAP1 POP PUSH3 0x8F5 PUSH8 0xFB15337E00EFD614 PUSH1 0xC0 SHL PUSH3 0x217E JUMP JUMPDEST PUSH3 0x90B PUSH8 0xCB9029A1F1694513 PUSH1 0xC0 SHL PUSH3 0x217E JUMP JUMPDEST PUSH1 0x0 DUP5 PUSH1 0x40 MLOAD PUSH1 0x20 ADD PUSH3 0x920 SWAP2 SWAP1 PUSH3 0x2B3C JUMP JUMPDEST PUSH1 0x40 MLOAD PUSH1 0x20 DUP2 DUP4 SUB SUB DUP2 MSTORE SWAP1 PUSH1 0x40 MSTORE DUP1 MLOAD SWAP1 PUSH1 0x20 ADD KECCAK256 SWAP1 POP PUSH3 0x94E PUSH8 0x4755A52696EF52B7 PUSH1 0xC0 SHL PUSH3 0x217E JUMP JUMPDEST DUP1 DUP3 MLOAD PUSH1 0x20 DUP5 ADD PUSH1 0x0 CREATE2 SWAP3 POP DUP3 EXTCODESIZE PUSH3 0x966 JUMPI PUSH1 0x0 DUP1 REVERT JUMPDEST PUSH3 0x97C PUSH8 0x7ED99FE231838007 PUSH1 0xC0 SHL PUSH3 0x217E JUMP JUMPDEST PUSH3 0x992 PUSH8 0x7288332E0F8CB207 PUSH1 0xC0 SHL PUSH3 0x217E JUMP JUMPDEST DUP3 PUSH20 0xFFFFFFFFFFFFFFFFFFFFFFFFFFFFFFFFFFFFFFFF AND PUSH4 0xF2FDE38B CALLER PUSH1 0x40 MLOAD DUP3 PUSH4 0xFFFFFFFF AND PUSH1 0xE0 SHL DUP2 MSTORE PUSH1 0x4 ADD PUSH3 0x9CD SWAP2 SWAP1 PUSH3 0x26C2 JUMP JUMPDEST PUSH1 0x0 PUSH1 0x40 MLOAD DUP1 DUP4 SUB DUP2 PUSH1 0x0 DUP8 DUP1 EXTCODESIZE ISZERO DUP1 ISZERO PUSH3 0x9E8 JUMPI PUSH1 0x0 DUP1 REVERT JUMPDEST POP GAS CALL ISZERO DUP1 ISZERO PUSH3 0x9FD JUMPI RETURNDATASIZE PUSH1 0x0 DUP1 RETURNDATACOPY RETURNDATASIZE PUSH1 0x0 REVERT JUMPDEST POP POP POP POP PUSH3 0xA17 PUSH8 0xF13110B80202685F PUSH1 0xC0 SHL PUSH3 0x217E JUMP JUMPDEST PUSH1 0x2 PUSH1 0x0 DUP2 SLOAD DUP1 SWAP3 SWAP2 SWAP1 PUSH3 0xA2C SWAP1 PUSH3 0x2BF6 JUMP JUMPDEST SWAP2 SWAP1 POP SSTORE POP PUSH3 0xA47 PUSH8 0x6FD64F9427D7CB30 PUSH1 0xC0 SHL PUSH3 0x217E JUMP JUMPDEST DUP5 PUSH1 0x3 DUP6 PUSH1 0x40 MLOAD PUSH3 0xA5A SWAP2 SWAP1 PUSH3 0x2B3C JUMP JUMPDEST SWAP1 DUP2 MSTORE PUSH1 0x20 ADD PUSH1 0x40 MLOAD DUP1 SWAP2 SUB SWAP1 KECCAK256 PUSH1 0x0 ADD SWAP1 DUP2 PUSH3 0xA79 SWAP2 SWAP1 PUSH3 0x2E15 JUMP JUMPDEST POP PUSH3 0xA90 PUSH8 0xB6C64D5BAE485D9B PUSH1 0xC0 SHL PUSH3 0x217E JUMP JUMPDEST DUP4 PUSH1 0x3 DUP6 PUSH1 0x40 MLOAD PUSH3 0xAA3 SWAP2 SWAP1 PUSH3 0x2B3C JUMP JUMPDEST SWAP1 DUP2 MSTORE PUSH1 0x20 ADD PUSH1 0x40 MLOAD DUP1 SWAP2 SUB SWAP1 KECCAK256 PUSH1 0x1 ADD SWAP1 DUP2 PUSH3 0xAC2 SWAP2 SWAP1 PUSH3 0x2E15 JUMP JUMPDEST POP PUSH3 0xAD9 PUSH8 0x94D14BC6E549FE9 PUSH1 0xC0 SHL PUSH3 0x217E JUMP JUMPDEST DUP3 PUSH1 0x3 DUP6 PUSH1 0x40 MLOAD PUSH3 0xAEC SWAP2 SWAP1 PUSH3 0x2B3C JUMP JUMPDEST SWAP1 DUP2 MSTORE PUSH1 0x20 ADD PUSH1 0x40 MLOAD DUP1 SWAP2 SUB SWAP1 KECCAK256 PUSH1 0x2 ADD PUSH1 0x0 PUSH2 0x100 EXP DUP2 SLOAD DUP2 PUSH20 0xFFFFFFFFFFFFFFFFFFFFFFFFFFFFFFFFFFFFFFFF MUL NOT AND SWAP1 DUP4 PUSH20 0xFFFFFFFFFFFFFFFFFFFFFFFFFFFFFFFFFFFFFFFF AND MUL OR SWAP1 SSTORE POP PUSH3 0xB51 PUSH8 0x51670D2420FF14D7 PUSH1 0xC0 SHL PUSH3 0x217E JUMP JUMPDEST PUSH3 0xB67 PUSH8 0x19A35E7767777A57 PUSH1 0xC0 SHL PUSH3 0x217E JUMP JUMPDEST PUSH1 0x1 DUP5 SWAP1 DUP1 PUSH1 0x1 DUP2 SLOAD ADD DUP1 DUP3 SSTORE DUP1 SWAP2 POP POP PUSH1 0x1 SWAP1 SUB SWAP1 PUSH1 0x0 MSTORE PUSH1 0x20 PUSH1 0x0 KECCAK256 ADD PUSH1 0x0 SWAP1 SWAP2 SWAP1 SWAP2 SWAP1 SWAP2 POP SWAP1 DUP2 PUSH3 0xB9D SWAP2 SWAP1 PUSH3 0x2E15 JUMP JUMPDEST POP PUSH3 0xBB4 PUSH8 0xD4902F66D8320C74 PUSH1 0xC0 SHL PUSH3 0x217E JUMP JUMPDEST PUSH3 0xBCA PUSH8 0x63DB3AD31DCCF061 PUSH1 0xC0 SHL PUSH3 0x217E JUMP JUMPDEST PUSH32 0x7E43EFB107A1EE87684F21D01BD9AA430DB7C7AA3653FAC7DDC509318ABF3808 DUP6 DUP6 DUP6 TIMESTAMP PUSH1 0x40 MLOAD PUSH3 0xC01 SWAP5 SWAP4 SWAP3 SWAP2 SWAP1 PUSH3 0x2EFC JUMP JUMPDEST PUSH1 0x40 MLOAD DUP1 SWAP2 SUB SWAP1 LOG1 PUSH3 0xC1F PUSH8 0xDF0C2799FA0842F7 PUSH1 0xC0 SHL PUSH3 0x217E JUMP JUMPDEST PUSH3 0xC35 PUSH8 0xBD5D19998FF5CE60 PUSH1 0xC0 SHL PUSH3 0x217E JUMP JUMPDEST POP POP SWAP3 SWAP2 POP POP JUMP JUMPDEST PUSH3 0xC53 PUSH8 0x928AF28F60234215 PUSH1 0xC0 SHL PUSH3 0x211F JUMP JUMPDEST PUSH3 0xC5D PUSH3 0x2122 JUMP JUMPDEST PUSH3 0xC73 PUSH8 0xB2765693F8B77799 PUSH1 0xC0 SHL PUSH3 0x211F JUMP JUMPDEST PUSH3 0xC89 PUSH8 0x3D05596E66A30D7F PUSH1 0xC0 SHL PUSH3 0x211F JUMP JUMPDEST PUSH3 0xC9F PUSH8 0x417D9930E7B889DE PUSH1 0xC0 SHL PUSH3 0x211F JUMP JUMPDEST PUSH3 0xCB5 PUSH8 0x4F7E34B7F0248345 PUSH1 0xC0 SHL PUSH3 0x211F JUMP JUMPDEST PUSH3 0xCCB PUSH8 0x8889F0A53613F8BD PUSH1 0xC0 SHL PUSH3 0x211F JUMP JUMPDEST PUSH1 0x0 DUP4 MLOAD GT DUP1 ISZERO PUSH3 0xD4B JUMPI POP DUP2 PUSH20 0xFFFFFFFFFFFFFFFFFFFFFFFFFFFFFFFFFFFFFFFF AND PUSH1 0x3 DUP3 PUSH1 0x40 MLOAD PUSH3 0xD01 SWAP2 SWAP1 PUSH3 0x2B3C JUMP JUMPDEST SWAP1 DUP2 MSTORE PUSH1 0x20 ADD PUSH1 0x40 MLOAD DUP1 SWAP2 SUB SWAP1 KECCAK256 PUSH1 0x2 ADD PUSH1 0x0 SWAP1 SLOAD SWAP1 PUSH2 0x100 EXP SWAP1 DIV PUSH20 0xFFFFFFFFFFFFFFFFFFFFFFFFFFFFFFFFFFFFFFFF AND PUSH20 0xFFFFFFFFFFFFFFFFFFFFFFFFFFFFFFFFFFFFFFFF AND EQ JUMPDEST PUSH3 0xD8D JUMPI PUSH1 0x40 MLOAD PUSH32 0x8C379A000000000000000000000000000000000000000000000000000000000 DUP2 MSTORE PUSH1 0x4 ADD PUSH3 0xD84 SWAP1 PUSH3 0x2FCD JUMP JUMPDEST PUSH1 0x40 MLOAD DUP1 SWAP2 SUB SWAP1 REVERT JUMPDEST PUSH3 0xDA3 PUSH8 0x2B76F5EC5FCDB029 PUSH1 0xC0 SHL PUSH3 0x211F JUMP JUMPDEST PUSH3 0xDB9 PUSH8 0x54FBED84B93ECB52 PUSH1 0xC0 SHL PUSH3 0x211F JUMP JUMPDEST PUSH3 0xDCF PUSH8 0xA16BF61F99CA304E PUSH1 0xC0 SHL PUSH3 0x211F JUMP JUMPDEST PUSH1 0x0 DUP3 SWAP1 POP PUSH3 0xDEA PUSH8 0xB8102E15A5F4A2A6 PUSH1 0xC0 SHL PUSH3 0x211F JUMP JUMPDEST PUSH3 0xE00 PUSH8 0xD3B0D37F8D942D28 PUSH1 0xC0 SHL PUSH3 0x211F JUMP JUMPDEST DUP1 PUSH20 0xFFFFFFFFFFFFFFFFFFFFFFFFFFFFFFFFFFFFFFFF AND PUSH4 0xC7545849 DUP6 PUSH1 0x40 MLOAD DUP3 PUSH4 0xFFFFFFFF AND PUSH1 0xE0 SHL DUP2 MSTORE PUSH1 0x4 ADD PUSH3 0xE3B SWAP2 SWAP1 PUSH3 0x28AA JUMP JUMPDEST PUSH1 0x0 PUSH1 0x40 MLOAD DUP1 DUP4 SUB DUP2 PUSH1 0x0 DUP8 DUP1 EXTCODESIZE ISZERO DUP1 ISZERO PUSH3 0xE56 JUMPI PUSH1 0x0 DUP1 REVERT JUMPDEST POP GAS CALL ISZERO DUP1 ISZERO PUSH3 0xE6B JUMPI RETURNDATASIZE PUSH1 0x0 DUP1 RETURNDATACOPY RETURNDATASIZE PUSH1 0x0 REVERT JUMPDEST POP POP POP POP PUSH3 0xE85 PUSH8 0xA5BB28D29B855F70 PUSH1 0xC0 SHL PUSH3 0x211F JUMP JUMPDEST PUSH3 0xE9B PUSH8 0x5B7736547B9C7D0A PUSH1 0xC0 SHL PUSH3 0x211F JUMP JUMPDEST PUSH3 0xEA7 PUSH1 0x4 PUSH3 0x226B JUMP JUMPDEST PUSH3 0xEBD PUSH8 0x3413548D007A05FB PUSH1 0xC0 SHL PUSH3 0x211F JUMP JUMPDEST PUSH1 0x40 MLOAD DUP1 PUSH2 0x100 ADD PUSH1 0x40 MSTORE DUP1 PUSH3 0xED5 PUSH1 0x4 PUSH3 0x2281 JUMP JUMPDEST DUP2 MSTORE PUSH1 0x20 ADD DUP5 PUSH20 0xFFFFFFFFFFFFFFFFFFFFFFFFFFFFFFFFFFFFFFFF AND DUP2 MSTORE PUSH1 0x20 ADD DUP3 PUSH20 0xFFFFFFFFFFFFFFFFFFFFFFFFFFFFFFFFFFFFFFFF AND PUSH4 0x9D63848A PUSH1 0x40 MLOAD DUP2 PUSH4 0xFFFFFFFF AND PUSH1 0xE0 SHL DUP2 MSTORE PUSH1 0x4 ADD PUSH1 0x20 PUSH1 0x40 MLOAD DUP1 DUP4 SUB DUP2 DUP7 GAS STATICCALL ISZERO DUP1 ISZERO PUSH3 0xF42 JUMPI RETURNDATASIZE PUSH1 0x0 DUP1 RETURNDATACOPY RETURNDATASIZE PUSH1 0x0 REVERT JUMPDEST POP POP POP POP PUSH1 0x40 MLOAD RETURNDATASIZE PUSH1 0x1F NOT PUSH1 0x1F DUP3 ADD AND DUP3 ADD DUP1 PUSH1 0x40 MSTORE POP DUP2 ADD SWAP1 PUSH3 0xF68 SWAP2 SWAP1 PUSH3 0x3006 JUMP JUMPDEST DUP2 MSTORE PUSH1 0x20 ADD PUSH1 0x0 DUP2 MSTORE PUSH1 0x20 ADD CALLER PUSH20 0xFFFFFFFFFFFFFFFFFFFFFFFFFFFFFFFFFFFFFFFF AND DUP2 MSTORE PUSH1 0x20 ADD PUSH1 0x0 ISZERO ISZERO DUP2 MSTORE PUSH1 0x20 ADD DUP6 DUP2 MSTORE PUSH1 0x20 ADD DUP4 DUP2 MSTORE POP PUSH1 0x5 PUSH1 0x0 PUSH3 0xFB3 PUSH1 0x4 PUSH3 0x2281 JUMP JUMPDEST DUP2 MSTORE PUSH1 0x20 ADD SWAP1 DUP2 MSTORE PUSH1 0x20 ADD PUSH1 0x0 KECCAK256 PUSH1 0x0 DUP3 ADD MLOAD DUP2 PUSH1 0x0 ADD SSTORE PUSH1 0x20 DUP3 ADD MLOAD DUP2 PUSH1 0x1 ADD PUSH1 0x0 PUSH2 0x100 EXP DUP2 SLOAD DUP2 PUSH20 0xFFFFFFFFFFFFFFFFFFFFFFFFFFFFFFFFFFFFFFFF MUL NOT AND SWAP1 DUP4 PUSH20 0xFFFFFFFFFFFFFFFFFFFFFFFFFFFFFFFFFFFFFFFF AND MUL OR SWAP1 SSTORE POP PUSH1 0x40 DUP3 ADD MLOAD DUP2 PUSH1 0x2 ADD SSTORE PUSH1 0x60 DUP3 ADD MLOAD DUP2 PUSH1 0x3 ADD SSTORE PUSH1 0x80 DUP3 ADD MLOAD DUP2 PUSH1 0x4 ADD PUSH1 0x0 PUSH2 0x100 EXP DUP2 SLOAD DUP2 PUSH20 0xFFFFFFFFFFFFFFFFFFFFFFFFFFFFFFFFFFFFFFFF MUL NOT AND SWAP1 DUP4 PUSH20 0xFFFFFFFFFFFFFFFFFFFFFFFFFFFFFFFFFFFFFFFF AND MUL OR SWAP1 SSTORE POP PUSH1 0xA0 DUP3 ADD MLOAD DUP2 PUSH1 0x4 ADD PUSH1 0x14 PUSH2 0x100 EXP DUP2 SLOAD DUP2 PUSH1 0xFF MUL NOT AND SWAP1 DUP4 ISZERO ISZERO MUL OR SWAP1 SSTORE POP PUSH1 0xC0 DUP3 ADD MLOAD DUP2 PUSH1 0x5 ADD SWAP1 DUP2 PUSH3 0x10A4 SWAP2 SWAP1 PUSH3 0x2E15 JUMP JUMPDEST POP PUSH1 0xE0 DUP3 ADD MLOAD DUP2 PUSH1 0x6 ADD SWAP1 DUP2 PUSH3 0x10BC SWAP2 SWAP1 PUSH3 0x2E15 JUMP JUMPDEST POP SWAP1 POP POP PUSH3 0x10D6 PUSH8 0x744F4BCB6EB05E31 PUSH1 0xC0 SHL PUSH3 0x211F JUMP JUMPDEST PUSH3 0x10EC PUSH8 0xB0CCB859D407D7EC PUSH1 0xC0 SHL PUSH3 0x211F JUMP JUMPDEST PUSH32 0x67540A320DAF33F565534FE9ECA83EB771D29EF88DDE04B188B0EBF60F40ABDA PUSH3 0x1119 PUSH1 0x4 PUSH3 0x2281 JUMP JUMPDEST DUP5 CALLER DUP8 PUSH1 0x40 MLOAD PUSH3 0x112E SWAP5 SWAP4 SWAP3 SWAP2 SWAP1 PUSH3 0x3038 JUMP JUMPDEST PUSH1 0x40 MLOAD DUP1 SWAP2 SUB SWAP1 LOG1 POP PUSH3 0x1141 PUSH3 0x2174 JUMP JUMPDEST POP POP POP JUMP JUMPDEST PUSH3 0x115C PUSH8 0xAC0BB02509B38454 PUSH1 0xC0 SHL PUSH3 0x211F JUMP JUMPDEST PUSH3 0x1166 PUSH3 0x2122 JUMP JUMPDEST PUSH3 0x117C PUSH8 0x3319CCDD9A1B6E2 PUSH1 0xC0 SHL PUSH3 0x211F JUMP JUMPDEST PUSH3 0x1192 PUSH8 0x6EB645E29A66413F PUSH1 0xC0 SHL PUSH3 0x211F JUMP JUMPDEST PUSH3 0x11A8 PUSH8 0x1E940C060B4515BD PUSH1 0xC0 SHL PUSH3 0x211F JUMP JUMPDEST PUSH3 0x11BE PUSH8 0x4C143F697763436E PUSH1 0xC0 SHL PUSH3 0x211F JUMP JUMPDEST PUSH3 0x11D4 PUSH8 0x4468EB2ADB644FB7 PUSH1 0xC0 SHL PUSH3 0x211F JUMP JUMPDEST PUSH1 0x0 DUP2 GT PUSH3 0x121A JUMPI PUSH1 0x40 MLOAD PUSH32 0x8C379A000000000000000000000000000000000000000000000000000000000 DUP2 MSTORE PUSH1 0x4 ADD PUSH3 0x1211 SWAP1 PUSH3 0x3102 JUMP JUMPDEST PUSH1 0x40 MLOAD DUP1 SWAP2 SUB SWAP1 REVERT JUMPDEST PUSH3 0x1230 PUSH8 0x5235756DD06D4BD8 PUSH1 0xC0 SHL PUSH3 0x211F JUMP JUMPDEST PUSH3 0x1246 PUSH8 0x61B309C821F92F64 PUSH1 0xC0 SHL PUSH3 0x211F JUMP JUMPDEST PUSH3 0x125C PUSH8 0x3A6D7F677BE5C69E PUSH1 0xC0 SHL PUSH3 0x211F JUMP JUMPDEST PUSH3 0x1272 PUSH8 0x85FB3E2AFD1DB0FE PUSH1 0xC0 SHL PUSH3 0x211F JUMP JUMPDEST PUSH1 0x0 DUP3 GT DUP1 ISZERO PUSH3 0x128E JUMPI POP PUSH3 0x128A PUSH1 0x4 PUSH3 0x2281 JUMP JUMPDEST DUP3 GT ISZERO JUMPDEST PUSH3 0x12D0 JUMPI PUSH1 0x40 MLOAD PUSH32 0x8C379A000000000000000000000000000000000000000000000000000000000 DUP2 MSTORE PUSH1 0x4 ADD PUSH3 0x12C7 SWAP1 PUSH3 0x3174 JUMP JUMPDEST PUSH1 0x40 MLOAD DUP1 SWAP2 SUB SWAP1 REVERT JUMPDEST PUSH3 0x12E6 PUSH8 0xAE16E1FEB6687F89 PUSH1 0xC0 SHL PUSH3 0x211F JUMP JUMPDEST PUSH3 0x12FC PUSH8 0x837FFBB7F1195A5B PUSH1 0xC0 SHL PUSH3 0x211F JUMP JUMPDEST PUSH3 0x1312 PUSH8 0x5B2A800F3134B4A5 PUSH1 0xC0 SHL PUSH3 0x211F JUMP JUMPDEST PUSH3 0x1328 PUSH8 0x63A0CD9217ADA149 PUSH1 0xC0 SHL PUSH3 0x211F JUMP JUMPDEST PUSH1 0x0 ISZERO ISZERO PUSH1 0x5 PUSH1 0x0 DUP5 DUP2 MSTORE PUSH1 0x20 ADD SWAP1 DUP2 MSTORE PUSH1 0x20 ADD PUSH1 0x0 KECCAK256 PUSH1 0x4 ADD PUSH1 0x14 SWAP1 SLOAD SWAP1 PUSH2 0x100 EXP SWAP1 DIV PUSH1 0xFF AND ISZERO ISZERO EQ PUSH3 0x1395 JUMPI PUSH1 0x40 MLOAD PUSH32 0x8C379A000000000000000000000000000000000000000000000000000000000 DUP2 MSTORE PUSH1 0x4 ADD PUSH3 0x138C SWAP1 PUSH3 0x31E6 JUMP JUMPDEST PUSH1 0x40 MLOAD DUP1 SWAP2 SUB SWAP1 REVERT JUMPDEST PUSH3 0x13AB PUSH8 0x30FB7C3B25F4FA9A PUSH1 0xC0 SHL PUSH3 0x211F JUMP JUMPDEST PUSH3 0x13C1 PUSH8 0x7A5B5CED385F480E PUSH1 0xC0 SHL PUSH3 0x211F JUMP JUMPDEST PUSH3 0x13D7 PUSH8 0x526A7BDBD12BB0CC PUSH1 0xC0 SHL PUSH3 0x211F JUMP JUMPDEST PUSH1 0x0 PUSH1 0x5 PUSH1 0x0 DUP5 DUP2 MSTORE PUSH1 0x20 ADD SWAP1 DUP2 MSTORE PUSH1 0x20 ADD PUSH1 0x0 KECCAK256 PUSH1 0x1 ADD PUSH1 0x0 SWAP1 SLOAD SWAP1 PUSH2 0x100 EXP SWAP1 DIV PUSH20 0xFFFFFFFFFFFFFFFFFFFFFFFFFFFFFFFFFFFFFFFF AND SWAP1 POP PUSH3 0x1428 PUSH8 0x93B3E67327E94322 PUSH1 0xC0 SHL PUSH3 0x211F JUMP JUMPDEST PUSH3 0x143E PUSH8 0x8113CF4C487AC31E PUSH1 0xC0 SHL PUSH3 0x211F JUMP JUMPDEST ADDRESS PUSH20 0xFFFFFFFFFFFFFFFFFFFFFFFFFFFFFFFFFFFFFFFF AND DUP2 PUSH20 0xFFFFFFFFFFFFFFFFFFFFFFFFFFFFFFFFFFFFFFFF AND PUSH4 0x6352211E PUSH1 0x5 PUSH1 0x0 DUP8 DUP2 MSTORE PUSH1 0x20 ADD SWAP1 DUP2 MSTORE PUSH1 0x20 ADD PUSH1 0x0 KECCAK256 PUSH1 0x2 ADD SLOAD PUSH1 0x40 MLOAD DUP3 PUSH4 0xFFFFFFFF AND PUSH1 0xE0 SHL DUP2 MSTORE PUSH1 0x4 ADD PUSH3 0x14A6 SWAP2 SWAP1 PUSH3 0x27F1 JUMP JUMPDEST PUSH1 0x20 PUSH1 0x40 MLOAD DUP1 DUP4 SUB DUP2 DUP7 GAS STATICCALL ISZERO DUP1 ISZERO PUSH3 0x14C4 JUMPI RETURNDATASIZE PUSH1 0x0 DUP1 RETURNDATACOPY RETURNDATASIZE PUSH1 0x0 REVERT JUMPDEST POP POP POP POP PUSH1 0x40 MLOAD RETURNDATASIZE PUSH1 0x1F NOT PUSH1 0x1F DUP3 ADD AND DUP3 ADD DUP1 PUSH1 0x40 MSTORE POP DUP2 ADD SWAP1 PUSH3 0x14EA SWAP2 SWAP1 PUSH3 0x321F JUMP JUMPDEST PUSH20 0xFFFFFFFFFFFFFFFFFFFFFFFFFFFFFFFFFFFFFFFF AND EQ PUSH3 0x15D5 JUMPI PUSH3 0x151C PUSH8 0x31B6B599A05FDBA7 PUSH1 0xC0 SHL PUSH3 0x211F JUMP JUMPDEST PUSH3 0x1532 PUSH8 0xB0D452DED594CF76 PUSH1 0xC0 SHL PUSH3 0x211F JUMP JUMPDEST PUSH3 0x1548 PUSH8 0xF9A348DF380AD882 PUSH1 0xC0 SHL PUSH3 0x211F JUMP JUMPDEST DUP1 PUSH20 0xFFFFFFFFFFFFFFFFFFFFFFFFFFFFFFFFFFFFFFFF AND PUSH4 0x8FBA3F7C ADDRESS PUSH1 0x5 PUSH1 0x0 DUP8 DUP2 MSTORE PUSH1 0x20 ADD SWAP1 DUP2 MSTORE PUSH1 0x20 ADD PUSH1 0x0 KECCAK256 PUSH1 0x2 ADD SLOAD PUSH1 0x40 MLOAD DUP4 PUSH4 0xFFFFFFFF AND PUSH1 0xE0 SHL DUP2 MSTORE PUSH1 0x4 ADD PUSH3 0x159B SWAP3 SWAP2 SWAP1 PUSH3 0x3251 JUMP JUMPDEST PUSH1 0x0 PUSH1 0x40 MLOAD DUP1 DUP4 SUB DUP2 PUSH1 0x0 DUP8 DUP1 EXTCODESIZE ISZERO DUP1 ISZERO PUSH3 0x15B6 JUMPI PUSH1 0x0 DUP1 REVERT JUMPDEST POP GAS CALL ISZERO DUP1 ISZERO PUSH3 0x15CB JUMPI RETURNDATASIZE PUSH1 0x0 DUP1 RETURNDATACOPY RETURNDATASIZE PUSH1 0x0 REVERT JUMPDEST POP POP POP POP PUSH3 0x15EC JUMP JUMPDEST PUSH3 0x15EB PUSH8 0x3A95D7498E8646B6 PUSH1 0xC0 SHL PUSH3 0x211F JUMP JUMPDEST JUMPDEST PUSH3 0x1602 PUSH8 0x93853079B3335397 PUSH1 0xC0 SHL PUSH3 0x211F JUMP JUMPDEST DUP2 PUSH1 0x5 PUSH1 0x0 DUP6 DUP2 MSTORE PUSH1 0x20 ADD SWAP1 DUP2 MSTORE PUSH1 0x20 ADD PUSH1 0x0 KECCAK256 PUSH1 0x3 ADD DUP2 SWAP1 SSTORE POP PUSH3 0x1633 PUSH8 0x3AA343499B62A02E PUSH1 0xC0 SHL PUSH3 0x211F JUMP JUMPDEST PUSH1 0x1 PUSH1 0x5 PUSH1 0x0 DUP6 DUP2 MSTORE PUSH1 0x20 ADD SWAP1 DUP2 MSTORE PUSH1 0x20 ADD PUSH1 0x0 KECCAK256 PUSH1 0x4 ADD PUSH1 0x14 PUSH2 0x100 EXP DUP2 SLOAD DUP2 PUSH1 0xFF MUL NOT AND SWAP1 DUP4 ISZERO ISZERO MUL OR SWAP1 SSTORE POP PUSH3 0x1678 PUSH8 0x5A6E477CE35C046C PUSH1 0xC0 SHL PUSH3 0x211F JUMP JUMPDEST PUSH3 0x168E PUSH8 0x8425662E9AD13350 PUSH1 0xC0 SHL PUSH3 0x211F JUMP JUMPDEST CALLER PUSH20 0xFFFFFFFFFFFFFFFFFFFFFFFFFFFFFFFFFFFFFFFF AND PUSH1 0x5 PUSH1 0x0 DUP6 DUP2 MSTORE PUSH1 0x20 ADD SWAP1 DUP2 MSTORE PUSH1 0x20 ADD PUSH1 0x0 KECCAK256 PUSH1 0x1 ADD PUSH1 0x0 SWAP1 SLOAD SWAP1 PUSH2 0x100 EXP SWAP1 DIV PUSH20 0xFFFFFFFFFFFFFFFFFFFFFFFFFFFFFFFFFFFFFFFF AND PUSH20 0xFFFFFFFFFFFFFFFFFFFFFFFFFFFFFFFFFFFFFFFF AND PUSH32 0xE33AAFC81513BE125D0EF3012A3189731E3A7A4C64DE233E9ADF88E14C67C401 DUP6 PUSH1 0x5 PUSH1 0x0 DUP9 DUP2 MSTORE PUSH1 0x20 ADD SWAP1 DUP2 MSTORE PUSH1 0x20 ADD PUSH1 0x0 KECCAK256 PUSH1 0x2 ADD SLOAD DUP7 PUSH1 0x40 MLOAD PUSH3 0x173D SWAP4 SWAP3 SWAP2 SWAP1 PUSH3 0x327E JUMP JUMPDEST PUSH1 0x40 MLOAD DUP1 SWAP2 SUB SWAP1 LOG3 POP PUSH3 0x1750 PUSH3 0x2174 JUMP JUMPDEST POP POP JUMP JUMPDEST PUSH3 0x176A PUSH8 0x4A0CADB80DA40444 PUSH1 0xC0 SHL PUSH3 0x211F JUMP JUMPDEST PUSH3 0x1774 PUSH3 0x2122 JUMP JUMPDEST PUSH3 0x178A PUSH8 0xD833B8FC05C3DE6F PUSH1 0xC0 SHL PUSH3 0x211F JUMP JUMPDEST PUSH3 0x17A0 PUSH8 0x5B43248BD124FAF9 PUSH1 0xC0 SHL PUSH3 0x211F JUMP JUMPDEST PUSH3 0x17B6 PUSH8 0xB76EC8D578CEEA3F PUSH1 0xC0 SHL PUSH3 0x211F JUMP JUMPDEST PUSH3 0x17CC PUSH8 0x3425D8B033AE0C66 PUSH1 0xC0 SHL PUSH3 0x211F JUMP JUMPDEST PUSH3 0x17E2 PUSH8 0x9570A6E551C7FBA PUSH1 0xC0 SHL PUSH3 0x211F JUMP JUMPDEST PUSH1 0x0 DUP2 GT DUP1 ISZERO PUSH3 0x17FE JUMPI POP PUSH3 0x17FA PUSH1 0x4 PUSH3 0x2281 JUMP JUMPDEST DUP2 GT ISZERO JUMPDEST PUSH3 0x1840 JUMPI PUSH1 0x40 MLOAD PUSH32 0x8C379A000000000000000000000000000000000000000000000000000000000 DUP2 MSTORE PUSH1 0x4 ADD PUSH3 0x1837 SWAP1 PUSH3 0x330B JUMP JUMPDEST PUSH1 0x40 MLOAD DUP1 SWAP2 SUB SWAP1 REVERT JUMPDEST PUSH3 0x1856 PUSH8 0x96A198605B6B3D14 PUSH1 0xC0 SHL PUSH3 0x211F JUMP JUMPDEST PUSH3 0x186C PUSH8 0xB9D8087901A2DBA9 PUSH1 0xC0 SHL PUSH3 0x211F JUMP JUMPDEST PUSH3 0x1882 PUSH8 0x2CC3C06B5357812B PUSH1 0xC0 SHL PUSH3 0x211F JUMP JUMPDEST PUSH3 0x1898 PUSH8 0x4937AC53CB086B83 PUSH1 0xC0 SHL PUSH3 0x211F JUMP JUMPDEST PUSH1 0x5 PUSH1 0x0 DUP3 DUP2 MSTORE PUSH1 0x20 ADD SWAP1 DUP2 MSTORE PUSH1 0x20 ADD PUSH1 0x0 KECCAK256 PUSH1 0x3 ADD SLOAD CALLVALUE EQ PUSH3 0x18F3 JUMPI PUSH1 0x40 MLOAD PUSH32 0x8C379A000000000000000000000000000000000000000000000000000000000 DUP2 MSTORE PUSH1 0x4 ADD PUSH3 0x18EA SWAP1 PUSH3 0x33A3 JUMP JUMPDEST PUSH1 0x40 MLOAD DUP1 SWAP2 SUB SWAP1 REVERT JUMPDEST PUSH3 0x1909 PUSH8 0xB8DA844B039FAFB4 PUSH1 0xC0 SHL PUSH3 0x211F JUMP JUMPDEST PUSH3 0x191F PUSH8 0x603221DCE667AD64 PUSH1 0xC0 SHL PUSH3 0x211F JUMP JUMPDEST PUSH3 0x1935 PUSH8 0xE771628CBB8FA513 PUSH1 0xC0 SHL PUSH3 0x211F JUMP JUMPDEST PUSH3 0x194B PUSH8 0x5D3ED2181BDF0D37 PUSH1 0xC0 SHL PUSH3 0x211F JUMP JUMPDEST PUSH1 0x5 PUSH1 0x0 DUP3 DUP2 MSTORE PUSH1 0x20 ADD SWAP1 DUP2 MSTORE PUSH1 0x20 ADD PUSH1 0x0 KECCAK256 PUSH1 0x4 ADD PUSH1 0x14 SWAP1 SLOAD SWAP1 PUSH2 0x100 EXP SWAP1 DIV PUSH1 0xFF AND PUSH3 0x19B1 JUMPI PUSH1 0x40 MLOAD PUSH32 0x8C379A000000000000000000000000000000000000000000000000000000000 DUP2 MSTORE PUSH1 0x4 ADD PUSH3 0x19A8 SWAP1 PUSH3 0x3415 JUMP JUMPDEST PUSH1 0x40 MLOAD DUP1 SWAP2 SUB SWAP1 REVERT JUMPDEST PUSH3 0x19C7 PUSH8 0x2AF55902FA53936D PUSH1 0xC0 SHL PUSH3 0x211F JUMP JUMPDEST PUSH3 0x19DD PUSH8 0x2837B16D035BE176 PUSH1 0xC0 SHL PUSH3 0x211F JUMP JUMPDEST PUSH3 0x19F3 PUSH8 0xC809C929A2B8367E PUSH1 0xC0 SHL PUSH3 0x211F JUMP JUMPDEST PUSH3 0x1A09 PUSH8 0xB1E8A4AB0709CD85 PUSH1 0xC0 SHL PUSH3 0x211F JUMP JUMPDEST PUSH1 0x5 PUSH1 0x0 DUP3 DUP2 MSTORE PUSH1 0x20 ADD SWAP1 DUP2 MSTORE PUSH1 0x20 ADD PUSH1 0x0 KECCAK256 PUSH1 0x4 ADD PUSH1 0x0 SWAP1 SLOAD SWAP1 PUSH2 0x100 EXP SWAP1 DIV PUSH20 0xFFFFFFFFFFFFFFFFFFFFFFFFFFFFFFFFFFFFFFFF AND PUSH20 0xFFFFFFFFFFFFFFFFFFFFFFFFFFFFFFFFFFFFFFFF AND CALLER PUSH20 0xFFFFFFFFFFFFFFFFFFFFFFFFFFFFFFFFFFFFFFFF AND SUB PUSH3 0x1AB0 JUMPI PUSH1 0x40 MLOAD PUSH32 0x8C379A000000000000000000000000000000000000000000000000000000000 DUP2 MSTORE PUSH1 0x4 ADD PUSH3 0x1AA7 SWAP1 PUSH3 0x3487 JUMP JUMPDEST PUSH1 0x40 MLOAD DUP1 SWAP2 SUB SWAP1 REVERT JUMPDEST PUSH3 0x1AC6 PUSH8 0x154DCA48C108DF80 PUSH1 0xC0 SHL PUSH3 0x211F JUMP JUMPDEST PUSH3 0x1ADC PUSH8 0x1910D68F6A93D9D7 PUSH1 0xC0 SHL PUSH3 0x211F JUMP JUMPDEST PUSH3 0x1AF2 PUSH8 0x7868243E8093E9B8 PUSH1 0xC0 SHL PUSH3 0x211F JUMP JUMPDEST PUSH1 0x0 PUSH1 0x5 PUSH1 0x0 DUP4 DUP2 MSTORE PUSH1 0x20 ADD SWAP1 DUP2 MSTORE PUSH1 0x20 ADD PUSH1 0x0 KECCAK256 PUSH1 0x1 ADD PUSH1 0x0 SWAP1 SLOAD SWAP1 PUSH2 0x100 EXP SWAP1 DIV PUSH20 0xFFFFFFFFFFFFFFFFFFFFFFFFFFFFFFFFFFFFFFFF AND SWAP1 POP PUSH3 0x1B43 PUSH8 0xB0DD04B46351811A PUSH1 0xC0 SHL PUSH3 0x211F JUMP JUMPDEST PUSH3 0x1B59 PUSH8 0x683753BC3734D711 PUSH1 0xC0 SHL PUSH3 0x211F JUMP JUMPDEST DUP1 PUSH20 0xFFFFFFFFFFFFFFFFFFFFFFFFFFFFFFFFFFFFFFFF AND PUSH4 0x42842E0E ADDRESS CALLER PUSH1 0x5 PUSH1 0x0 DUP8 DUP2 MSTORE PUSH1 0x20 ADD SWAP1 DUP2 MSTORE PUSH1 0x20 ADD PUSH1 0x0 KECCAK256 PUSH1 0x2 ADD SLOAD PUSH1 0x40 MLOAD DUP5 PUSH4 0xFFFFFFFF AND PUSH1 0xE0 SHL DUP2 MSTORE PUSH1 0x4 ADD PUSH3 0x1BAE SWAP4 SWAP3 SWAP2 SWAP1 PUSH3 0x34A9 JUMP JUMPDEST PUSH1 0x0 PUSH1 0x40 MLOAD DUP1 DUP4 SUB DUP2 PUSH1 0x0 DUP8 DUP1 EXTCODESIZE ISZERO DUP1 ISZERO PUSH3 0x1BC9 JUMPI PUSH1 0x0 DUP1 REVERT JUMPDEST POP GAS CALL ISZERO DUP1 ISZERO PUSH3 0x1BDE JUMPI RETURNDATASIZE PUSH1 0x0 DUP1 RETURNDATACOPY RETURNDATASIZE PUSH1 0x0 REVERT JUMPDEST POP POP POP POP PUSH3 0x1BF8 PUSH8 0xBE26B16C65CB811D PUSH1 0xC0 SHL PUSH3 0x211F JUMP JUMPDEST PUSH3 0x1C0E PUSH8 0x5DA04A183DEB7001 PUSH1 0xC0 SHL PUSH3 0x211F JUMP JUMPDEST PUSH1 0x5 PUSH1 0x0 DUP4 DUP2 MSTORE PUSH1 0x20 ADD SWAP1 DUP2 MSTORE PUSH1 0x20 ADD PUSH1 0x0 KECCAK256 PUSH1 0x4 ADD PUSH1 0x0 SWAP1 SLOAD SWAP1 PUSH2 0x100 EXP SWAP1 DIV PUSH20 0xFFFFFFFFFFFFFFFFFFFFFFFFFFFFFFFFFFFFFFFF AND PUSH20 0xFFFFFFFFFFFFFFFFFFFFFFFFFFFFFFFFFFFFFFFF AND PUSH2 0x8FC PUSH1 0x5 PUSH1 0x0 DUP6 DUP2 MSTORE PUSH1 0x20 ADD SWAP1 DUP2 MSTORE PUSH1 0x20 ADD PUSH1 0x0 KECCAK256 PUSH1 0x3 ADD SLOAD SWAP1 DUP2 ISZERO MUL SWAP1 PUSH1 0x40 MLOAD PUSH1 0x0 PUSH1 0x40 MLOAD DUP1 DUP4 SUB DUP2 DUP6 DUP9 DUP9 CALL SWAP4 POP POP POP POP ISZERO DUP1 ISZERO PUSH3 0x1CA1 JUMPI RETURNDATASIZE PUSH1 0x0 DUP1 RETURNDATACOPY RETURNDATASIZE PUSH1 0x0 REVERT JUMPDEST POP PUSH3 0x1CB8 PUSH8 0x49DDC1C295723668 PUSH1 0xC0 SHL PUSH3 0x211F JUMP JUMPDEST PUSH1 0x0 PUSH1 0x5 PUSH1 0x0 DUP5 DUP2 MSTORE PUSH1 0x20 ADD SWAP1 DUP2 MSTORE PUSH1 0x20 ADD PUSH1 0x0 KECCAK256 PUSH1 0x3 ADD DUP2 SWAP1 SSTORE POP PUSH3 0x1CEA PUSH8 0x486F41B69D23732C PUSH1 0xC0 SHL PUSH3 0x211F JUMP JUMPDEST PUSH1 0x0 PUSH1 0x5 PUSH1 0x0 DUP5 DUP2 MSTORE PUSH1 0x20 ADD SWAP1 DUP2 MSTORE PUSH1 0x20 ADD PUSH1 0x0 KECCAK256 PUSH1 0x4 ADD PUSH1 0x14 PUSH2 0x100 EXP DUP2 SLOAD DUP2 PUSH1 0xFF MUL NOT AND SWAP1 DUP4 ISZERO ISZERO MUL OR SWAP1 SSTORE POP PUSH3 0x1D2F PUSH8 0xBF715AD3B7353EE6 PUSH1 0xC0 SHL PUSH3 0x211F JUMP JUMPDEST CALLER PUSH1 0x5 PUSH1 0x0 DUP5 DUP2 MSTORE PUSH1 0x20 ADD SWAP1 DUP2 MSTORE PUSH1 0x20 ADD PUSH1 0x0 KECCAK256 PUSH1 0x4 ADD PUSH1 0x0 PUSH2 0x100 EXP DUP2 SLOAD DUP2 PUSH20 0xFFFFFFFFFFFFFFFFFFFFFFFFFFFFFFFFFFFFFFFF MUL NOT AND SWAP1 DUP4 PUSH20 0xFFFFFFFFFFFFFFFFFFFFFFFFFFFFFFFFFFFFFFFF AND MUL OR SWAP1 SSTORE POP PUSH3 0x1D9A PUSH8 0x1C9189378D00ADE1 PUSH1 0xC0 SHL PUSH3 0x211F JUMP JUMPDEST PUSH3 0x1DB0 PUSH8 0x28BDA1D2D5784353 PUSH1 0xC0 SHL PUSH3 0x211F JUMP JUMPDEST CALLER PUSH20 0xFFFFFFFFFFFFFFFFFFFFFFFFFFFFFFFFFFFFFFFF AND PUSH1 0x5 PUSH1 0x0 DUP5 DUP2 MSTORE PUSH1 0x20 ADD SWAP1 DUP2 MSTORE PUSH1 0x20 ADD PUSH1 0x0 KECCAK256 PUSH1 0x4 ADD PUSH1 0x0 SWAP1 SLOAD SWAP1 PUSH2 0x100 EXP SWAP1 DIV PUSH20 0xFFFFFFFFFFFFFFFFFFFFFFFFFFFFFFFFFFFFFFFF AND PUSH20 0xFFFFFFFFFFFFFFFFFFFFFFFFFFFFFFFFFFFFFFFF AND PUSH1 0x5 PUSH1 0x0 DUP6 DUP2 MSTORE PUSH1 0x20 ADD SWAP1 DUP2 MSTORE PUSH1 0x20 ADD PUSH1 0x0 KECCAK256 PUSH1 0x1 ADD PUSH1 0x0 SWAP1 SLOAD SWAP1 PUSH2 0x100 EXP SWAP1 DIV PUSH20 0xFFFFFFFFFFFFFFFFFFFFFFFFFFFFFFFFFFFFFFFF AND PUSH20 0xFFFFFFFFFFFFFFFFFFFFFFFFFFFFFFFFFFFFFFFF AND PUSH32 0xFB0CFC474ABD12BA63C7E2D4116FE3D9B17F0B5A415D805CF5F5C4AF185AF18B DUP6 PUSH1 0x5 PUSH1 0x0 DUP9 DUP2 MSTORE PUSH1 0x20 ADD SWAP1 DUP2 MSTORE PUSH1 0x20 ADD PUSH1 0x0 KECCAK256 PUSH1 0x2 ADD SLOAD PUSH1 0x5 PUSH1 0x0 DUP10 DUP2 MSTORE PUSH1 0x20 ADD SWAP1 DUP2 MSTORE PUSH1 0x20 ADD PUSH1 0x0 KECCAK256 PUSH1 0x3 ADD SLOAD PUSH1 0x40 MLOAD PUSH3 0x1EC2 SWAP4 SWAP3 SWAP2 SWAP1 PUSH3 0x327E JUMP JUMPDEST PUSH1 0x40 MLOAD DUP1 SWAP2 SUB SWAP1 LOG4 POP PUSH3 0x1ED5 PUSH3 0x2174 JUMP JUMPDEST POP JUMP JUMPDEST PUSH1 0x2 SLOAD DUP2 JUMP JUMPDEST PUSH1 0x4 DUP1 PUSH1 0x0 ADD SLOAD SWAP1 POP DUP2 JUMP JUMPDEST PUSH1 0x3 DUP2 DUP1 MLOAD PUSH1 0x20 DUP2 ADD DUP3 ADD DUP1 MLOAD DUP5 DUP3 MSTORE PUSH1 0x20 DUP4 ADD PUSH1 0x20 DUP6 ADD KECCAK256 DUP2 DUP4 MSTORE DUP1 SWAP6 POP POP POP POP POP POP PUSH1 0x0 SWAP2 POP SWAP1 POP DUP1 PUSH1 0x0 ADD DUP1 SLOAD PUSH3 0x1F25 SWAP1 PUSH3 0x28FD JUMP JUMPDEST DUP1 PUSH1 0x1F ADD PUSH1 0x20 DUP1 SWAP2 DIV MUL PUSH1 0x20 ADD PUSH1 0x40 MLOAD SWAP1 DUP2 ADD PUSH1 0x40 MSTORE DUP1 SWAP3 SWAP2 SWAP1 DUP2 DUP2 MSTORE PUSH1 0x20 ADD DUP3 DUP1 SLOAD PUSH3 0x1F53 SWAP1 PUSH3 0x28FD JUMP JUMPDEST DUP1 ISZERO PUSH3 0x1FA4 JUMPI DUP1 PUSH1 0x1F LT PUSH3 0x1F78 JUMPI PUSH2 0x100 DUP1 DUP4 SLOAD DIV MUL DUP4 MSTORE SWAP2 PUSH1 0x20 ADD SWAP2 PUSH3 0x1FA4 JUMP JUMPDEST DUP3 ADD SWAP2 SWAP1 PUSH1 0x0 MSTORE PUSH1 0x20 PUSH1 0x0 KECCAK256 SWAP1 JUMPDEST DUP2 SLOAD DUP2 MSTORE SWAP1 PUSH1 0x1 ADD SWAP1 PUSH1 0x20 ADD DUP1 DUP4 GT PUSH3 0x1F86 JUMPI DUP3 SWAP1 SUB PUSH1 0x1F AND DUP3 ADD SWAP2 JUMPDEST POP POP POP POP POP SWAP1 DUP1 PUSH1 0x1 ADD DUP1 SLOAD PUSH3 0x1FBB SWAP1 PUSH3 0x28FD JUMP JUMPDEST DUP1 PUSH1 0x1F ADD PUSH1 0x20 DUP1 SWAP2 DIV MUL PUSH1 0x20 ADD PUSH1 0x40 MLOAD SWAP1 DUP2 ADD PUSH1 0x40 MSTORE DUP1 SWAP3 SWAP2 SWAP1 DUP2 DUP2 MSTORE PUSH1 0x20 ADD DUP3 DUP1 SLOAD PUSH3 0x1FE9 SWAP1 PUSH3 0x28FD JUMP JUMPDEST DUP1 ISZERO PUSH3 0x203A JUMPI DUP1 PUSH1 0x1F LT PUSH3 0x200E JUMPI PUSH2 0x100 DUP1 DUP4 SLOAD DIV MUL DUP4 MSTORE SWAP2 PUSH1 0x20 ADD SWAP2 PUSH3 0x203A JUMP JUMPDEST DUP3 ADD SWAP2 SWAP1 PUSH1 0x0 MSTORE PUSH1 0x20 PUSH1 0x0 KECCAK256 SWAP1 JUMPDEST DUP2 SLOAD DUP2 MSTORE SWAP1 PUSH1 0x1 ADD SWAP1 PUSH1 0x20 ADD DUP1 DUP4 GT PUSH3 0x201C JUMPI DUP3 SWAP1 SUB PUSH1 0x1F AND DUP3 ADD SWAP2 JUMPDEST POP POP POP POP POP SWAP1 DUP1 PUSH1 0x2 ADD PUSH1 0x0 SWAP1 SLOAD SWAP1 PUSH2 0x100 EXP SWAP1 DIV PUSH20 0xFFFFFFFFFFFFFFFFFFFFFFFFFFFFFFFFFFFFFFFF AND SWAP1 POP DUP4 JUMP JUMPDEST PUSH1 0x1 DUP2 DUP2 SLOAD DUP2 LT PUSH3 0x207B JUMPI PUSH1 0x0 DUP1 REVERT JUMPDEST SWAP1 PUSH1 0x0 MSTORE PUSH1 0x20 PUSH1 0x0 KECCAK256 ADD PUSH1 0x0 SWAP2 POP SWAP1 POP DUP1 SLOAD PUSH3 0x2098 SWAP1 PUSH3 0x28FD JUMP JUMPDEST DUP1 PUSH1 0x1F ADD PUSH1 0x20 DUP1 SWAP2 DIV MUL PUSH1 0x20 ADD PUSH1 0x40 MLOAD SWAP1 DUP2 ADD PUSH1 0x40 MSTORE DUP1 SWAP3 SWAP2 SWAP1 DUP2 DUP2 MSTORE PUSH1 0x20 ADD DUP3 DUP1 SLOAD PUSH3 0x20C6 SWAP1 PUSH3 0x28FD JUMP JUMPDEST DUP1 ISZERO PUSH3 0x2117 JUMPI DUP1 PUSH1 0x1F LT PUSH3 0x20EB JUMPI PUSH2 0x100 DUP1 DUP4 SLOAD DIV MUL DUP4 MSTORE SWAP2 PUSH1 0x20 ADD SWAP2 PUSH3 0x2117 JUMP JUMPDEST DUP3 ADD SWAP2 SWAP1 PUSH1 0x0 MSTORE PUSH1 0x20 PUSH1 0x0 KECCAK256 SWAP1 JUMPDEST DUP2 SLOAD DUP2 MSTORE SWAP1 PUSH1 0x1 ADD SWAP1 PUSH1 0x20 ADD DUP1 DUP4 GT PUSH3 0x20F9 JUMPI DUP3 SWAP1 SUB PUSH1 0x1F AND DUP3 ADD SWAP2 JUMPDEST POP POP POP POP POP DUP2 JUMP JUMPDEST POP JUMP JUMPDEST PUSH1 0x2 PUSH1 0x0 SLOAD SUB PUSH3 0x216A JUMPI PUSH1 0x40 MLOAD PUSH32 0x8C379A000000000000000000000000000000000000000000000000000000000 DUP2 MSTORE PUSH1 0x4 ADD PUSH3 0x2161 SWAP1 PUSH3 0x3536 JUMP JUMPDEST PUSH1 0x40 MLOAD DUP1 SWAP2 SUB SWAP1 REVERT JUMPDEST PUSH1 0x2 PUSH1 0x0 DUP2 SWAP1 SSTORE POP JUMP JUMPDEST PUSH1 0x1 PUSH1 0x0 DUP2 SWAP1 SSTORE POP JUMP JUMPDEST POP JUMP JUMPDEST PUSH1 0x60 PUSH3 0x2199 PUSH8 0xA38ADDCAC5A812E8 PUSH1 0xC0 SHL PUSH3 0x217E JUMP JUMPDEST PUSH3 0x21AF PUSH8 0x31DD60F78FE28150 PUSH1 0xC0 SHL PUSH3 0x217E JUMP JUMPDEST PUSH3 0x21C5 PUSH8 0x3FDCE9952C5121AC PUSH1 0xC0 SHL PUSH3 0x217E JUMP JUMPDEST PUSH1 0x0 PUSH1 0x40 MLOAD DUP1 PUSH1 0x20 ADD PUSH3 0x21D9 SWAP1 PUSH3 0x228F JUMP JUMPDEST PUSH1 0x20 DUP3 ADD DUP2 SUB DUP3 MSTORE PUSH1 0x1F NOT PUSH1 0x1F DUP3 ADD AND PUSH1 0x40 MSTORE POP SWAP1 POP PUSH3 0x2205 PUSH8 0xE895DD66480A525A PUSH1 0xC0 SHL PUSH3 0x217E JUMP JUMPDEST PUSH3 0x221B PUSH8 0xF7FD4B130F1DF559 PUSH1 0xC0 SHL PUSH3 0x217E JUMP JUMPDEST DUP1 DUP5 DUP5 PUSH1 0x40 MLOAD PUSH1 0x20 ADD PUSH3 0x2231 SWAP3 SWAP2 SWAP1 PUSH3 0x3558 JUMP JUMPDEST PUSH1 0x40 MLOAD PUSH1 0x20 DUP2 DUP4 SUB SUB DUP2 MSTORE SWAP1 PUSH1 0x40 MSTORE PUSH1 0x40 MLOAD PUSH1 0x20 ADD PUSH3 0x2253 SWAP3 SWAP2 SWAP1 PUSH3 0x35E0 JUMP JUMPDEST PUSH1 0x40 MLOAD PUSH1 0x20 DUP2 DUP4 SUB SUB DUP2 MSTORE SWAP1 PUSH1 0x40 MSTORE SWAP2 POP POP SWAP3 SWAP2 POP POP JUMP JUMPDEST PUSH1 0x1 DUP2 PUSH1 0x0 ADD PUSH1 0x0 DUP3 DUP3 SLOAD ADD SWAP3 POP POP DUP2 SWAP1 SSTORE POP POP JUMP JUMPDEST PUSH1 0x0 DUP2 PUSH1 0x0 ADD SLOAD SWAP1 POP SWAP2 SWAP1 POP JUMP JUMPDEST PUSH2 0x4B90 DUP1 PUSH3 0x3609 DUP4 CODECOPY ADD SWAP1 JUMP JUMPDEST PUSH1 0x0 PUSH1 0x40 MLOAD SWAP1 POP SWAP1 JUMP JUMPDEST PUSH1 0x0 DUP1 REVERT JUMPDEST PUSH1 0x0 DUP1 REVERT JUMPDEST PUSH1 0x0 DUP2 SWAP1 POP SWAP2 SWAP1 POP JUMP JUMPDEST PUSH3 0x22C6 DUP2 PUSH3 0x22B1 JUMP JUMPDEST DUP2 EQ PUSH3 0x22D2 JUMPI PUSH1 0x0 DUP1 REVERT JUMPDEST POP JUMP JUMPDEST PUSH1 0x0 DUP2 CALLDATALOAD SWAP1 POP PUSH3 0x22E6 DUP2 PUSH3 0x22BB JUMP JUMPDEST SWAP3 SWAP2 POP POP JUMP JUMPDEST PUSH1 0x0 PUSH1 0x20 DUP3 DUP5 SUB SLT ISZERO PUSH3 0x2305 JUMPI PUSH3 0x2304 PUSH3 0x22A7 JUMP JUMPDEST JUMPDEST PUSH1 0x0 PUSH3 0x2315 DUP5 DUP3 DUP6 ADD PUSH3 0x22D5 JUMP JUMPDEST SWAP2 POP POP SWAP3 SWAP2 POP POP JUMP JUMPDEST PUSH3 0x2329 DUP2 PUSH3 0x22B1 JUMP JUMPDEST DUP3 MSTORE POP POP JUMP JUMPDEST PUSH1 0x0 PUSH20 0xFFFFFFFFFFFFFFFFFFFFFFFFFFFFFFFFFFFFFFFF DUP3 AND SWAP1 POP SWAP2 SWAP1 POP JUMP JUMPDEST PUSH1 0x0 PUSH3 0x235C DUP3 PUSH3 0x232F JUMP JUMPDEST SWAP1 POP SWAP2 SWAP1 POP JUMP JUMPDEST PUSH3 0x236E DUP2 PUSH3 0x234F JUMP JUMPDEST DUP3 MSTORE POP POP JUMP JUMPDEST PUSH1 0x0 PUSH3 0x2381 DUP3 PUSH3 0x232F JUMP JUMPDEST SWAP1 POP SWAP2 SWAP1 POP JUMP JUMPDEST PUSH3 0x2393 DUP2 PUSH3 0x2374 JUMP JUMPDEST DUP3 MSTORE POP POP JUMP JUMPDEST PUSH1 0x0 DUP2 ISZERO ISZERO SWAP1 POP SWAP2 SWAP1 POP JUMP JUMPDEST PUSH3 0x23B0 DUP2 PUSH3 0x2399 JUMP JUMPDEST DUP3 MSTORE POP POP JUMP JUMPDEST PUSH1 0x0 DUP2 MLOAD SWAP1 POP SWAP2 SWAP1 POP JUMP JUMPDEST PUSH1 0x0 DUP3 DUP3 MSTORE PUSH1 0x20 DUP3 ADD SWAP1 POP SWAP3 SWAP2 POP POP JUMP JUMPDEST PUSH1 0x0 JUMPDEST DUP4 DUP2 LT ISZERO PUSH3 0x23F2 JUMPI DUP1 DUP3 ADD MLOAD DUP2 DUP5 ADD MSTORE PUSH1 0x20 DUP2 ADD SWAP1 POP PUSH3 0x23D5 JUMP JUMPDEST PUSH1 0x0 DUP5 DUP5 ADD MSTORE POP POP POP POP JUMP JUMPDEST PUSH1 0x0 PUSH1 0x1F NOT PUSH1 0x1F DUP4 ADD AND SWAP1 POP SWAP2 SWAP1 POP JUMP JUMPDEST PUSH1 0x0 PUSH3 0x241C DUP3 PUSH3 0x23B6 JUMP JUMPDEST PUSH3 0x2428 DUP2 DUP6 PUSH3 0x23C1 JUMP JUMPDEST SWAP4 POP PUSH3 0x243A DUP2 DUP6 PUSH1 0x20 DUP7 ADD PUSH3 0x23D2 JUMP JUMPDEST PUSH3 0x2445 DUP2 PUSH3 0x23FE JUMP JUMPDEST DUP5 ADD SWAP2 POP POP SWAP3 SWAP2 POP POP JUMP JUMPDEST PUSH1 0x0 PUSH2 0x100 DUP3 ADD SWAP1 POP PUSH3 0x2468 PUSH1 0x0 DUP4 ADD DUP12 PUSH3 0x231E JUMP JUMPDEST PUSH3 0x2477 PUSH1 0x20 DUP4 ADD DUP11 PUSH3 0x2363 JUMP JUMPDEST PUSH3 0x2486 PUSH1 0x40 DUP4 ADD DUP10 PUSH3 0x231E JUMP JUMPDEST PUSH3 0x2495 PUSH1 0x60 DUP4 ADD DUP9 PUSH3 0x231E JUMP JUMPDEST PUSH3 0x24A4 PUSH1 0x80 DUP4 ADD DUP8 PUSH3 0x2388 JUMP JUMPDEST PUSH3 0x24B3 PUSH1 0xA0 DUP4 ADD DUP7 PUSH3 0x23A5 JUMP JUMPDEST DUP2 DUP2 SUB PUSH1 0xC0 DUP4 ADD MSTORE PUSH3 0x24C7 DUP2 DUP6 PUSH3 0x240F JUMP JUMPDEST SWAP1 POP DUP2 DUP2 SUB PUSH1 0xE0 DUP4 ADD MSTORE PUSH3 0x24DD DUP2 DUP5 PUSH3 0x240F JUMP JUMPDEST SWAP1 POP SWAP10 SWAP9 POP POP POP POP POP POP POP POP POP JUMP JUMPDEST PUSH1 0x0 DUP1 REVERT JUMPDEST PUSH1 0x0 DUP1 REVERT JUMPDEST PUSH32 0x4E487B7100000000000000000000000000000000000000000000000000000000 PUSH1 0x0 MSTORE PUSH1 0x41 PUSH1 0x4 MSTORE PUSH1 0x24 PUSH1 0x0 REVERT JUMPDEST PUSH3 0x2530 DUP3 PUSH3 0x23FE JUMP JUMPDEST DUP2 ADD DUP2 DUP2 LT PUSH8 0xFFFFFFFFFFFFFFFF DUP3 GT OR ISZERO PUSH3 0x2552 JUMPI PUSH3 0x2551 PUSH3 0x24F6 JUMP JUMPDEST JUMPDEST DUP1 PUSH1 0x40 MSTORE POP POP POP JUMP JUMPDEST PUSH1 0x0 PUSH3 0x2567 PUSH3 0x229D JUMP JUMPDEST SWAP1 POP PUSH3 0x2575 DUP3 DUP3 PUSH3 0x2525 JUMP JUMPDEST SWAP2 SWAP1 POP JUMP JUMPDEST PUSH1 0x0 PUSH8 0xFFFFFFFFFFFFFFFF DUP3 GT ISZERO PUSH3 0x2598 JUMPI PUSH3 0x2597 PUSH3 0x24F6 JUMP JUMPDEST JUMPDEST PUSH3 0x25A3 DUP3 PUSH3 0x23FE JUMP JUMPDEST SWAP1 POP PUSH1 0x20 DUP2 ADD SWAP1 POP SWAP2 SWAP1 POP JUMP JUMPDEST DUP3 DUP2 DUP4 CALLDATACOPY PUSH1 0x0 DUP4 DUP4 ADD MSTORE POP POP POP JUMP JUMPDEST PUSH1 0x0 PUSH3 0x25D6 PUSH3 0x25D0 DUP5 PUSH3 0x257A JUMP JUMPDEST PUSH3 0x255B JUMP JUMPDEST SWAP1 POP DUP3 DUP2 MSTORE PUSH1 0x20 DUP2 ADD DUP5 DUP5 DUP5 ADD GT ISZERO PUSH3 0x25F5 JUMPI PUSH3 0x25F4 PUSH3 0x24F1 JUMP JUMPDEST JUMPDEST PUSH3 0x2602 DUP5 DUP3 DUP6 PUSH3 0x25B0 JUMP JUMPDEST POP SWAP4 SWAP3 POP POP POP JUMP JUMPDEST PUSH1 0x0 DUP3 PUSH1 0x1F DUP4 ADD SLT PUSH3 0x2622 JUMPI PUSH3 0x2621 PUSH3 0x24EC JUMP JUMPDEST JUMPDEST DUP2 CALLDATALOAD PUSH3 0x2634 DUP5 DUP3 PUSH1 0x20 DUP7 ADD PUSH3 0x25BF JUMP JUMPDEST SWAP2 POP POP SWAP3 SWAP2 POP POP JUMP JUMPDEST PUSH1 0x0 DUP1 PUSH1 0x40 DUP4 DUP6 SUB SLT ISZERO PUSH3 0x2657 JUMPI PUSH3 0x2656 PUSH3 0x22A7 JUMP JUMPDEST JUMPDEST PUSH1 0x0 DUP4 ADD CALLDATALOAD PUSH8 0xFFFFFFFFFFFFFFFF DUP2 GT ISZERO PUSH3 0x2678 JUMPI PUSH3 0x2677 PUSH3 0x22AC JUMP JUMPDEST JUMPDEST PUSH3 0x2686 DUP6 DUP3 DUP7 ADD PUSH3 0x260A JUMP JUMPDEST SWAP3 POP POP PUSH1 0x20 DUP4 ADD CALLDATALOAD PUSH8 0xFFFFFFFFFFFFFFFF DUP2 GT ISZERO PUSH3 0x26AA JUMPI PUSH3 0x26A9 PUSH3 0x22AC JUMP JUMPDEST JUMPDEST PUSH3 0x26B8 DUP6 DUP3 DUP7 ADD PUSH3 0x260A JUMP JUMPDEST SWAP2 POP POP SWAP3 POP SWAP3 SWAP1 POP JUMP JUMPDEST PUSH1 0x0 PUSH1 0x20 DUP3 ADD SWAP1 POP PUSH3 0x26D9 PUSH1 0x0 DUP4 ADD DUP5 PUSH3 0x2363 JUMP JUMPDEST SWAP3 SWAP2 POP POP JUMP JUMPDEST PUSH3 0x26EA DUP2 PUSH3 0x234F JUMP JUMPDEST DUP2 EQ PUSH3 0x26F6 JUMPI PUSH1 0x0 DUP1 REVERT JUMPDEST POP JUMP JUMPDEST PUSH1 0x0 DUP2 CALLDATALOAD SWAP1 POP PUSH3 0x270A DUP2 PUSH3 0x26DF JUMP JUMPDEST SWAP3 SWAP2 POP POP JUMP JUMPDEST PUSH1 0x0 DUP1 PUSH1 0x0 PUSH1 0x60 DUP5 DUP7 SUB SLT ISZERO PUSH3 0x272C JUMPI PUSH3 0x272B PUSH3 0x22A7 JUMP JUMPDEST JUMPDEST PUSH1 0x0 DUP5 ADD CALLDATALOAD PUSH8 0xFFFFFFFFFFFFFFFF DUP2 GT ISZERO PUSH3 0x274D JUMPI PUSH3 0x274C PUSH3 0x22AC JUMP JUMPDEST JUMPDEST PUSH3 0x275B DUP7 DUP3 DUP8 ADD PUSH3 0x260A JUMP JUMPDEST SWAP4 POP POP PUSH1 0x20 PUSH3 0x276E DUP7 DUP3 DUP8 ADD PUSH3 0x26F9 JUMP JUMPDEST SWAP3 POP POP PUSH1 0x40 DUP5 ADD CALLDATALOAD PUSH8 0xFFFFFFFFFFFFFFFF DUP2 GT ISZERO PUSH3 0x2792 JUMPI PUSH3 0x2791 PUSH3 0x22AC JUMP JUMPDEST JUMPDEST PUSH3 0x27A0 DUP7 DUP3 DUP8 ADD PUSH3 0x260A JUMP JUMPDEST SWAP2 POP POP SWAP3 POP SWAP3 POP SWAP3 JUMP JUMPDEST PUSH1 0x0 DUP1 PUSH1 0x40 DUP4 DUP6 SUB SLT ISZERO PUSH3 0x27C4 JUMPI PUSH3 0x27C3 PUSH3 0x22A7 JUMP JUMPDEST JUMPDEST PUSH1 0x0 PUSH3 0x27D4 DUP6 DUP3 DUP7 ADD PUSH3 0x22D5 JUMP JUMPDEST SWAP3 POP POP PUSH1 0x20 PUSH3 0x27E7 DUP6 DUP3 DUP7 ADD PUSH3 0x22D5 JUMP JUMPDEST SWAP2 POP POP SWAP3 POP SWAP3 SWAP1 POP JUMP JUMPDEST PUSH1 0x0 PUSH1 0x20 DUP3 ADD SWAP1 POP PUSH3 0x2808 PUSH1 0x0 DUP4 ADD DUP5 PUSH3 0x231E JUMP JUMPDEST SWAP3 SWAP2 POP POP JUMP JUMPDEST PUSH1 0x0 PUSH1 0x20 DUP3 DUP5 SUB SLT ISZERO PUSH3 0x2827 JUMPI PUSH3 0x2826 PUSH3 0x22A7 JUMP JUMPDEST JUMPDEST PUSH1 0x0 DUP3 ADD CALLDATALOAD PUSH8 0xFFFFFFFFFFFFFFFF DUP2 GT ISZERO PUSH3 0x2848 JUMPI PUSH3 0x2847 PUSH3 0x22AC JUMP JUMPDEST JUMPDEST PUSH3 0x2856 DUP5 DUP3 DUP6 ADD PUSH3 0x260A JUMP JUMPDEST SWAP2 POP POP SWAP3 SWAP2 POP POP JUMP JUMPDEST PUSH1 0x0 PUSH1 0x60 DUP3 ADD SWAP1 POP DUP2 DUP2 SUB PUSH1 0x0 DUP4 ADD MSTORE PUSH3 0x287B DUP2 DUP7 PUSH3 0x240F JUMP JUMPDEST SWAP1 POP DUP2 DUP2 SUB PUSH1 0x20 DUP4 ADD MSTORE PUSH3 0x2891 DUP2 DUP6 PUSH3 0x240F JUMP JUMPDEST SWAP1 POP PUSH3 0x28A2 PUSH1 0x40 DUP4 ADD DUP5 PUSH3 0x2363 JUMP JUMPDEST SWAP5 SWAP4 POP POP POP POP JUMP JUMPDEST PUSH1 0x0 PUSH1 0x20 DUP3 ADD SWAP1 POP DUP2 DUP2 SUB PUSH1 0x0 DUP4 ADD MSTORE PUSH3 0x28C6 DUP2 DUP5 PUSH3 0x240F JUMP JUMPDEST SWAP1 POP SWAP3 SWAP2 POP POP JUMP JUMPDEST PUSH32 0x4E487B7100000000000000000000000000000000000000000000000000000000 PUSH1 0x0 MSTORE PUSH1 0x22 PUSH1 0x4 MSTORE PUSH1 0x24 PUSH1 0x0 REVERT JUMPDEST PUSH1 0x0 PUSH1 0x2 DUP3 DIV SWAP1 POP PUSH1 0x1 DUP3 AND DUP1 PUSH3 0x2916 JUMPI PUSH1 0x7F DUP3 AND SWAP2 POP JUMPDEST PUSH1 0x20 DUP3 LT DUP2 SUB PUSH3 0x292C JUMPI PUSH3 0x292B PUSH3 0x28CE JUMP JUMPDEST JUMPDEST POP SWAP2 SWAP1 POP JUMP JUMPDEST PUSH32 0x6E667420646F65736E2774206578697374206F72206973206E6F74206C697374 PUSH1 0x0 DUP3 ADD MSTORE PUSH32 0x6564000000000000000000000000000000000000000000000000000000000000 PUSH1 0x20 DUP3 ADD MSTORE POP JUMP JUMPDEST PUSH1 0x0 PUSH3 0x2990 PUSH1 0x22 DUP4 PUSH3 0x23C1 JUMP JUMPDEST SWAP2 POP PUSH3 0x299D DUP3 PUSH3 0x2932 JUMP JUMPDEST PUSH1 0x40 DUP3 ADD SWAP1 POP SWAP2 SWAP1 POP JUMP JUMPDEST PUSH1 0x0 PUSH1 0x20 DUP3 ADD SWAP1 POP DUP2 DUP2 SUB PUSH1 0x0 DUP4 ADD MSTORE PUSH3 0x29C3 DUP2 PUSH3 0x2981 JUMP JUMPDEST SWAP1 POP SWAP2 SWAP1 POP JUMP JUMPDEST PUSH32 0x796F752063616E6E6F742063616E63656C206C697374696E6720696620796F75 PUSH1 0x0 DUP3 ADD MSTORE PUSH32 0x20617265206E6F7420746865206E6674206F776E657200000000000000000000 PUSH1 0x20 DUP3 ADD MSTORE POP JUMP JUMPDEST PUSH1 0x0 PUSH3 0x2A28 PUSH1 0x36 DUP4 PUSH3 0x23C1 JUMP JUMPDEST SWAP2 POP PUSH3 0x2A35 DUP3 PUSH3 0x29CA JUMP JUMPDEST PUSH1 0x40 DUP3 ADD SWAP1 POP SWAP2 SWAP1 POP JUMP JUMPDEST PUSH1 0x0 PUSH1 0x20 DUP3 ADD SWAP1 POP DUP2 DUP2 SUB PUSH1 0x0 DUP4 ADD MSTORE PUSH3 0x2A5B DUP2 PUSH3 0x2A19 JUMP JUMPDEST SWAP1 POP SWAP2 SWAP1 POP JUMP JUMPDEST PUSH32 0x417274697374206E616D6520616E642073796D626F6C206D757374206E6F7420 PUSH1 0x0 DUP3 ADD MSTORE PUSH32 0x626520756E646566696E65642E00000000000000000000000000000000000000 PUSH1 0x20 DUP3 ADD MSTORE POP JUMP JUMPDEST PUSH1 0x0 PUSH3 0x2AC0 PUSH1 0x2D DUP4 PUSH3 0x23C1 JUMP JUMPDEST SWAP2 POP PUSH3 0x2ACD DUP3 PUSH3 0x2A62 JUMP JUMPDEST PUSH1 0x40 DUP3 ADD SWAP1 POP SWAP2 SWAP1 POP JUMP JUMPDEST PUSH1 0x0 PUSH1 0x20 DUP3 ADD SWAP1 POP DUP2 DUP2 SUB PUSH1 0x0 DUP4 ADD MSTORE PUSH3 0x2AF3 DUP2 PUSH3 0x2AB1 JUMP JUMPDEST SWAP1 POP SWAP2 SWAP1 POP JUMP JUMPDEST PUSH1 0x0 DUP2 SWAP1 POP SWAP3 SWAP2 POP POP JUMP JUMPDEST PUSH1 0x0 PUSH3 0x2B12 DUP3 PUSH3 0x23B6 JUMP JUMPDEST PUSH3 0x2B1E DUP2 DUP6 PUSH3 0x2AFA JUMP JUMPDEST SWAP4 POP PUSH3 0x2B30 DUP2 DUP6 PUSH1 0x20 DUP7 ADD PUSH3 0x23D2 JUMP JUMPDEST DUP1 DUP5 ADD SWAP2 POP POP SWAP3 SWAP2 POP POP JUMP JUMPDEST PUSH1 0x0 PUSH3 0x2B4A DUP3 DUP5 PUSH3 0x2B05 JUMP JUMPDEST SWAP2 POP DUP2 SWAP1 POP SWAP3 SWAP2 POP POP JUMP JUMPDEST PUSH32 0x53796D626F6C20616C7265616479206578697374730000000000000000000000 PUSH1 0x0 DUP3 ADD MSTORE POP JUMP JUMPDEST PUSH1 0x0 PUSH3 0x2B8D PUSH1 0x15 DUP4 PUSH3 0x23C1 JUMP JUMPDEST SWAP2 POP PUSH3 0x2B9A DUP3 PUSH3 0x2B55 JUMP JUMPDEST PUSH1 0x20 DUP3 ADD SWAP1 POP SWAP2 SWAP1 POP JUMP JUMPDEST PUSH1 0x0 PUSH1 0x20 DUP3 ADD SWAP1 POP DUP2 DUP2 SUB PUSH1 0x0 DUP4 ADD MSTORE PUSH3 0x2BC0 DUP2 PUSH3 0x2B7E JUMP JUMPDEST SWAP1 POP SWAP2 SWAP1 POP JUMP JUMPDEST PUSH32 0x4E487B7100000000000000000000000000000000000000000000000000000000 PUSH1 0x0 MSTORE PUSH1 0x11 PUSH1 0x4 MSTORE PUSH1 0x24 PUSH1 0x0 REVERT JUMPDEST PUSH1 0x0 PUSH3 0x2C03 DUP3 PUSH3 0x22B1 JUMP JUMPDEST SWAP2 POP PUSH32 0xFFFFFFFFFFFFFFFFFFFFFFFFFFFFFFFFFFFFFFFFFFFFFFFFFFFFFFFFFFFFFFFF DUP3 SUB PUSH3 0x2C38 JUMPI PUSH3 0x2C37 PUSH3 0x2BC7 JUMP JUMPDEST JUMPDEST PUSH1 0x1 DUP3 ADD SWAP1 POP SWAP2 SWAP1 POP JUMP JUMPDEST PUSH1 0x0 DUP2 SWAP1 POP DUP2 PUSH1 0x0 MSTORE PUSH1 0x20 PUSH1 0x0 KECCAK256 SWAP1 POP SWAP2 SWAP1 POP JUMP JUMPDEST PUSH1 0x0 PUSH1 0x20 PUSH1 0x1F DUP4 ADD DIV SWAP1 POP SWAP2 SWAP1 POP JUMP JUMPDEST PUSH1 0x0 DUP3 DUP3 SHL SWAP1 POP SWAP3 SWAP2 POP POP JUMP JUMPDEST PUSH1 0x0 PUSH1 0x8 DUP4 MUL PUSH3 0x2CA7 PUSH32 0xFFFFFFFFFFFFFFFFFFFFFFFFFFFFFFFFFFFFFFFFFFFFFFFFFFFFFFFFFFFFFFFF DUP3 PUSH3 0x2C68 JUMP JUMPDEST PUSH3 0x2CB3 DUP7 DUP4 PUSH3 0x2C68 JUMP JUMPDEST SWAP6 POP DUP1 NOT DUP5 AND SWAP4 POP DUP1 DUP7 AND DUP5 OR SWAP3 POP POP POP SWAP4 SWAP3 POP POP POP JUMP JUMPDEST PUSH1 0x0 DUP2 SWAP1 POP SWAP2 SWAP1 POP JUMP JUMPDEST PUSH1 0x0 PUSH3 0x2CF6 PUSH3 0x2CF0 PUSH3 0x2CEA DUP5 PUSH3 0x22B1 JUMP JUMPDEST PUSH3 0x2CCB JUMP JUMPDEST PUSH3 0x22B1 JUMP JUMPDEST SWAP1 POP SWAP2 SWAP1 POP JUMP JUMPDEST PUSH1 0x0 DUP2 SWAP1 POP SWAP2 SWAP1 POP JUMP JUMPDEST PUSH3 0x2D12 DUP4 PUSH3 0x2CD5 JUMP JUMPDEST PUSH3 0x2D2A PUSH3 0x2D21 DUP3 PUSH3 0x2CFD JUMP JUMPDEST DUP5 DUP5 SLOAD PUSH3 0x2C75 JUMP JUMPDEST DUP3 SSTORE POP POP POP POP JUMP JUMPDEST PUSH1 0x0 SWAP1 JUMP JUMPDEST PUSH3 0x2D41 PUSH3 0x2D32 JUMP JUMPDEST PUSH3 0x2D4E DUP2 DUP5 DUP5 PUSH3 0x2D07 JUMP JUMPDEST POP POP POP JUMP JUMPDEST JUMPDEST DUP2 DUP2 LT ISZERO PUSH3 0x2D76 JUMPI PUSH3 0x2D6A PUSH1 0x0 DUP3 PUSH3 0x2D37 JUMP JUMPDEST PUSH1 0x1 DUP2 ADD SWAP1 POP PUSH3 0x2D54 JUMP JUMPDEST POP POP JUMP JUMPDEST PUSH1 0x1F DUP3 GT ISZERO PUSH3 0x2DC5 JUMPI PUSH3 0x2D8F DUP2 PUSH3 0x2C43 JUMP JUMPDEST PUSH3 0x2D9A DUP5 PUSH3 0x2C58 JUMP JUMPDEST DUP2 ADD PUSH1 0x20 DUP6 LT ISZERO PUSH3 0x2DAA JUMPI DUP2 SWAP1 POP JUMPDEST PUSH3 0x2DC2 PUSH3 0x2DB9 DUP6 PUSH3 0x2C58 JUMP JUMPDEST DUP4 ADD DUP3 PUSH3 0x2D53 JUMP JUMPDEST POP POP JUMPDEST POP POP POP JUMP JUMPDEST PUSH1 0x0 DUP3 DUP3 SHR SWAP1 POP SWAP3 SWAP2 POP POP JUMP JUMPDEST PUSH1 0x0 PUSH3 0x2DEA PUSH1 0x0 NOT DUP5 PUSH1 0x8 MUL PUSH3 0x2DCA JUMP JUMPDEST NOT DUP1 DUP4 AND SWAP2 POP POP SWAP3 SWAP2 POP POP JUMP JUMPDEST PUSH1 0x0 PUSH3 0x2E05 DUP4 DUP4 PUSH3 0x2DD7 JUMP JUMPDEST SWAP2 POP DUP3 PUSH1 0x2 MUL DUP3 OR SWAP1 POP SWAP3 SWAP2 POP POP JUMP JUMPDEST PUSH3 0x2E20 DUP3 PUSH3 0x23B6 JUMP JUMPDEST PUSH8 0xFFFFFFFFFFFFFFFF DUP2 GT ISZERO PUSH3 0x2E3C JUMPI PUSH3 0x2E3B PUSH3 0x24F6 JUMP JUMPDEST JUMPDEST PUSH3 0x2E48 DUP3 SLOAD PUSH3 0x28FD JUMP JUMPDEST PUSH3 0x2E55 DUP3 DUP3 DUP6 PUSH3 0x2D7A JUMP JUMPDEST PUSH1 0x0 PUSH1 0x20 SWAP1 POP PUSH1 0x1F DUP4 GT PUSH1 0x1 DUP2 EQ PUSH3 0x2E8D JUMPI PUSH1 0x0 DUP5 ISZERO PUSH3 0x2E78 JUMPI DUP3 DUP8 ADD MLOAD SWAP1 POP JUMPDEST PUSH3 0x2E84 DUP6 DUP3 PUSH3 0x2DF7 JUMP JUMPDEST DUP7 SSTORE POP PUSH3 0x2EF4 JUMP JUMPDEST PUSH1 0x1F NOT DUP5 AND PUSH3 0x2E9D DUP7 PUSH3 0x2C43 JUMP JUMPDEST PUSH1 0x0 JUMPDEST DUP3 DUP2 LT ISZERO PUSH3 0x2EC7 JUMPI DUP5 DUP10 ADD MLOAD DUP3 SSTORE PUSH1 0x1 DUP3 ADD SWAP2 POP PUSH1 0x20 DUP6 ADD SWAP5 POP PUSH1 0x20 DUP2 ADD SWAP1 POP PUSH3 0x2EA0 JUMP JUMPDEST DUP7 DUP4 LT ISZERO PUSH3 0x2EE7 JUMPI DUP5 DUP10 ADD MLOAD PUSH3 0x2EE3 PUSH1 0x1F DUP10 AND DUP3 PUSH3 0x2DD7 JUMP JUMPDEST DUP4 SSTORE POP JUMPDEST PUSH1 0x1 PUSH1 0x2 DUP9 MUL ADD DUP9 SSTORE POP POP POP JUMPDEST POP POP POP POP POP POP JUMP JUMPDEST PUSH1 0x0 PUSH1 0x80 DUP3 ADD SWAP1 POP DUP2 DUP2 SUB PUSH1 0x0 DUP4 ADD MSTORE PUSH3 0x2F18 DUP2 DUP8 PUSH3 0x240F JUMP JUMPDEST SWAP1 POP DUP2 DUP2 SUB PUSH1 0x20 DUP4 ADD MSTORE PUSH3 0x2F2E DUP2 DUP7 PUSH3 0x240F JUMP JUMPDEST SWAP1 POP PUSH3 0x2F3F PUSH1 0x40 DUP4 ADD DUP6 PUSH3 0x2363 JUMP JUMPDEST PUSH3 0x2F4E PUSH1 0x60 DUP4 ADD DUP5 PUSH3 0x231E JUMP JUMPDEST SWAP6 SWAP5 POP POP POP POP POP JUMP JUMPDEST PUSH32 0x706C656173652070726F7669646520612076616C696420746F6B656E55524920 PUSH1 0x0 DUP3 ADD MSTORE PUSH32 0x616E64206578697374696E6720636F6C6C656374696F6E2064657461696C2E00 PUSH1 0x20 DUP3 ADD MSTORE POP JUMP JUMPDEST PUSH1 0x0 PUSH3 0x2FB5 PUSH1 0x3F DUP4 PUSH3 0x23C1 JUMP JUMPDEST SWAP2 POP PUSH3 0x2FC2 DUP3 PUSH3 0x2F57 JUMP JUMPDEST PUSH1 0x40 DUP3 ADD SWAP1 POP SWAP2 SWAP1 POP JUMP JUMPDEST PUSH1 0x0 PUSH1 0x20 DUP3 ADD SWAP1 POP DUP2 DUP2 SUB PUSH1 0x0 DUP4 ADD MSTORE PUSH3 0x2FE8 DUP2 PUSH3 0x2FA6 JUMP JUMPDEST SWAP1 POP SWAP2 SWAP1 POP JUMP JUMPDEST PUSH1 0x0 DUP2 MLOAD SWAP1 POP PUSH3 0x3000 DUP2 PUSH3 0x22BB JUMP JUMPDEST SWAP3 SWAP2 POP POP JUMP JUMPDEST PUSH1 0x0 PUSH1 0x20 DUP3 DUP5 SUB SLT ISZERO PUSH3 0x301F JUMPI PUSH3 0x301E PUSH3 0x22A7 JUMP JUMPDEST JUMPDEST PUSH1 0x0 PUSH3 0x302F DUP5 DUP3 DUP6 ADD PUSH3 0x2FEF JUMP JUMPDEST SWAP2 POP POP SWAP3 SWAP2 POP POP JUMP JUMPDEST PUSH1 0x0 PUSH1 0x80 DUP3 ADD SWAP1 POP PUSH3 0x304F PUSH1 0x0 DUP4 ADD DUP8 PUSH3 0x231E JUMP JUMPDEST PUSH3 0x305E PUSH1 0x20 DUP4 ADD DUP7 PUSH3 0x2363 JUMP JUMPDEST PUSH3 0x306D PUSH1 0x40 DUP4 ADD DUP6 PUSH3 0x2363 JUMP JUMPDEST DUP2 DUP2 SUB PUSH1 0x60 DUP4 ADD MSTORE PUSH3 0x3081 DUP2 DUP5 PUSH3 0x240F JUMP JUMPDEST SWAP1 POP SWAP6 SWAP5 POP POP POP POP POP JUMP JUMPDEST PUSH32 0x4E46544D61726B65743A207072696365206D7573742062652067726561746572 PUSH1 0x0 DUP3 ADD MSTORE PUSH32 0x207468616E203000000000000000000000000000000000000000000000000000 PUSH1 0x20 DUP3 ADD MSTORE POP JUMP JUMPDEST PUSH1 0x0 PUSH3 0x30EA PUSH1 0x27 DUP4 PUSH3 0x23C1 JUMP JUMPDEST SWAP2 POP PUSH3 0x30F7 DUP3 PUSH3 0x308C JUMP JUMPDEST PUSH1 0x40 DUP3 ADD SWAP1 POP SWAP2 SWAP1 POP JUMP JUMPDEST PUSH1 0x0 PUSH1 0x20 DUP3 ADD SWAP1 POP DUP2 DUP2 SUB PUSH1 0x0 DUP4 ADD MSTORE PUSH3 0x311D DUP2 PUSH3 0x30DB JUMP JUMPDEST SWAP1 POP SWAP2 SWAP1 POP JUMP JUMPDEST PUSH32 0x746F6B656E494420646F6573206E6F7420657869737400000000000000000000 PUSH1 0x0 DUP3 ADD MSTORE POP JUMP JUMPDEST PUSH1 0x0 PUSH3 0x315C PUSH1 0x16 DUP4 PUSH3 0x23C1 JUMP JUMPDEST SWAP2 POP PUSH3 0x3169 DUP3 PUSH3 0x3124 JUMP JUMPDEST PUSH1 0x20 DUP3 ADD SWAP1 POP SWAP2 SWAP1 POP JUMP JUMPDEST PUSH1 0x0 PUSH1 0x20 DUP3 ADD SWAP1 POP DUP2 DUP2 SUB PUSH1 0x0 DUP4 ADD MSTORE PUSH3 0x318F DUP2 PUSH3 0x314D JUMP JUMPDEST SWAP1 POP SWAP2 SWAP1 POP JUMP JUMPDEST PUSH32 0x4E465420616C7265616479206C69737465640000000000000000000000000000 PUSH1 0x0 DUP3 ADD MSTORE POP JUMP JUMPDEST PUSH1 0x0 PUSH3 0x31CE PUSH1 0x12 DUP4 PUSH3 0x23C1 JUMP JUMPDEST SWAP2 POP PUSH3 0x31DB DUP3 PUSH3 0x3196 JUMP JUMPDEST PUSH1 0x20 DUP3 ADD SWAP1 POP SWAP2 SWAP1 POP JUMP JUMPDEST PUSH1 0x0 PUSH1 0x20 DUP3 ADD SWAP1 POP DUP2 DUP2 SUB PUSH1 0x0 DUP4 ADD MSTORE PUSH3 0x3201 DUP2 PUSH3 0x31BF JUMP JUMPDEST SWAP1 POP SWAP2 SWAP1 POP JUMP JUMPDEST PUSH1 0x0 DUP2 MLOAD SWAP1 POP PUSH3 0x3219 DUP2 PUSH3 0x26DF JUMP JUMPDEST SWAP3 SWAP2 POP POP JUMP JUMPDEST PUSH1 0x0 PUSH1 0x20 DUP3 DUP5 SUB SLT ISZERO PUSH3 0x3238 JUMPI PUSH3 0x3237 PUSH3 0x22A7 JUMP JUMPDEST JUMPDEST PUSH1 0x0 PUSH3 0x3248 DUP5 DUP3 DUP6 ADD PUSH3 0x3208 JUMP JUMPDEST SWAP2 POP POP SWAP3 SWAP2 POP POP JUMP JUMPDEST PUSH1 0x0 PUSH1 0x40 DUP3 ADD SWAP1 POP PUSH3 0x3268 PUSH1 0x0 DUP4 ADD DUP6 PUSH3 0x2363 JUMP JUMPDEST PUSH3 0x3277 PUSH1 0x20 DUP4 ADD DUP5 PUSH3 0x231E JUMP JUMPDEST SWAP4 SWAP3 POP POP POP JUMP JUMPDEST PUSH1 0x0 PUSH1 0x60 DUP3 ADD SWAP1 POP PUSH3 0x3295 PUSH1 0x0 DUP4 ADD DUP7 PUSH3 0x231E JUMP JUMPDEST PUSH3 0x32A4 PUSH1 0x20 DUP4 ADD DUP6 PUSH3 0x231E JUMP JUMPDEST PUSH3 0x32B3 PUSH1 0x40 DUP4 ADD DUP5 PUSH3 0x231E JUMP JUMPDEST SWAP5 SWAP4 POP POP POP POP JUMP JUMPDEST PUSH32 0x6974656D20646F65736E27742065786973740000000000000000000000000000 PUSH1 0x0 DUP3 ADD MSTORE POP JUMP JUMPDEST PUSH1 0x0 PUSH3 0x32F3 PUSH1 0x12 DUP4 PUSH3 0x23C1 JUMP JUMPDEST SWAP2 POP PUSH3 0x3300 DUP3 PUSH3 0x32BB JUMP JUMPDEST PUSH1 0x20 DUP3 ADD SWAP1 POP SWAP2 SWAP1 POP JUMP JUMPDEST PUSH1 0x0 PUSH1 0x20 DUP3 ADD SWAP1 POP DUP2 DUP2 SUB PUSH1 0x0 DUP4 ADD MSTORE PUSH3 0x3326 DUP2 PUSH3 0x32E4 JUMP JUMPDEST SWAP1 POP SWAP2 SWAP1 POP JUMP JUMPDEST PUSH32 0x7072696365206D75737420626520746865206578616374204E46542076616C75 PUSH1 0x0 DUP3 ADD MSTORE PUSH32 0x6500000000000000000000000000000000000000000000000000000000000000 PUSH1 0x20 DUP3 ADD MSTORE POP JUMP JUMPDEST PUSH1 0x0 PUSH3 0x338B PUSH1 0x21 DUP4 PUSH3 0x23C1 JUMP JUMPDEST SWAP2 POP PUSH3 0x3398 DUP3 PUSH3 0x332D JUMP JUMPDEST PUSH1 0x40 DUP3 ADD SWAP1 POP SWAP2 SWAP1 POP JUMP JUMPDEST PUSH1 0x0 PUSH1 0x20 DUP3 ADD SWAP1 POP DUP2 DUP2 SUB PUSH1 0x0 DUP4 ADD MSTORE PUSH3 0x33BE DUP2 PUSH3 0x337C JUMP JUMPDEST SWAP1 POP SWAP2 SWAP1 POP JUMP JUMPDEST PUSH32 0x4E4654206973206E6F74206C6973746564000000000000000000000000000000 PUSH1 0x0 DUP3 ADD MSTORE POP JUMP JUMPDEST PUSH1 0x0 PUSH3 0x33FD PUSH1 0x11 DUP4 PUSH3 0x23C1 JUMP JUMPDEST SWAP2 POP PUSH3 0x340A DUP3 PUSH3 0x33C5 JUMP JUMPDEST PUSH1 0x20 DUP3 ADD SWAP1 POP SWAP2 SWAP1 POP JUMP JUMPDEST PUSH1 0x0 PUSH1 0x20 DUP3 ADD SWAP1 POP DUP2 DUP2 SUB PUSH1 0x0 DUP4 ADD MSTORE PUSH3 0x3430 DUP2 PUSH3 0x33EE JUMP JUMPDEST SWAP1 POP SWAP2 SWAP1 POP JUMP JUMPDEST PUSH32 0x596F752063616E6E6F742062757920796F7572206F776E204E46540000000000 PUSH1 0x0 DUP3 ADD MSTORE POP JUMP JUMPDEST PUSH1 0x0 PUSH3 0x346F PUSH1 0x1B DUP4 PUSH3 0x23C1 JUMP JUMPDEST SWAP2 POP PUSH3 0x347C DUP3 PUSH3 0x3437 JUMP JUMPDEST PUSH1 0x20 DUP3 ADD SWAP1 POP SWAP2 SWAP1 POP JUMP JUMPDEST PUSH1 0x0 PUSH1 0x20 DUP3 ADD SWAP1 POP DUP2 DUP2 SUB PUSH1 0x0 DUP4 ADD MSTORE PUSH3 0x34A2 DUP2 PUSH3 0x3460 JUMP JUMPDEST SWAP1 POP SWAP2 SWAP1 POP JUMP JUMPDEST PUSH1 0x0 PUSH1 0x60 DUP3 ADD SWAP1 POP PUSH3 0x34C0 PUSH1 0x0 DUP4 ADD DUP7 PUSH3 0x2363 JUMP JUMPDEST PUSH3 0x34CF PUSH1 0x20 DUP4 ADD DUP6 PUSH3 0x2363 JUMP JUMPDEST PUSH3 0x34DE PUSH1 0x40 DUP4 ADD DUP5 PUSH3 0x231E JUMP JUMPDEST SWAP5 SWAP4 POP POP POP POP JUMP JUMPDEST PUSH32 0x5265656E7472616E637947756172643A207265656E7472616E742063616C6C00 PUSH1 0x0 DUP3 ADD MSTORE POP JUMP JUMPDEST PUSH1 0x0 PUSH3 0x351E PUSH1 0x1F DUP4 PUSH3 0x23C1 JUMP JUMPDEST SWAP2 POP PUSH3 0x352B DUP3 PUSH3 0x34E6 JUMP JUMPDEST PUSH1 0x20 DUP3 ADD SWAP1 POP SWAP2 SWAP1 POP JUMP JUMPDEST PUSH1 0x0 PUSH1 0x20 DUP3 ADD SWAP1 POP DUP2 DUP2 SUB PUSH1 0x0 DUP4 ADD MSTORE PUSH3 0x3551 DUP2 PUSH3 0x350F JUMP JUMPDEST SWAP1 POP SWAP2 SWAP1 POP JUMP JUMPDEST PUSH1 0x0 PUSH1 0x40 DUP3 ADD SWAP1 POP DUP2 DUP2 SUB PUSH1 0x0 DUP4 ADD MSTORE PUSH3 0x3574 DUP2 DUP6 PUSH3 0x240F JUMP JUMPDEST SWAP1 POP DUP2 DUP2 SUB PUSH1 0x20 DUP4 ADD MSTORE PUSH3 0x358A DUP2 DUP5 PUSH3 0x240F JUMP JUMPDEST SWAP1 POP SWAP4 SWAP3 POP POP POP JUMP JUMPDEST PUSH1 0x0 DUP2 MLOAD SWAP1 POP SWAP2 SWAP1 POP JUMP JUMPDEST PUSH1 0x0 DUP2 SWAP1 POP SWAP3 SWAP2 POP POP JUMP JUMPDEST PUSH1 0x0 PUSH3 0x35B6 DUP3 PUSH3 0x3593 JUMP JUMPDEST PUSH3 0x35C2 DUP2 DUP6 PUSH3 0x359E JUMP JUMPDEST SWAP4 POP PUSH3 0x35D4 DUP2 DUP6 PUSH1 0x20 DUP7 ADD PUSH3 0x23D2 JUMP JUMPDEST DUP1 DUP5 ADD SWAP2 POP POP SWAP3 SWAP2 POP POP JUMP JUMPDEST PUSH1 0x0 PUSH3 0x35EE DUP3 DUP6 PUSH3 0x35A9 JUMP JUMPDEST SWAP2 POP PUSH3 0x35FC DUP3 DUP5 PUSH3 0x35A9 JUMP JUMPDEST SWAP2 POP DUP2 SWAP1 POP SWAP4 SWAP3 POP POP POP JUMP INVALID PUSH1 0x80 PUSH1 0x40 MSTORE CALLVALUE DUP1 ISZERO PUSH3 0x11 JUMPI PUSH1 0x0 DUP1 REVERT JUMPDEST POP PUSH1 0x40 MLOAD PUSH3 0x4B90 CODESIZE SUB DUP1 PUSH3 0x4B90 DUP4 CODECOPY DUP2 DUP2 ADD PUSH1 0x40 MSTORE DUP2 ADD SWAP1 PUSH3 0x37 SWAP2 SWAP1 PUSH3 0x35E JUMP JUMPDEST DUP2 DUP2 PUSH3 0x55 PUSH8 0x3F555414BF72E740 PUSH1 0xC0 SHL PUSH3 0xF7 PUSH1 0x20 SHL PUSH1 0x20 SHR JUMP JUMPDEST PUSH3 0x71 PUSH8 0x4755614077EB8CF8 PUSH1 0xC0 SHL PUSH3 0xF7 PUSH1 0x20 SHL PUSH1 0x20 SHR JUMP JUMPDEST DUP2 PUSH1 0x0 SWAP1 DUP2 PUSH3 0x82 SWAP2 SWAP1 PUSH3 0x62E JUMP JUMPDEST POP PUSH3 0x9F PUSH8 0xEAF74670EFCE335E PUSH1 0xC0 SHL PUSH3 0xF7 PUSH1 0x20 SHL PUSH1 0x20 SHR JUMP JUMPDEST DUP1 PUSH1 0x1 SWAP1 DUP2 PUSH3 0xB0 SWAP2 SWAP1 PUSH3 0x62E JUMP JUMPDEST POP POP POP PUSH3 0xD3 PUSH3 0xC7 PUSH3 0xFA PUSH1 0x20 SHL PUSH1 0x20 SHR JUMP JUMPDEST PUSH3 0x102 PUSH1 0x20 SHL PUSH1 0x20 SHR JUMP JUMPDEST PUSH3 0xEF PUSH8 0xA1B7155247C0E0DB PUSH1 0xC0 SHL PUSH3 0x1C8 PUSH1 0x20 SHL PUSH1 0x20 SHR JUMP JUMPDEST POP POP PUSH3 0x715 JUMP JUMPDEST POP JUMP JUMPDEST PUSH1 0x0 CALLER SWAP1 POP SWAP1 JUMP JUMPDEST PUSH1 0x0 PUSH1 0x7 PUSH1 0x0 SWAP1 SLOAD SWAP1 PUSH2 0x100 EXP SWAP1 DIV PUSH20 0xFFFFFFFFFFFFFFFFFFFFFFFFFFFFFFFFFFFFFFFF AND SWAP1 POP DUP2 PUSH1 0x7 PUSH1 0x0 PUSH2 0x100 EXP DUP2 SLOAD DUP2 PUSH20 0xFFFFFFFFFFFFFFFFFFFFFFFFFFFFFFFFFFFFFFFF MUL NOT AND SWAP1 DUP4 PUSH20 0xFFFFFFFFFFFFFFFFFFFFFFFFFFFFFFFFFFFFFFFF AND MUL OR SWAP1 SSTORE POP DUP2 PUSH20 0xFFFFFFFFFFFFFFFFFFFFFFFFFFFFFFFFFFFFFFFF AND DUP2 PUSH20 0xFFFFFFFFFFFFFFFFFFFFFFFFFFFFFFFFFFFFFFFF AND PUSH32 0x8BE0079C531659141344CD1FD0A4F28419497F9722A3DAAFE3B4186F6B6457E0 PUSH1 0x40 MLOAD PUSH1 0x40 MLOAD DUP1 SWAP2 SUB SWAP1 LOG3 POP POP JUMP JUMPDEST POP JUMP JUMPDEST PUSH1 0x0 PUSH1 0x40 MLOAD SWAP1 POP SWAP1 JUMP JUMPDEST PUSH1 0x0 DUP1 REVERT JUMPDEST PUSH1 0x0 DUP1 REVERT JUMPDEST PUSH1 0x0 DUP1 REVERT JUMPDEST PUSH1 0x0 DUP1 REVERT JUMPDEST PUSH1 0x0 PUSH1 0x1F NOT PUSH1 0x1F DUP4 ADD AND SWAP1 POP SWAP2 SWAP1 POP JUMP JUMPDEST PUSH32 0x4E487B7100000000000000000000000000000000000000000000000000000000 PUSH1 0x0 MSTORE PUSH1 0x41 PUSH1 0x4 MSTORE PUSH1 0x24 PUSH1 0x0 REVERT JUMPDEST PUSH3 0x234 DUP3 PUSH3 0x1E9 JUMP JUMPDEST DUP2 ADD DUP2 DUP2 LT PUSH8 0xFFFFFFFFFFFFFFFF DUP3 GT OR ISZERO PUSH3 0x256 JUMPI PUSH3 0x255 PUSH3 0x1FA JUMP JUMPDEST JUMPDEST DUP1 PUSH1 0x40 MSTORE POP POP POP JUMP JUMPDEST PUSH1 0x0 PUSH3 0x26B PUSH3 0x1CB JUMP JUMPDEST SWAP1 POP PUSH3 0x279 DUP3 DUP3 PUSH3 0x229 JUMP JUMPDEST SWAP2 SWAP1 POP JUMP JUMPDEST PUSH1 0x0 PUSH8 0xFFFFFFFFFFFFFFFF DUP3 GT ISZERO PUSH3 0x29C JUMPI PUSH3 0x29B PUSH3 0x1FA JUMP JUMPDEST JUMPDEST PUSH3 0x2A7 DUP3 PUSH3 0x1E9 JUMP JUMPDEST SWAP1 POP PUSH1 0x20 DUP2 ADD SWAP1 POP SWAP2 SWAP1 POP JUMP JUMPDEST PUSH1 0x0 JUMPDEST DUP4 DUP2 LT ISZERO PUSH3 0x2D4 JUMPI DUP1 DUP3 ADD MLOAD DUP2 DUP5 ADD MSTORE PUSH1 0x20 DUP2 ADD SWAP1 POP PUSH3 0x2B7 JUMP JUMPDEST PUSH1 0x0 DUP5 DUP5 ADD MSTORE POP POP POP POP JUMP JUMPDEST PUSH1 0x0 PUSH3 0x2F7 PUSH3 0x2F1 DUP5 PUSH3 0x27E JUMP JUMPDEST PUSH3 0x25F JUMP JUMPDEST SWAP1 POP DUP3 DUP2 MSTORE PUSH1 0x20 DUP2 ADD DUP5 DUP5 DUP5 ADD GT ISZERO PUSH3 0x316 JUMPI PUSH3 0x315 PUSH3 0x1E4 JUMP JUMPDEST JUMPDEST PUSH3 0x323 DUP5 DUP3 DUP6 PUSH3 0x2B4 JUMP JUMPDEST POP SWAP4 SWAP3 POP POP POP JUMP JUMPDEST PUSH1 0x0 DUP3 PUSH1 0x1F DUP4 ADD SLT PUSH3 0x343 JUMPI PUSH3 0x342 PUSH3 0x1DF JUMP JUMPDEST JUMPDEST DUP2 MLOAD PUSH3 0x355 DUP5 DUP3 PUSH1 0x20 DUP7 ADD PUSH3 0x2E0 JUMP JUMPDEST SWAP2 POP POP SWAP3 SWAP2 POP POP JUMP JUMPDEST PUSH1 0x0 DUP1 PUSH1 0x40 DUP4 DUP6 SUB SLT ISZERO PUSH3 0x378 JUMPI PUSH3 0x377 PUSH3 0x1D5 JUMP JUMPDEST JUMPDEST PUSH1 0x0 DUP4 ADD MLOAD PUSH8 0xFFFFFFFFFFFFFFFF DUP2 GT ISZERO PUSH3 0x399 JUMPI PUSH3 0x398 PUSH3 0x1DA JUMP JUMPDEST JUMPDEST PUSH3 0x3A7 DUP6 DUP3 DUP7 ADD PUSH3 0x32B JUMP JUMPDEST SWAP3 POP POP PUSH1 0x20 DUP4 ADD MLOAD PUSH8 0xFFFFFFFFFFFFFFFF DUP2 GT ISZERO PUSH3 0x3CB JUMPI PUSH3 0x3CA PUSH3 0x1DA JUMP JUMPDEST JUMPDEST PUSH3 0x3D9 DUP6 DUP3 DUP7 ADD PUSH3 0x32B JUMP JUMPDEST SWAP2 POP POP SWAP3 POP SWAP3 SWAP1 POP JUMP JUMPDEST PUSH1 0x0 DUP2 MLOAD SWAP1 POP SWAP2 SWAP1 POP JUMP JUMPDEST PUSH32 0x4E487B7100000000000000000000000000000000000000000000000000000000 PUSH1 0x0 MSTORE PUSH1 0x22 PUSH1 0x4 MSTORE PUSH1 0x24 PUSH1 0x0 REVERT JUMPDEST PUSH1 0x0 PUSH1 0x2 DUP3 DIV SWAP1 POP PUSH1 0x1 DUP3 AND DUP1 PUSH3 0x436 JUMPI PUSH1 0x7F DUP3 AND SWAP2 POP JUMPDEST PUSH1 0x20 DUP3 LT DUP2 SUB PUSH3 0x44C JUMPI PUSH3 0x44B PUSH3 0x3EE JUMP JUMPDEST JUMPDEST POP SWAP2 SWAP1 POP JUMP JUMPDEST PUSH1 0x0 DUP2 SWAP1 POP DUP2 PUSH1 0x0 MSTORE PUSH1 0x20 PUSH1 0x0 KECCAK256 SWAP1 POP SWAP2 SWAP1 POP JUMP JUMPDEST PUSH1 0x0 PUSH1 0x20 PUSH1 0x1F DUP4 ADD DIV SWAP1 POP SWAP2 SWAP1 POP JUMP JUMPDEST PUSH1 0x0 DUP3 DUP3 SHL SWAP1 POP SWAP3 SWAP2 POP POP JUMP JUMPDEST PUSH1 0x0 PUSH1 0x8 DUP4 MUL PUSH3 0x4B6 PUSH32 0xFFFFFFFFFFFFFFFFFFFFFFFFFFFFFFFFFFFFFFFFFFFFFFFFFFFFFFFFFFFFFFFF DUP3 PUSH3 0x477 JUMP JUMPDEST PUSH3 0x4C2 DUP7 DUP4 PUSH3 0x477 JUMP JUMPDEST SWAP6 POP DUP1 NOT DUP5 AND SWAP4 POP DUP1 DUP7 AND DUP5 OR SWAP3 POP POP POP SWAP4 SWAP3 POP POP POP JUMP JUMPDEST PUSH1 0x0 DUP2 SWAP1 POP SWAP2 SWAP1 POP JUMP JUMPDEST PUSH1 0x0 DUP2 SWAP1 POP SWAP2 SWAP1 POP JUMP JUMPDEST PUSH1 0x0 PUSH3 0x50F PUSH3 0x509 PUSH3 0x503 DUP5 PUSH3 0x4DA JUMP JUMPDEST PUSH3 0x4E4 JUMP JUMPDEST PUSH3 0x4DA JUMP JUMPDEST SWAP1 POP SWAP2 SWAP1 POP JUMP JUMPDEST PUSH1 0x0 DUP2 SWAP1 POP SWAP2 SWAP1 POP JUMP JUMPDEST PUSH3 0x52B DUP4 PUSH3 0x4EE JUMP JUMPDEST PUSH3 0x543 PUSH3 0x53A DUP3 PUSH3 0x516 JUMP JUMPDEST DUP5 DUP5 SLOAD PUSH3 0x484 JUMP JUMPDEST DUP3 SSTORE POP POP POP POP JUMP JUMPDEST PUSH1 0x0 SWAP1 JUMP JUMPDEST PUSH3 0x55A PUSH3 0x54B JUMP JUMPDEST PUSH3 0x567 DUP2 DUP5 DUP5 PUSH3 0x520 JUMP JUMPDEST POP POP POP JUMP JUMPDEST JUMPDEST DUP2 DUP2 LT ISZERO PUSH3 0x58F JUMPI PUSH3 0x583 PUSH1 0x0 DUP3 PUSH3 0x550 JUMP JUMPDEST PUSH1 0x1 DUP2 ADD SWAP1 POP PUSH3 0x56D JUMP JUMPDEST POP POP JUMP JUMPDEST PUSH1 0x1F DUP3 GT ISZERO PUSH3 0x5DE JUMPI PUSH3 0x5A8 DUP2 PUSH3 0x452 JUMP JUMPDEST PUSH3 0x5B3 DUP5 PUSH3 0x467 JUMP JUMPDEST DUP2 ADD PUSH1 0x20 DUP6 LT ISZERO PUSH3 0x5C3 JUMPI DUP2 SWAP1 POP JUMPDEST PUSH3 0x5DB PUSH3 0x5D2 DUP6 PUSH3 0x467 JUMP JUMPDEST DUP4 ADD DUP3 PUSH3 0x56C JUMP JUMPDEST POP POP JUMPDEST POP POP POP JUMP JUMPDEST PUSH1 0x0 DUP3 DUP3 SHR SWAP1 POP SWAP3 SWAP2 POP POP JUMP JUMPDEST PUSH1 0x0 PUSH3 0x603 PUSH1 0x0 NOT DUP5 PUSH1 0x8 MUL PUSH3 0x5E3 JUMP JUMPDEST NOT DUP1 DUP4 AND SWAP2 POP POP SWAP3 SWAP2 POP POP JUMP JUMPDEST PUSH1 0x0 PUSH3 0x61E DUP4 DUP4 PUSH3 0x5F0 JUMP JUMPDEST SWAP2 POP DUP3 PUSH1 0x2 MUL DUP3 OR SWAP1 POP SWAP3 SWAP2 POP POP JUMP JUMPDEST PUSH3 0x639 DUP3 PUSH3 0x3E3 JUMP JUMPDEST PUSH8 0xFFFFFFFFFFFFFFFF DUP2 GT ISZERO PUSH3 0x655 JUMPI PUSH3 0x654 PUSH3 0x1FA JUMP JUMPDEST JUMPDEST PUSH3 0x661 DUP3 SLOAD PUSH3 0x41D JUMP JUMPDEST PUSH3 0x66E DUP3 DUP3 DUP6 PUSH3 0x593 JUMP JUMPDEST PUSH1 0x0 PUSH1 0x20 SWAP1 POP PUSH1 0x1F DUP4 GT PUSH1 0x1 DUP2 EQ PUSH3 0x6A6 JUMPI PUSH1 0x0 DUP5 ISZERO PUSH3 0x691 JUMPI DUP3 DUP8 ADD MLOAD SWAP1 POP JUMPDEST PUSH3 0x69D DUP6 DUP3 PUSH3 0x610 JUMP JUMPDEST DUP7 SSTORE POP PUSH3 0x70D JUMP JUMPDEST PUSH1 0x1F NOT DUP5 AND PUSH3 0x6B6 DUP7 PUSH3 0x452 JUMP JUMPDEST PUSH1 0x0 JUMPDEST DUP3 DUP2 LT ISZERO PUSH3 0x6E0 JUMPI DUP5 DUP10 ADD MLOAD DUP3 SSTORE PUSH1 0x1 DUP3 ADD SWAP2 POP PUSH1 0x20 DUP6 ADD SWAP5 POP PUSH1 0x20 DUP2 ADD SWAP1 POP PUSH3 0x6B9 JUMP JUMPDEST DUP7 DUP4 LT ISZERO PUSH3 0x700 JUMPI DUP5 DUP10 ADD MLOAD PUSH3 0x6FC PUSH1 0x1F DUP10 AND DUP3 PUSH3 0x5F0 JUMP JUMPDEST DUP4 SSTORE POP JUMPDEST PUSH1 0x1 PUSH1 0x2 DUP9 MUL ADD DUP9 SSTORE POP POP POP JUMPDEST POP POP POP POP POP POP JUMP JUMPDEST PUSH2 0x446B DUP1 PUSH3 0x725 PUSH1 0x0 CODECOPY PUSH1 0x0 RETURN INVALID PUSH1 0x80 PUSH1 0x40 MSTORE CALLVALUE DUP1 ISZERO PUSH2 0x10 JUMPI PUSH1 0x0 DUP1 REVERT JUMPDEST POP PUSH1 0x4 CALLDATASIZE LT PUSH2 0x121 JUMPI PUSH1 0x0 CALLDATALOAD PUSH1 0xE0 SHR DUP1 PUSH4 0x8DA5CB5B GT PUSH2 0xAD JUMPI DUP1 PUSH4 0xB88D4FDE GT PUSH2 0x71 JUMPI DUP1 PUSH4 0xB88D4FDE EQ PUSH2 0x2F4 JUMPI DUP1 PUSH4 0xC7545849 EQ PUSH2 0x310 JUMPI DUP1 PUSH4 0xC87B56DD EQ PUSH2 0x32C JUMPI DUP1 PUSH4 0xE985E9C5 EQ PUSH2 0x35C JUMPI DUP1 PUSH4 0xF2FDE38B EQ PUSH2 0x38C JUMPI PUSH2 0x121 JUMP JUMPDEST DUP1 PUSH4 0x8DA5CB5B EQ PUSH2 0x262 JUMPI DUP1 PUSH4 0x8FBA3F7C EQ PUSH2 0x280 JUMPI DUP1 PUSH4 0x95D89B41 EQ PUSH2 0x29C JUMPI DUP1 PUSH4 0x9D63848A EQ PUSH2 0x2BA JUMPI DUP1 PUSH4 0xA22CB465 EQ PUSH2 0x2D8 JUMPI PUSH2 0x121 JUMP JUMPDEST DUP1 PUSH4 0x23B872DD GT PUSH2 0xF4 JUMPI DUP1 PUSH4 0x23B872DD EQ PUSH2 0x1C0 JUMPI DUP1 PUSH4 0x42842E0E EQ PUSH2 0x1DC JUMPI DUP1 PUSH4 0x6352211E EQ PUSH2 0x1F8 JUMPI DUP1 PUSH4 0x70A08231 EQ PUSH2 0x228 JUMPI DUP1 PUSH4 0x715018A6 EQ PUSH2 0x258 JUMPI PUSH2 0x121 JUMP JUMPDEST DUP1 PUSH4 0x1FFC9A7 EQ PUSH2 0x126 JUMPI DUP1 PUSH4 0x6FDDE03 EQ PUSH2 0x156 JUMPI DUP1 PUSH4 0x81812FC EQ PUSH2 0x174 JUMPI DUP1 PUSH4 0x95EA7B3 EQ PUSH2 0x1A4 JUMPI JUMPDEST PUSH1 0x0 DUP1 REVERT JUMPDEST PUSH2 0x140 PUSH1 0x4 DUP1 CALLDATASIZE SUB DUP2 ADD SWAP1 PUSH2 0x13B SWAP2 SWAP1 PUSH2 0x30FE JUMP JUMPDEST PUSH2 0x3A8 JUMP JUMPDEST PUSH1 0x40 MLOAD PUSH2 0x14D SWAP2 SWAP1 PUSH2 0x3146 JUMP JUMPDEST PUSH1 0x40 MLOAD DUP1 SWAP2 SUB SWAP1 RETURN JUMPDEST PUSH2 0x15E PUSH2 0x536 JUMP JUMPDEST PUSH1 0x40 MLOAD PUSH2 0x16B SWAP2 SWAP1 PUSH2 0x31F1 JUMP JUMPDEST PUSH1 0x40 MLOAD DUP1 SWAP2 SUB SWAP1 RETURN JUMPDEST PUSH2 0x18E PUSH1 0x4 DUP1 CALLDATASIZE SUB DUP2 ADD SWAP1 PUSH2 0x189 SWAP2 SWAP1 PUSH2 0x3249 JUMP JUMPDEST PUSH2 0x604 JUMP JUMPDEST PUSH1 0x40 MLOAD PUSH2 0x19B SWAP2 SWAP1 PUSH2 0x32B7 JUMP JUMPDEST PUSH1 0x40 MLOAD DUP1 SWAP2 SUB SWAP1 RETURN JUMPDEST PUSH2 0x1BE PUSH1 0x4 DUP1 CALLDATASIZE SUB DUP2 ADD SWAP1 PUSH2 0x1B9 SWAP2 SWAP1 PUSH2 0x32FE JUMP JUMPDEST PUSH2 0x6AE JUMP JUMPDEST STOP JUMPDEST PUSH2 0x1DA PUSH1 0x4 DUP1 CALLDATASIZE SUB DUP2 ADD SWAP1 PUSH2 0x1D5 SWAP2 SWAP1 PUSH2 0x333E JUMP JUMPDEST PUSH2 0x901 JUMP JUMPDEST STOP JUMPDEST PUSH2 0x1F6 PUSH1 0x4 DUP1 CALLDATASIZE SUB DUP2 ADD SWAP1 PUSH2 0x1F1 SWAP2 SWAP1 PUSH2 0x333E JUMP JUMPDEST PUSH2 0x9ED JUMP JUMPDEST STOP JUMPDEST PUSH2 0x212 PUSH1 0x4 DUP1 CALLDATASIZE SUB DUP2 ADD SWAP1 PUSH2 0x20D SWAP2 SWAP1 PUSH2 0x3249 JUMP JUMPDEST PUSH2 0xA49 JUMP JUMPDEST PUSH1 0x40 MLOAD PUSH2 0x21F SWAP2 SWAP1 PUSH2 0x32B7 JUMP JUMPDEST PUSH1 0x40 MLOAD DUP1 SWAP2 SUB SWAP1 RETURN JUMPDEST PUSH2 0x242 PUSH1 0x4 DUP1 CALLDATASIZE SUB DUP2 ADD SWAP1 PUSH2 0x23D SWAP2 SWAP1 PUSH2 0x3391 JUMP JUMPDEST PUSH2 0xB84 JUMP JUMPDEST PUSH1 0x40 MLOAD PUSH2 0x24F SWAP2 SWAP1 PUSH2 0x33CD JUMP JUMPDEST PUSH1 0x40 MLOAD DUP1 SWAP2 SUB SWAP1 RETURN JUMPDEST PUSH2 0x260 PUSH2 0xCC8 JUMP JUMPDEST STOP JUMPDEST PUSH2 0x26A PUSH2 0xCDC JUMP JUMPDEST PUSH1 0x40 MLOAD PUSH2 0x277 SWAP2 SWAP1 PUSH2 0x32B7 JUMP JUMPDEST PUSH1 0x40 MLOAD DUP1 SWAP2 SUB SWAP1 RETURN JUMPDEST PUSH2 0x29A PUSH1 0x4 DUP1 CALLDATASIZE SUB DUP2 ADD SWAP1 PUSH2 0x295 SWAP2 SWAP1 PUSH2 0x32FE JUMP JUMPDEST PUSH2 0xD06 JUMP JUMPDEST STOP JUMPDEST PUSH2 0x2A4 PUSH2 0xD50 JUMP JUMPDEST PUSH1 0x40 MLOAD PUSH2 0x2B1 SWAP2 SWAP1 PUSH2 0x31F1 JUMP JUMPDEST PUSH1 0x40 MLOAD DUP1 SWAP2 SUB SWAP1 RETURN JUMPDEST PUSH2 0x2C2 PUSH2 0xE1E JUMP JUMPDEST PUSH1 0x40 MLOAD PUSH2 0x2CF SWAP2 SWAP1 PUSH2 0x33CD JUMP JUMPDEST PUSH1 0x40 MLOAD DUP1 SWAP2 SUB SWAP1 RETURN JUMPDEST PUSH2 0x2F2 PUSH1 0x4 DUP1 CALLDATASIZE SUB DUP2 ADD SWAP1 PUSH2 0x2ED SWAP2 SWAP1 PUSH2 0x3414 JUMP JUMPDEST PUSH2 0xE24 JUMP JUMPDEST STOP JUMPDEST PUSH2 0x30E PUSH1 0x4 DUP1 CALLDATASIZE SUB DUP2 ADD SWAP1 PUSH2 0x309 SWAP2 SWAP1 PUSH2 0x3589 JUMP JUMPDEST PUSH2 0xE76 JUMP JUMPDEST STOP JUMPDEST PUSH2 0x32A PUSH1 0x4 DUP1 CALLDATASIZE SUB DUP2 ADD SWAP1 PUSH2 0x325 SWAP2 SWAP1 PUSH2 0x36AD JUMP JUMPDEST PUSH2 0xF64 JUMP JUMPDEST STOP JUMPDEST PUSH2 0x346 PUSH1 0x4 DUP1 CALLDATASIZE SUB DUP2 ADD SWAP1 PUSH2 0x341 SWAP2 SWAP1 PUSH2 0x3249 JUMP JUMPDEST PUSH2 0x10EC JUMP JUMPDEST PUSH1 0x40 MLOAD PUSH2 0x353 SWAP2 SWAP1 PUSH2 0x31F1 JUMP JUMPDEST PUSH1 0x40 MLOAD DUP1 SWAP2 SUB SWAP1 RETURN JUMPDEST PUSH2 0x376 PUSH1 0x4 DUP1 CALLDATASIZE SUB DUP2 ADD SWAP1 PUSH2 0x371 SWAP2 SWAP1 PUSH2 0x36F6 JUMP JUMPDEST PUSH2 0x13A2 JUMP JUMPDEST PUSH1 0x40 MLOAD PUSH2 0x383 SWAP2 SWAP1 PUSH2 0x3146 JUMP JUMPDEST PUSH1 0x40 MLOAD DUP1 SWAP2 SUB SWAP1 RETURN JUMPDEST PUSH2 0x3A6 PUSH1 0x4 DUP1 CALLDATASIZE SUB DUP2 ADD SWAP1 PUSH2 0x3A1 SWAP2 SWAP1 PUSH2 0x3391 JUMP JUMPDEST PUSH2 0x1472 JUMP JUMPDEST STOP JUMPDEST PUSH1 0x0 PUSH2 0x3BE PUSH8 0x64043103AA2B4CEF PUSH1 0xC0 SHL PUSH2 0x14F5 JUMP JUMPDEST PUSH2 0x3D2 PUSH8 0x91B0BED38D8BF029 PUSH1 0xC0 SHL PUSH2 0x14F5 JUMP JUMPDEST PUSH2 0x3E6 PUSH8 0x3ED70927BE299FB5 PUSH1 0xC0 SHL PUSH2 0x14F5 JUMP JUMPDEST PUSH32 0x80AC58CD00000000000000000000000000000000000000000000000000000000 PUSH28 0xFFFFFFFFFFFFFFFFFFFFFFFFFFFFFFFFFFFFFFFFFFFFFFFFFFFFFFFF NOT AND DUP3 PUSH28 0xFFFFFFFFFFFFFFFFFFFFFFFFFFFFFFFFFFFFFFFFFFFFFFFFFFFFFFFF NOT AND EQ DUP1 ISZERO PUSH2 0x463 JUMPI POP PUSH2 0x462 PUSH8 0x54AEF6E133DE2C9C PUSH1 0xC0 SHL PUSH2 0x14F8 JUMP JUMPDEST JUMPDEST DUP1 PUSH2 0x503 JUMPI POP PUSH32 0x5B5E139F00000000000000000000000000000000000000000000000000000000 PUSH28 0xFFFFFFFFFFFFFFFFFFFFFFFFFFFFFFFFFFFFFFFFFFFFFFFFFFFFFFFF NOT AND DUP3 PUSH28 0xFFFFFFFFFFFFFFFFFFFFFFFFFFFFFFFFFFFFFFFFFFFFFFFFFFFFFFFF NOT AND EQ DUP1 ISZERO PUSH2 0x4E6 JUMPI POP PUSH2 0x4E5 PUSH8 0xC16213B803C75C0B PUSH1 0xC0 SHL PUSH2 0x14F8 JUMP JUMPDEST JUMPDEST DUP1 ISZERO PUSH2 0x502 JUMPI POP PUSH2 0x501 PUSH8 0xCA742E65D0185C84 PUSH1 0xC0 SHL PUSH2 0x14F8 JUMP JUMPDEST JUMPDEST JUMPDEST DUP1 PUSH2 0x52F JUMPI POP PUSH2 0x512 DUP3 PUSH2 0x1503 JUMP JUMPDEST DUP1 ISZERO PUSH2 0x52E JUMPI POP PUSH2 0x52D PUSH8 0x2D6D6073D23356DF PUSH1 0xC0 SHL PUSH2 0x14F8 JUMP JUMPDEST JUMPDEST JUMPDEST SWAP1 POP SWAP2 SWAP1 POP JUMP JUMPDEST PUSH1 0x60 PUSH2 0x54C PUSH8 0x2A25295083C5EFE2 PUSH1 0xC0 SHL PUSH2 0x14F5 JUMP JUMPDEST PUSH2 0x560 PUSH8 0x42F3D82060A61306 PUSH1 0xC0 SHL PUSH2 0x14F5 JUMP JUMPDEST PUSH2 0x574 PUSH8 0xBE4AB293612CC54 PUSH1 0xC0 SHL PUSH2 0x14F5 JUMP JUMPDEST PUSH1 0x0 DUP1 SLOAD PUSH2 0x581 SWAP1 PUSH2 0x3765 JUMP JUMPDEST DUP1 PUSH1 0x1F ADD PUSH1 0x20 DUP1 SWAP2 DIV MUL PUSH1 0x20 ADD PUSH1 0x40 MLOAD SWAP1 DUP2 ADD PUSH1 0x40 MSTORE DUP1 SWAP3 SWAP2 SWAP1 DUP2 DUP2 MSTORE PUSH1 0x20 ADD DUP3 DUP1 SLOAD PUSH2 0x5AD SWAP1 PUSH2 0x3765 JUMP JUMPDEST DUP1 ISZERO PUSH2 0x5FA JUMPI DUP1 PUSH1 0x1F LT PUSH2 0x5CF JUMPI PUSH2 0x100 DUP1 DUP4 SLOAD DIV MUL DUP4 MSTORE SWAP2 PUSH1 0x20 ADD SWAP2 PUSH2 0x5FA JUMP JUMPDEST DUP3 ADD SWAP2 SWAP1 PUSH1 0x0 MSTORE PUSH1 0x20 PUSH1 0x0 KECCAK256 SWAP1 JUMPDEST DUP2 SLOAD DUP2 MSTORE SWAP1 PUSH1 0x1 ADD SWAP1 PUSH1 0x20 ADD DUP1 DUP4 GT PUSH2 0x5DD JUMPI DUP3 SWAP1 SUB PUSH1 0x1F AND DUP3 ADD SWAP2 JUMPDEST POP POP POP POP POP SWAP1 POP SWAP1 JUMP JUMPDEST PUSH1 0x0 PUSH2 0x61A PUSH8 0x95DC18EE7457BD4E PUSH1 0xC0 SHL PUSH2 0x14F5 JUMP JUMPDEST PUSH2 0x62E PUSH8 0x23A9BDB91F0D0B27 PUSH1 0xC0 SHL PUSH2 0x14F5 JUMP JUMPDEST PUSH2 0x642 PUSH8 0x297B66EDB989E0D0 PUSH1 0xC0 SHL PUSH2 0x14F5 JUMP JUMPDEST PUSH2 0x64B DUP3 PUSH2 0x156D JUMP JUMPDEST PUSH2 0x65F PUSH8 0xFBEA4E78C42CF081 PUSH1 0xC0 SHL PUSH2 0x14F5 JUMP JUMPDEST PUSH2 0x673 PUSH8 0x1396D4FE480E1898 PUSH1 0xC0 SHL PUSH2 0x14F5 JUMP JUMPDEST PUSH1 0x4 PUSH1 0x0 DUP4 DUP2 MSTORE PUSH1 0x20 ADD SWAP1 DUP2 MSTORE PUSH1 0x20 ADD PUSH1 0x0 KECCAK256 PUSH1 0x0 SWAP1 SLOAD SWAP1 PUSH2 0x100 EXP SWAP1 DIV PUSH20 0xFFFFFFFFFFFFFFFFFFFFFFFFFFFFFFFFFFFFFFFF AND SWAP1 POP SWAP2 SWAP1 POP JUMP JUMPDEST PUSH2 0x6C2 PUSH8 0x667DC490FB382EB PUSH1 0xC0 SHL PUSH2 0x14F5 JUMP JUMPDEST PUSH2 0x6D6 PUSH8 0xEE31B38BAFC0BF69 PUSH1 0xC0 SHL PUSH2 0x14F5 JUMP JUMPDEST PUSH2 0x6EA PUSH8 0x28EF42DD45310416 PUSH1 0xC0 SHL PUSH2 0x14F5 JUMP JUMPDEST PUSH1 0x0 PUSH2 0x6F5 DUP3 PUSH2 0xA49 JUMP JUMPDEST SWAP1 POP PUSH2 0x70B PUSH8 0xBA705DCEF0D3C0AD PUSH1 0xC0 SHL PUSH2 0x14F5 JUMP JUMPDEST PUSH2 0x71F PUSH8 0x38BFEF653E5D4B73 PUSH1 0xC0 SHL PUSH2 0x14F5 JUMP JUMPDEST PUSH2 0x733 PUSH8 0x5CA633E449E5B691 PUSH1 0xC0 SHL PUSH2 0x14F5 JUMP JUMPDEST DUP1 PUSH20 0xFFFFFFFFFFFFFFFFFFFFFFFFFFFFFFFFFFFFFFFF AND DUP4 PUSH20 0xFFFFFFFFFFFFFFFFFFFFFFFFFFFFFFFFFFFFFFFF AND SUB PUSH2 0x7A1 JUMPI PUSH1 0x40 MLOAD PUSH32 0x8C379A000000000000000000000000000000000000000000000000000000000 DUP2 MSTORE PUSH1 0x4 ADD PUSH2 0x798 SWAP1 PUSH2 0x3808 JUMP JUMPDEST PUSH1 0x40 MLOAD DUP1 SWAP2 SUB SWAP1 REVERT JUMPDEST PUSH2 0x7B5 PUSH8 0xEDDAC3049B2B338 PUSH1 0xC0 SHL PUSH2 0x14F5 JUMP JUMPDEST PUSH2 0x7C9 PUSH8 0xB4AC5305F0044B67 PUSH1 0xC0 SHL PUSH2 0x14F5 JUMP JUMPDEST PUSH2 0x7DD PUSH8 0xF0CF735983D3660C PUSH1 0xC0 SHL PUSH2 0x14F5 JUMP JUMPDEST PUSH2 0x7F1 PUSH8 0xD921B22C3EB14518 PUSH1 0xC0 SHL PUSH2 0x14F5 JUMP JUMPDEST DUP1 PUSH20 0xFFFFFFFFFFFFFFFFFFFFFFFFFFFFFFFFFFFFFFFF AND PUSH2 0x810 PUSH2 0x161C JUMP JUMPDEST PUSH20 0xFFFFFFFFFFFFFFFFFFFFFFFFFFFFFFFFFFFFFFFF AND EQ DUP1 ISZERO PUSH2 0x843 JUMPI POP PUSH2 0x842 PUSH8 0x8D6596BDE782867E PUSH1 0xC0 SHL PUSH2 0x14F8 JUMP JUMPDEST JUMPDEST DUP1 PUSH2 0x877 JUMPI POP PUSH2 0x85A DUP2 PUSH2 0x855 PUSH2 0x161C JUMP JUMPDEST PUSH2 0x13A2 JUMP JUMPDEST DUP1 ISZERO PUSH2 0x876 JUMPI POP PUSH2 0x875 PUSH8 0xE4C7EDC397A1C369 PUSH1 0xC0 SHL PUSH2 0x14F8 JUMP JUMPDEST JUMPDEST JUMPDEST PUSH2 0x8B6 JUMPI PUSH1 0x40 MLOAD PUSH32 0x8C379A000000000000000000000000000000000000000000000000000000000 DUP2 MSTORE PUSH1 0x4 ADD PUSH2 0x8AD SWAP1 PUSH2 0x389A JUMP JUMPDEST PUSH1 0x40 MLOAD DUP1 SWAP2 SUB SWAP1 REVERT JUMPDEST PUSH2 0x8CA PUSH8 0x319FF095CB6864CE PUSH1 0xC0 SHL PUSH2 0x14F5 JUMP JUMPDEST PUSH2 0x8DE PUSH8 0x477F22A786FE05E0 PUSH1 0xC0 SHL PUSH2 0x14F5 JUMP JUMPDEST PUSH2 0x8F2 PUSH8 0xD4FA7A525D572886 PUSH1 0xC0 SHL PUSH2 0x14F5 JUMP JUMPDEST PUSH2 0x8FC DUP4 DUP4 PUSH2 0x1624 JUMP JUMPDEST POP POP POP JUMP JUMPDEST PUSH2 0x915 PUSH8 0xB852F3F809FAB6F7 PUSH1 0xC0 SHL PUSH2 0x14F5 JUMP JUMPDEST PUSH2 0x929 PUSH8 0xEB30095609AD2525 PUSH1 0xC0 SHL PUSH2 0x14F5 JUMP JUMPDEST PUSH2 0x93D PUSH8 0xAACDEA435FFF241 PUSH1 0xC0 SHL PUSH2 0x14F5 JUMP JUMPDEST PUSH2 0x951 PUSH8 0x13DC74CA33905033 PUSH1 0xC0 SHL PUSH2 0x14F5 JUMP JUMPDEST PUSH2 0x962 PUSH2 0x95C PUSH2 0x161C JUMP JUMPDEST DUP3 PUSH2 0x172D JUMP JUMPDEST PUSH2 0x9A1 JUMPI PUSH1 0x40 MLOAD PUSH32 0x8C379A000000000000000000000000000000000000000000000000000000000 DUP2 MSTORE PUSH1 0x4 ADD PUSH2 0x998 SWAP1 PUSH2 0x392C JUMP JUMPDEST PUSH1 0x40 MLOAD DUP1 SWAP2 SUB SWAP1 REVERT JUMPDEST PUSH2 0x9B5 PUSH8 0xA14633448EE33C62 PUSH1 0xC0 SHL PUSH2 0x14F5 JUMP JUMPDEST PUSH2 0x9C9 PUSH8 0x60FBF63D9EF73508 PUSH1 0xC0 SHL PUSH2 0x14F5 JUMP JUMPDEST PUSH2 0x9DD PUSH8 0x3ABB7E9DFB99DE9F PUSH1 0xC0 SHL PUSH2 0x14F5 JUMP JUMPDEST PUSH2 0x9E8 DUP4 DUP4 DUP4 PUSH2 0x1897 JUMP JUMPDEST POP POP POP JUMP JUMPDEST PUSH2 0xA01 PUSH8 0xFD7958935265ABF5 PUSH1 0xC0 SHL PUSH2 0x14F5 JUMP JUMPDEST PUSH2 0xA15 PUSH8 0x35DA470DEC90A9D PUSH1 0xC0 SHL PUSH2 0x14F5 JUMP JUMPDEST PUSH2 0xA29 PUSH8 0x5477502C710049CF PUSH1 0xC0 SHL PUSH2 0x14F5 JUMP JUMPDEST PUSH2 0xA44 DUP4 DUP4 DUP4 PUSH1 0x40 MLOAD DUP1 PUSH1 0x20 ADD PUSH1 0x40 MSTORE DUP1 PUSH1 0x0 DUP2 MSTORE POP PUSH2 0xE76 JUMP JUMPDEST POP POP POP JUMP JUMPDEST PUSH1 0x0 PUSH2 0xA5F PUSH8 0x9953FFD773BFF086 PUSH1 0xC0 SHL PUSH2 0x14F5 JUMP JUMPDEST PUSH2 0xA73 PUSH8 0x1B4CC0C4CEA002B9 PUSH1 0xC0 SHL PUSH2 0x14F5 JUMP JUMPDEST PUSH2 0xA87 PUSH8 0x9EB6ED314E7A37CC PUSH1 0xC0 SHL PUSH2 0x14F5 JUMP JUMPDEST PUSH1 0x0 PUSH2 0xA92 DUP4 PUSH2 0x1D70 JUMP JUMPDEST SWAP1 POP PUSH2 0xAA8 PUSH8 0x9B578413DA77D1DF PUSH1 0xC0 SHL PUSH2 0x14F5 JUMP JUMPDEST PUSH2 0xABC PUSH8 0xE24508926711C7DB PUSH1 0xC0 SHL PUSH2 0x14F5 JUMP JUMPDEST PUSH2 0xAD0 PUSH8 0x81F42BBB4C2DD6C5 PUSH1 0xC0 SHL PUSH2 0x14F5 JUMP JUMPDEST PUSH1 0x0 PUSH20 0xFFFFFFFFFFFFFFFFFFFFFFFFFFFFFFFFFFFFFFFF AND DUP2 PUSH20 0xFFFFFFFFFFFFFFFFFFFFFFFFFFFFFFFFFFFFFFFF AND SUB PUSH2 0xB3F JUMPI PUSH1 0x40 MLOAD PUSH32 0x8C379A000000000000000000000000000000000000000000000000000000000 DUP2 MSTORE PUSH1 0x4 ADD PUSH2 0xB36 SWAP1 PUSH2 0x3998 JUMP JUMPDEST PUSH1 0x40 MLOAD DUP1 SWAP2 SUB SWAP1 REVERT JUMPDEST PUSH2 0xB53 PUSH8 0xAD27ED08E47B94DC PUSH1 0xC0 SHL PUSH2 0x14F5 JUMP JUMPDEST PUSH2 0xB67 PUSH8 0xC73B0143AD0FDBBB PUSH1 0xC0 SHL PUSH2 0x14F5 JUMP JUMPDEST PUSH2 0xB7B PUSH8 0x6D1068DEF801C143 PUSH1 0xC0 SHL PUSH2 0x14F5 JUMP JUMPDEST DUP1 SWAP2 POP POP SWAP2 SWAP1 POP JUMP JUMPDEST PUSH1 0x0 PUSH2 0xB9A PUSH8 0x8E442374C603BC3C PUSH1 0xC0 SHL PUSH2 0x14F5 JUMP JUMPDEST PUSH2 0xBAE PUSH8 0x5F7FCBE9B821A8A8 PUSH1 0xC0 SHL PUSH2 0x14F5 JUMP JUMPDEST PUSH2 0xBC2 PUSH8 0x416FBC2440FBA0A9 PUSH1 0xC0 SHL PUSH2 0x14F5 JUMP JUMPDEST PUSH2 0xBD6 PUSH8 0xF4B168F555CF25FF PUSH1 0xC0 SHL PUSH2 0x14F5 JUMP JUMPDEST PUSH1 0x0 PUSH20 0xFFFFFFFFFFFFFFFFFFFFFFFFFFFFFFFFFFFFFFFF AND DUP3 PUSH20 0xFFFFFFFFFFFFFFFFFFFFFFFFFFFFFFFFFFFFFFFF AND SUB PUSH2 0xC45 JUMPI PUSH1 0x40 MLOAD PUSH32 0x8C379A000000000000000000000000000000000000000000000000000000000 DUP2 MSTORE PUSH1 0x4 ADD PUSH2 0xC3C SWAP1 PUSH2 0x3A2A JUMP JUMPDEST PUSH1 0x40 MLOAD DUP1 SWAP2 SUB SWAP1 REVERT JUMPDEST PUSH2 0xC59 PUSH8 0x2E0FEF286D550699 PUSH1 0xC0 SHL PUSH2 0x14F5 JUMP JUMPDEST PUSH2 0xC6D PUSH8 0x9AE103CB66F615A8 PUSH1 0xC0 SHL PUSH2 0x14F5 JUMP JUMPDEST PUSH2 0xC81 PUSH8 0xD999C946787A812E PUSH1 0xC0 SHL PUSH2 0x14F5 JUMP JUMPDEST PUSH1 0x3 PUSH1 0x0 DUP4 PUSH20 0xFFFFFFFFFFFFFFFFFFFFFFFFFFFFFFFFFFFFFFFF AND PUSH20 0xFFFFFFFFFFFFFFFFFFFFFFFFFFFFFFFFFFFFFFFF AND DUP2 MSTORE PUSH1 0x20 ADD SWAP1 DUP2 MSTORE PUSH1 0x20 ADD PUSH1 0x0 KECCAK256 SLOAD SWAP1 POP SWAP2 SWAP1 POP JUMP JUMPDEST PUSH2 0xCD0 PUSH2 0x1DE9 JUMP JUMPDEST PUSH2 0xCDA PUSH1 0x0 PUSH2 0x1E67 JUMP JUMPDEST JUMP JUMPDEST PUSH1 0x0 PUSH1 0x7 PUSH1 0x0 SWAP1 SLOAD SWAP1 PUSH2 0x100 EXP SWAP1 DIV PUSH20 0xFFFFFFFFFFFFFFFFFFFFFFFFFFFFFFFFFFFFFFFF AND SWAP1 POP SWAP1 JUMP JUMPDEST PUSH2 0xD1A PUSH8 0x148E72DF43FCE313 PUSH1 0xC0 SHL PUSH2 0x1F2D JUMP JUMPDEST PUSH2 0xD2E PUSH8 0x8267C95DDBF2416F PUSH1 0xC0 SHL PUSH2 0x1F2D JUMP JUMPDEST PUSH2 0xD41 PUSH7 0xDD2FF5862245E5 PUSH1 0xC0 SHL PUSH2 0x1F2D JUMP JUMPDEST PUSH2 0xD4C ORIGIN DUP4 DUP4 PUSH2 0x1897 JUMP JUMPDEST POP POP JUMP JUMPDEST PUSH1 0x60 PUSH2 0xD66 PUSH8 0x4EBC11DBEAC4C148 PUSH1 0xC0 SHL PUSH2 0x14F5 JUMP JUMPDEST PUSH2 0xD7A PUSH8 0x2DDB0C51D0A85CFA PUSH1 0xC0 SHL PUSH2 0x14F5 JUMP JUMPDEST PUSH2 0xD8E PUSH8 0x2A7C82126E2E89BD PUSH1 0xC0 SHL PUSH2 0x14F5 JUMP JUMPDEST PUSH1 0x1 DUP1 SLOAD PUSH2 0xD9B SWAP1 PUSH2 0x3765 JUMP JUMPDEST DUP1 PUSH1 0x1F ADD PUSH1 0x20 DUP1 SWAP2 DIV MUL PUSH1 0x20 ADD PUSH1 0x40 MLOAD SWAP1 DUP2 ADD PUSH1 0x40 MSTORE DUP1 SWAP3 SWAP2 SWAP1 DUP2 DUP2 MSTORE PUSH1 0x20 ADD DUP3 DUP1 SLOAD PUSH2 0xDC7 SWAP1 PUSH2 0x3765 JUMP JUMPDEST DUP1 ISZERO PUSH2 0xE14 JUMPI DUP1 PUSH1 0x1F LT PUSH2 0xDE9 JUMPI PUSH2 0x100 DUP1 DUP4 SLOAD DIV MUL DUP4 MSTORE SWAP2 PUSH1 0x20 ADD SWAP2 PUSH2 0xE14 JUMP JUMPDEST DUP3 ADD SWAP2 SWAP1 PUSH1 0x0 MSTORE PUSH1 0x20 PUSH1 0x0 KECCAK256 SWAP1 JUMPDEST DUP2 SLOAD DUP2 MSTORE SWAP1 PUSH1 0x1 ADD SWAP1 PUSH1 0x20 ADD DUP1 DUP4 GT PUSH2 0xDF7 JUMPI DUP3 SWAP1 SUB PUSH1 0x1F AND DUP3 ADD SWAP2 JUMPDEST POP POP POP POP POP SWAP1 POP SWAP1 JUMP JUMPDEST PUSH1 0x8 SLOAD DUP2 JUMP JUMPDEST PUSH2 0xE38 PUSH8 0x3D29DE687D91A4AC PUSH1 0xC0 SHL PUSH2 0x14F5 JUMP JUMPDEST PUSH2 0xE4C PUSH8 0xB7F7C996019EAF7D PUSH1 0xC0 SHL PUSH2 0x14F5 JUMP JUMPDEST PUSH2 0xE60 PUSH8 0xA7377CEA35AD2359 PUSH1 0xC0 SHL PUSH2 0x14F5 JUMP JUMPDEST PUSH2 0xE72 PUSH2 0xE6B PUSH2 0x161C JUMP JUMPDEST DUP4 DUP4 PUSH2 0x1F30 JUMP JUMPDEST POP POP JUMP JUMPDEST PUSH2 0xE8A PUSH8 0x14B531C5882D8C38 PUSH1 0xC0 SHL PUSH2 0x14F5 JUMP JUMPDEST PUSH2 0xE9E PUSH8 0x3DA294F5F8D32FDB PUSH1 0xC0 SHL PUSH2 0x14F5 JUMP JUMPDEST PUSH2 0xEB2 PUSH8 0xC80C6F99A10AB59E PUSH1 0xC0 SHL PUSH2 0x14F5 JUMP JUMPDEST PUSH2 0xEC6 PUSH8 0x7AAD0A191BC55697 PUSH1 0xC0 SHL PUSH2 0x14F5 JUMP JUMPDEST PUSH2 0xED7 PUSH2 0xED1 PUSH2 0x161C JUMP JUMPDEST DUP4 PUSH2 0x172D JUMP JUMPDEST PUSH2 0xF16 JUMPI PUSH1 0x40 MLOAD PUSH32 0x8C379A000000000000000000000000000000000000000000000000000000000 DUP2 MSTORE PUSH1 0x4 ADD PUSH2 0xF0D SWAP1 PUSH2 0x392C JUMP JUMPDEST PUSH1 0x40 MLOAD DUP1 SWAP2 SUB SWAP1 REVERT JUMPDEST PUSH2 0xF2A PUSH8 0x16A0652145DE5726 PUSH1 0xC0 SHL PUSH2 0x14F5 JUMP JUMPDEST PUSH2 0xF3E PUSH8 0x91A5B921B540704D PUSH1 0xC0 SHL PUSH2 0x14F5 JUMP JUMPDEST PUSH2 0xF52 PUSH8 0x1BD3454FAE3129B4 PUSH1 0xC0 SHL PUSH2 0x14F5 JUMP JUMPDEST PUSH2 0xF5E DUP5 DUP5 DUP5 DUP5 PUSH2 0x213C JUMP JUMPDEST POP POP POP POP JUMP JUMPDEST PUSH2 0xF78 PUSH8 0x54559B044D47BF5C PUSH1 0xC0 SHL PUSH2 0x1F2D JUMP JUMPDEST PUSH2 0xF8C PUSH8 0x349B561FE087BFB5 PUSH1 0xC0 SHL PUSH2 0x1F2D JUMP JUMPDEST PUSH2 0xFA0 PUSH8 0xA05BE9560B86FC9E PUSH1 0xC0 SHL PUSH2 0x1F2D JUMP JUMPDEST PUSH2 0xFB4 PUSH8 0x8F80E2F2F7CBF995 PUSH1 0xC0 SHL PUSH2 0x1F2D JUMP JUMPDEST PUSH2 0xFBC PUSH2 0xCDC JUMP JUMPDEST PUSH20 0xFFFFFFFFFFFFFFFFFFFFFFFFFFFFFFFFFFFFFFFF AND ORIGIN PUSH20 0xFFFFFFFFFFFFFFFFFFFFFFFFFFFFFFFFFFFFFFFF AND EQ PUSH2 0x1029 JUMPI PUSH1 0x40 MLOAD PUSH32 0x8C379A000000000000000000000000000000000000000000000000000000000 DUP2 MSTORE PUSH1 0x4 ADD PUSH2 0x1020 SWAP1 PUSH2 0x3ABC JUMP JUMPDEST PUSH1 0x40 MLOAD DUP1 SWAP2 SUB SWAP1 REVERT JUMPDEST PUSH2 0x103D PUSH8 0x39707347BC1A8774 PUSH1 0xC0 SHL PUSH2 0x1F2D JUMP JUMPDEST PUSH2 0x1051 PUSH8 0x2EDC92FD36ACD16E PUSH1 0xC0 SHL PUSH2 0x1F2D JUMP JUMPDEST PUSH2 0x1065 PUSH8 0x1A3D145897B5231E PUSH1 0xC0 SHL PUSH2 0x1F2D JUMP JUMPDEST PUSH2 0x107D ORIGIN PUSH1 0x1 PUSH1 0x8 SLOAD PUSH2 0x1078 SWAP2 SWAP1 PUSH2 0x3B0B JUMP JUMPDEST PUSH2 0x2224 JUMP JUMPDEST PUSH2 0x1091 PUSH8 0x467A98625076019F PUSH1 0xC0 SHL PUSH2 0x1F2D JUMP JUMPDEST PUSH2 0x10A5 PUSH8 0xE3DD7627E5402F7F PUSH1 0xC0 SHL PUSH2 0x1F2D JUMP JUMPDEST PUSH2 0x10BD PUSH1 0x1 PUSH1 0x8 SLOAD PUSH2 0x10B7 SWAP2 SWAP1 PUSH2 0x3B0B JUMP JUMPDEST DUP3 PUSH2 0x25F9 JUMP JUMPDEST PUSH2 0x10D1 PUSH8 0x61DC6C10C8DB83DF PUSH1 0xC0 SHL PUSH2 0x1F2D JUMP JUMPDEST PUSH1 0x8 PUSH1 0x0 DUP2 SLOAD DUP1 SWAP3 SWAP2 SWAP1 PUSH2 0x10E4 SWAP1 PUSH2 0x3B3F JUMP JUMPDEST SWAP2 SWAP1 POP SSTORE POP POP JUMP JUMPDEST PUSH1 0x60 PUSH2 0x1102 PUSH8 0xAEAEB220BE2A7C45 PUSH1 0xC0 SHL PUSH2 0x26DE JUMP JUMPDEST PUSH2 0x1116 PUSH8 0x94EE0B6F949F2788 PUSH1 0xC0 SHL PUSH2 0x26DE JUMP JUMPDEST PUSH2 0x112A PUSH8 0xF827874967938D48 PUSH1 0xC0 SHL PUSH2 0x26DE JUMP JUMPDEST PUSH2 0x1133 DUP3 PUSH2 0x156D JUMP JUMPDEST PUSH2 0x1147 PUSH8 0x9ECD267984A4D801 PUSH1 0xC0 SHL PUSH2 0x26DE JUMP JUMPDEST PUSH2 0x115B PUSH8 0x5B06F5543A26F3A4 PUSH1 0xC0 SHL PUSH2 0x26DE JUMP JUMPDEST PUSH1 0x0 PUSH1 0x6 PUSH1 0x0 DUP5 DUP2 MSTORE PUSH1 0x20 ADD SWAP1 DUP2 MSTORE PUSH1 0x20 ADD PUSH1 0x0 KECCAK256 DUP1 SLOAD PUSH2 0x117B SWAP1 PUSH2 0x3765 JUMP JUMPDEST DUP1 PUSH1 0x1F ADD PUSH1 0x20 DUP1 SWAP2 DIV MUL PUSH1 0x20 ADD PUSH1 0x40 MLOAD SWAP1 DUP2 ADD PUSH1 0x40 MSTORE DUP1 SWAP3 SWAP2 SWAP1 DUP2 DUP2 MSTORE PUSH1 0x20 ADD DUP3 DUP1 SLOAD PUSH2 0x11A7 SWAP1 PUSH2 0x3765 JUMP JUMPDEST DUP1 ISZERO PUSH2 0x11F4 JUMPI DUP1 PUSH1 0x1F LT PUSH2 0x11C9 JUMPI PUSH2 0x100 DUP1 DUP4 SLOAD DIV MUL DUP4 MSTORE SWAP2 PUSH1 0x20 ADD SWAP2 PUSH2 0x11F4 JUMP JUMPDEST DUP3 ADD SWAP2 SWAP1 PUSH1 0x0 MSTORE PUSH1 0x20 PUSH1 0x0 KECCAK256 SWAP1 JUMPDEST DUP2 SLOAD DUP2 MSTORE SWAP1 PUSH1 0x1 ADD SWAP1 PUSH1 0x20 ADD DUP1 DUP4 GT PUSH2 0x11D7 JUMPI DUP3 SWAP1 SUB PUSH1 0x1F AND DUP3 ADD SWAP2 JUMPDEST POP POP POP POP POP SWAP1 POP PUSH2 0x120F PUSH8 0xAB71745C61F0D58C PUSH1 0xC0 SHL PUSH2 0x26DE JUMP JUMPDEST PUSH2 0x1223 PUSH8 0x32C583423C17349B PUSH1 0xC0 SHL PUSH2 0x26DE JUMP JUMPDEST PUSH1 0x0 PUSH2 0x122D PUSH2 0x26E1 JUMP JUMPDEST SWAP1 POP PUSH2 0x1243 PUSH8 0x6919EF20F9A0ADB0 PUSH1 0xC0 SHL PUSH2 0x26DE JUMP JUMPDEST PUSH2 0x1257 PUSH8 0x13E061C6140C36DB PUSH1 0xC0 SHL PUSH2 0x26DE JUMP JUMPDEST PUSH1 0x0 DUP2 MLOAD SUB PUSH2 0x12A6 JUMPI PUSH2 0x1274 PUSH8 0x8EFEDF95CA1C49F0 PUSH1 0xC0 SHL PUSH2 0x26DE JUMP JUMPDEST PUSH2 0x1288 PUSH8 0x7C5AB47CF3267019 PUSH1 0xC0 SHL PUSH2 0x26DE JUMP JUMPDEST PUSH2 0x129C PUSH8 0x23538D9BAC6FFB6D PUSH1 0xC0 SHL PUSH2 0x26DE JUMP JUMPDEST DUP2 SWAP3 POP POP POP PUSH2 0x139D JUMP JUMPDEST PUSH2 0x12BA PUSH8 0x50B58FB59C32E6E9 PUSH1 0xC0 SHL PUSH2 0x26DE JUMP JUMPDEST PUSH2 0x12CE PUSH8 0xD5720DE49B70E6D2 PUSH1 0xC0 SHL PUSH2 0x26DE JUMP JUMPDEST PUSH2 0x12E2 PUSH8 0xF2FD729784ADA2E4 PUSH1 0xC0 SHL PUSH2 0x26DE JUMP JUMPDEST PUSH1 0x0 DUP3 MLOAD GT ISZERO PUSH2 0x1353 JUMPI PUSH2 0x1300 PUSH8 0x2FD70A194A0DB3F6 PUSH1 0xC0 SHL PUSH2 0x26DE JUMP JUMPDEST PUSH2 0x1314 PUSH8 0xECF4D8AA0F1F3E01 PUSH1 0xC0 SHL PUSH2 0x26DE JUMP JUMPDEST PUSH2 0x1328 PUSH8 0x867EB3BC5E29849D PUSH1 0xC0 SHL PUSH2 0x26DE JUMP JUMPDEST DUP1 DUP3 PUSH1 0x40 MLOAD PUSH1 0x20 ADD PUSH2 0x133B SWAP3 SWAP2 SWAP1 PUSH2 0x3BC3 JUMP JUMPDEST PUSH1 0x40 MLOAD PUSH1 0x20 DUP2 DUP4 SUB SUB DUP2 MSTORE SWAP1 PUSH1 0x40 MSTORE SWAP3 POP POP POP PUSH2 0x139D JUMP JUMPDEST PUSH2 0x1367 PUSH8 0x19B63355D3442C83 PUSH1 0xC0 SHL PUSH2 0x26DE JUMP JUMPDEST PUSH2 0x137B PUSH8 0x18D2A26FDE90F75F PUSH1 0xC0 SHL PUSH2 0x26DE JUMP JUMPDEST PUSH2 0x138F PUSH8 0x433E09C28790CA6F PUSH1 0xC0 SHL PUSH2 0x26DE JUMP JUMPDEST PUSH2 0x1398 DUP5 PUSH2 0x2734 JUMP JUMPDEST SWAP3 POP POP POP JUMPDEST SWAP2 SWAP1 POP JUMP JUMPDEST PUSH1 0x0 PUSH2 0x13B8 PUSH8 0x891D4AD3313292B PUSH1 0xC0 SHL PUSH2 0x14F5 JUMP JUMPDEST PUSH2 0x13CC PUSH8 0x37465B40D206DB29 PUSH1 0xC0 SHL PUSH2 0x14F5 JUMP JUMPDEST PUSH2 0x13E0 PUSH8 0x46DF7FA6208939AF PUSH1 0xC0 SHL PUSH2 0x14F5 JUMP JUMPDEST PUSH1 0x5 PUSH1 0x0 DUP5 PUSH20 0xFFFFFFFFFFFFFFFFFFFFFFFFFFFFFFFFFFFFFFFF AND PUSH20 0xFFFFFFFFFFFFFFFFFFFFFFFFFFFFFFFFFFFFFFFF AND DUP2 MSTORE PUSH1 0x20 ADD SWAP1 DUP2 MSTORE PUSH1 0x20 ADD PUSH1 0x0 KECCAK256 PUSH1 0x0 DUP4 PUSH20 0xFFFFFFFFFFFFFFFFFFFFFFFFFFFFFFFFFFFFFFFF AND PUSH20 0xFFFFFFFFFFFFFFFFFFFFFFFFFFFFFFFFFFFFFFFF AND DUP2 MSTORE PUSH1 0x20 ADD SWAP1 DUP2 MSTORE PUSH1 0x20 ADD PUSH1 0x0 KECCAK256 PUSH1 0x0 SWAP1 SLOAD SWAP1 PUSH2 0x100 EXP SWAP1 DIV PUSH1 0xFF AND SWAP1 POP SWAP3 SWAP2 POP POP JUMP JUMPDEST PUSH2 0x147A PUSH2 0x1DE9 JUMP JUMPDEST PUSH1 0x0 PUSH20 0xFFFFFFFFFFFFFFFFFFFFFFFFFFFFFFFFFFFFFFFF AND DUP2 PUSH20 0xFFFFFFFFFFFFFFFFFFFFFFFFFFFFFFFFFFFFFFFF AND SUB PUSH2 0x14E9 JUMPI PUSH1 0x40 MLOAD PUSH32 0x8C379A000000000000000000000000000000000000000000000000000000000 DUP2 MSTORE PUSH1 0x4 ADD PUSH2 0x14E0 SWAP1 PUSH2 0x3C59 JUMP JUMPDEST PUSH1 0x40 MLOAD DUP1 SWAP2 SUB SWAP1 REVERT JUMPDEST PUSH2 0x14F2 DUP2 PUSH2 0x1E67 JUMP JUMPDEST POP JUMP JUMPDEST POP JUMP JUMPDEST PUSH1 0x0 PUSH1 0x1 SWAP1 POP SWAP2 SWAP1 POP JUMP JUMPDEST PUSH1 0x0 PUSH32 0x1FFC9A700000000000000000000000000000000000000000000000000000000 PUSH28 0xFFFFFFFFFFFFFFFFFFFFFFFFFFFFFFFFFFFFFFFFFFFFFFFFFFFFFFFF NOT AND DUP3 PUSH28 0xFFFFFFFFFFFFFFFFFFFFFFFFFFFFFFFFFFFFFFFFFFFFFFFFFFFFFFFF NOT AND EQ SWAP1 POP SWAP2 SWAP1 POP JUMP JUMPDEST PUSH2 0x1581 PUSH8 0x6E380D5AC5FE5008 PUSH1 0xC0 SHL PUSH2 0x14F5 JUMP JUMPDEST PUSH2 0x1595 PUSH8 0x66B47821790DEFB8 PUSH1 0xC0 SHL PUSH2 0x14F5 JUMP JUMPDEST PUSH2 0x15A9 PUSH8 0x4A5DE176E67D4F47 PUSH1 0xC0 SHL PUSH2 0x14F5 JUMP JUMPDEST PUSH2 0x15BD PUSH8 0xECE6718E96B19162 PUSH1 0xC0 SHL PUSH2 0x14F5 JUMP JUMPDEST PUSH2 0x15C6 DUP2 PUSH2 0x285F JUMP JUMPDEST PUSH2 0x1605 JUMPI PUSH1 0x40 MLOAD PUSH32 0x8C379A000000000000000000000000000000000000000000000000000000000 DUP2 MSTORE PUSH1 0x4 ADD PUSH2 0x15FC SWAP1 PUSH2 0x3998 JUMP JUMPDEST PUSH1 0x40 MLOAD DUP1 SWAP2 SUB SWAP1 REVERT JUMPDEST PUSH2 0x1619 PUSH8 0xDB7B4944A1CA14BB PUSH1 0xC0 SHL PUSH2 0x14F5 JUMP JUMPDEST POP JUMP JUMPDEST PUSH1 0x0 CALLER SWAP1 POP SWAP1 JUMP JUMPDEST PUSH2 0x1638 PUSH8 0x9E25A37BEAC97E46 PUSH1 0xC0 SHL PUSH2 0x14F5 JUMP JUMPDEST PUSH2 0x164C PUSH8 0x9E95EA49E8FC01EF PUSH1 0xC0 SHL PUSH2 0x14F5 JUMP JUMPDEST DUP2 PUSH1 0x4 PUSH1 0x0 DUP4 DUP2 MSTORE PUSH1 0x20 ADD SWAP1 DUP2 MSTORE PUSH1 0x20 ADD PUSH1 0x0 KECCAK256 PUSH1 0x0 PUSH2 0x100 EXP DUP2 SLOAD DUP2 PUSH20 0xFFFFFFFFFFFFFFFFFFFFFFFFFFFFFFFFFFFFFFFF MUL NOT AND SWAP1 DUP4 PUSH20 0xFFFFFFFFFFFFFFFFFFFFFFFFFFFFFFFFFFFFFFFF AND MUL OR SWAP1 SSTORE POP PUSH2 0x16B2 PUSH8 0x6420B8C8FB7E6F82 PUSH1 0xC0 SHL PUSH2 0x14F5 JUMP JUMPDEST PUSH2 0x16C6 PUSH8 0xA63ADE7F79F40B4F PUSH1 0xC0 SHL PUSH2 0x14F5 JUMP JUMPDEST DUP1 DUP3 PUSH20 0xFFFFFFFFFFFFFFFFFFFFFFFFFFFFFFFFFFFFFFFF AND PUSH2 0x16E7 DUP4 PUSH2 0xA49 JUMP JUMPDEST PUSH20 0xFFFFFFFFFFFFFFFFFFFFFFFFFFFFFFFFFFFFFFFF AND PUSH32 0x8C5BE1E5EBEC7D5BD14F71427D1E84F3DD0314C0F7B2291E5B200AC8C7C3B925 PUSH1 0x40 MLOAD PUSH1 0x40 MLOAD DUP1 SWAP2 SUB SWAP1 LOG4 POP POP JUMP JUMPDEST PUSH1 0x0 PUSH2 0x1743 PUSH8 0x11939EC09AE2FD04 PUSH1 0xC0 SHL PUSH2 0x14F5 JUMP JUMPDEST PUSH2 0x1757 PUSH8 0xEC990D7EA5964645 PUSH1 0xC0 SHL PUSH2 0x14F5 JUMP JUMPDEST PUSH2 0x176B PUSH8 0xC7AE09EE10C7C416 PUSH1 0xC0 SHL PUSH2 0x14F5 JUMP JUMPDEST PUSH1 0x0 PUSH2 0x1776 DUP4 PUSH2 0xA49 JUMP JUMPDEST SWAP1 POP PUSH2 0x178C PUSH8 0x3B61C69919E926BE PUSH1 0xC0 SHL PUSH2 0x14F5 JUMP JUMPDEST PUSH2 0x17A0 PUSH8 0x7DC728CDA22EE92B PUSH1 0xC0 SHL PUSH2 0x14F5 JUMP JUMPDEST DUP1 PUSH20 0xFFFFFFFFFFFFFFFFFFFFFFFFFFFFFFFFFFFFFFFF AND DUP5 PUSH20 0xFFFFFFFFFFFFFFFFFFFFFFFFFFFFFFFFFFFFFFFF AND EQ DUP1 ISZERO PUSH2 0x17EB JUMPI POP PUSH2 0x17EA PUSH8 0x302BB16A61FE1F9F PUSH1 0xC0 SHL PUSH2 0x14F8 JUMP JUMPDEST JUMPDEST DUP1 PUSH2 0x1834 JUMPI POP PUSH2 0x17FB DUP2 DUP6 PUSH2 0x13A2 JUMP JUMPDEST DUP1 ISZERO PUSH2 0x1817 JUMPI POP PUSH2 0x1816 PUSH8 0xF424C98A59A99C4 PUSH1 0xC0 SHL PUSH2 0x14F8 JUMP JUMPDEST JUMPDEST DUP1 ISZERO PUSH2 0x1833 JUMPI POP PUSH2 0x1832 PUSH8 0x95FBE63D337B57B8 PUSH1 0xC0 SHL PUSH2 0x14F8 JUMP JUMPDEST JUMPDEST JUMPDEST DUP1 PUSH2 0x188E JUMPI POP DUP4 PUSH20 0xFFFFFFFFFFFFFFFFFFFFFFFFFFFFFFFFFFFFFFFF AND PUSH2 0x185A DUP5 PUSH2 0x604 JUMP JUMPDEST PUSH20 0xFFFFFFFFFFFFFFFFFFFFFFFFFFFFFFFFFFFFFFFF AND EQ DUP1 ISZERO PUSH2 0x188D JUMPI POP PUSH2 0x188C PUSH8 0x343C17FCB02C2AC1 PUSH1 0xC0 SHL PUSH2 0x14F8 JUMP JUMPDEST JUMPDEST JUMPDEST SWAP2 POP POP SWAP3 SWAP2 POP POP JUMP JUMPDEST PUSH2 0x18AB PUSH8 0xCDBE0814E7C93117 PUSH1 0xC0 SHL PUSH2 0x14F5 JUMP JUMPDEST PUSH2 0x18BF PUSH8 0x7EC5C7C50F4A40AC PUSH1 0xC0 SHL PUSH2 0x14F5 JUMP JUMPDEST PUSH2 0x18D3 PUSH8 0x84BF597026216E2F PUSH1 0xC0 SHL PUSH2 0x14F5 JUMP JUMPDEST PUSH2 0x18E7 PUSH8 0x34757B2DE34F5FE6 PUSH1 0xC0 SHL PUSH2 0x14F5 JUMP JUMPDEST DUP3 PUSH20 0xFFFFFFFFFFFFFFFFFFFFFFFFFFFFFFFFFFFFFFFF AND PUSH2 0x1907 DUP3 PUSH2 0xA49 JUMP JUMPDEST PUSH20 0xFFFFFFFFFFFFFFFFFFFFFFFFFFFFFFFFFFFFFFFF AND EQ PUSH2 0x195D JUMPI PUSH1 0x40 MLOAD PUSH32 0x8C379A000000000000000000000000000000000000000000000000000000000 DUP2 MSTORE PUSH1 0x4 ADD PUSH2 0x1954 SWAP1 PUSH2 0x3CEB JUMP JUMPDEST PUSH1 0x40 MLOAD DUP1 SWAP2 SUB SWAP1 REVERT JUMPDEST PUSH2 0x1971 PUSH8 0x31BDE043EA4417DE PUSH1 0xC0 SHL PUSH2 0x14F5 JUMP JUMPDEST PUSH2 0x1985 PUSH8 0x1FE4579ADC5CFC03 PUSH1 0xC0 SHL PUSH2 0x14F5 JUMP JUMPDEST PUSH2 0x1999 PUSH8 0x3CF1F6F1EE12B517 PUSH1 0xC0 SHL PUSH2 0x14F5 JUMP JUMPDEST PUSH2 0x19AD PUSH8 0x25D0F6FD6573F3C3 PUSH1 0xC0 SHL PUSH2 0x14F5 JUMP JUMPDEST PUSH1 0x0 PUSH20 0xFFFFFFFFFFFFFFFFFFFFFFFFFFFFFFFFFFFFFFFF AND DUP3 PUSH20 0xFFFFFFFFFFFFFFFFFFFFFFFFFFFFFFFFFFFFFFFF AND SUB PUSH2 0x1A1C JUMPI PUSH1 0x40 MLOAD PUSH32 0x8C379A000000000000000000000000000000000000000000000000000000000 DUP2 MSTORE PUSH1 0x4 ADD PUSH2 0x1A13 SWAP1 PUSH2 0x3D7D JUMP JUMPDEST PUSH1 0x40 MLOAD DUP1 SWAP2 SUB SWAP1 REVERT JUMPDEST PUSH2 0x1A30 PUSH8 0x3BCE14DDA2274867 PUSH1 0xC0 SHL PUSH2 0x14F5 JUMP JUMPDEST PUSH2 0x1A44 PUSH8 0xF3433631BAE8835D PUSH1 0xC0 SHL PUSH2 0x14F5 JUMP JUMPDEST PUSH2 0x1A58 PUSH8 0xEF683AC5BC41A95D PUSH1 0xC0 SHL PUSH2 0x14F5 JUMP JUMPDEST PUSH2 0x1A65 DUP4 DUP4 DUP4 PUSH1 0x1 PUSH2 0x28DD JUMP JUMPDEST PUSH2 0x1A79 PUSH8 0xA8E477FEC5D80A6A PUSH1 0xC0 SHL PUSH2 0x14F5 JUMP JUMPDEST PUSH2 0x1A8D PUSH8 0x3A19E697C8465E54 PUSH1 0xC0 SHL PUSH2 0x14F5 JUMP JUMPDEST PUSH2 0x1AA1 PUSH8 0x8C5F33833DFC5F26 PUSH1 0xC0 SHL PUSH2 0x14F5 JUMP JUMPDEST DUP3 PUSH20 0xFFFFFFFFFFFFFFFFFFFFFFFFFFFFFFFFFFFFFFFF AND PUSH2 0x1AC1 DUP3 PUSH2 0xA49 JUMP JUMPDEST PUSH20 0xFFFFFFFFFFFFFFFFFFFFFFFFFFFFFFFFFFFFFFFF AND EQ PUSH2 0x1B17 JUMPI PUSH1 0x40 MLOAD PUSH32 0x8C379A000000000000000000000000000000000000000000000000000000000 DUP2 MSTORE PUSH1 0x4 ADD PUSH2 0x1B0E SWAP1 PUSH2 0x3CEB JUMP JUMPDEST PUSH1 0x40 MLOAD DUP1 SWAP2 SUB SWAP1 REVERT JUMPDEST PUSH2 0x1B2B PUSH8 0x9480D84F63D8ACF3 PUSH1 0xC0 SHL PUSH2 0x14F5 JUMP JUMPDEST PUSH2 0x1B3F PUSH8 0x2AC0D06E6659DBC2 PUSH1 0xC0 SHL PUSH2 0x14F5 JUMP JUMPDEST PUSH1 0x4 PUSH1 0x0 DUP3 DUP2 MSTORE PUSH1 0x20 ADD SWAP1 DUP2 MSTORE PUSH1 0x20 ADD PUSH1 0x0 KECCAK256 PUSH1 0x0 PUSH2 0x100 EXP DUP2 SLOAD SWAP1 PUSH20 0xFFFFFFFFFFFFFFFFFFFFFFFFFFFFFFFFFFFFFFFF MUL NOT AND SWAP1 SSTORE PUSH2 0x1B89 PUSH8 0x7F556764E343E697 PUSH1 0xC0 SHL PUSH2 0x14F5 JUMP JUMPDEST PUSH2 0x1B9D PUSH8 0x1EB0AA92C5F64D58 PUSH1 0xC0 SHL PUSH2 0x14F5 JUMP JUMPDEST PUSH1 0x1 PUSH1 0x3 PUSH1 0x0 DUP6 PUSH20 0xFFFFFFFFFFFFFFFFFFFFFFFFFFFFFFFFFFFFFFFF AND PUSH20 0xFFFFFFFFFFFFFFFFFFFFFFFFFFFFFFFFFFFFFFFF AND DUP2 MSTORE PUSH1 0x20 ADD SWAP1 DUP2 MSTORE PUSH1 0x20 ADD PUSH1 0x0 KECCAK256 PUSH1 0x0 DUP3 DUP3 SLOAD SUB SWAP3 POP POP DUP2 SWAP1 SSTORE POP PUSH2 0x1BFF PUSH8 0x93B4FAE222B1CA32 PUSH1 0xC0 SHL PUSH2 0x14F5 JUMP JUMPDEST PUSH1 0x1 PUSH1 0x3 PUSH1 0x0 DUP5 PUSH20 0xFFFFFFFFFFFFFFFFFFFFFFFFFFFFFFFFFFFFFFFF AND PUSH20 0xFFFFFFFFFFFFFFFFFFFFFFFFFFFFFFFFFFFFFFFF AND DUP2 MSTORE PUSH1 0x20 ADD SWAP1 DUP2 MSTORE PUSH1 0x20 ADD PUSH1 0x0 KECCAK256 PUSH1 0x0 DUP3 DUP3 SLOAD ADD SWAP3 POP POP DUP2 SWAP1 SSTORE POP PUSH2 0x1C61 PUSH8 0xF24DC17707947DC7 PUSH1 0xC0 SHL PUSH2 0x14F5 JUMP JUMPDEST DUP2 PUSH1 0x2 PUSH1 0x0 DUP4 DUP2 MSTORE PUSH1 0x20 ADD SWAP1 DUP2 MSTORE PUSH1 0x20 ADD PUSH1 0x0 KECCAK256 PUSH1 0x0 PUSH2 0x100 EXP DUP2 SLOAD DUP2 PUSH20 0xFFFFFFFFFFFFFFFFFFFFFFFFFFFFFFFFFFFFFFFF MUL NOT AND SWAP1 DUP4 PUSH20 0xFFFFFFFFFFFFFFFFFFFFFFFFFFFFFFFFFFFFFFFF AND MUL OR SWAP1 SSTORE POP PUSH2 0x1CC7 PUSH8 0xC93DD8246799284F PUSH1 0xC0 SHL PUSH2 0x14F5 JUMP JUMPDEST PUSH2 0x1CDB PUSH8 0x13888422140BF1F5 PUSH1 0xC0 SHL PUSH2 0x14F5 JUMP JUMPDEST DUP1 DUP3 PUSH20 0xFFFFFFFFFFFFFFFFFFFFFFFFFFFFFFFFFFFFFFFF AND DUP5 PUSH20 0xFFFFFFFFFFFFFFFFFFFFFFFFFFFFFFFFFFFFFFFF AND PUSH32 0xDDF252AD1BE2C89B69C2B068FC378DAA952BA7F163C4A11628F55A4DF523B3EF PUSH1 0x40 MLOAD PUSH1 0x40 MLOAD DUP1 SWAP2 SUB SWAP1 LOG4 PUSH2 0x1D4A PUSH8 0x8E51A2C8BCD72937 PUSH1 0xC0 SHL PUSH2 0x14F5 JUMP JUMPDEST PUSH2 0x1D5E PUSH8 0x63025E4C14DE451E PUSH1 0xC0 SHL PUSH2 0x14F5 JUMP JUMPDEST PUSH2 0x1D6B DUP4 DUP4 DUP4 PUSH1 0x1 PUSH2 0x2B3E JUMP JUMPDEST POP POP POP JUMP JUMPDEST PUSH1 0x0 PUSH2 0x1D86 PUSH8 0xD9A2FF1EBB003609 PUSH1 0xC0 SHL PUSH2 0x14F5 JUMP JUMPDEST PUSH2 0x1D9A PUSH8 0x361BA69E0E16C9BE PUSH1 0xC0 SHL PUSH2 0x14F5 JUMP JUMPDEST PUSH2 0x1DAE PUSH8 0x576AB1A04058791D PUSH1 0xC0 SHL PUSH2 0x14F5 JUMP JUMPDEST PUSH1 0x2 PUSH1 0x0 DUP4 DUP2 MSTORE PUSH1 0x20 ADD SWAP1 DUP2 MSTORE PUSH1 0x20 ADD PUSH1 0x0 KECCAK256 PUSH1 0x0 SWAP1 SLOAD SWAP1 PUSH2 0x100 EXP SWAP1 DIV PUSH20 0xFFFFFFFFFFFFFFFFFFFFFFFFFFFFFFFFFFFFFFFF AND SWAP1 POP SWAP2 SWAP1 POP JUMP JUMPDEST PUSH2 0x1DF1 PUSH2 0x161C JUMP JUMPDEST PUSH20 0xFFFFFFFFFFFFFFFFFFFFFFFFFFFFFFFFFFFFFFFF AND PUSH2 0x1E0F PUSH2 0xCDC JUMP JUMPDEST PUSH20 0xFFFFFFFFFFFFFFFFFFFFFFFFFFFFFFFFFFFFFFFF AND EQ PUSH2 0x1E65 JUMPI PUSH1 0x40 MLOAD PUSH32 0x8C379A000000000000000000000000000000000000000000000000000000000 DUP2 MSTORE PUSH1 0x4 ADD PUSH2 0x1E5C SWAP1 PUSH2 0x3DE9 JUMP JUMPDEST PUSH1 0x40 MLOAD DUP1 SWAP2 SUB SWAP1 REVERT JUMPDEST JUMP JUMPDEST PUSH1 0x0 PUSH1 0x7 PUSH1 0x0 SWAP1 SLOAD SWAP1 PUSH2 0x100 EXP SWAP1 DIV PUSH20 0xFFFFFFFFFFFFFFFFFFFFFFFFFFFFFFFFFFFFFFFF AND SWAP1 POP DUP2 PUSH1 0x7 PUSH1 0x0 PUSH2 0x100 EXP DUP2 SLOAD DUP2 PUSH20 0xFFFFFFFFFFFFFFFFFFFFFFFFFFFFFFFFFFFFFFFF MUL NOT AND SWAP1 DUP4 PUSH20 0xFFFFFFFFFFFFFFFFFFFFFFFFFFFFFFFFFFFFFFFF AND MUL OR SWAP1 SSTORE POP DUP2 PUSH20 0xFFFFFFFFFFFFFFFFFFFFFFFFFFFFFFFFFFFFFFFF AND DUP2 PUSH20 0xFFFFFFFFFFFFFFFFFFFFFFFFFFFFFFFFFFFFFFFF AND PUSH32 0x8BE0079C531659141344CD1FD0A4F28419497F9722A3DAAFE3B4186F6B6457E0 PUSH1 0x40 MLOAD PUSH1 0x40 MLOAD DUP1 SWAP2 SUB SWAP1 LOG3 POP POP JUMP JUMPDEST POP JUMP JUMPDEST PUSH2 0x1F44 PUSH8 0x42E210015F46D2F1 PUSH1 0xC0 SHL PUSH2 0x14F5 JUMP JUMPDEST PUSH2 0x1F58 PUSH8 0x3B6E7617B3F36BB7 PUSH1 0xC0 SHL PUSH2 0x14F5 JUMP JUMPDEST PUSH2 0x1F6C PUSH8 0xA32EA71E8CE6A317 PUSH1 0xC0 SHL PUSH2 0x14F5 JUMP JUMPDEST PUSH2 0x1F80 PUSH8 0x188C90211341878A PUSH1 0xC0 SHL PUSH2 0x14F5 JUMP JUMPDEST DUP2 PUSH20 0xFFFFFFFFFFFFFFFFFFFFFFFFFFFFFFFFFFFFFFFF AND DUP4 PUSH20 0xFFFFFFFFFFFFFFFFFFFFFFFFFFFFFFFFFFFFFFFF AND SUB PUSH2 0x1FEE JUMPI PUSH1 0x40 MLOAD PUSH32 0x8C379A000000000000000000000000000000000000000000000000000000000 DUP2 MSTORE PUSH1 0x4 ADD PUSH2 0x1FE5 SWAP1 PUSH2 0x3E55 JUMP JUMPDEST PUSH1 0x40 MLOAD DUP1 SWAP2 SUB SWAP1 REVERT JUMPDEST PUSH2 0x2002 PUSH8 0xB623B7F819657F71 PUSH1 0xC0 SHL PUSH2 0x14F5 JUMP JUMPDEST PUSH2 0x2016 PUSH8 0xEE89C3488323C2C4 PUSH1 0xC0 SHL PUSH2 0x14F5 JUMP JUMPDEST DUP1 PUSH1 0x5 PUSH1 0x0 DUP6 PUSH20 0xFFFFFFFFFFFFFFFFFFFFFFFFFFFFFFFFFFFFFFFF AND PUSH20 0xFFFFFFFFFFFFFFFFFFFFFFFFFFFFFFFFFFFFFFFF AND DUP2 MSTORE PUSH1 0x20 ADD SWAP1 DUP2 MSTORE PUSH1 0x20 ADD PUSH1 0x0 KECCAK256 PUSH1 0x0 DUP5 PUSH20 0xFFFFFFFFFFFFFFFFFFFFFFFFFFFFFFFFFFFFFFFF AND PUSH20 0xFFFFFFFFFFFFFFFFFFFFFFFFFFFFFFFFFFFFFFFF AND DUP2 MSTORE PUSH1 0x20 ADD SWAP1 DUP2 MSTORE PUSH1 0x20 ADD PUSH1 0x0 KECCAK256 PUSH1 0x0 PUSH2 0x100 EXP DUP2 SLOAD DUP2 PUSH1 0xFF MUL NOT AND SWAP1 DUP4 ISZERO ISZERO MUL OR SWAP1 SSTORE POP PUSH2 0x20BE PUSH8 0xAA9E2DDCEDCDDD11 PUSH1 0xC0 SHL PUSH2 0x14F5 JUMP JUMPDEST PUSH2 0x20D2 PUSH8 0xBABA68A643FCD229 PUSH1 0xC0 SHL PUSH2 0x14F5 JUMP JUMPDEST DUP2 PUSH20 0xFFFFFFFFFFFFFFFFFFFFFFFFFFFFFFFFFFFFFFFF AND DUP4 PUSH20 0xFFFFFFFFFFFFFFFFFFFFFFFFFFFFFFFFFFFFFFFF AND PUSH32 0x17307EAB39AB6107E8899845AD3D59BD9653F200F220920489CA2B5937696C31 DUP4 PUSH1 0x40 MLOAD PUSH2 0x212F SWAP2 SWAP1 PUSH2 0x3146 JUMP JUMPDEST PUSH1 0x40 MLOAD DUP1 SWAP2 SUB SWAP1 LOG3 POP POP POP JUMP JUMPDEST PUSH2 0x2150 PUSH8 0x59C2E12961A428D2 PUSH1 0xC0 SHL PUSH2 0x14F5 JUMP JUMPDEST PUSH2 0x2164 PUSH8 0xE63671AA70FDF534 PUSH1 0xC0 SHL PUSH2 0x14F5 JUMP JUMPDEST PUSH2 0x2178 PUSH8 0xDC5B21EC5417B3CD PUSH1 0xC0 SHL PUSH2 0x14F5 JUMP JUMPDEST PUSH2 0x2183 DUP5 DUP5 DUP5 PUSH2 0x1897 JUMP JUMPDEST PUSH2 0x2197 PUSH8 0xBA5AC36DE887DCC9 PUSH1 0xC0 SHL PUSH2 0x14F5 JUMP JUMPDEST PUSH2 0x21AB PUSH8 0x1A356CC7609CE85B PUSH1 0xC0 SHL PUSH2 0x14F5 JUMP JUMPDEST PUSH2 0x21BF PUSH8 0xA22DA9DD7B871B82 PUSH1 0xC0 SHL PUSH2 0x14F5 JUMP JUMPDEST PUSH2 0x21CB DUP5 DUP5 DUP5 DUP5 PUSH2 0x2B58 JUMP JUMPDEST PUSH2 0x220A JUMPI PUSH1 0x40 MLOAD PUSH32 0x8C379A000000000000000000000000000000000000000000000000000000000 DUP2 MSTORE PUSH1 0x4 ADD PUSH2 0x2201 SWAP1 PUSH2 0x3EE7 JUMP JUMPDEST PUSH1 0x40 MLOAD DUP1 SWAP2 SUB SWAP1 REVERT JUMPDEST PUSH2 0x221E PUSH8 0x48E7294E3E9AA449 PUSH1 0xC0 SHL PUSH2 0x14F5 JUMP JUMPDEST POP POP POP POP JUMP JUMPDEST PUSH2 0x2238 PUSH8 0xAB8B43C91EE61ED PUSH1 0xC0 SHL PUSH2 0x14F5 JUMP JUMPDEST PUSH2 0x224C PUSH8 0x60A260E9195B95B4 PUSH1 0xC0 SHL PUSH2 0x14F5 JUMP JUMPDEST PUSH2 0x2260 PUSH8 0x9C32A087C8926B4D PUSH1 0xC0 SHL PUSH2 0x14F5 JUMP JUMPDEST PUSH2 0x2274 PUSH8 0x5BBA0A4D98FB695D PUSH1 0xC0 SHL PUSH2 0x14F5 JUMP JUMPDEST PUSH1 0x0 PUSH20 0xFFFFFFFFFFFFFFFFFFFFFFFFFFFFFFFFFFFFFFFF AND DUP3 PUSH20 0xFFFFFFFFFFFFFFFFFFFFFFFFFFFFFFFFFFFFFFFF AND SUB PUSH2 0x22E3 JUMPI PUSH1 0x40 MLOAD PUSH32 0x8C379A000000000000000000000000000000000000000000000000000000000 DUP2 MSTORE PUSH1 0x4 ADD PUSH2 0x22DA SWAP1 PUSH2 0x3F53 JUMP JUMPDEST PUSH1 0x40 MLOAD DUP1 SWAP2 SUB SWAP1 REVERT JUMPDEST PUSH2 0x22F7 PUSH8 0x9AE0250189812540 PUSH1 0xC0 SHL PUSH2 0x14F5 JUMP JUMPDEST PUSH2 0x230B PUSH8 0x23475E8E3443E188 PUSH1 0xC0 SHL PUSH2 0x14F5 JUMP JUMPDEST PUSH2 0x231F PUSH8 0x66F4C6756F7B774D PUSH1 0xC0 SHL PUSH2 0x14F5 JUMP JUMPDEST PUSH2 0x2333 PUSH8 0x3D4DCC040A47766D PUSH1 0xC0 SHL PUSH2 0x14F5 JUMP JUMPDEST PUSH2 0x233C DUP2 PUSH2 0x285F JUMP JUMPDEST ISZERO PUSH2 0x237C JUMPI PUSH1 0x40 MLOAD PUSH32 0x8C379A000000000000000000000000000000000000000000000000000000000 DUP2 MSTORE PUSH1 0x4 ADD PUSH2 0x2373 SWAP1 PUSH2 0x3FBF JUMP JUMPDEST PUSH1 0x40 MLOAD DUP1 SWAP2 SUB SWAP1 REVERT JUMPDEST PUSH2 0x2390 PUSH8 0xFA0BFEF38B6C37D8 PUSH1 0xC0 SHL PUSH2 0x14F5 JUMP JUMPDEST PUSH2 0x23A4 PUSH8 0x4442C2875B188ED2 PUSH1 0xC0 SHL PUSH2 0x14F5 JUMP JUMPDEST PUSH2 0x23B8 PUSH8 0x891F87D225AE3624 PUSH1 0xC0 SHL PUSH2 0x14F5 JUMP JUMPDEST PUSH2 0x23C6 PUSH1 0x0 DUP4 DUP4 PUSH1 0x1 PUSH2 0x28DD JUMP JUMPDEST PUSH2 0x23DA PUSH8 0x5ABE25BD88198FAD PUSH1 0xC0 SHL PUSH2 0x14F5 JUMP JUMPDEST PUSH2 0x23EE PUSH8 0x7BC3820CFEBD2F18 PUSH1 0xC0 SHL PUSH2 0x14F5 JUMP JUMPDEST PUSH2 0x2402 PUSH8 0xBC7CD7D35EA1ABD0 PUSH1 0xC0 SHL PUSH2 0x14F5 JUMP JUMPDEST PUSH2 0x240B DUP2 PUSH2 0x285F JUMP JUMPDEST ISZERO PUSH2 0x244B JUMPI PUSH1 0x40 MLOAD PUSH32 0x8C379A000000000000000000000000000000000000000000000000000000000 DUP2 MSTORE PUSH1 0x4 ADD PUSH2 0x2442 SWAP1 PUSH2 0x3FBF JUMP JUMPDEST PUSH1 0x40 MLOAD DUP1 SWAP2 SUB SWAP1 REVERT JUMPDEST PUSH2 0x245F PUSH8 0x684A550E25557281 PUSH1 0xC0 SHL PUSH2 0x14F5 JUMP JUMPDEST PUSH2 0x2473 PUSH8 0xED08303D75B877C6 PUSH1 0xC0 SHL PUSH2 0x14F5 JUMP JUMPDEST PUSH2 0x2487 PUSH8 0x85B57108120F6EDE PUSH1 0xC0 SHL PUSH2 0x14F5 JUMP JUMPDEST PUSH1 0x1 PUSH1 0x3 PUSH1 0x0 DUP5 PUSH20 0xFFFFFFFFFFFFFFFFFFFFFFFFFFFFFFFFFFFFFFFF AND PUSH20 0xFFFFFFFFFFFFFFFFFFFFFFFFFFFFFFFFFFFFFFFF AND DUP2 MSTORE PUSH1 0x20 ADD SWAP1 DUP2 MSTORE PUSH1 0x20 ADD PUSH1 0x0 KECCAK256 PUSH1 0x0 DUP3 DUP3 SLOAD ADD SWAP3 POP POP DUP2 SWAP1 SSTORE POP PUSH2 0x24E9 PUSH8 0xB50AA48DB93AE3B6 PUSH1 0xC0 SHL PUSH2 0x14F5 JUMP JUMPDEST DUP2 PUSH1 0x2 PUSH1 0x0 DUP4 DUP2 MSTORE PUSH1 0x20 ADD SWAP1 DUP2 MSTORE PUSH1 0x20 ADD PUSH1 0x0 KECCAK256 PUSH1 0x0 PUSH2 0x100 EXP DUP2 SLOAD DUP2 PUSH20 0xFFFFFFFFFFFFFFFFFFFFFFFFFFFFFFFFFFFFFFFF MUL NOT AND SWAP1 DUP4 PUSH20 0xFFFFFFFFFFFFFFFFFFFFFFFFFFFFFFFFFFFFFFFF AND MUL OR SWAP1 SSTORE POP PUSH2 0x254F PUSH8 0xA2D65D3ED9293198 PUSH1 0xC0 SHL PUSH2 0x14F5 JUMP JUMPDEST PUSH2 0x2563 PUSH8 0x43886F8C9AAAE1B7 PUSH1 0xC0 SHL PUSH2 0x14F5 JUMP JUMPDEST DUP1 DUP3 PUSH20 0xFFFFFFFFFFFFFFFFFFFFFFFFFFFFFFFFFFFFFFFF AND PUSH1 0x0 PUSH20 0xFFFFFFFFFFFFFFFFFFFFFFFFFFFFFFFFFFFFFFFF AND PUSH32 0xDDF252AD1BE2C89B69C2B068FC378DAA952BA7F163C4A11628F55A4DF523B3EF PUSH1 0x40 MLOAD PUSH1 0x40 MLOAD DUP1 SWAP2 SUB SWAP1 LOG4 PUSH2 0x25D3 PUSH8 0x21F4EB99423F58AD PUSH1 0xC0 SHL PUSH2 0x14F5 JUMP JUMPDEST PUSH2 0x25E7 PUSH8 0x64B4AA0FD566DB0E PUSH1 0xC0 SHL PUSH2 0x14F5 JUMP JUMPDEST PUSH2 0x25F5 PUSH1 0x0 DUP4 DUP4 PUSH1 0x1 PUSH2 0x2B3E JUMP JUMPDEST POP POP JUMP JUMPDEST PUSH2 0x260D PUSH8 0x65357687E50F5748 PUSH1 0xC0 SHL PUSH2 0x26DE JUMP JUMPDEST PUSH2 0x2621 PUSH8 0xC09249D759217D79 PUSH1 0xC0 SHL PUSH2 0x26DE JUMP JUMPDEST PUSH2 0x2635 PUSH8 0x99FCCA5880DC0619 PUSH1 0xC0 SHL PUSH2 0x26DE JUMP JUMPDEST PUSH2 0x2649 PUSH8 0x4B4E251AD0185DB5 PUSH1 0xC0 SHL PUSH2 0x26DE JUMP JUMPDEST PUSH2 0x2652 DUP3 PUSH2 0x285F JUMP JUMPDEST PUSH2 0x2691 JUMPI PUSH1 0x40 MLOAD PUSH32 0x8C379A000000000000000000000000000000000000000000000000000000000 DUP2 MSTORE PUSH1 0x4 ADD PUSH2 0x2688 SWAP1 PUSH2 0x4051 JUMP JUMPDEST PUSH1 0x40 MLOAD DUP1 SWAP2 SUB SWAP1 REVERT JUMPDEST PUSH2 0x26A5 PUSH8 0xAA46CFB109174C96 PUSH1 0xC0 SHL PUSH2 0x26DE JUMP JUMPDEST PUSH2 0x26B9 PUSH8 0x573D14A2D467CDA1 PUSH1 0xC0 SHL PUSH2 0x26DE JUMP JUMPDEST DUP1 PUSH1 0x6 PUSH1 0x0 DUP5 DUP2 MSTORE PUSH1 0x20 ADD SWAP1 DUP2 MSTORE PUSH1 0x20 ADD PUSH1 0x0 KECCAK256 SWAP1 DUP2 PUSH2 0x26D9 SWAP2 SWAP1 PUSH2 0x421D JUMP JUMPDEST POP POP POP JUMP JUMPDEST POP JUMP JUMPDEST PUSH1 0x60 PUSH2 0x26F7 PUSH8 0xA725DF5B2E5AEAF6 PUSH1 0xC0 SHL PUSH2 0x14F5 JUMP JUMPDEST PUSH2 0x270B PUSH8 0x30A3D47F158A0DD PUSH1 0xC0 SHL PUSH2 0x14F5 JUMP JUMPDEST PUSH2 0x271F PUSH8 0x7470879527F47596 PUSH1 0xC0 SHL PUSH2 0x14F5 JUMP JUMPDEST PUSH1 0x40 MLOAD DUP1 PUSH1 0x20 ADD PUSH1 0x40 MSTORE DUP1 PUSH1 0x0 DUP2 MSTORE POP SWAP1 POP SWAP1 JUMP JUMPDEST PUSH1 0x60 PUSH2 0x274A PUSH8 0xA1A55A4B1D37CF92 PUSH1 0xC0 SHL PUSH2 0x14F5 JUMP JUMPDEST PUSH2 0x275E PUSH8 0xED0D68EF590B2B3D PUSH1 0xC0 SHL PUSH2 0x14F5 JUMP JUMPDEST PUSH2 0x2772 PUSH8 0x4BA0E4E10F24D23 PUSH1 0xC0 SHL PUSH2 0x14F5 JUMP JUMPDEST PUSH2 0x277B DUP3 PUSH2 0x156D JUMP JUMPDEST PUSH2 0x278F PUSH8 0x7D7F702DBB6030DF PUSH1 0xC0 SHL PUSH2 0x14F5 JUMP JUMPDEST PUSH2 0x27A3 PUSH8 0x9E8ED01BA84999EA PUSH1 0xC0 SHL PUSH2 0x14F5 JUMP JUMPDEST PUSH1 0x0 PUSH2 0x27AD PUSH2 0x26E1 JUMP JUMPDEST SWAP1 POP PUSH2 0x27C3 PUSH8 0xCF2FC52BDD2F3B60 PUSH1 0xC0 SHL PUSH2 0x14F5 JUMP JUMPDEST PUSH2 0x27D7 PUSH8 0x77FE978EC1B99119 PUSH1 0xC0 SHL PUSH2 0x14F5 JUMP JUMPDEST PUSH1 0x0 DUP2 MLOAD GT DUP1 ISZERO PUSH2 0x27F8 JUMPI POP PUSH2 0x27F7 PUSH8 0xC3C29848B5D28CCA PUSH1 0xC0 SHL PUSH2 0x14F8 JUMP JUMPDEST JUMPDEST DUP1 PUSH2 0x2813 JUMPI POP PUSH2 0x2812 PUSH8 0x5C9E11ED2F892B90 PUSH1 0xC0 SHL PUSH2 0x2E47 JUMP JUMPDEST JUMPDEST PUSH2 0x282C JUMPI PUSH1 0x40 MLOAD DUP1 PUSH1 0x20 ADD PUSH1 0x40 MSTORE DUP1 PUSH1 0x0 DUP2 MSTORE POP PUSH2 0x2857 JUMP JUMPDEST DUP1 PUSH2 0x2836 DUP5 PUSH2 0x2E4E JUMP JUMPDEST PUSH1 0x40 MLOAD PUSH1 0x20 ADD PUSH2 0x2847 SWAP3 SWAP2 SWAP1 PUSH2 0x3BC3 JUMP JUMPDEST PUSH1 0x40 MLOAD PUSH1 0x20 DUP2 DUP4 SUB SUB DUP2 MSTORE SWAP1 PUSH1 0x40 MSTORE JUMPDEST SWAP2 POP POP SWAP2 SWAP1 POP JUMP JUMPDEST PUSH1 0x0 PUSH2 0x2875 PUSH8 0x48BF28FEFDC1CFCB PUSH1 0xC0 SHL PUSH2 0x14F5 JUMP JUMPDEST PUSH2 0x2889 PUSH8 0x9C4FD0B9980258CD PUSH1 0xC0 SHL PUSH2 0x14F5 JUMP JUMPDEST PUSH2 0x289D PUSH8 0x9F92F07E18206145 PUSH1 0xC0 SHL PUSH2 0x14F5 JUMP JUMPDEST PUSH1 0x0 PUSH20 0xFFFFFFFFFFFFFFFFFFFFFFFFFFFFFFFFFFFFFFFF AND PUSH2 0x28BE DUP4 PUSH2 0x1D70 JUMP JUMPDEST PUSH20 0xFFFFFFFFFFFFFFFFFFFFFFFFFFFFFFFFFFFFFFFF AND EQ ISZERO SWAP1 POP SWAP2 SWAP1 POP JUMP JUMPDEST PUSH2 0x28F1 PUSH8 0xDDD51114502C3A45 PUSH1 0xC0 SHL PUSH2 0x14F5 JUMP JUMPDEST PUSH2 0x2905 PUSH8 0x1864672CD2377B2F PUSH1 0xC0 SHL PUSH2 0x14F5 JUMP JUMPDEST PUSH2 0x2919 PUSH8 0x5AFEB855C050C6B6 PUSH1 0xC0 SHL PUSH2 0x14F5 JUMP JUMPDEST PUSH1 0x1 DUP2 GT ISZERO PUSH2 0x2B23 JUMPI PUSH2 0x2936 PUSH8 0x947C940BF2ACD3DB PUSH1 0xC0 SHL PUSH2 0x14F5 JUMP JUMPDEST PUSH2 0x294A PUSH8 0xF39FB49855D33616 PUSH1 0xC0 SHL PUSH2 0x14F5 JUMP JUMPDEST PUSH2 0x295E PUSH8 0xAF3E58A2BF3A6F7C PUSH1 0xC0 SHL PUSH2 0x14F5 JUMP JUMPDEST PUSH1 0x0 PUSH20 0xFFFFFFFFFFFFFFFFFFFFFFFFFFFFFFFFFFFFFFFF AND DUP5 PUSH20 0xFFFFFFFFFFFFFFFFFFFFFFFFFFFFFFFFFFFFFFFF AND EQ PUSH2 0x2A15 JUMPI PUSH2 0x29A6 PUSH8 0xAE54763280A52ADC PUSH1 0xC0 SHL PUSH2 0x14F5 JUMP JUMPDEST PUSH2 0x29BA PUSH8 0x198B80818A7E3D8C PUSH1 0xC0 SHL PUSH2 0x14F5 JUMP JUMPDEST DUP1 PUSH1 0x3 PUSH1 0x0 DUP7 PUSH20 0xFFFFFFFFFFFFFFFFFFFFFFFFFFFFFFFFFFFFFFFF AND PUSH20 0xFFFFFFFFFFFFFFFFFFFFFFFFFFFFFFFFFFFFFFFF AND DUP2 MSTORE PUSH1 0x20 ADD SWAP1 DUP2 MSTORE PUSH1 0x20 ADD PUSH1 0x0 KECCAK256 PUSH1 0x0 DUP3 DUP3 SLOAD PUSH2 0x2A09 SWAP2 SWAP1 PUSH2 0x42EF JUMP JUMPDEST SWAP3 POP POP DUP2 SWAP1 SSTORE POP PUSH2 0x2A2A JUMP JUMPDEST PUSH2 0x2A29 PUSH8 0xFDF3640876A87D48 PUSH1 0xC0 SHL PUSH2 0x14F5 JUMP JUMPDEST JUMPDEST PUSH2 0x2A3E PUSH8 0xD545C3382901AFD3 PUSH1 0xC0 SHL PUSH2 0x14F5 JUMP JUMPDEST PUSH2 0x2A52 PUSH8 0xCA27063177D22E50 PUSH1 0xC0 SHL PUSH2 0x14F5 JUMP JUMPDEST PUSH1 0x0 PUSH20 0xFFFFFFFFFFFFFFFFFFFFFFFFFFFFFFFFFFFFFFFF AND DUP4 PUSH20 0xFFFFFFFFFFFFFFFFFFFFFFFFFFFFFFFFFFFFFFFF AND EQ PUSH2 0x2B09 JUMPI PUSH2 0x2A9A PUSH8 0x80F88D871B52E700 PUSH1 0xC0 SHL PUSH2 0x14F5 JUMP JUMPDEST PUSH2 0x2AAE PUSH8 0xFD62D7F13AC679D9 PUSH1 0xC0 SHL PUSH2 0x14F5 JUMP JUMPDEST DUP1 PUSH1 0x3 PUSH1 0x0 DUP6 PUSH20 0xFFFFFFFFFFFFFFFFFFFFFFFFFFFFFFFFFFFFFFFF AND PUSH20 0xFFFFFFFFFFFFFFFFFFFFFFFFFFFFFFFFFFFFFFFF AND DUP2 MSTORE PUSH1 0x20 ADD SWAP1 DUP2 MSTORE PUSH1 0x20 ADD PUSH1 0x0 KECCAK256 PUSH1 0x0 DUP3 DUP3 SLOAD PUSH2 0x2AFD SWAP2 SWAP1 PUSH2 0x3B0B JUMP JUMPDEST SWAP3 POP POP DUP2 SWAP1 SSTORE POP PUSH2 0x2B1E JUMP JUMPDEST PUSH2 0x2B1D PUSH8 0x787D732C1CF0CDCF PUSH1 0xC0 SHL PUSH2 0x14F5 JUMP JUMPDEST JUMPDEST PUSH2 0x2B38 JUMP JUMPDEST PUSH2 0x2B37 PUSH8 0xBA3BC9C80383F88 PUSH1 0xC0 SHL PUSH2 0x14F5 JUMP JUMPDEST JUMPDEST POP POP POP POP JUMP JUMPDEST PUSH2 0x2B52 PUSH8 0x3BC1522AEFAB759B PUSH1 0xC0 SHL PUSH2 0x14F5 JUMP JUMPDEST POP POP POP POP JUMP JUMPDEST PUSH1 0x0 PUSH2 0x2B6E PUSH8 0x4D354D3232E2185A PUSH1 0xC0 SHL PUSH2 0x14F5 JUMP JUMPDEST PUSH2 0x2B82 PUSH8 0xC909C1CEA4FA92AA PUSH1 0xC0 SHL PUSH2 0x14F5 JUMP JUMPDEST PUSH2 0x2B96 PUSH8 0xDA93EB103788BDB9 PUSH1 0xC0 SHL PUSH2 0x14F5 JUMP JUMPDEST PUSH2 0x2BB5 DUP5 PUSH20 0xFFFFFFFFFFFFFFFFFFFFFFFFFFFFFFFFFFFFFFFF AND PUSH2 0x2F1C JUMP JUMPDEST ISZERO PUSH2 0x2DFE JUMPI PUSH2 0x2BCE PUSH8 0x9698705EC07098D0 PUSH1 0xC0 SHL PUSH2 0x14F5 JUMP JUMPDEST PUSH2 0x2BE2 PUSH8 0x775B1F20268C2CA1 PUSH1 0xC0 SHL PUSH2 0x14F5 JUMP JUMPDEST PUSH2 0x2BF6 PUSH8 0x92A167377D3135F1 PUSH1 0xC0 SHL PUSH2 0x14F5 JUMP JUMPDEST DUP4 PUSH20 0xFFFFFFFFFFFFFFFFFFFFFFFFFFFFFFFFFFFFFFFF AND PUSH4 0x150B7A02 PUSH2 0x2C1A PUSH2 0x161C JUMP JUMPDEST DUP8 DUP7 DUP7 PUSH1 0x40 MLOAD DUP6 PUSH4 0xFFFFFFFF AND PUSH1 0xE0 SHL DUP2 MSTORE PUSH1 0x4 ADD PUSH2 0x2C3C SWAP5 SWAP4 SWAP3 SWAP2 SWAP1 PUSH2 0x4378 JUMP JUMPDEST PUSH1 0x20 PUSH1 0x40 MLOAD DUP1 DUP4 SUB DUP2 PUSH1 0x0 DUP8 GAS CALL SWAP3 POP POP POP DUP1 ISZERO PUSH2 0x2C78 JUMPI POP PUSH1 0x40 MLOAD RETURNDATASIZE PUSH1 0x1F NOT PUSH1 0x1F DUP3 ADD AND DUP3 ADD DUP1 PUSH1 0x40 MSTORE POP DUP2 ADD SWAP1 PUSH2 0x2C75 SWAP2 SWAP1 PUSH2 0x43D9 JUMP JUMPDEST PUSH1 0x1 JUMPDEST PUSH2 0x2D86 JUMPI RETURNDATASIZE DUP1 PUSH1 0x0 DUP2 EQ PUSH2 0x2CA8 JUMPI PUSH1 0x40 MLOAD SWAP2 POP PUSH1 0x1F NOT PUSH1 0x3F RETURNDATASIZE ADD AND DUP3 ADD PUSH1 0x40 MSTORE RETURNDATASIZE DUP3 MSTORE RETURNDATASIZE PUSH1 0x0 PUSH1 0x20 DUP5 ADD RETURNDATACOPY PUSH2 0x2CAD JUMP JUMPDEST PUSH1 0x60 SWAP2 POP JUMPDEST POP PUSH2 0x2CC2 PUSH8 0xDFE8A47F5D3C5985 PUSH1 0xC0 SHL PUSH2 0x14F5 JUMP JUMPDEST PUSH2 0x2CD6 PUSH8 0xB9324427E18C694D PUSH1 0xC0 SHL PUSH2 0x14F5 JUMP JUMPDEST PUSH1 0x0 DUP2 MLOAD SUB PUSH2 0x2D56 JUMPI PUSH2 0x2CF3 PUSH8 0x4DE780B7E1107367 PUSH1 0xC0 SHL PUSH2 0x14F5 JUMP JUMPDEST PUSH2 0x2D07 PUSH8 0x55375223FB938C2F PUSH1 0xC0 SHL PUSH2 0x14F5 JUMP JUMPDEST PUSH2 0x2D1B PUSH8 0xD981750538942991 PUSH1 0xC0 SHL PUSH2 0x14F5 JUMP JUMPDEST PUSH1 0x40 MLOAD PUSH32 0x8C379A000000000000000000000000000000000000000000000000000000000 DUP2 MSTORE PUSH1 0x4 ADD PUSH2 0x2D4D SWAP1 PUSH2 0x3EE7 JUMP JUMPDEST PUSH1 0x40 MLOAD DUP1 SWAP2 SUB SWAP1 REVERT JUMPDEST PUSH2 0x2D6A PUSH8 0x17A313605D8FE43 PUSH1 0xC0 SHL PUSH2 0x14F5 JUMP JUMPDEST PUSH2 0x2D7E PUSH8 0xAF98F68EBC3AFB3E PUSH1 0xC0 SHL PUSH2 0x14F5 JUMP JUMPDEST DUP1 MLOAD DUP2 PUSH1 0x20 ADD REVERT JUMPDEST PUSH2 0x2D9A PUSH8 0xD8D256FD5DFC06B8 PUSH1 0xC0 SHL PUSH2 0x14F5 JUMP JUMPDEST PUSH2 0x2DAE PUSH8 0x548C48B794153CA PUSH1 0xC0 SHL PUSH2 0x14F5 JUMP JUMPDEST PUSH4 0x150B7A02 PUSH1 0xE0 SHL PUSH28 0xFFFFFFFFFFFFFFFFFFFFFFFFFFFFFFFFFFFFFFFFFFFFFFFFFFFFFFFF NOT AND DUP2 PUSH28 0xFFFFFFFFFFFFFFFFFFFFFFFFFFFFFFFFFFFFFFFFFFFFFFFFFFFFFFFF NOT AND EQ SWAP2 POP POP PUSH2 0x2E3F JUMP JUMPDEST PUSH2 0x2E12 PUSH8 0x61795E48E677E20E PUSH1 0xC0 SHL PUSH2 0x14F5 JUMP JUMPDEST PUSH2 0x2E26 PUSH8 0xB6B92E8D68741C08 PUSH1 0xC0 SHL PUSH2 0x14F5 JUMP JUMPDEST PUSH2 0x2E3A PUSH8 0xBF5C21A2C258ABE0 PUSH1 0xC0 SHL PUSH2 0x14F5 JUMP JUMPDEST PUSH1 0x1 SWAP1 POP JUMPDEST SWAP5 SWAP4 POP POP POP POP JUMP JUMPDEST PUSH1 0x0 SWAP2 SWAP1 POP JUMP JUMPDEST PUSH1 0x60 PUSH1 0x0 PUSH1 0x1 PUSH2 0x2E5D DUP5 PUSH2 0x2F3F JUMP JUMPDEST ADD SWAP1 POP PUSH1 0x0 DUP2 PUSH8 0xFFFFFFFFFFFFFFFF DUP2 GT ISZERO PUSH2 0x2E7C JUMPI PUSH2 0x2E7B PUSH2 0x345E JUMP JUMPDEST JUMPDEST PUSH1 0x40 MLOAD SWAP1 DUP1 DUP3 MSTORE DUP1 PUSH1 0x1F ADD PUSH1 0x1F NOT AND PUSH1 0x20 ADD DUP3 ADD PUSH1 0x40 MSTORE DUP1 ISZERO PUSH2 0x2EAE JUMPI DUP2 PUSH1 0x20 ADD PUSH1 0x1 DUP3 MUL DUP1 CALLDATASIZE DUP4 CALLDATACOPY DUP1 DUP3 ADD SWAP2 POP POP SWAP1 POP JUMPDEST POP SWAP1 POP PUSH1 0x0 DUP3 PUSH1 0x20 ADD DUP3 ADD SWAP1 POP JUMPDEST PUSH1 0x1 ISZERO PUSH2 0x2F11 JUMPI DUP1 DUP1 PUSH1 0x1 SWAP1 SUB SWAP2 POP POP PUSH32 0x3031323334353637383961626364656600000000000000000000000000000000 PUSH1 0xA DUP7 MOD BYTE DUP2 MSTORE8 PUSH1 0xA DUP6 DUP2 PUSH2 0x2F05 JUMPI PUSH2 0x2F04 PUSH2 0x4406 JUMP JUMPDEST JUMPDEST DIV SWAP5 POP PUSH1 0x0 DUP6 SUB PUSH2 0x2EBC JUMPI JUMPDEST DUP2 SWAP4 POP POP POP POP SWAP2 SWAP1 POP JUMP JUMPDEST PUSH1 0x0 DUP1 DUP3 PUSH20 0xFFFFFFFFFFFFFFFFFFFFFFFFFFFFFFFFFFFFFFFF AND EXTCODESIZE GT SWAP1 POP SWAP2 SWAP1 POP JUMP JUMPDEST PUSH1 0x0 DUP1 PUSH1 0x0 SWAP1 POP PUSH27 0x184F03E93FF9F4DAA797ED6E38ED64BF6A1F010000000000000000 DUP4 LT PUSH2 0x2F9D JUMPI PUSH27 0x184F03E93FF9F4DAA797ED6E38ED64BF6A1F010000000000000000 DUP4 DUP2 PUSH2 0x2F93 JUMPI PUSH2 0x2F92 PUSH2 0x4406 JUMP JUMPDEST JUMPDEST DIV SWAP3 POP PUSH1 0x40 DUP2 ADD SWAP1 POP JUMPDEST PUSH14 0x4EE2D6D415B85ACEF8100000000 DUP4 LT PUSH2 0x2FDA JUMPI PUSH14 0x4EE2D6D415B85ACEF8100000000 DUP4 DUP2 PUSH2 0x2FD0 JUMPI PUSH2 0x2FCF PUSH2 0x4406 JUMP JUMPDEST JUMPDEST DIV SWAP3 POP PUSH1 0x20 DUP2 ADD SWAP1 POP JUMPDEST PUSH7 0x2386F26FC10000 DUP4 LT PUSH2 0x3009 JUMPI PUSH7 0x2386F26FC10000 DUP4 DUP2 PUSH2 0x2FFF JUMPI PUSH2 0x2FFE PUSH2 0x4406 JUMP JUMPDEST JUMPDEST DIV SWAP3 POP PUSH1 0x10 DUP2 ADD SWAP1 POP JUMPDEST PUSH4 0x5F5E100 DUP4 LT PUSH2 0x3032 JUMPI PUSH4 0x5F5E100 DUP4 DUP2 PUSH2 0x3028 JUMPI PUSH2 0x3027 PUSH2 0x4406 JUMP JUMPDEST JUMPDEST DIV SWAP3 POP PUSH1 0x8 DUP2 ADD SWAP1 POP JUMPDEST PUSH2 0x2710 DUP4 LT PUSH2 0x3057 JUMPI PUSH2 0x2710 DUP4 DUP2 PUSH2 0x304D JUMPI PUSH2 0x304C PUSH2 0x4406 JUMP JUMPDEST JUMPDEST DIV SWAP3 POP PUSH1 0x4 DUP2 ADD SWAP1 POP JUMPDEST PUSH1 0x64 DUP4 LT PUSH2 0x307A JUMPI PUSH1 0x64 DUP4 DUP2 PUSH2 0x3070 JUMPI PUSH2 0x306F PUSH2 0x4406 JUMP JUMPDEST JUMPDEST DIV SWAP3 POP PUSH1 0x2 DUP2 ADD SWAP1 POP JUMPDEST PUSH1 0xA DUP4 LT PUSH2 0x3089 JUMPI PUSH1 0x1 DUP2 ADD SWAP1 POP JUMPDEST DUP1 SWAP2 POP POP SWAP2 SWAP1 POP JUMP JUMPDEST PUSH1 0x0 PUSH1 0x40 MLOAD SWAP1 POP SWAP1 JUMP JUMPDEST PUSH1 0x0 DUP1 REVERT JUMPDEST PUSH1 0x0 DUP1 REVERT JUMPDEST PUSH1 0x0 PUSH32 0xFFFFFFFF00000000000000000000000000000000000000000000000000000000 DUP3 AND SWAP1 POP SWAP2 SWAP1 POP JUMP JUMPDEST PUSH2 0x30DB DUP2 PUSH2 0x30A6 JUMP JUMPDEST DUP2 EQ PUSH2 0x30E6 JUMPI PUSH1 0x0 DUP1 REVERT JUMPDEST POP JUMP JUMPDEST PUSH1 0x0 DUP2 CALLDATALOAD SWAP1 POP PUSH2 0x30F8 DUP2 PUSH2 0x30D2 JUMP JUMPDEST SWAP3 SWAP2 POP POP JUMP JUMPDEST PUSH1 0x0 PUSH1 0x20 DUP3 DUP5 SUB SLT ISZERO PUSH2 0x3114 JUMPI PUSH2 0x3113 PUSH2 0x309C JUMP JUMPDEST JUMPDEST PUSH1 0x0 PUSH2 0x3122 DUP5 DUP3 DUP6 ADD PUSH2 0x30E9 JUMP JUMPDEST SWAP2 POP POP SWAP3 SWAP2 POP POP JUMP JUMPDEST PUSH1 0x0 DUP2 ISZERO ISZERO SWAP1 POP SWAP2 SWAP1 POP JUMP JUMPDEST PUSH2 0x3140 DUP2 PUSH2 0x312B JUMP JUMPDEST DUP3 MSTORE POP POP JUMP JUMPDEST PUSH1 0x0 PUSH1 0x20 DUP3 ADD SWAP1 POP PUSH2 0x315B PUSH1 0x0 DUP4 ADD DUP5 PUSH2 0x3137 JUMP JUMPDEST SWAP3 SWAP2 POP POP JUMP JUMPDEST PUSH1 0x0 DUP2 MLOAD SWAP1 POP SWAP2 SWAP1 POP JUMP JUMPDEST PUSH1 0x0 DUP3 DUP3 MSTORE PUSH1 0x20 DUP3 ADD SWAP1 POP SWAP3 SWAP2 POP POP JUMP JUMPDEST PUSH1 0x0 JUMPDEST DUP4 DUP2 LT ISZERO PUSH2 0x319B JUMPI DUP1 DUP3 ADD MLOAD DUP2 DUP5 ADD MSTORE PUSH1 0x20 DUP2 ADD SWAP1 POP PUSH2 0x3180 JUMP JUMPDEST PUSH1 0x0 DUP5 DUP5 ADD MSTORE POP POP POP POP JUMP JUMPDEST PUSH1 0x0 PUSH1 0x1F NOT PUSH1 0x1F DUP4 ADD AND SWAP1 POP SWAP2 SWAP1 POP JUMP JUMPDEST PUSH1 0x0 PUSH2 0x31C3 DUP3 PUSH2 0x3161 JUMP JUMPDEST PUSH2 0x31CD DUP2 DUP6 PUSH2 0x316C JUMP JUMPDEST SWAP4 POP PUSH2 0x31DD DUP2 DUP6 PUSH1 0x20 DUP7 ADD PUSH2 0x317D JUMP JUMPDEST PUSH2 0x31E6 DUP2 PUSH2 0x31A7 JUMP JUMPDEST DUP5 ADD SWAP2 POP POP SWAP3 SWAP2 POP POP JUMP JUMPDEST PUSH1 0x0 PUSH1 0x20 DUP3 ADD SWAP1 POP DUP2 DUP2 SUB PUSH1 0x0 DUP4 ADD MSTORE PUSH2 0x320B DUP2 DUP5 PUSH2 0x31B8 JUMP JUMPDEST SWAP1 POP SWAP3 SWAP2 POP POP JUMP JUMPDEST PUSH1 0x0 DUP2 SWAP1 POP SWAP2 SWAP1 POP JUMP JUMPDEST PUSH2 0x3226 DUP2 PUSH2 0x3213 JUMP JUMPDEST DUP2 EQ PUSH2 0x3231 JUMPI PUSH1 0x0 DUP1 REVERT JUMPDEST POP JUMP JUMPDEST PUSH1 0x0 DUP2 CALLDATALOAD SWAP1 POP PUSH2 0x3243 DUP2 PUSH2 0x321D JUMP JUMPDEST SWAP3 SWAP2 POP POP JUMP JUMPDEST PUSH1 0x0 PUSH1 0x20 DUP3 DUP5 SUB SLT ISZERO PUSH2 0x325F JUMPI PUSH2 0x325E PUSH2 0x309C JUMP JUMPDEST JUMPDEST PUSH1 0x0 PUSH2 0x326D DUP5 DUP3 DUP6 ADD PUSH2 0x3234 JUMP JUMPDEST SWAP2 POP POP SWAP3 SWAP2 POP POP JUMP JUMPDEST PUSH1 0x0 PUSH20 0xFFFFFFFFFFFFFFFFFFFFFFFFFFFFFFFFFFFFFFFF DUP3 AND SWAP1 POP SWAP2 SWAP1 POP JUMP JUMPDEST PUSH1 0x0 PUSH2 0x32A1 DUP3 PUSH2 0x3276 JUMP JUMPDEST SWAP1 POP SWAP2 SWAP1 POP JUMP JUMPDEST PUSH2 0x32B1 DUP2 PUSH2 0x3296 JUMP JUMPDEST DUP3 MSTORE POP POP JUMP JUMPDEST PUSH1 0x0 PUSH1 0x20 DUP3 ADD SWAP1 POP PUSH2 0x32CC PUSH1 0x0 DUP4 ADD DUP5 PUSH2 0x32A8 JUMP JUMPDEST SWAP3 SWAP2 POP POP JUMP JUMPDEST PUSH2 0x32DB DUP2 PUSH2 0x3296 JUMP JUMPDEST DUP2 EQ PUSH2 0x32E6 JUMPI PUSH1 0x0 DUP1 REVERT JUMPDEST POP JUMP JUMPDEST PUSH1 0x0 DUP2 CALLDATALOAD SWAP1 POP PUSH2 0x32F8 DUP2 PUSH2 0x32D2 JUMP JUMPDEST SWAP3 SWAP2 POP POP JUMP JUMPDEST PUSH1 0x0 DUP1 PUSH1 0x40 DUP4 DUP6 SUB SLT ISZERO PUSH2 0x3315 JUMPI PUSH2 0x3314 PUSH2 0x309C JUMP JUMPDEST JUMPDEST PUSH1 0x0 PUSH2 0x3323 DUP6 DUP3 DUP7 ADD PUSH2 0x32E9 JUMP JUMPDEST SWAP3 POP POP PUSH1 0x20 PUSH2 0x3334 DUP6 DUP3 DUP7 ADD PUSH2 0x3234 JUMP JUMPDEST SWAP2 POP POP SWAP3 POP SWAP3 SWAP1 POP JUMP JUMPDEST PUSH1 0x0 DUP1 PUSH1 0x0 PUSH1 0x60 DUP5 DUP7 SUB SLT ISZERO PUSH2 0x3357 JUMPI PUSH2 0x3356 PUSH2 0x309C JUMP JUMPDEST JUMPDEST PUSH1 0x0 PUSH2 0x3365 DUP7 DUP3 DUP8 ADD PUSH2 0x32E9 JUMP JUMPDEST SWAP4 POP POP PUSH1 0x20 PUSH2 0x3376 DUP7 DUP3 DUP8 ADD PUSH2 0x32E9 JUMP JUMPDEST SWAP3 POP POP PUSH1 0x40 PUSH2 0x3387 DUP7 DUP3 DUP8 ADD PUSH2 0x3234 JUMP JUMPDEST SWAP2 POP POP SWAP3 POP SWAP3 POP SWAP3 JUMP JUMPDEST PUSH1 0x0 PUSH1 0x20 DUP3 DUP5 SUB SLT ISZERO PUSH2 0x33A7 JUMPI PUSH2 0x33A6 PUSH2 0x309C JUMP JUMPDEST JUMPDEST PUSH1 0x0 PUSH2 0x33B5 DUP5 DUP3 DUP6 ADD PUSH2 0x32E9 JUMP JUMPDEST SWAP2 POP POP SWAP3 SWAP2 POP POP JUMP JUMPDEST PUSH2 0x33C7 DUP2 PUSH2 0x3213 JUMP JUMPDEST DUP3 MSTORE POP POP JUMP JUMPDEST PUSH1 0x0 PUSH1 0x20 DUP3 ADD SWAP1 POP PUSH2 0x33E2 PUSH1 0x0 DUP4 ADD DUP5 PUSH2 0x33BE JUMP JUMPDEST SWAP3 SWAP2 POP POP JUMP JUMPDEST PUSH2 0x33F1 DUP2 PUSH2 0x312B JUMP JUMPDEST DUP2 EQ PUSH2 0x33FC JUMPI PUSH1 0x0 DUP1 REVERT JUMPDEST POP JUMP JUMPDEST PUSH1 0x0 DUP2 CALLDATALOAD SWAP1 POP PUSH2 0x340E DUP2 PUSH2 0x33E8 JUMP JUMPDEST SWAP3 SWAP2 POP POP JUMP JUMPDEST PUSH1 0x0 DUP1 PUSH1 0x40 DUP4 DUP6 SUB SLT ISZERO PUSH2 0x342B JUMPI PUSH2 0x342A PUSH2 0x309C JUMP JUMPDEST JUMPDEST PUSH1 0x0 PUSH2 0x3439 DUP6 DUP3 DUP7 ADD PUSH2 0x32E9 JUMP JUMPDEST SWAP3 POP POP PUSH1 0x20 PUSH2 0x344A DUP6 DUP3 DUP7 ADD PUSH2 0x33FF JUMP JUMPDEST SWAP2 POP POP SWAP3 POP SWAP3 SWAP1 POP JUMP JUMPDEST PUSH1 0x0 DUP1 REVERT JUMPDEST PUSH1 0x0 DUP1 REVERT JUMPDEST PUSH32 0x4E487B7100000000000000000000000000000000000000000000000000000000 PUSH1 0x0 MSTORE PUSH1 0x41 PUSH1 0x4 MSTORE PUSH1 0x24 PUSH1 0x0 REVERT JUMPDEST PUSH2 0x3496 DUP3 PUSH2 0x31A7 JUMP JUMPDEST DUP2 ADD DUP2 DUP2 LT PUSH8 0xFFFFFFFFFFFFFFFF DUP3 GT OR ISZERO PUSH2 0x34B5 JUMPI PUSH2 0x34B4 PUSH2 0x345E JUMP JUMPDEST JUMPDEST DUP1 PUSH1 0x40 MSTORE POP POP POP JUMP JUMPDEST PUSH1 0x0 PUSH2 0x34C8 PUSH2 0x3092 JUMP JUMPDEST SWAP1 POP PUSH2 0x34D4 DUP3 DUP3 PUSH2 0x348D JUMP JUMPDEST SWAP2 SWAP1 POP JUMP JUMPDEST PUSH1 0x0 PUSH8 0xFFFFFFFFFFFFFFFF DUP3 GT ISZERO PUSH2 0x34F4 JUMPI PUSH2 0x34F3 PUSH2 0x345E JUMP JUMPDEST JUMPDEST PUSH2 0x34FD DUP3 PUSH2 0x31A7 JUMP JUMPDEST SWAP1 POP PUSH1 0x20 DUP2 ADD SWAP1 POP SWAP2 SWAP1 POP JUMP JUMPDEST DUP3 DUP2 DUP4 CALLDATACOPY PUSH1 0x0 DUP4 DUP4 ADD MSTORE POP POP POP JUMP JUMPDEST PUSH1 0x0 PUSH2 0x352C PUSH2 0x3527 DUP5 PUSH2 0x34D9 JUMP JUMPDEST PUSH2 0x34BE JUMP JUMPDEST SWAP1 POP DUP3 DUP2 MSTORE PUSH1 0x20 DUP2 ADD DUP5 DUP5 DUP5 ADD GT ISZERO PUSH2 0x3548 JUMPI PUSH2 0x3547 PUSH2 0x3459 JUMP JUMPDEST JUMPDEST PUSH2 0x3553 DUP5 DUP3 DUP6 PUSH2 0x350A JUMP JUMPDEST POP SWAP4 SWAP3 POP POP POP JUMP JUMPDEST PUSH1 0x0 DUP3 PUSH1 0x1F DUP4 ADD SLT PUSH2 0x3570 JUMPI PUSH2 0x356F PUSH2 0x3454 JUMP JUMPDEST JUMPDEST DUP2 CALLDATALOAD PUSH2 0x3580 DUP5 DUP3 PUSH1 0x20 DUP7 ADD PUSH2 0x3519 JUMP JUMPDEST SWAP2 POP POP SWAP3 SWAP2 POP POP JUMP JUMPDEST PUSH1 0x0 DUP1 PUSH1 0x0 DUP1 PUSH1 0x80 DUP6 DUP8 SUB SLT ISZERO PUSH2 0x35A3 JUMPI PUSH2 0x35A2 PUSH2 0x309C JUMP JUMPDEST JUMPDEST PUSH1 0x0 PUSH2 0x35B1 DUP8 DUP3 DUP9 ADD PUSH2 0x32E9 JUMP JUMPDEST SWAP5 POP POP PUSH1 0x20 PUSH2 0x35C2 DUP8 DUP3 DUP9 ADD PUSH2 0x32E9 JUMP JUMPDEST SWAP4 POP POP PUSH1 0x40 PUSH2 0x35D3 DUP8 DUP3 DUP9 ADD PUSH2 0x3234 JUMP JUMPDEST SWAP3 POP POP PUSH1 0x60 DUP6 ADD CALLDATALOAD PUSH8 0xFFFFFFFFFFFFFFFF DUP2 GT ISZERO PUSH2 0x35F4 JUMPI PUSH2 0x35F3 PUSH2 0x30A1 JUMP JUMPDEST JUMPDEST PUSH2 0x3600 DUP8 DUP3 DUP9 ADD PUSH2 0x355B JUMP JUMPDEST SWAP2 POP POP SWAP3 SWAP6 SWAP2 SWAP5 POP SWAP3 POP JUMP JUMPDEST PUSH1 0x0 PUSH8 0xFFFFFFFFFFFFFFFF DUP3 GT ISZERO PUSH2 0x3627 JUMPI PUSH2 0x3626 PUSH2 0x345E JUMP JUMPDEST JUMPDEST PUSH2 0x3630 DUP3 PUSH2 0x31A7 JUMP JUMPDEST SWAP1 POP PUSH1 0x20 DUP2 ADD SWAP1 POP SWAP2 SWAP1 POP JUMP JUMPDEST PUSH1 0x0 PUSH2 0x3650 PUSH2 0x364B DUP5 PUSH2 0x360C JUMP JUMPDEST PUSH2 0x34BE JUMP JUMPDEST SWAP1 POP DUP3 DUP2 MSTORE PUSH1 0x20 DUP2 ADD DUP5 DUP5 DUP5 ADD GT ISZERO PUSH2 0x366C JUMPI PUSH2 0x366B PUSH2 0x3459 JUMP JUMPDEST JUMPDEST PUSH2 0x3677 DUP5 DUP3 DUP6 PUSH2 0x350A JUMP JUMPDEST POP SWAP4 SWAP3 POP POP POP JUMP JUMPDEST PUSH1 0x0 DUP3 PUSH1 0x1F DUP4 ADD SLT PUSH2 0x3694 JUMPI PUSH2 0x3693 PUSH2 0x3454 JUMP JUMPDEST JUMPDEST DUP2 CALLDATALOAD PUSH2 0x36A4 DUP5 DUP3 PUSH1 0x20 DUP7 ADD PUSH2 0x363D JUMP JUMPDEST SWAP2 POP POP SWAP3 SWAP2 POP POP JUMP JUMPDEST PUSH1 0x0 PUSH1 0x20 DUP3 DUP5 SUB SLT ISZERO PUSH2 0x36C3 JUMPI PUSH2 0x36C2 PUSH2 0x309C JUMP JUMPDEST JUMPDEST PUSH1 0x0 DUP3 ADD CALLDATALOAD PUSH8 0xFFFFFFFFFFFFFFFF DUP2 GT ISZERO PUSH2 0x36E1 JUMPI PUSH2 0x36E0 PUSH2 0x30A1 JUMP JUMPDEST JUMPDEST PUSH2 0x36ED DUP5 DUP3 DUP6 ADD PUSH2 0x367F JUMP JUMPDEST SWAP2 POP POP SWAP3 SWAP2 POP POP JUMP JUMPDEST PUSH1 0x0 DUP1 PUSH1 0x40 DUP4 DUP6 SUB SLT ISZERO PUSH2 0x370D JUMPI PUSH2 0x370C PUSH2 0x309C JUMP JUMPDEST JUMPDEST PUSH1 0x0 PUSH2 0x371B DUP6 DUP3 DUP7 ADD PUSH2 0x32E9 JUMP JUMPDEST SWAP3 POP POP PUSH1 0x20 PUSH2 0x372C DUP6 DUP3 DUP7 ADD PUSH2 0x32E9 JUMP JUMPDEST SWAP2 POP POP SWAP3 POP SWAP3 SWAP1 POP JUMP JUMPDEST PUSH32 0x4E487B7100000000000000000000000000000000000000000000000000000000 PUSH1 0x0 MSTORE PUSH1 0x22 PUSH1 0x4 MSTORE PUSH1 0x24 PUSH1 0x0 REVERT JUMPDEST PUSH1 0x0 PUSH1 0x2 DUP3 DIV SWAP1 POP PUSH1 0x1 DUP3 AND DUP1 PUSH2 0x377D JUMPI PUSH1 0x7F DUP3 AND SWAP2 POP JUMPDEST PUSH1 0x20 DUP3 LT DUP2 SUB PUSH2 0x3790 JUMPI PUSH2 0x378F PUSH2 0x3736 JUMP JUMPDEST JUMPDEST POP SWAP2 SWAP1 POP JUMP JUMPDEST PUSH32 0x4552433732313A20617070726F76616C20746F2063757272656E74206F776E65 PUSH1 0x0 DUP3 ADD MSTORE PUSH32 0x7200000000000000000000000000000000000000000000000000000000000000 PUSH1 0x20 DUP3 ADD MSTORE POP JUMP JUMPDEST PUSH1 0x0 PUSH2 0x37F2 PUSH1 0x21 DUP4 PUSH2 0x316C JUMP JUMPDEST SWAP2 POP PUSH2 0x37FD DUP3 PUSH2 0x3796 JUMP JUMPDEST PUSH1 0x40 DUP3 ADD SWAP1 POP SWAP2 SWAP1 POP JUMP JUMPDEST PUSH1 0x0 PUSH1 0x20 DUP3 ADD SWAP1 POP DUP2 DUP2 SUB PUSH1 0x0 DUP4 ADD MSTORE PUSH2 0x3821 DUP2 PUSH2 0x37E5 JUMP JUMPDEST SWAP1 POP SWAP2 SWAP1 POP JUMP JUMPDEST PUSH32 0x4552433732313A20617070726F76652063616C6C6572206973206E6F7420746F PUSH1 0x0 DUP3 ADD MSTORE PUSH32 0x6B656E206F776E6572206F7220617070726F76656420666F7220616C6C000000 PUSH1 0x20 DUP3 ADD MSTORE POP JUMP JUMPDEST PUSH1 0x0 PUSH2 0x3884 PUSH1 0x3D DUP4 PUSH2 0x316C JUMP JUMPDEST SWAP2 POP PUSH2 0x388F DUP3 PUSH2 0x3828 JUMP JUMPDEST PUSH1 0x40 DUP3 ADD SWAP1 POP SWAP2 SWAP1 POP JUMP JUMPDEST PUSH1 0x0 PUSH1 0x20 DUP3 ADD SWAP1 POP DUP2 DUP2 SUB PUSH1 0x0 DUP4 ADD MSTORE PUSH2 0x38B3 DUP2 PUSH2 0x3877 JUMP JUMPDEST SWAP1 POP SWAP2 SWAP1 POP JUMP JUMPDEST PUSH32 0x4552433732313A2063616C6C6572206973206E6F7420746F6B656E206F776E65 PUSH1 0x0 DUP3 ADD MSTORE PUSH32 0x72206F7220617070726F76656400000000000000000000000000000000000000 PUSH1 0x20 DUP3 ADD MSTORE POP JUMP JUMPDEST PUSH1 0x0 PUSH2 0x3916 PUSH1 0x2D DUP4 PUSH2 0x316C JUMP JUMPDEST SWAP2 POP PUSH2 0x3921 DUP3 PUSH2 0x38BA JUMP JUMPDEST PUSH1 0x40 DUP3 ADD SWAP1 POP SWAP2 SWAP1 POP JUMP JUMPDEST PUSH1 0x0 PUSH1 0x20 DUP3 ADD SWAP1 POP DUP2 DUP2 SUB PUSH1 0x0 DUP4 ADD MSTORE PUSH2 0x3945 DUP2 PUSH2 0x3909 JUMP JUMPDEST SWAP1 POP SWAP2 SWAP1 POP JUMP JUMPDEST PUSH32 0x4552433732313A20696E76616C696420746F6B656E2049440000000000000000 PUSH1 0x0 DUP3 ADD MSTORE POP JUMP JUMPDEST PUSH1 0x0 PUSH2 0x3982 PUSH1 0x18 DUP4 PUSH2 0x316C JUMP JUMPDEST SWAP2 POP PUSH2 0x398D DUP3 PUSH2 0x394C JUMP JUMPDEST PUSH1 0x20 DUP3 ADD SWAP1 POP SWAP2 SWAP1 POP JUMP JUMPDEST PUSH1 0x0 PUSH1 0x20 DUP3 ADD SWAP1 POP DUP2 DUP2 SUB PUSH1 0x0 DUP4 ADD MSTORE PUSH2 0x39B1 DUP2 PUSH2 0x3975 JUMP JUMPDEST SWAP1 POP SWAP2 SWAP1 POP JUMP JUMPDEST PUSH32 0x4552433732313A2061646472657373207A65726F206973206E6F742061207661 PUSH1 0x0 DUP3 ADD MSTORE PUSH32 0x6C6964206F776E65720000000000000000000000000000000000000000000000 PUSH1 0x20 DUP3 ADD MSTORE POP JUMP JUMPDEST PUSH1 0x0 PUSH2 0x3A14 PUSH1 0x29 DUP4 PUSH2 0x316C JUMP JUMPDEST SWAP2 POP PUSH2 0x3A1F DUP3 PUSH2 0x39B8 JUMP JUMPDEST PUSH1 0x40 DUP3 ADD SWAP1 POP SWAP2 SWAP1 POP JUMP JUMPDEST PUSH1 0x0 PUSH1 0x20 DUP3 ADD SWAP1 POP DUP2 DUP2 SUB PUSH1 0x0 DUP4 ADD MSTORE PUSH2 0x3A43 DUP2 PUSH2 0x3A07 JUMP JUMPDEST SWAP1 POP SWAP2 SWAP1 POP JUMP JUMPDEST PUSH32 0x4E6674436F6C6C656374696F6E203A2063616C6C6572206973206E6F74207468 PUSH1 0x0 DUP3 ADD MSTORE PUSH32 0x65206F776E657200000000000000000000000000000000000000000000000000 PUSH1 0x20 DUP3 ADD MSTORE POP JUMP JUMPDEST PUSH1 0x0 PUSH2 0x3AA6 PUSH1 0x27 DUP4 PUSH2 0x316C JUMP JUMPDEST SWAP2 POP PUSH2 0x3AB1 DUP3 PUSH2 0x3A4A JUMP JUMPDEST PUSH1 0x40 DUP3 ADD SWAP1 POP SWAP2 SWAP1 POP JUMP JUMPDEST PUSH1 0x0 PUSH1 0x20 DUP3 ADD SWAP1 POP DUP2 DUP2 SUB PUSH1 0x0 DUP4 ADD MSTORE PUSH2 0x3AD5 DUP2 PUSH2 0x3A99 JUMP JUMPDEST SWAP1 POP SWAP2 SWAP1 POP JUMP JUMPDEST PUSH32 0x4E487B7100000000000000000000000000000000000000000000000000000000 PUSH1 0x0 MSTORE PUSH1 0x11 PUSH1 0x4 MSTORE PUSH1 0x24 PUSH1 0x0 REVERT JUMPDEST PUSH1 0x0 PUSH2 0x3B16 DUP3 PUSH2 0x3213 JUMP JUMPDEST SWAP2 POP PUSH2 0x3B21 DUP4 PUSH2 0x3213 JUMP JUMPDEST SWAP3 POP DUP3 DUP3 ADD SWAP1 POP DUP1 DUP3 GT ISZERO PUSH2 0x3B39 JUMPI PUSH2 0x3B38 PUSH2 0x3ADC JUMP JUMPDEST JUMPDEST SWAP3 SWAP2 POP POP JUMP JUMPDEST PUSH1 0x0 PUSH2 0x3B4A DUP3 PUSH2 0x3213 JUMP JUMPDEST SWAP2 POP PUSH32 0xFFFFFFFFFFFFFFFFFFFFFFFFFFFFFFFFFFFFFFFFFFFFFFFFFFFFFFFFFFFFFFFF DUP3 SUB PUSH2 0x3B7C JUMPI PUSH2 0x3B7B PUSH2 0x3ADC JUMP JUMPDEST JUMPDEST PUSH1 0x1 DUP3 ADD SWAP1 POP SWAP2 SWAP1 POP JUMP JUMPDEST PUSH1 0x0 DUP2 SWAP1 POP SWAP3 SWAP2 POP POP JUMP JUMPDEST PUSH1 0x0 PUSH2 0x3B9D DUP3 PUSH2 0x3161 JUMP JUMPDEST PUSH2 0x3BA7 DUP2 DUP6 PUSH2 0x3B87 JUMP JUMPDEST SWAP4 POP PUSH2 0x3BB7 DUP2 DUP6 PUSH1 0x20 DUP7 ADD PUSH2 0x317D JUMP JUMPDEST DUP1 DUP5 ADD SWAP2 POP POP SWAP3 SWAP2 POP POP JUMP JUMPDEST PUSH1 0x0 PUSH2 0x3BCF DUP3 DUP6 PUSH2 0x3B92 JUMP JUMPDEST SWAP2 POP PUSH2 0x3BDB DUP3 DUP5 PUSH2 0x3B92 JUMP JUMPDEST SWAP2 POP DUP2 SWAP1 POP SWAP4 SWAP3 POP POP POP JUMP JUMPDEST PUSH32 0x4F776E61626C653A206E6577206F776E657220697320746865207A65726F2061 PUSH1 0x0 DUP3 ADD MSTORE PUSH32 0x6464726573730000000000000000000000000000000000000000000000000000 PUSH1 0x20 DUP3 ADD MSTORE POP JUMP JUMPDEST PUSH1 0x0 PUSH2 0x3C43 PUSH1 0x26 DUP4 PUSH2 0x316C JUMP JUMPDEST SWAP2 POP PUSH2 0x3C4E DUP3 PUSH2 0x3BE7 JUMP JUMPDEST PUSH1 0x40 DUP3 ADD SWAP1 POP SWAP2 SWAP1 POP JUMP JUMPDEST PUSH1 0x0 PUSH1 0x20 DUP3 ADD SWAP1 POP DUP2 DUP2 SUB PUSH1 0x0 DUP4 ADD MSTORE PUSH2 0x3C72 DUP2 PUSH2 0x3C36 JUMP JUMPDEST SWAP1 POP SWAP2 SWAP1 POP JUMP JUMPDEST PUSH32 0x4552433732313A207472616E736665722066726F6D20696E636F727265637420 PUSH1 0x0 DUP3 ADD MSTORE PUSH32 0x6F776E6572000000000000000000000000000000000000000000000000000000 PUSH1 0x20 DUP3 ADD MSTORE POP JUMP JUMPDEST PUSH1 0x0 PUSH2 0x3CD5 PUSH1 0x25 DUP4 PUSH2 0x316C JUMP JUMPDEST SWAP2 POP PUSH2 0x3CE0 DUP3 PUSH2 0x3C79 JUMP JUMPDEST PUSH1 0x40 DUP3 ADD SWAP1 POP SWAP2 SWAP1 POP JUMP JUMPDEST PUSH1 0x0 PUSH1 0x20 DUP3 ADD SWAP1 POP DUP2 DUP2 SUB PUSH1 0x0 DUP4 ADD MSTORE PUSH2 0x3D04 DUP2 PUSH2 0x3CC8 JUMP JUMPDEST SWAP1 POP SWAP2 SWAP1 POP JUMP JUMPDEST PUSH32 0x4552433732313A207472616E7366657220746F20746865207A65726F20616464 PUSH1 0x0 DUP3 ADD MSTORE PUSH32 0x7265737300000000000000000000000000000000000000000000000000000000 PUSH1 0x20 DUP3 ADD MSTORE POP JUMP JUMPDEST PUSH1 0x0 PUSH2 0x3D67 PUSH1 0x24 DUP4 PUSH2 0x316C JUMP JUMPDEST SWAP2 POP PUSH2 0x3D72 DUP3 PUSH2 0x3D0B JUMP JUMPDEST PUSH1 0x40 DUP3 ADD SWAP1 POP SWAP2 SWAP1 POP JUMP JUMPDEST PUSH1 0x0 PUSH1 0x20 DUP3 ADD SWAP1 POP DUP2 DUP2 SUB PUSH1 0x0 DUP4 ADD MSTORE PUSH2 0x3D96 DUP2 PUSH2 0x3D5A JUMP JUMPDEST SWAP1 POP SWAP2 SWAP1 POP JUMP JUMPDEST PUSH32 0x4F776E61626C653A2063616C6C6572206973206E6F7420746865206F776E6572 PUSH1 0x0 DUP3 ADD MSTORE POP JUMP JUMPDEST PUSH1 0x0 PUSH2 0x3DD3 PUSH1 0x20 DUP4 PUSH2 0x316C JUMP JUMPDEST SWAP2 POP PUSH2 0x3DDE DUP3 PUSH2 0x3D9D JUMP JUMPDEST PUSH1 0x20 DUP3 ADD SWAP1 POP SWAP2 SWAP1 POP JUMP JUMPDEST PUSH1 0x0 PUSH1 0x20 DUP3 ADD SWAP1 POP DUP2 DUP2 SUB PUSH1 0x0 DUP4 ADD MSTORE PUSH2 0x3E02 DUP2 PUSH2 0x3DC6 JUMP JUMPDEST SWAP1 POP SWAP2 SWAP1 POP JUMP JUMPDEST PUSH32 0x4552433732313A20617070726F766520746F2063616C6C657200000000000000 PUSH1 0x0 DUP3 ADD MSTORE POP JUMP JUMPDEST PUSH1 0x0 PUSH2 0x3E3F PUSH1 0x19 DUP4 PUSH2 0x316C JUMP JUMPDEST SWAP2 POP PUSH2 0x3E4A DUP3 PUSH2 0x3E09 JUMP JUMPDEST PUSH1 0x20 DUP3 ADD SWAP1 POP SWAP2 SWAP1 POP JUMP JUMPDEST PUSH1 0x0 PUSH1 0x20 DUP3 ADD SWAP1 POP DUP2 DUP2 SUB PUSH1 0x0 DUP4 ADD MSTORE PUSH2 0x3E6E DUP2 PUSH2 0x3E32 JUMP JUMPDEST SWAP1 POP SWAP2 SWAP1 POP JUMP JUMPDEST PUSH32 0x4552433732313A207472616E7366657220746F206E6F6E204552433732315265 PUSH1 0x0 DUP3 ADD MSTORE PUSH32 0x63656976657220696D706C656D656E7465720000000000000000000000000000 PUSH1 0x20 DUP3 ADD MSTORE POP JUMP JUMPDEST PUSH1 0x0 PUSH2 0x3ED1 PUSH1 0x32 DUP4 PUSH2 0x316C JUMP JUMPDEST SWAP2 POP PUSH2 0x3EDC DUP3 PUSH2 0x3E75 JUMP JUMPDEST PUSH1 0x40 DUP3 ADD SWAP1 POP SWAP2 SWAP1 POP JUMP JUMPDEST PUSH1 0x0 PUSH1 0x20 DUP3 ADD SWAP1 POP DUP2 DUP2 SUB PUSH1 0x0 DUP4 ADD MSTORE PUSH2 0x3F00 DUP2 PUSH2 0x3EC4 JUMP JUMPDEST SWAP1 POP SWAP2 SWAP1 POP JUMP JUMPDEST PUSH32 0x4552433732313A206D696E7420746F20746865207A65726F2061646472657373 PUSH1 0x0 DUP3 ADD MSTORE POP JUMP JUMPDEST PUSH1 0x0 PUSH2 0x3F3D PUSH1 0x20 DUP4 PUSH2 0x316C JUMP JUMPDEST SWAP2 POP PUSH2 0x3F48 DUP3 PUSH2 0x3F07 JUMP JUMPDEST PUSH1 0x20 DUP3 ADD SWAP1 POP SWAP2 SWAP1 POP JUMP JUMPDEST PUSH1 0x0 PUSH1 0x20 DUP3 ADD SWAP1 POP DUP2 DUP2 SUB PUSH1 0x0 DUP4 ADD MSTORE PUSH2 0x3F6C DUP2 PUSH2 0x3F30 JUMP JUMPDEST SWAP1 POP SWAP2 SWAP1 POP JUMP JUMPDEST PUSH32 0x4552433732313A20746F6B656E20616C7265616479206D696E74656400000000 PUSH1 0x0 DUP3 ADD MSTORE POP JUMP JUMPDEST PUSH1 0x0 PUSH2 0x3FA9 PUSH1 0x1C DUP4 PUSH2 0x316C JUMP JUMPDEST SWAP2 POP PUSH2 0x3FB4 DUP3 PUSH2 0x3F73 JUMP JUMPDEST PUSH1 0x20 DUP3 ADD SWAP1 POP SWAP2 SWAP1 POP JUMP JUMPDEST PUSH1 0x0 PUSH1 0x20 DUP3 ADD SWAP1 POP DUP2 DUP2 SUB PUSH1 0x0 DUP4 ADD MSTORE PUSH2 0x3FD8 DUP2 PUSH2 0x3F9C JUMP JUMPDEST SWAP1 POP SWAP2 SWAP1 POP JUMP JUMPDEST PUSH32 0x45524337323155524953746F726167653A2055524920736574206F66206E6F6E PUSH1 0x0 DUP3 ADD MSTORE PUSH32 0x6578697374656E7420746F6B656E000000000000000000000000000000000000 PUSH1 0x20 DUP3 ADD MSTORE POP JUMP JUMPDEST PUSH1 0x0 PUSH2 0x403B PUSH1 0x2E DUP4 PUSH2 0x316C JUMP JUMPDEST SWAP2 POP PUSH2 0x4046 DUP3 PUSH2 0x3FDF JUMP JUMPDEST PUSH1 0x40 DUP3 ADD SWAP1 POP SWAP2 SWAP1 POP JUMP JUMPDEST PUSH1 0x0 PUSH1 0x20 DUP3 ADD SWAP1 POP DUP2 DUP2 SUB PUSH1 0x0 DUP4 ADD MSTORE PUSH2 0x406A DUP2 PUSH2 0x402E JUMP JUMPDEST SWAP1 POP SWAP2 SWAP1 POP JUMP JUMPDEST PUSH1 0x0 DUP2 SWAP1 POP DUP2 PUSH1 0x0 MSTORE PUSH1 0x20 PUSH1 0x0 KECCAK256 SWAP1 POP SWAP2 SWAP1 POP JUMP JUMPDEST PUSH1 0x0 PUSH1 0x20 PUSH1 0x1F DUP4 ADD DIV SWAP1 POP SWAP2 SWAP1 POP JUMP JUMPDEST PUSH1 0x0 DUP3 DUP3 SHL SWAP1 POP SWAP3 SWAP2 POP POP JUMP JUMPDEST PUSH1 0x0 PUSH1 0x8 DUP4 MUL PUSH2 0x40D3 PUSH32 0xFFFFFFFFFFFFFFFFFFFFFFFFFFFFFFFFFFFFFFFFFFFFFFFFFFFFFFFFFFFFFFFF DUP3 PUSH2 0x4096 JUMP JUMPDEST PUSH2 0x40DD DUP7 DUP4 PUSH2 0x4096 JUMP JUMPDEST SWAP6 POP DUP1 NOT DUP5 AND SWAP4 POP DUP1 DUP7 AND DUP5 OR SWAP3 POP POP POP SWAP4 SWAP3 POP POP POP JUMP JUMPDEST PUSH1 0x0 DUP2 SWAP1 POP SWAP2 SWAP1 POP JUMP JUMPDEST PUSH1 0x0 PUSH2 0x411A PUSH2 0x4115 PUSH2 0x4110 DUP5 PUSH2 0x3213 JUMP JUMPDEST PUSH2 0x40F5 JUMP JUMPDEST PUSH2 0x3213 JUMP JUMPDEST SWAP1 POP SWAP2 SWAP1 POP JUMP JUMPDEST PUSH1 0x0 DUP2 SWAP1 POP SWAP2 SWAP1 POP JUMP JUMPDEST PUSH2 0x4134 DUP4 PUSH2 0x40FF JUMP JUMPDEST PUSH2 0x4148 PUSH2 0x4140 DUP3 PUSH2 0x4121 JUMP JUMPDEST DUP5 DUP5 SLOAD PUSH2 0x40A3 JUMP JUMPDEST DUP3 SSTORE POP POP POP POP JUMP JUMPDEST PUSH1 0x0 SWAP1 JUMP JUMPDEST PUSH2 0x415D PUSH2 0x4150 JUMP JUMPDEST PUSH2 0x4168 DUP2 DUP5 DUP5 PUSH2 0x412B JUMP JUMPDEST POP POP POP JUMP JUMPDEST JUMPDEST DUP2 DUP2 LT ISZERO PUSH2 0x418C JUMPI PUSH2 0x4181 PUSH1 0x0 DUP3 PUSH2 0x4155 JUMP JUMPDEST PUSH1 0x1 DUP2 ADD SWAP1 POP PUSH2 0x416E JUMP JUMPDEST POP POP JUMP JUMPDEST PUSH1 0x1F DUP3 GT ISZERO PUSH2 0x41D1 JUMPI PUSH2 0x41A2 DUP2 PUSH2 0x4071 JUMP JUMPDEST PUSH2 0x41AB DUP5 PUSH2 0x4086 JUMP JUMPDEST DUP2 ADD PUSH1 0x20 DUP6 LT ISZERO PUSH2 0x41BA JUMPI DUP2 SWAP1 POP JUMPDEST PUSH2 0x41CE PUSH2 0x41C6 DUP6 PUSH2 0x4086 JUMP JUMPDEST DUP4 ADD DUP3 PUSH2 0x416D JUMP JUMPDEST POP POP JUMPDEST POP POP POP JUMP JUMPDEST PUSH1 0x0 DUP3 DUP3 SHR SWAP1 POP SWAP3 SWAP2 POP POP JUMP JUMPDEST PUSH1 0x0 PUSH2 0x41F4 PUSH1 0x0 NOT DUP5 PUSH1 0x8 MUL PUSH2 0x41D6 JUMP JUMPDEST NOT DUP1 DUP4 AND SWAP2 POP POP SWAP3 SWAP2 POP POP JUMP JUMPDEST PUSH1 0x0 PUSH2 0x420D DUP4 DUP4 PUSH2 0x41E3 JUMP JUMPDEST SWAP2 POP DUP3 PUSH1 0x2 MUL DUP3 OR SWAP1 POP SWAP3 SWAP2 POP POP JUMP JUMPDEST PUSH2 0x4226 DUP3 PUSH2 0x3161 JUMP JUMPDEST PUSH8 0xFFFFFFFFFFFFFFFF DUP2 GT ISZERO PUSH2 0x423F JUMPI PUSH2 0x423E PUSH2 0x345E JUMP JUMPDEST JUMPDEST PUSH2 0x4249 DUP3 SLOAD PUSH2 0x3765 JUMP JUMPDEST PUSH2 0x4254 DUP3 DUP3 DUP6 PUSH2 0x4190 JUMP JUMPDEST PUSH1 0x0 PUSH1 0x20 SWAP1 POP PUSH1 0x1F DUP4 GT PUSH1 0x1 DUP2 EQ PUSH2 0x4287 JUMPI PUSH1 0x0 DUP5 ISZERO PUSH2 0x4275 JUMPI DUP3 DUP8 ADD MLOAD SWAP1 POP JUMPDEST PUSH2 0x427F DUP6 DUP3 PUSH2 0x4201 JUMP JUMPDEST DUP7 SSTORE POP PUSH2 0x42E7 JUMP JUMPDEST PUSH1 0x1F NOT DUP5 AND PUSH2 0x4295 DUP7 PUSH2 0x4071 JUMP JUMPDEST PUSH1 0x0 JUMPDEST DUP3 DUP2 LT ISZERO PUSH2 0x42BD JUMPI DUP5 DUP10 ADD MLOAD DUP3 SSTORE PUSH1 0x1 DUP3 ADD SWAP2 POP PUSH1 0x20 DUP6 ADD SWAP5 POP PUSH1 0x20 DUP2 ADD SWAP1 POP PUSH2 0x4298 JUMP JUMPDEST DUP7 DUP4 LT ISZERO PUSH2 0x42DA JUMPI DUP5 DUP10 ADD MLOAD PUSH2 0x42D6 PUSH1 0x1F DUP10 AND DUP3 PUSH2 0x41E3 JUMP JUMPDEST DUP4 SSTORE POP JUMPDEST PUSH1 0x1 PUSH1 0x2 DUP9 MUL ADD DUP9 SSTORE POP POP POP JUMPDEST POP POP POP POP POP POP JUMP JUMPDEST PUSH1 0x0 PUSH2 0x42FA DUP3 PUSH2 0x3213 JUMP JUMPDEST SWAP2 POP PUSH2 0x4305 DUP4 PUSH2 0x3213 JUMP JUMPDEST SWAP3 POP DUP3 DUP3 SUB SWAP1 POP DUP2 DUP2 GT ISZERO PUSH2 0x431D JUMPI PUSH2 0x431C PUSH2 0x3ADC JUMP JUMPDEST JUMPDEST SWAP3 SWAP2 POP POP JUMP JUMPDEST PUSH1 0x0 DUP2 MLOAD SWAP1 POP SWAP2 SWAP1 POP JUMP JUMPDEST PUSH1 0x0 DUP3 DUP3 MSTORE PUSH1 0x20 DUP3 ADD SWAP1 POP SWAP3 SWAP2 POP POP JUMP JUMPDEST PUSH1 0x0 PUSH2 0x434A DUP3 PUSH2 0x4323 JUMP JUMPDEST PUSH2 0x4354 DUP2 DUP6 PUSH2 0x432E JUMP JUMPDEST SWAP4 POP PUSH2 0x4364 DUP2 DUP6 PUSH1 0x20 DUP7 ADD PUSH2 0x317D JUMP JUMPDEST PUSH2 0x436D DUP2 PUSH2 0x31A7 JUMP JUMPDEST DUP5 ADD SWAP2 POP POP SWAP3 SWAP2 POP POP JUMP JUMPDEST PUSH1 0x0 PUSH1 0x80 DUP3 ADD SWAP1 POP PUSH2 0x438D PUSH1 0x0 DUP4 ADD DUP8 PUSH2 0x32A8 JUMP JUMPDEST PUSH2 0x439A PUSH1 0x20 DUP4 ADD DUP7 PUSH2 0x32A8 JUMP JUMPDEST PUSH2 0x43A7 PUSH1 0x40 DUP4 ADD DUP6 PUSH2 0x33BE JUMP JUMPDEST DUP2 DUP2 SUB PUSH1 0x60 DUP4 ADD MSTORE PUSH2 0x43B9 DUP2 DUP5 PUSH2 0x433F JUMP JUMPDEST SWAP1 POP SWAP6 SWAP5 POP POP POP POP POP JUMP JUMPDEST PUSH1 0x0 DUP2 MLOAD SWAP1 POP PUSH2 0x43D3 DUP2 PUSH2 0x30D2 JUMP JUMPDEST SWAP3 SWAP2 POP POP JUMP JUMPDEST PUSH1 0x0 PUSH1 0x20 DUP3 DUP5 SUB SLT ISZERO PUSH2 0x43EF JUMPI PUSH2 0x43EE PUSH2 0x309C JUMP JUMPDEST JUMPDEST PUSH1 0x0 PUSH2 0x43FD DUP5 DUP3 DUP6 ADD PUSH2 0x43C4 JUMP JUMPDEST SWAP2 POP POP SWAP3 SWAP2 POP POP JUMP JUMPDEST PUSH32 0x4E487B7100000000000000000000000000000000000000000000000000000000 PUSH1 0x0 MSTORE PUSH1 0x12 PUSH1 0x4 MSTORE PUSH1 0x24 PUSH1 0x0 REVERT INVALID LOG2 PUSH5 0x6970667358 0x22 SLT KECCAK256 SUB 0xE1 0xD6 0x26 DUP2 0x4D SIGNEXTEND ADDRESS 0x4D 0xC8 STOP 0xC6 CALLVALUE 0xB2 0xE2 BALANCE DUP5 STOP 0xDC 0xFC 0xDE 0xDA 0xEA 0xBD SIGNEXTEND 0xE8 0xEB PUSH7 0x8994654564736F PUSH13 0x63430008110033A26469706673 PC 0x22 SLT KECCAK256 DUP3 DUP2 0xE6 0x22 0x4A PUSH23 0x17D8A8BCC43C5F73704E24DFAEDA5A4A131E1B0B7F90DD 0xD4 DUP16 CHAINID PUSH5 0x736F6C6343 STOP ADDMOD GT STOP CALLER "},"gasEstimates":{"creation":{"codeDepositCost":"6646000","executionCost":"infinite","totalCost":"infinite"},"external":{"BuyNFT(uint256)":"infinite","cancelListing(uint256)":"infinite","collectionDetails(string)":"infinite","collectionsSymbols(uint256)":"infinite","createNFT(string,address,string)":"infinite","createNFTCollection(string,string)":"infinite","listNFT(uint256,uint256)":"infinite","nbrCollections()":"2451","nbrNfts()":"2487","nfts(uint256)":"infinite"},"internal":{"c_7f5413a7(bytes8)":"11","c_false7f5413a7(bytes8)":"infinite","c_true7f5413a7(bytes8)":"infinite"}},"methodIdentifiers":{"BuyNFT(uint256)":"a37365e0","cancelListing(uint256)":"305a67a8","collectionDetails(string)":"cb576613","collectionsSymbols(uint256)":"e9faaa92","createNFT(string,address,string)":"7f3212eb","createNFTCollection(string,string)":"66223a18","listNFT(uint256,uint256)":"94383f14","nbrCollections()":"a38c9aa2","nbrNfts()":"bf1b6f5b","nfts(uint256)":"265aa621"}},"storageLayout":{"storage":[{"astId":123,"contract":"contracts/NftMarketplace.sol:NftMarketplace","label":"_status","offset":0,"slot":"0","type":"t_uint256"},{"astId":2084,"contract":"contracts/NftMarketplace.sol:NftMarketplace","label":"collectionsSymbols","offset":0,"slot":"1","type":"t_array(t_string_storage)dyn_storage"},{"astId":2086,"contract":"contracts/NftMarketplace.sol:NftMarketplace","label":"nbrCollections","offset":0,"slot":"2","type":"t_uint256"},{"astId":2098,"contract":"contracts/NftMarketplace.sol:NftMarketplace","label":"collectionDetails","offset":0,"slot":"3","type":"t_mapping(t_string_memory_ptr,t_struct(CollectionDetails)2093_storage)"},{"astId":2493,"contract":"contracts/NftMarketplace.sol:NftMarketplace","label":"nbrNfts","offset":0,"slot":"4","type":"t_struct(Counter)685_storage"},{"astId":2515,"contract":"contracts/NftMarketplace.sol:NftMarketplace","label":"nfts","offset":0,"slot":"5","type":"t_mapping(t_uint256,t_struct(Nft)2510_storage)"}],"types":{"t_address":{"encoding":"inplace","label":"address","numberOfBytes":"20"},"t_address_payable":{"encoding":"inplace","label":"address payable","numberOfBytes":"20"},"t_array(t_string_storage)dyn_storage":{"base":"t_string_storage","encoding":"dynamic_array","label":"string[]","numberOfBytes":"32"},"t_bool":{"encoding":"inplace","label":"bool","numberOfBytes":"1"},"t_mapping(t_string_memory_ptr,t_struct(CollectionDetails)2093_storage)":{"encoding":"mapping","key":"t_string_memory_ptr","label":"mapping(string => struct NftCollectionFactory.CollectionDetails)","numberOfBytes":"32","value":"t_struct(CollectionDetails)2093_storage"},"t_mapping(t_uint256,t_struct(Nft)2510_storage)":{"encoding":"mapping","key":"t_uint256","label":"mapping(uint256 => struct NftMarketplace.Nft)","numberOfBytes":"32","value":"t_struct(Nft)2510_storage"},"t_string_memory_ptr":{"encoding":"bytes","label":"string","numberOfBytes":"32"},"t_string_storage":{"encoding":"bytes","label":"string","numberOfBytes":"32"},"t_struct(CollectionDetails)2093_storage":{"encoding":"inplace","label":"struct NftCollectionFactory.CollectionDetails","members":[{"astId":2088,"contract":"contracts/NftMarketplace.sol:NftMarketplace","label":"name","offset":0,"slot":"0","type":"t_string_storage"},{"astId":2090,"contract":"contracts/NftMarketplace.sol:NftMarketplace","label":"symbol","offset":0,"slot":"1","type":"t_string_storage"},{"astId":2092,"contract":"contracts/NftMarketplace.sol:NftMarketplace","label":"collectionAddress","offset":0,"slot":"2","type":"t_address"}],"numberOfBytes":"96"},"t_struct(Counter)685_storage":{"encoding":"inplace","label":"struct Counters.Counter","members":[{"astId":684,"contract":"contracts/NftMarketplace.sol:NftMarketplace","label":"_value","offset":0,"slot":"0","type":"t_uint256"}],"numberOfBytes":"32"},"t_struct(Nft)2510_storage":{"encoding":"inplace","label":"struct NftMarketplace.Nft","members":[{"astId":2495,"contract":"contracts/NftMarketplace.sol:NftMarketplace","label":"itemId","offset":0,"slot":"0","type":"t_uint256"},{"astId":2497,"contract":"contracts/NftMarketplace.sol:NftMarketplace","label":"CollectionAddress","offset":0,"slot":"1","type":"t_address"},{"astId":2499,"contract":"contracts/NftMarketplace.sol:NftMarketplace","label":"tokenId","offset":0,"slot":"2","type":"t_uint256"},{"astId":2501,"contract":"contracts/NftMarketplace.sol:NftMarketplace","label":"price","offset":0,"slot":"3","type":"t_uint256"},{"astId":2503,"contract":"contracts/NftMarketplace.sol:NftMarketplace","label":"seller","offset":0,"slot":"4","type":"t_address_payable"},{"astId":2505,"contract":"contracts/NftMarketplace.sol:NftMarketplace","label":"listed","offset":20,"slot":"4","type":"t_bool"},{"astId":2507,"contract":"contracts/NftMarketplace.sol:NftMarketplace","label":"URI","offset":0,"slot":"5","type":"t_string_storage"},{"astId":2509,"contract":"contracts/NftMarketplace.sol:NftMarketplace","label":"symbol","offset":0,"slot":"6","type":"t_string_storage"}],"numberOfBytes":"224"},"t_uint256":{"encoding":"inplace","label":"uint256","numberOfBytes":"32"}}},"userdoc":{"kind":"user","methods":{"BuyNFT(uint256)":{"notice":"allows user to buy an nft"},"cancelListing(uint256)":{"notice":"allows user to cancel listing of one of his listed NFT"},"createNFT(string,address,string)":{"notice":"creates an NFT in an existing collection"},"createNFTCollection(string,string)":{"notice":"creates the ERC-721 Collection contract address so he can mints NFTs in it afterwards"},"listNFT(uint256,uint256)":{"notice":"allow user to list an existing NFT on the marketplace and set it a price"}},"version":1}}}}